Component: ARM Compiler 5.06 update 3 (build 300) Tool: armlink [4d35c9]

==============================================================================

Section Cross References

    startup_stm32f746xx.o(STACK) refers (Special) to heapauxi.o(.text) for __use_two_region_memory
    startup_stm32f746xx.o(HEAP) refers (Special) to heapauxi.o(.text) for __use_two_region_memory
    startup_stm32f746xx.o(RESET) refers (Special) to heapauxi.o(.text) for __use_two_region_memory
    startup_stm32f746xx.o(RESET) refers to startup_stm32f746xx.o(STACK) for __initial_sp
    startup_stm32f746xx.o(RESET) refers to startup_stm32f746xx.o(.text) for Reset_Handler
    startup_stm32f746xx.o(RESET) refers to stm32f7xx_it.o(i.NMI_Handler) for NMI_Handler
    startup_stm32f746xx.o(RESET) refers to stm32f7xx_it.o(i.HardFault_Handler) for HardFault_Handler
    startup_stm32f746xx.o(RESET) refers to stm32f7xx_it.o(i.MemManage_Handler) for MemManage_Handler
    startup_stm32f746xx.o(RESET) refers to stm32f7xx_it.o(i.BusFault_Handler) for BusFault_Handler
    startup_stm32f746xx.o(RESET) refers to stm32f7xx_it.o(i.UsageFault_Handler) for UsageFault_Handler
    startup_stm32f746xx.o(RESET) refers to port.o(.emb_text) for SVC_Handler
    startup_stm32f746xx.o(RESET) refers to stm32f7xx_it.o(i.DebugMon_Handler) for DebugMon_Handler
    startup_stm32f746xx.o(RESET) refers to stm32f7xx_it.o(i.SysTick_Handler) for SysTick_Handler
    startup_stm32f746xx.o(RESET) refers to stm32f7xx_it.o(i.ETH_IRQHandler) for ETH_IRQHandler
    startup_stm32f746xx.o(.text) refers (Special) to heapauxi.o(.text) for __use_two_region_memory
    startup_stm32f746xx.o(.text) refers to system_stm32f7xx.o(i.SystemInit) for SystemInit
    startup_stm32f746xx.o(.text) refers to __main.o(!!!main) for __main
    startup_stm32f746xx.o(.text) refers to startup_stm32f746xx.o(HEAP) for Heap_Mem
==============================================================================

Removing Unused input sections from the image.

    Removing tcpecho.o(.rev16_text), (4 bytes).
    Removing tcpecho.o(.revsh_text), (4 bytes).
    Removing tcpecho.o(.rrx_text), (6 bytes).
    Removing tcpecho.o(i.get_object_lwip), (20 bytes).
    Removing tcpecho.o(i.get_tag_empty), (12 bytes).
    Removing tcpecho.o(i.set_tag_empty), (12 bytes).
    Removing tcpecho.o(.constdata), (4 bytes).
    Removing tcpecho.o(.data), (4 bytes).
    Removing cmd_process.o(.rev16_text), (4 bytes).
    Removing cmd_process.o(.revsh_text), (4 bytes).
    Removing cmd_process.o(.rrx_text), (6 bytes).
    Removing cmd_process.o(i.clear_identity_client), (40 bytes).
    Removing main.o(.rev16_text), (4 bytes).
    Removing main.o(.revsh_text), (4 bytes).
    Removing main.o(.rrx_text), (6 bytes).
    Removing freertos.o(.rev16_text), (4 bytes).
    Removing freertos.o(.revsh_text), (4 bytes).
    Removing freertos.o(.rrx_text), (6 bytes).
==============================================================================

Image Symbol Table

    Local Symbols

    Symbol Name                              Value     Ov Type        Size  Object(Section)

    ../Core/Src/freertos.c                   0x00000000   Number         0  freertos.o ABSOLUTE
    ../Core/Src/main.c                       0x00000000   Number         0  main.o ABSOLUTE
    ../Core/Src/stm32f7xx_hal_msp.c          0x00000000   Number         0  stm32f7xx_hal_msp.o ABSOLUTE
    ../Core/Src/stm32f7xx_it.c               0x00000000   Number         0  stm32f7xx_it.o ABSOLUTE
    ../Core/Src/system_stm32f7xx.c           0x00000000   Number         0  system_stm32f7xx.o ABSOLUTE
    ../Drivers/BSP/Components/lan8742/lan8742.c 0x00000000   Number         0  lan8742.o ABSOLUTE
    ../Drivers/STM32F7xx_HAL_Driver/Src/stm32f7xx_hal.c 0x00000000   Number         0  stm32f7xx_hal.o ABSOLUTE
    ../Drivers/STM32F7xx_HAL_Driver/Src/stm32f7xx_hal_cortex.c 0x00000000   Number         0  stm32f7xx_hal_cortex.o ABSOLUTE
    ../Drivers/STM32F7xx_HAL_Driver/Src/stm32f7xx_hal_dma.c 0x00000000   Number         0  stm32f7xx_hal_dma.o ABSOLUTE
    ../Drivers/STM32F7xx_HAL_Driver/Src/stm32f7xx_hal_dma_ex.c 0x00000000   Number         0  stm32f7xx_hal_dma_ex.o ABSOLUTE
    ../Drivers/STM32F7xx_HAL_Driver/Src/stm32f7xx_hal_eth.c 0x00000000   Number         0  stm32f7xx_hal_eth.o ABSOLUTE
    ../Drivers/STM32F7xx_HAL_Driver/Src/stm32f7xx_hal_exti.c 0x00000000   Number         0  stm32f7xx_hal_exti.o ABSOLUTE
    ../Drivers/STM32F7xx_HAL_Driver/Src/stm32f7xx_hal_flash.c 0x00000000   Number         0  stm32f7xx_hal_flash.o ABSOLUTE
    ../Drivers/STM32F7xx_HAL_Driver/Src/stm32f7xx_hal_flash_ex.c 0x00000000   Number         0  stm32f7xx_hal_flash_ex.o ABSOLUTE
    ../Drivers/STM32F7xx_HAL_Driver/Src/stm32f7xx_hal_gpio.c 0x00000000   Number         0  stm32f7xx_hal_gpio.o ABSOLUTE
    ../Drivers/STM32F7xx_HAL_Driver/Src/stm32f7xx_hal_i2c.c 0x00000000   Number         0  stm32f7xx_hal_i2c.o ABSOLUTE
    ../Drivers/STM32F7xx_HAL_Driver/Src/stm32f7xx_hal_i2c_ex.c 0x00000000   Number         0  stm32f7xx_hal_i2c_ex.o ABSOLUTE
    ../Drivers/STM32F7xx_HAL_Driver/Src/stm32f7xx_hal_pwr.c 0x00000000   Number         0  stm32f7xx_hal_pwr.o ABSOLUTE
    ../Drivers/STM32F7xx_HAL_Driver/Src/stm32f7xx_hal_pwr_ex.c 0x00000000   Number         0  stm32f7xx_hal_pwr_ex.o ABSOLUTE
    ../Drivers/STM32F7xx_HAL_Driver/Src/stm32f7xx_hal_rcc.c 0x00000000   Number         0  stm32f7xx_hal_rcc.o ABSOLUTE
    ../Drivers/STM32F7xx_HAL_Driver/Src/stm32f7xx_hal_rcc_ex.c 0x00000000   Number         0  stm32f7xx_hal_rcc_ex.o ABSOLUTE
    ../Drivers/STM32F7xx_HAL_Driver/Src/stm32f7xx_hal_tim.c 0x00000000   Number         0  stm32f7xx_hal_tim.o ABSOLUTE
    ../Drivers/STM32F7xx_HAL_Driver/Src/stm32f7xx_hal_tim_ex.c 0x00000000   Number         0  stm32f7xx_hal_tim_ex.o ABSOLUTE
    ../LWIP/App/lwip.c                       0x00000000   Number         0  lwip.o ABSOLUTE
    ../LWIP/Target/ethernetif.c              0x00000000   Number         0  ethernetif.o ABSOLUTE
    ../Middlewares/Third_Party/FreeRTOS/Source/CMSIS_RTOS/cmsis_os.c 0x00000000   Number         0  cmsis_os.o ABSOLUTE
    ../Middlewares/Third_Party/FreeRTOS/Source/croutine.c 0x00000000   Number         0  croutine.o ABSOLUTE
    ../Middlewares/Third_Party/FreeRTOS/Source/event_groups.c 0x00000000   Number         0  event_groups.o ABSOLUTE
    ../Middlewares/Third_Party/FreeRTOS/Source/list.c 0x00000000   Number         0  list.o ABSOLUTE
    ../Middlewares/Third_Party/FreeRTOS/Source/portable/MemMang/heap_4.c 0x00000000   Number         0  heap_4.o ABSOLUTE
    ../Middlewares/Third_Party/FreeRTOS/Source/portable/RVDS/ARM_CM7/r0p1/port.c 0x00000000   Number         0  port.o ABSOLUTE
    ../Middlewares/Third_Party/FreeRTOS/Source/queue.c 0x00000000   Number         0  queue.o ABSOLUTE
    ../Middlewares/Third_Party/FreeRTOS/Source/stream_buffer.c 0x00000000   Number         0  stream_buffer.o ABSOLUTE
    ../Middlewares/Third_Party/FreeRTOS/Source/tasks.c 0x00000000   Number         0  tasks.o ABSOLUTE
    ../Middlewares/Third_Party/FreeRTOS/Source/timers.c 0x00000000   Number         0  timers.o ABSOLUTE
    ../Middlewares/Third_Party/LwIP/src/api/api_lib.c 0x00000000   Number         0  api_lib.o ABSOLUTE
    ../Middlewares/Third_Party/LwIP/src/api/api_msg.c 0x00000000   Number         0  api_msg.o ABSOLUTE
    ../Middlewares/Third_Party/LwIP/src/api/err.c 0x00000000   Number         0  err.o ABSOLUTE
    ../Middlewares/Third_Party/LwIP/src/api/if_api.c 0x00000000   Number         0  if_api.o ABSOLUTE
    ../Middlewares/Third_Party/LwIP/src/api/netbuf.c 0x00000000   Number         0  netbuf.o ABSOLUTE
    ../Middlewares/Third_Party/LwIP/src/api/netdb.c 0x00000000   Number         0  netdb.o ABSOLUTE
    ../Middlewares/Third_Party/LwIP/src/api/netifapi.c 0x00000000   Number         0  netifapi.o ABSOLUTE
    ../Middlewares/Third_Party/LwIP/src/api/sockets.c 0x00000000   Number         0  sockets.o ABSOLUTE
    ../Middlewares/Third_Party/LwIP/src/api/tcpip.c 0x00000000   Number         0  tcpip.o ABSOLUTE
    ../Middlewares/Third_Party/LwIP/src/apps/mqtt/mqtt.c 0x00000000   Number         0  mqtt.o ABSOLUTE
    ../Middlewares/Third_Party/LwIP/src/core/altcp.c 0x00000000   Number         0  altcp.o ABSOLUTE
    ../Middlewares/Third_Party/LwIP/src/core/altcp_alloc.c 0x00000000   Number         0  altcp_alloc.o ABSOLUTE
    ../Middlewares/Third_Party/LwIP/src/core/altcp_tcp.c 0x00000000   Number         0  altcp_tcp.o ABSOLUTE
    ../Middlewares/Third_Party/LwIP/src/core/def.c 0x00000000   Number         0  def.o ABSOLUTE
    ../Middlewares/Third_Party/LwIP/src/core/dns.c 0x00000000   Number         0  dns.o ABSOLUTE
    ../Middlewares/Third_Party/LwIP/src/core/inet_chksum.c 0x00000000   Number         0  inet_chksum.o ABSOLUTE
    ../Middlewares/Third_Party/LwIP/src/core/init.c 0x00000000   Number         0  init.o ABSOLUTE
    ../Middlewares/Third_Party/LwIP/src/core/ip.c 0x00000000   Number         0  ip.o ABSOLUTE
    ../Middlewares/Third_Party/LwIP/src/core/ipv4/autoip.c 0x00000000   Number         0  autoip.o ABSOLUTE
    ../Middlewares/Third_Party/LwIP/src/core/ipv4/dhcp.c 0x00000000   Number         0  dhcp.o ABSOLUTE
    ../Middlewares/Third_Party/LwIP/src/core/ipv4/etharp.c 0x00000000   Number         0  etharp.o ABSOLUTE
    ../Middlewares/Third_Party/LwIP/src/core/ipv4/icmp.c 0x00000000   Number         0  icmp.o ABSOLUTE
    ../Middlewares/Third_Party/LwIP/src/core/ipv4/igmp.c 0x00000000   Number         0  igmp.o ABSOLUTE
    ../Middlewares/Third_Party/LwIP/src/core/ipv4/ip4.c 0x00000000   Number         0  ip4.o ABSOLUTE
    ../Middlewares/Third_Party/LwIP/src/core/ipv4/ip4_addr.c 0x00000000   Number         0  ip4_addr.o ABSOLUTE
    ../Middlewares/Third_Party/LwIP/src/core/ipv4/ip4_frag.c 0x00000000   Number         0  ip4_frag.o ABSOLUTE
    ../Middlewares/Third_Party/LwIP/src/core/ipv6/dhcp6.c 0x00000000   Number         0  dhcp6.o ABSOLUTE
    ../Middlewares/Third_Party/LwIP/src/core/ipv6/ethip6.c 0x00000000   Number         0  ethip6.o ABSOLUTE
    ../Middlewares/Third_Party/LwIP/src/core/ipv6/icmp6.c 0x00000000   Number         0  icmp6.o ABSOLUTE
    ../Middlewares/Third_Party/LwIP/src/core/ipv6/inet6.c 0x00000000   Number         0  inet6.o ABSOLUTE
    ../Middlewares/Third_Party/LwIP/src/core/ipv6/ip6.c 0x00000000   Number         0  ip6.o ABSOLUTE
    ../Middlewares/Third_Party/LwIP/src/core/ipv6/ip6_addr.c 0x00000000   Number         0  ip6_addr.o ABSOLUTE
    ../Middlewares/Third_Party/LwIP/src/core/ipv6/ip6_frag.c 0x00000000   Number         0  ip6_frag.o ABSOLUTE
    ../Middlewares/Third_Party/LwIP/src/core/ipv6/mld6.c 0x00000000   Number         0  mld6.o ABSOLUTE
    ../Middlewares/Third_Party/LwIP/src/core/ipv6/nd6.c 0x00000000   Number         0  nd6.o ABSOLUTE
    ../Middlewares/Third_Party/LwIP/src/core/mem.c 0x00000000   Number         0  mem.o ABSOLUTE
    ../Middlewares/Third_Party/LwIP/src/core/memp.c 0x00000000   Number         0  memp.o ABSOLUTE
    ../Middlewares/Third_Party/LwIP/src/core/netif.c 0x00000000   Number         0  netif.o ABSOLUTE
    ../Middlewares/Third_Party/LwIP/src/core/pbuf.c 0x00000000   Number         0  pbuf.o ABSOLUTE
    ../Middlewares/Third_Party/LwIP/src/core/raw.c 0x00000000   Number         0  raw.o ABSOLUTE
    ../Middlewares/Third_Party/LwIP/src/core/stats.c 0x00000000   Number         0  stats.o ABSOLUTE
    ../Middlewares/Third_Party/LwIP/src/core/sys.c 0x00000000   Number         0  sys.o ABSOLUTE
    ../Middlewares/Third_Party/LwIP/src/core/tcp.c 0x00000000   Number         0  tcp.o ABSOLUTE
    ../Middlewares/Third_Party/LwIP/src/core/tcp_in.c 0x00000000   Number         0  tcp_in.o ABSOLUTE
    ../Middlewares/Third_Party/LwIP/src/core/tcp_out.c 0x00000000   Number         0  tcp_out.o ABSOLUTE
    ../Middlewares/Third_Party/LwIP/src/core/timeouts.c 0x00000000   Number         0  timeouts.o ABSOLUTE
    ../Middlewares/Third_Party/LwIP/src/core/udp.c 0x00000000   Number         0  udp.o ABSOLUTE
    ../Middlewares/Third_Party/LwIP/src/netif/bridgeif.c 0x00000000   Number         0  bridgeif.o ABSOLUTE
    ../Middlewares/Third_Party/LwIP/src/netif/bridgeif_fdb.c 0x00000000   Number         0  bridgeif_fdb.o ABSOLUTE
    ../Middlewares/Third_Party/LwIP/src/netif/ethernet.c 0x00000000   Number         0  ethernet.o ABSOLUTE
    ../Middlewares/Third_Party/LwIP/src/netif/lowpan6.c 0x00000000   Number         0  lowpan6.o ABSOLUTE
    ../Middlewares/Third_Party/LwIP/src/netif/lowpan6_ble.c 0x00000000   Number         0  lowpan6_ble.o ABSOLUTE
    ../Middlewares/Third_Party/LwIP/src/netif/lowpan6_common.c 0x00000000   Number         0  lowpan6_common.o ABSOLUTE
    ../Middlewares/Third_Party/LwIP/src/netif/ppp/auth.c 0x00000000   Number         0  auth.o ABSOLUTE
    ../Middlewares/Third_Party/LwIP/src/netif/ppp/ccp.c 0x00000000   Number         0  ccp.o ABSOLUTE
    ../Middlewares/Third_Party/LwIP/src/netif/ppp/chap-md5.c 0x00000000   Number         0  chap-md5.o ABSOLUTE
    ../Middlewares/Third_Party/LwIP/src/netif/ppp/chap-new.c 0x00000000   Number         0  chap-new.o ABSOLUTE
    ../Middlewares/Third_Party/LwIP/src/netif/ppp/chap_ms.c 0x00000000   Number         0  chap_ms.o ABSOLUTE
    ../Middlewares/Third_Party/LwIP/src/netif/ppp/demand.c 0x00000000   Number         0  demand.o ABSOLUTE
    ../Middlewares/Third_Party/LwIP/src/netif/ppp/eap.c 0x00000000   Number         0  eap.o ABSOLUTE
    ../Middlewares/Third_Party/LwIP/src/netif/ppp/ecp.c 0x00000000   Number         0  ecp.o ABSOLUTE
    ../Middlewares/Third_Party/LwIP/src/netif/ppp/eui64.c 0x00000000   Number         0  eui64.o ABSOLUTE
    ../Middlewares/Third_Party/LwIP/src/netif/ppp/fsm.c 0x00000000   Number         0  fsm.o ABSOLUTE
    ../Middlewares/Third_Party/LwIP/src/netif/ppp/ipcp.c 0x00000000   Number         0  ipcp.o ABSOLUTE
    ../Middlewares/Third_Party/LwIP/src/netif/ppp/ipv6cp.c 0x00000000   Number         0  ipv6cp.o ABSOLUTE
    ../Middlewares/Third_Party/LwIP/src/netif/ppp/lcp.c 0x00000000   Number         0  lcp.o ABSOLUTE
    ../Middlewares/Third_Party/LwIP/src/netif/ppp/magic.c 0x00000000   Number         0  magic.o ABSOLUTE
    ../Middlewares/Third_Party/LwIP/src/netif/ppp/mppe.c 0x00000000   Number         0  mppe.o ABSOLUTE
    ../Middlewares/Third_Party/LwIP/src/netif/ppp/multilink.c 0x00000000   Number         0  multilink.o ABSOLUTE
    ../Middlewares/Third_Party/LwIP/src/netif/ppp/ppp.c 0x00000000   Number         0  ppp.o ABSOLUTE
    ../Middlewares/Third_Party/LwIP/src/netif/ppp/pppapi.c 0x00000000   Number         0  pppapi.o ABSOLUTE
    ../Middlewares/Third_Party/LwIP/src/netif/ppp/pppcrypt.c 0x00000000   Number         0  pppcrypt.o ABSOLUTE
    ../Middlewares/Third_Party/LwIP/src/netif/ppp/pppoe.c 0x00000000   Number         0  pppoe.o ABSOLUTE
    ../Middlewares/Third_Party/LwIP/src/netif/ppp/pppol2tp.c 0x00000000   Number         0  pppol2tp.o ABSOLUTE
    ../Middlewares/Third_Party/LwIP/src/netif/ppp/pppos.c 0x00000000   Number         0  pppos.o ABSOLUTE
    ../Middlewares/Third_Party/LwIP/src/netif/ppp/upap.c 0x00000000   Number         0  upap.o ABSOLUTE
    ../Middlewares/Third_Party/LwIP/src/netif/ppp/utils.c 0x00000000   Number         0  utils.o ABSOLUTE
    ../Middlewares/Third_Party/LwIP/src/netif/ppp/vj.c 0x00000000   Number         0  vj.o ABSOLUTE
    ../Middlewares/Third_Party/LwIP/src/netif/slipif.c 0x00000000   Number         0  slipif.o ABSOLUTE
    ../Middlewares/Third_Party/LwIP/src/netif/zepif.c 0x00000000   Number         0  zepif.o ABSOLUTE
    ../Middlewares/Third_Party/LwIP/system/OS/sys_arch.c 0x00000000   Number         0  sys_arch.o ABSOLUTE
    ../clib/angel/boardlib.s                 0x00000000   Number         0  boardinit2.o ABSOLUTE
    ../clib/angel/boardlib.s                 0x00000000   Number         0  boardshut.o ABSOLUTE
    ../clib/angel/boardlib.s                 0x00000000   Number         0  boardinit1.o ABSOLUTE
    ../clib/angel/boardlib.s                 0x00000000   Number         0  boardinit3.o ABSOLUTE
    ../clib/angel/dczerorl2.s                0x00000000   Number         0  __dczerorl2.o ABSOLUTE
    ../clib/angel/handlers.s                 0x00000000   Number         0  __scatter_zi.o ABSOLUTE
    ../clib/angel/kernel.s                   0x00000000   Number         0  rtexit2.o ABSOLUTE
    ../clib/angel/kernel.s                   0x00000000   Number         0  __rtentry2.o ABSOLUTE
    ../clib/angel/kernel.s                   0x00000000   Number         0  __rtentry.o ABSOLUTE
    ../clib/angel/kernel.s                   0x00000000   Number         0  __rtentry4.o ABSOLUTE
    ../clib/angel/kernel.s                   0x00000000   Number         0  rtexit.o ABSOLUTE
    ../clib/angel/rt.s                       0x00000000   Number         0  rt_raise.o ABSOLUTE
    ../clib/angel/rt.s                       0x00000000   Number         0  rt_heap_descriptor.o ABSOLUTE
    ../clib/angel/rt.s                       0x00000000   Number         0  rt_heap_descriptor_intlibspace.o ABSOLUTE
    ../clib/angel/rt.s                       0x00000000   Number         0  rt_div0.o ABSOLUTE
    ../clib/angel/rt.s                       0x00000000   Number         0  rt_errno_addr_intlibspace.o ABSOLUTE
    ../clib/angel/rt.s                       0x00000000   Number         0  rt_errno_addr.o ABSOLUTE
    ../clib/angel/rt.s                       0x00000000   Number         0  rt_locale_intlibspace.o ABSOLUTE
    ../clib/angel/rt.s                       0x00000000   Number         0  rt_locale.o ABSOLUTE
    ../clib/angel/rt.s                       0x00000000   Number         0  aeabi_ldiv0_sigfpe.o ABSOLUTE
    ../clib/angel/rt.s                       0x00000000   Number         0  rt_ctype_table.o ABSOLUTE
    ../clib/angel/rt.s                       0x00000000   Number         0  aeabi_ldiv0.o ABSOLUTE
    ../clib/angel/scatter.s                  0x00000000   Number         0  __scatter.o ABSOLUTE
    ../clib/angel/startup.s                  0x00000000   Number         0  __main.o ABSOLUTE
    ../clib/angel/sys.s                      0x00000000   Number         0  mutex_dummy.o ABSOLUTE
    ../clib/angel/sys.s                      0x00000000   Number         0  libspace.o ABSOLUTE
    ../clib/angel/sys.s                      0x00000000   Number         0  sys_stackheap_outer.o ABSOLUTE
    ../clib/angel/sys.s                      0x00000000   Number         0  use_no_semi.o ABSOLUTE
    ../clib/angel/sys.s                      0x00000000   Number         0  indicate_semi.o ABSOLUTE
    ../clib/angel/sysapp.c                   0x00000000   Number         0  sys_exit.o ABSOLUTE
    ../clib/angel/sysapp.c                   0x00000000   Number         0  sys_wrch.o ABSOLUTE
    ../clib/angel/sysapp.c                   0x00000000   Number         0  sys_command.o ABSOLUTE
    ../clib/armsys.c                         0x00000000   Number         0  no_argv.o ABSOLUTE
    ../clib/armsys.c                         0x00000000   Number         0  _get_argv.o ABSOLUTE
    ../clib/armsys.c                         0x00000000   Number         0  argv_veneer.o ABSOLUTE
    ../clib/armsys.c                         0x00000000   Number         0  _get_argv_nomalloc.o ABSOLUTE
    ../clib/armsys.c                         0x00000000   Number         0  argv_veneer.o ABSOLUTE
    ../clib/assert.c                         0x00000000   Number         0  assert_stdio.o ABSOLUTE
    ../clib/heap1.c                          0x00000000   Number         0  h1_init.o ABSOLUTE
    ../clib/heap1.c                          0x00000000   Number         0  h1_free_mt.o ABSOLUTE
    ../clib/heap1.c                          0x00000000   Number         0  h1_alloc_mt.o ABSOLUTE
    ../clib/heap1.c                          0x00000000   Number         0  h1_init_mt.o ABSOLUTE
    ../clib/heap1.c                          0x00000000   Number         0  h1_extend_mt.o ABSOLUTE
    ../clib/heap1.c                          0x00000000   Number         0  h1_free.o ABSOLUTE
    ../clib/heap1.c                          0x00000000   Number         0  h1_final_mt.o ABSOLUTE
    ../clib/heap1.c                          0x00000000   Number         0  h1_extend.o ABSOLUTE
    ../clib/heap1.c                          0x00000000   Number         0  h1_final.o ABSOLUTE
    ../clib/heap1.c                          0x00000000   Number         0  h1_alloc.o ABSOLUTE
    ../clib/heap2.c                          0x00000000   Number         0  heap2mt.o ABSOLUTE
    ../clib/heap2.c                          0x00000000   Number         0  heap2.o ABSOLUTE
    ../clib/heap2.c                          0x00000000   Number         0  fdtree.o ABSOLUTE
    ../clib/heapalloc.c                      0x00000000   Number         0  term_alloc.o ABSOLUTE
    ../clib/heapalloc.c                      0x00000000   Number         0  heapstubs.o ABSOLUTE
    ../clib/heapalloc.c                      0x00000000   Number         0  maybetermalloc2.o ABSOLUTE
    ../clib/heapalloc.c                      0x00000000   Number         0  maybetermalloc2.o ABSOLUTE
    ../clib/heapalloc.c                      0x00000000   Number         0  maybetermalloc1.o ABSOLUTE
    ../clib/heapalloc.c                      0x00000000   Number         0  free.o ABSOLUTE
    ../clib/heapalloc.c                      0x00000000   Number         0  maybetermalloc1.o ABSOLUTE
    ../clib/heapalloc.c                      0x00000000   Number         0  hguard.o ABSOLUTE
    ../clib/heapalloc.c                      0x00000000   Number         0  hrguard.o ABSOLUTE
    ../clib/heapalloc.c                      0x00000000   Number         0  init_alloc.o ABSOLUTE
    ../clib/heapalloc.c                      0x00000000   Number         0  malloc.o ABSOLUTE
    ../clib/heapaux.c                        0x00000000   Number         0  heapauxa.o ABSOLUTE
    ../clib/heapaux.c                        0x00000000   Number         0  heapauxi.o ABSOLUTE
    ../clib/libinit.s                        0x00000000   Number         0  libinit.o ABSOLUTE
    ../clib/libinit.s                        0x00000000   Number         0  libshutdown2.o ABSOLUTE
    ../clib/libinit.s                        0x00000000   Number         0  libshutdown.o ABSOLUTE
    ../clib/libinit.s                        0x00000000   Number         0  libinit2.o ABSOLUTE
    ../clib/locale.s                         0x00000000   Number         0  lc_ctype_c.o ABSOLUTE
    ../clib/longlong.s                       0x00000000   Number         0  lludivv7m.o ABSOLUTE
    ../clib/memcpset.s                       0x00000000   Number         0  rt_memmove_w.o ABSOLUTE
    ../clib/memcpset.s                       0x00000000   Number         0  strcmpv7m_pel.o ABSOLUTE
    ../clib/memcpset.s                       0x00000000   Number         0  rt_memclr_w.o ABSOLUTE
    ../clib/memcpset.s                       0x00000000   Number         0  rt_memclr.o ABSOLUTE
    ../clib/memcpset.s                       0x00000000   Number         0  memset.o ABSOLUTE
    ../clib/memcpset.s                       0x00000000   Number         0  rt_memcpy_w.o ABSOLUTE
    ../clib/memcpset.s                       0x00000000   Number         0  rt_memmove_v6.o ABSOLUTE
    ../clib/memcpset.s                       0x00000000   Number         0  rt_memcpy_v6.o ABSOLUTE
    ../clib/printf.c                         0x00000000   Number         0  _printf_char.o ABSOLUTE
    ../clib/printf.c                         0x00000000   Number         0  _printf_char_file.o ABSOLUTE
    ../clib/printf.c                         0x00000000   Number         0  _printf_char_file_locked.o ABSOLUTE
    ../clib/printf.c                         0x00000000   Number         0  _printf_char_common.o ABSOLUTE
    ../clib/printf.c                         0x00000000   Number         0  _printf_intcommon.o ABSOLUTE
    ../clib/printf.c                         0x00000000   Number         0  __printf_flags_ss_wp.o ABSOLUTE
    ../clib/printf.c                         0x00000000   Number         0  __printf_ss_wp.o ABSOLUTE
    ../clib/printf.c                         0x00000000   Number         0  __printf_flags_wp.o ABSOLUTE
    ../clib/printf.c                         0x00000000   Number         0  __printf_wp.o ABSOLUTE
    ../clib/printf.c                         0x00000000   Number         0  __printf_flags_ss.o ABSOLUTE
    ../clib/printf.c                         0x00000000   Number         0  __printf_ss.o ABSOLUTE
    ../clib/printf.c                         0x00000000   Number         0  __printf_flags.o ABSOLUTE
    ../clib/printf.c                         0x00000000   Number         0  _printf_hex_int_ll_ptr.o ABSOLUTE
    ../clib/printf.c                         0x00000000   Number         0  _printf_hex_ll_ptr.o ABSOLUTE
    ../clib/printf.c                         0x00000000   Number         0  _printf_hex_int_ptr.o ABSOLUTE
    ../clib/printf.c                         0x00000000   Number         0  _printf_hex_ptr.o ABSOLUTE
    ../clib/printf.c                         0x00000000   Number         0  _printf_hex_int_ll.o ABSOLUTE
    ../clib/printf.c                         0x00000000   Number         0  _printf_hex_int.o ABSOLUTE
    ../clib/printf.c                         0x00000000   Number         0  _printf_hex_ll.o ABSOLUTE
    ../clib/printf.c                         0x00000000   Number         0  _printf_dec.o ABSOLUTE
    ../clib/printf.c                         0x00000000   Number         0  _printf_str.o ABSOLUTE
    ../clib/printf.c                         0x00000000   Number         0  noretval__2sprintf.o ABSOLUTE
    ../clib/printf.c                         0x00000000   Number         0  noretval__2printf.o ABSOLUTE
    ../clib/printf.c                         0x00000000   Number         0  __2sprintf.o ABSOLUTE
    ../clib/printf.c                         0x00000000   Number         0  __2printf.o ABSOLUTE
    ../clib/printf.c                         0x00000000   Number         0  __printf_nopercent.o ABSOLUTE
    ../clib/printf.c                         0x00000000   Number         0  __printf.o ABSOLUTE
    ../clib/printf.c                         0x00000000   Number         0  _sputc.o ABSOLUTE
    ../clib/printf_percent.s                 0x00000000   Number         0  _printf_x.o ABSOLUTE
    ../clib/printf_percent.s                 0x00000000   Number         0  _printf_s.o ABSOLUTE
    ../clib/printf_percent.s                 0x00000000   Number         0  _printf_d.o ABSOLUTE
    ../clib/printf_percent.s                 0x00000000   Number         0  _printf_percent.o ABSOLUTE
    ../clib/printf_percent.s                 0x00000000   Number         0  _printf_percent_end.o ABSOLUTE
    ../clib/scanf.c                          0x00000000   Number         0  _chval.o ABSOLUTE
    ../clib/scanf.c                          0x00000000   Number         0  _strtoul.o ABSOLUTE
    ../clib/scanf.c                          0x00000000   Number         0  strtol.o ABSOLUTE
    ../clib/scanf.c                          0x00000000   Number         0  atoi.o ABSOLUTE
    ../clib/signal.c                         0x00000000   Number         0  defsig_other.o ABSOLUTE
    ../clib/signal.c                         0x00000000   Number         0  defsig_fpe_formal.o ABSOLUTE
    ../clib/signal.c                         0x00000000   Number         0  defsig_rtred_outer.o ABSOLUTE
    ../clib/signal.c                         0x00000000   Number         0  defsig_rtmem_formal.o ABSOLUTE
    ../clib/signal.c                         0x00000000   Number         0  defsig_rtred_formal.o ABSOLUTE
    ../clib/signal.c                         0x00000000   Number         0  defsig_fpe_inner.o ABSOLUTE
    ../clib/signal.c                         0x00000000   Number         0  __raise.o ABSOLUTE
    ../clib/signal.c                         0x00000000   Number         0  defsig_segv_inner.o ABSOLUTE
    ../clib/signal.c                         0x00000000   Number         0  defsig_cppl_inner.o ABSOLUTE
    ../clib/signal.c                         0x00000000   Number         0  defsig_pvfn_inner.o ABSOLUTE
    ../clib/signal.c                         0x00000000   Number         0  defsig_stak_inner.o ABSOLUTE
    ../clib/signal.c                         0x00000000   Number         0  defsig_abrt_inner.o ABSOLUTE
    ../clib/signal.c                         0x00000000   Number         0  defsig_rtmem_outer.o ABSOLUTE
    ../clib/signal.c                         0x00000000   Number         0  defsig_exit.o ABSOLUTE
    ../clib/signal.c                         0x00000000   Number         0  defsig_rtred_inner.o ABSOLUTE
    ../clib/signal.c                         0x00000000   Number         0  defsig_rtmem_inner.o ABSOLUTE
    ../clib/signal.c                         0x00000000   Number         0  defsig_general.o ABSOLUTE
    ../clib/signal.c                         0x00000000   Number         0  defsig_fpe_outer.o ABSOLUTE
    ../clib/signal.s                         0x00000000   Number         0  defsig.o ABSOLUTE
    ../clib/stdio.c                          0x00000000   Number         0  fwritefast_locked.o ABSOLUTE
    ../clib/stdio.c                          0x00000000   Number         0  fwritefast.o ABSOLUTE
    ../clib/stdio.c                          0x00000000   Number         0  setvbuf.o ABSOLUTE
    ../clib/stdio.c                          0x00000000   Number         0  initio.o ABSOLUTE
    ../clib/stdio.c                          0x00000000   Number         0  streamlock.o ABSOLUTE
    ../clib/stdio.c                          0x00000000   Number         0  fopen.o ABSOLUTE
    ../clib/stdio.c                          0x00000000   Number         0  fclose.o ABSOLUTE
    ../clib/stdio.c                          0x00000000   Number         0  setvbuf_locked.o ABSOLUTE
    ../clib/stdio.c                          0x00000000   Number         0  fopen_locked.o ABSOLUTE
    ../clib/stdio.c                          0x00000000   Number         0  initio_locked.o ABSOLUTE
    ../clib/stdio.c                          0x00000000   Number         0  ferror_locked.o ABSOLUTE
    ../clib/stdio.c                          0x00000000   Number         0  stdio_streams.o ABSOLUTE
    ../clib/stdio.c                          0x00000000   Number         0  fputc_locked.o ABSOLUTE
    ../clib/stdio.c                          0x00000000   Number         0  fputc.o ABSOLUTE
    ../clib/stdio.c                          0x00000000   Number         0  ferror.o ABSOLUTE
    ../clib/stdio.c                          0x00000000   Number         0  fflush_locked.o ABSOLUTE
    ../clib/stdio.c                          0x00000000   Number         0  flsbuf.o ABSOLUTE
    ../clib/stdio.c                          0x00000000   Number         0  ftell.o ABSOLUTE
    ../clib/stdio.c                          0x00000000   Number         0  fputs.o ABSOLUTE
    ../clib/stdio.c                          0x00000000   Number         0  fflush.o ABSOLUTE
    ../clib/stdio.c                          0x00000000   Number         0  stdio.o ABSOLUTE
    ../clib/stdio.c                          0x00000000   Number         0  fseek.o ABSOLUTE
    ../clib/stdio.c                          0x00000000   Number         0  fputs_locked.o ABSOLUTE
    ../clib/stdlib.c                         0x00000000   Number         0  rand.o ABSOLUTE
    ../clib/stdlib.c                         0x00000000   Number         0  exit.o ABSOLUTE
    ../clib/stdlib.c                         0x00000000   Number         0  rand.o ABSOLUTE
    ../clib/string.c                         0x00000000   Number         0  strncmp.o ABSOLUTE
    ../clib/string.c                         0x00000000   Number         0  strlen.o ABSOLUTE
    ../clib/string.c                         0x00000000   Number         0  memcmp.o ABSOLUTE
    ../clib/wchar.c                          0x00000000   Number         0  flsbuf_fwide.o ABSOLUTE
    ../fplib/fpinit.s                        0x00000000   Number         0  fpinit.o ABSOLUTE
    ..\Core\Src\cmd_process.c                0x00000000   Number         0  cmd_process.o ABSOLUTE
    ..\Core\Src\freertos.c                   0x00000000   Number         0  freertos.o ABSOLUTE
    ..\Core\Src\main.c                       0x00000000   Number         0  main.o ABSOLUTE
    ..\Core\Src\stm32f7xx_hal_msp.c          0x00000000   Number         0  stm32f7xx_hal_msp.o ABSOLUTE
    ..\Core\Src\stm32f7xx_it.c               0x00000000   Number         0  stm32f7xx_it.o ABSOLUTE
    ..\Core\Src\system_stm32f7xx.c           0x00000000   Number         0  system_stm32f7xx.o ABSOLUTE
    ..\Core\Src\tcpecho.c                    0x00000000   Number         0  tcpecho.o ABSOLUTE
    ..\Drivers\STM32F7xx_HAL_Driver\Src\stm32f7xx_hal.c 0x00000000   Number         0  stm32f7xx_hal.o ABSOLUTE
    ..\Drivers\STM32F7xx_HAL_Driver\Src\stm32f7xx_hal_cortex.c 0x00000000   Number         0  stm32f7xx_hal_cortex.o ABSOLUTE
    ..\Drivers\STM32F7xx_HAL_Driver\Src\stm32f7xx_hal_dma.c 0x00000000   Number         0  stm32f7xx_hal_dma.o ABSOLUTE
    ..\Drivers\STM32F7xx_HAL_Driver\Src\stm32f7xx_hal_dma_ex.c 0x00000000   Number         0  stm32f7xx_hal_dma_ex.o ABSOLUTE
    ..\Drivers\STM32F7xx_HAL_Driver\Src\stm32f7xx_hal_eth.c 0x00000000   Number         0  stm32f7xx_hal_eth.o ABSOLUTE
    ..\Drivers\STM32F7xx_HAL_Driver\Src\stm32f7xx_hal_exti.c 0x00000000   Number         0  stm32f7xx_hal_exti.o ABSOLUTE
    ..\Drivers\STM32F7xx_HAL_Driver\Src\stm32f7xx_hal_flash.c 0x00000000   Number         0  stm32f7xx_hal_flash.o ABSOLUTE
    ..\Drivers\STM32F7xx_HAL_Driver\Src\stm32f7xx_hal_flash_ex.c 0x00000000   Number         0  stm32f7xx_hal_flash_ex.o ABSOLUTE
    ..\Drivers\STM32F7xx_HAL_Driver\Src\stm32f7xx_hal_gpio.c 0x00000000   Number         0  stm32f7xx_hal_gpio.o ABSOLUTE
    ..\Drivers\STM32F7xx_HAL_Driver\Src\stm32f7xx_hal_i2c.c 0x00000000   Number         0  stm32f7xx_hal_i2c.o ABSOLUTE
    ..\Drivers\STM32F7xx_HAL_Driver\Src\stm32f7xx_hal_pwr.c 0x00000000   Number         0  stm32f7xx_hal_pwr.o ABSOLUTE
    ..\Drivers\STM32F7xx_HAL_Driver\Src\stm32f7xx_hal_pwr_ex.c 0x00000000   Number         0  stm32f7xx_hal_pwr_ex.o ABSOLUTE
    ..\Drivers\STM32F7xx_HAL_Driver\Src\stm32f7xx_hal_rcc.c 0x00000000   Number         0  stm32f7xx_hal_rcc.o ABSOLUTE
    ..\Drivers\STM32F7xx_HAL_Driver\Src\stm32f7xx_hal_rcc_ex.c 0x00000000   Number         0  stm32f7xx_hal_rcc_ex.o ABSOLUTE
    ..\Drivers\STM32F7xx_HAL_Driver\Src\stm32f7xx_hal_tim.c 0x00000000   Number         0  stm32f7xx_hal_tim.o ABSOLUTE
    ..\Drivers\STM32F7xx_HAL_Driver\Src\stm32f7xx_hal_tim_ex.c 0x00000000   Number         0  stm32f7xx_hal_tim_ex.o ABSOLUTE
    ..\LWIP\App\lwip.c                       0x00000000   Number         0  lwip.o ABSOLUTE
    ..\LWIP\Target\ethernetif.c              0x00000000   Number         0  ethernetif.o ABSOLUTE
    ..\Middlewares\Third_Party\FreeRTOS\Source\CMSIS_RTOS\cmsis_os.c 0x00000000   Number         0  cmsis_os.o ABSOLUTE
    ..\Middlewares\Third_Party\FreeRTOS\Source\portable\RVDS\ARM_CM7\r0p1\port.c 0x00000000   Number         0  port.o ABSOLUTE
    ..\Middlewares\Third_Party\LwIP\src\api\api_lib.c 0x00000000   Number         0  api_lib.o ABSOLUTE
    ..\Middlewares\Third_Party\LwIP\src\api\api_msg.c 0x00000000   Number         0  api_msg.o ABSOLUTE
    ..\Middlewares\Third_Party\LwIP\src\api\err.c 0x00000000   Number         0  err.o ABSOLUTE
    ..\Middlewares\Third_Party\LwIP\src\api\if_api.c 0x00000000   Number         0  if_api.o ABSOLUTE
    ..\Middlewares\Third_Party\LwIP\src\api\netbuf.c 0x00000000   Number         0  netbuf.o ABSOLUTE
    ..\Middlewares\Third_Party\LwIP\src\api\netdb.c 0x00000000   Number         0  netdb.o ABSOLUTE
    ..\Middlewares\Third_Party\LwIP\src\api\netifapi.c 0x00000000   Number         0  netifapi.o ABSOLUTE
    ..\Middlewares\Third_Party\LwIP\src\api\sockets.c 0x00000000   Number         0  sockets.o ABSOLUTE
    ..\Middlewares\Third_Party\LwIP\src\api\tcpip.c 0x00000000   Number         0  tcpip.o ABSOLUTE
    ..\Middlewares\Third_Party\LwIP\src\apps\mqtt\mqtt.c 0x00000000   Number         0  mqtt.o ABSOLUTE
    ..\Middlewares\Third_Party\LwIP\src\core\altcp.c 0x00000000   Number         0  altcp.o ABSOLUTE
    ..\Middlewares\Third_Party\LwIP\src\core\altcp_alloc.c 0x00000000   Number         0  altcp_alloc.o ABSOLUTE
    ..\Middlewares\Third_Party\LwIP\src\core\altcp_tcp.c 0x00000000   Number         0  altcp_tcp.o ABSOLUTE
    ..\Middlewares\Third_Party\LwIP\src\core\def.c 0x00000000   Number         0  def.o ABSOLUTE
    ..\Middlewares\Third_Party\LwIP\src\core\dns.c 0x00000000   Number         0  dns.o ABSOLUTE
    ..\Middlewares\Third_Party\LwIP\src\core\inet_chksum.c 0x00000000   Number         0  inet_chksum.o ABSOLUTE
    ..\Middlewares\Third_Party\LwIP\src\core\init.c 0x00000000   Number         0  init.o ABSOLUTE
    ..\Middlewares\Third_Party\LwIP\src\core\ip.c 0x00000000   Number         0  ip.o ABSOLUTE
    ..\Middlewares\Third_Party\LwIP\src\core\ipv4\autoip.c 0x00000000   Number         0  autoip.o ABSOLUTE
    ..\Middlewares\Third_Party\LwIP\src\core\ipv4\dhcp.c 0x00000000   Number         0  dhcp.o ABSOLUTE
    ..\Middlewares\Third_Party\LwIP\src\core\ipv4\etharp.c 0x00000000   Number         0  etharp.o ABSOLUTE
    ..\Middlewares\Third_Party\LwIP\src\core\ipv4\icmp.c 0x00000000   Number         0  icmp.o ABSOLUTE
    ..\Middlewares\Third_Party\LwIP\src\core\ipv4\igmp.c 0x00000000   Number         0  igmp.o ABSOLUTE
    ..\Middlewares\Third_Party\LwIP\src\core\ipv4\ip4.c 0x00000000   Number         0  ip4.o ABSOLUTE
    ..\Middlewares\Third_Party\LwIP\src\core\ipv4\ip4_addr.c 0x00000000   Number         0  ip4_addr.o ABSOLUTE
    ..\Middlewares\Third_Party\LwIP\src\core\ipv4\ip4_frag.c 0x00000000   Number         0  ip4_frag.o ABSOLUTE
    ..\Middlewares\Third_Party\LwIP\src\core\ipv6\dhcp6.c 0x00000000   Number         0  dhcp6.o ABSOLUTE
    ..\Middlewares\Third_Party\LwIP\src\core\ipv6\ethip6.c 0x00000000   Number         0  ethip6.o ABSOLUTE
    ..\Middlewares\Third_Party\LwIP\src\core\ipv6\icmp6.c 0x00000000   Number         0  icmp6.o ABSOLUTE
    ..\Middlewares\Third_Party\LwIP\src\core\ipv6\inet6.c 0x00000000   Number         0  inet6.o ABSOLUTE
    ..\Middlewares\Third_Party\LwIP\src\core\ipv6\ip6.c 0x00000000   Number         0  ip6.o ABSOLUTE
    ..\Middlewares\Third_Party\LwIP\src\core\ipv6\ip6_addr.c 0x00000000   Number         0  ip6_addr.o ABSOLUTE
    ..\Middlewares\Third_Party\LwIP\src\core\ipv6\ip6_frag.c 0x00000000   Number         0  ip6_frag.o ABSOLUTE
    ..\Middlewares\Third_Party\LwIP\src\core\ipv6\mld6.c 0x00000000   Number         0  mld6.o ABSOLUTE
    ..\Middlewares\Third_Party\LwIP\src\core\ipv6\nd6.c 0x00000000   Number         0  nd6.o ABSOLUTE
    ..\Middlewares\Third_Party\LwIP\src\core\mem.c 0x00000000   Number         0  mem.o ABSOLUTE
    ..\Middlewares\Third_Party\LwIP\src\core\memp.c 0x00000000   Number         0  memp.o ABSOLUTE
    ..\Middlewares\Third_Party\LwIP\src\core\netif.c 0x00000000   Number         0  netif.o ABSOLUTE
    ..\Middlewares\Third_Party\LwIP\src\core\pbuf.c 0x00000000   Number         0  pbuf.o ABSOLUTE
    ..\Middlewares\Third_Party\LwIP\src\core\raw.c 0x00000000   Number         0  raw.o ABSOLUTE
    ..\Middlewares\Third_Party\LwIP\src\core\stats.c 0x00000000   Number         0  stats.o ABSOLUTE
    ..\Middlewares\Third_Party\LwIP\src\core\sys.c 0x00000000   Number         0  sys.o ABSOLUTE
    ..\Middlewares\Third_Party\LwIP\src\core\tcp.c 0x00000000   Number         0  tcp.o ABSOLUTE
    ..\Middlewares\Third_Party\LwIP\src\core\tcp_in.c 0x00000000   Number         0  tcp_in.o ABSOLUTE
    ..\Middlewares\Third_Party\LwIP\src\core\tcp_out.c 0x00000000   Number         0  tcp_out.o ABSOLUTE
    ..\Middlewares\Third_Party\LwIP\src\core\timeouts.c 0x00000000   Number         0  timeouts.o ABSOLUTE
    ..\Middlewares\Third_Party\LwIP\src\core\udp.c 0x00000000   Number         0  udp.o ABSOLUTE
    ..\Middlewares\Third_Party\LwIP\src\netif\bridgeif.c 0x00000000   Number         0  bridgeif.o ABSOLUTE
    ..\Middlewares\Third_Party\LwIP\src\netif\bridgeif_fdb.c 0x00000000   Number         0  bridgeif_fdb.o ABSOLUTE
    ..\Middlewares\Third_Party\LwIP\src\netif\ethernet.c 0x00000000   Number         0  ethernet.o ABSOLUTE
    ..\Middlewares\Third_Party\LwIP\src\netif\lowpan6.c 0x00000000   Number         0  lowpan6.o ABSOLUTE
    ..\Middlewares\Third_Party\LwIP\src\netif\lowpan6_ble.c 0x00000000   Number         0  lowpan6_ble.o ABSOLUTE
    ..\Middlewares\Third_Party\LwIP\src\netif\lowpan6_common.c 0x00000000   Number         0  lowpan6_common.o ABSOLUTE
    ..\Middlewares\Third_Party\LwIP\src\netif\ppp\auth.c 0x00000000   Number         0  auth.o ABSOLUTE
    ..\Middlewares\Third_Party\LwIP\src\netif\ppp\ccp.c 0x00000000   Number         0  ccp.o ABSOLUTE
    ..\Middlewares\Third_Party\LwIP\src\netif\ppp\chap-md5.c 0x00000000   Number         0  chap-md5.o ABSOLUTE
    ..\Middlewares\Third_Party\LwIP\src\netif\ppp\chap-new.c 0x00000000   Number         0  chap-new.o ABSOLUTE
    ..\Middlewares\Third_Party\LwIP\src\netif\ppp\chap_ms.c 0x00000000   Number         0  chap_ms.o ABSOLUTE
    ..\Middlewares\Third_Party\LwIP\src\netif\ppp\demand.c 0x00000000   Number         0  demand.o ABSOLUTE
    ..\Middlewares\Third_Party\LwIP\src\netif\ppp\eap.c 0x00000000   Number         0  eap.o ABSOLUTE
    ..\Middlewares\Third_Party\LwIP\src\netif\ppp\ecp.c 0x00000000   Number         0  ecp.o ABSOLUTE
    ..\Middlewares\Third_Party\LwIP\src\netif\ppp\eui64.c 0x00000000   Number         0  eui64.o ABSOLUTE
    ..\Middlewares\Third_Party\LwIP\src\netif\ppp\fsm.c 0x00000000   Number         0  fsm.o ABSOLUTE
    ..\Middlewares\Third_Party\LwIP\src\netif\ppp\ipcp.c 0x00000000   Number         0  ipcp.o ABSOLUTE
    ..\Middlewares\Third_Party\LwIP\src\netif\ppp\ipv6cp.c 0x00000000   Number         0  ipv6cp.o ABSOLUTE
    ..\Middlewares\Third_Party\LwIP\src\netif\ppp\lcp.c 0x00000000   Number         0  lcp.o ABSOLUTE
    ..\Middlewares\Third_Party\LwIP\src\netif\ppp\magic.c 0x00000000   Number         0  magic.o ABSOLUTE
    ..\Middlewares\Third_Party\LwIP\src\netif\ppp\mppe.c 0x00000000   Number         0  mppe.o ABSOLUTE
    ..\Middlewares\Third_Party\LwIP\src\netif\ppp\multilink.c 0x00000000   Number         0  multilink.o ABSOLUTE
    ..\Middlewares\Third_Party\LwIP\src\netif\ppp\ppp.c 0x00000000   Number         0  ppp.o ABSOLUTE
    ..\Middlewares\Third_Party\LwIP\src\netif\ppp\pppapi.c 0x00000000   Number         0  pppapi.o ABSOLUTE
    ..\Middlewares\Third_Party\LwIP\src\netif\ppp\pppcrypt.c 0x00000000   Number         0  pppcrypt.o ABSOLUTE
    ..\Middlewares\Third_Party\LwIP\src\netif\ppp\pppoe.c 0x00000000   Number         0  pppoe.o ABSOLUTE
    ..\Middlewares\Third_Party\LwIP\src\netif\ppp\pppol2tp.c 0x00000000   Number         0  pppol2tp.o ABSOLUTE
    ..\Middlewares\Third_Party\LwIP\src\netif\ppp\pppos.c 0x00000000   Number         0  pppos.o ABSOLUTE
    ..\Middlewares\Third_Party\LwIP\src\netif\ppp\upap.c 0x00000000   Number         0  upap.o ABSOLUTE
    ..\Middlewares\Third_Party\LwIP\src\netif\ppp\utils.c 0x00000000   Number         0  utils.o ABSOLUTE
    ..\Middlewares\Third_Party\LwIP\src\netif\ppp\vj.c 0x00000000   Number         0  vj.o ABSOLUTE
    ..\Middlewares\Third_Party\LwIP\src\netif\slipif.c 0x00000000   Number         0  slipif.o ABSOLUTE
    ..\Middlewares\Third_Party\LwIP\src\netif\zepif.c 0x00000000   Number         0  zepif.o ABSOLUTE
    ..\Middlewares\Third_Party\LwIP\system\OS\sys_arch.c 0x00000000   Number         0  sys_arch.o ABSOLUTE
    ..\\Core\\Src\\cmd_process.c             0x00000000   Number         0  cmd_process.o ABSOLUTE
    ..\\Core\\Src\\tcpecho.c                 0x00000000   Number         0  tcpecho.o ABSOLUTE
    C:\Keil_v5\ARM\PACK\Keil\ARM_Compiler\1.1.1\Source\retarget_io.c 0x00000000   Number         0  retarget_io.o ABSOLUTE
    dc.s                                     0x00000000   Number         0  dc.o ABSOLUTE
    startup_stm32f746xx.s                    0x00000000   Number         0  startup_stm32f746xx.o ABSOLUTE
    RESET                                    0x08000000   Section      456  startup_stm32f746xx.o(RESET)
    !!!main                                  0x080001c8   Section        8  __main.o(!!!main)
    !!!scatter                               0x080001d0   Section       52  __scatter.o(!!!scatter)
    !!dczerorl2                              0x08000204   Section       90  __dczerorl2.o(!!dczerorl2)
    !!handler_zi                             0x08000260   Section       28  __scatter_zi.o(!!handler_zi)
    .ARM.Collect$$_printf_percent$$00000000  0x0800027c   Section        0  _printf_percent.o(.ARM.Collect$$_printf_percent$$00000000)
    .ARM.Collect$$_printf_percent$$00000009  0x0800027c   Section        6  _printf_d.o(.ARM.Collect$$_printf_percent$$00000009)
    .ARM.Collect$$_printf_percent$$0000000C  0x08000282   Section        6  _printf_x.o(.ARM.Collect$$_printf_percent$$0000000C)
    .ARM.Collect$$_printf_percent$$00000014  0x08000288   Section        6  _printf_s.o(.ARM.Collect$$_printf_percent$$00000014)
    .ARM.Collect$$_printf_percent$$00000017  0x0800028e   Section        4  _printf_percent_end.o(.ARM.Collect$$_printf_percent$$00000017)
    .ARM.Collect$$libinit$$00000000          0x08000292   Section        2  libinit.o(.ARM.Collect$$libinit$$00000000)
    .ARM.Collect$$libinit$$00000001          0x08000294   Section        4  libinit2.o(.ARM.Collect$$libinit$$00000001)
    .ARM.Collect$$libinit$$00000004          0x08000298   Section        0  libinit2.o(.ARM.Collect$$libinit$$00000004)
    .ARM.Collect$$libinit$$00000005          0x08000298   Section        8  libinit2.o(.ARM.Collect$$libinit$$00000005)
    .ARM.Collect$$libinit$$0000000A          0x080002a0   Section        0  libinit2.o(.ARM.Collect$$libinit$$0000000A)
    .ARM.Collect$$libinit$$0000000C          0x080002a0   Section        0  libinit2.o(.ARM.Collect$$libinit$$0000000C)
    .ARM.Collect$$libinit$$0000000D          0x080002a0   Section        4  libinit2.o(.ARM.Collect$$libinit$$0000000D)
    .ARM.Collect$$libinit$$0000000E          0x080002a4   Section        0  libinit2.o(.ARM.Collect$$libinit$$0000000E)
    .ARM.Collect$$libinit$$00000011          0x080002a4   Section        0  libinit2.o(.ARM.Collect$$libinit$$00000011)
    .ARM.Collect$$libinit$$00000013          0x080002a4   Section        0  libinit2.o(.ARM.Collect$$libinit$$00000013)
    .ARM.Collect$$libinit$$00000015          0x080002a4   Section        0  libinit2.o(.ARM.Collect$$libinit$$00000015)
    .ARM.Collect$$libinit$$00000017          0x080002a4   Section        0  libinit2.o(.ARM.Collect$$libinit$$00000017)
    .ARM.Collect$$libinit$$00000019          0x080002a4   Section        0  libinit2.o(.ARM.Collect$$libinit$$00000019)
    .ARM.Collect$$libinit$$0000001B          0x080002a4   Section        0  libinit2.o(.ARM.Collect$$libinit$$0000001B)
    .ARM.Collect$$libinit$$0000001D          0x080002a4   Section        0  libinit2.o(.ARM.Collect$$libinit$$0000001D)
    .ARM.Collect$$libinit$$0000001F          0x080002a4   Section        0  libinit2.o(.ARM.Collect$$libinit$$0000001F)
    .ARM.Collect$$libinit$$00000021          0x080002a4   Section        0  libinit2.o(.ARM.Collect$$libinit$$00000021)
    .ARM.Collect$$libinit$$00000023          0x080002a4   Section        0  libinit2.o(.ARM.Collect$$libinit$$00000023)
    .ARM.Collect$$libinit$$00000024          0x080002a4   Section        4  libinit2.o(.ARM.Collect$$libinit$$00000024)
    .ARM.Collect$$libinit$$00000025          0x080002a8   Section        0  libinit2.o(.ARM.Collect$$libinit$$00000025)
    .ARM.Collect$$libinit$$0000002C          0x080002a8   Section        0  libinit2.o(.ARM.Collect$$libinit$$0000002C)
    .ARM.Collect$$libinit$$0000002E          0x080002a8   Section        0  libinit2.o(.ARM.Collect$$libinit$$0000002E)
    .ARM.Collect$$libinit$$00000030          0x080002a8   Section        0  libinit2.o(.ARM.Collect$$libinit$$00000030)
    .ARM.Collect$$libinit$$00000032          0x080002a8   Section        0  libinit2.o(.ARM.Collect$$libinit$$00000032)
    .ARM.Collect$$libinit$$00000033          0x080002a8   Section        2  libinit2.o(.ARM.Collect$$libinit$$00000033)
    .ARM.Collect$$libshutdown$$00000000      0x080002aa   Section        2  libshutdown.o(.ARM.Collect$$libshutdown$$00000000)
    .ARM.Collect$$libshutdown$$00000002      0x080002ac   Section        0  libshutdown2.o(.ARM.Collect$$libshutdown$$00000002)
    .ARM.Collect$$libshutdown$$00000003      0x080002ac   Section        4  libshutdown2.o(.ARM.Collect$$libshutdown$$00000003)
    .ARM.Collect$$libshutdown$$00000004      0x080002b0   Section        0  libshutdown2.o(.ARM.Collect$$libshutdown$$00000004)
    .ARM.Collect$$libshutdown$$00000007      0x080002b0   Section        0  libshutdown2.o(.ARM.Collect$$libshutdown$$00000007)
    .ARM.Collect$$libshutdown$$0000000A      0x080002b0   Section        0  libshutdown2.o(.ARM.Collect$$libshutdown$$0000000A)
    .ARM.Collect$$libshutdown$$0000000C      0x080002b0   Section        0  libshutdown2.o(.ARM.Collect$$libshutdown$$0000000C)
    .ARM.Collect$$libshutdown$$0000000F      0x080002b0   Section        0  libshutdown2.o(.ARM.Collect$$libshutdown$$0000000F)
    .ARM.Collect$$libshutdown$$00000010      0x080002b0   Section        2  libshutdown2.o(.ARM.Collect$$libshutdown$$00000010)
    .ARM.Collect$$rtentry$$00000000          0x080002b2   Section        0  __rtentry.o(.ARM.Collect$$rtentry$$00000000)
    .ARM.Collect$$rtentry$$00000002          0x080002b2   Section        0  __rtentry2.o(.ARM.Collect$$rtentry$$00000002)
    .ARM.Collect$$rtentry$$00000004          0x080002b2   Section        6  __rtentry4.o(.ARM.Collect$$rtentry$$00000004)
    .ARM.Collect$$rtentry$$00000009          0x080002b8   Section        0  __rtentry2.o(.ARM.Collect$$rtentry$$00000009)
    .ARM.Collect$$rtentry$$0000000A          0x080002b8   Section        4  __rtentry2.o(.ARM.Collect$$rtentry$$0000000A)
    .ARM.Collect$$rtentry$$0000000C          0x080002bc   Section        0  __rtentry2.o(.ARM.Collect$$rtentry$$0000000C)
    .ARM.Collect$$rtentry$$0000000D          0x080002bc   Section        8  __rtentry2.o(.ARM.Collect$$rtentry$$0000000D)
    .ARM.Collect$$rtexit$$00000000           0x080002c4   Section        2  rtexit.o(.ARM.Collect$$rtexit$$00000000)
    .ARM.Collect$$rtexit$$00000002           0x080002c6   Section        0  rtexit2.o(.ARM.Collect$$rtexit$$00000002)
    .ARM.Collect$$rtexit$$00000003           0x080002c6   Section        4  rtexit2.o(.ARM.Collect$$rtexit$$00000003)
    .ARM.Collect$$rtexit$$00000004           0x080002ca   Section        6  rtexit2.o(.ARM.Collect$$rtexit$$00000004)
    .emb_text                                0x080002d0   Section      194  port.o(.emb_text)
    $v0                                      0x080002d0   Number         0  port.o(.emb_text)
    .emb_text                                0x08000394   Section       52  rand.o(.emb_text)
    .emb_text                                0x080003c8   Section        0  maybetermalloc1.o(.emb_text)
    .text                                    0x080003c8   Section       64  startup_stm32f746xx.o(.text)
    $v0                                      0x080003c8   Number         0  startup_stm32f746xx.o(.text)
    .text                                    0x08000408   Section      238  lludivv7m.o(.text)
    .text                                    0x080004f8   Section        0  noretval__2printf.o(.text)
    .text                                    0x08000510   Section        0  noretval__2sprintf.o(.text)
    .text                                    0x08000538   Section        0  __printf.o(.text)
    .text                                    0x080005a0   Section        0  _printf_str.o(.text)
    .text                                    0x080005f4   Section        0  _printf_dec.o(.text)
    .text                                    0x0800066c   Section        0  _printf_hex_int.o(.text)
    .text                                    0x080006c4   Section        0  rand.o(.text)
    .text                                    0x08000700   Section        0  memcmp.o(.text)
    .text                                    0x08000758   Section        0  strlen.o(.text)
    .text                                    0x08000796   Section      138  rt_memcpy_v6.o(.text)
    .text                                    0x08000820   Section      100  rt_memcpy_w.o(.text)
    .text                                    0x08000884   Section       78  rt_memclr_w.o(.text)
    .text                                    0x080008d4   Section      104  strcmpv7m_pel.o(.text)
    .text                                    0x0800093c   Section        0  heapauxi.o(.text)
    .text                                    0x08000944   Section        8  rt_errno_addr_intlibspace.o(.text)
    .text                                    0x0800094c   Section        0  _printf_intcommon.o(.text)
    .text                                    0x08000a00   Section        0  _printf_char_common.o(.text)
    _printf_input_char                       0x08000a01   Thumb Code    10  _printf_char_common.o(.text)
    .text                                    0x08000a30   Section        0  _sputc.o(.text)
    .text                                    0x08000a3a   Section        0  _printf_char.o(.text)
    .text                                    0x08000a68   Section        0  _printf_char_file.o(.text)
    .text                                    0x08000a8c   Section        8  libspace.o(.text)
    .text                                    0x08000a94   Section        0  ferror.o(.text)
    .text                                    0x08000a9c   Section        0  initio.o(.text)
    .text                                    0x08000bd4   Section       74  sys_stackheap_outer.o(.text)
    .text                                    0x08000c1e   Section        0  h1_free.o(.text)
    .text                                    0x08000c6c   Section        0  flsbuf.o(.text)
    .text                                    0x08000e42   Section        0  setvbuf.o(.text)
    .text                                    0x08000e88   Section        0  fopen.o(.text)
    _freopen_locked                          0x08000e89   Thumb Code     0  fopen.o(.text)
    .text                                    0x08000f74   Section        0  fclose.o(.text)
    .text                                    0x08000fc0   Section        0  exit.o(.text)
    .text                                    0x08000fd2   Section        0  defsig_rtred_outer.o(.text)
    .text                                    0x08000fe0   Section        8  rt_heap_descriptor_intlibspace.o(.text)
    .text                                    0x08000fe8   Section        0  hguard.o(.text)
    .text                                    0x08000fec   Section        0  init_alloc.o(.text)
    .text                                    0x08001076   Section        0  h1_alloc.o(.text)
    .text                                    0x080010d4   Section        0  fseek.o(.text)
    .text                                    0x080011cc   Section        0  stdio.o(.text)
    .text                                    0x080012bc   Section        0  defsig_exit.o(.text)
    .text                                    0x080012c8   Section        0  defsig_rtred_inner.o(.text)
    .text                                    0x080012fc   Section        0  defsig_rtmem_outer.o(.text)
    .text                                    0x0800130c   Section        0  sys_exit.o(.text)
    .text                                    0x08001318   Section        2  use_no_semi.o(.text)
    .text                                    0x0800131a   Section        0  h1_init.o(.text)
    .text                                    0x0800131a   Section        0  indicate_semi.o(.text)
    .text                                    0x08001328   Section        0  h1_extend.o(.text)
    .text                                    0x0800135c   Section        0  ftell.o(.text)
    .text                                    0x0800139e   Section        0  defsig_general.o(.text)
    .text                                    0x080013d0   Section        0  defsig_rtmem_inner.o(.text)
    .text                                    0x08001420   Section        0  sys_wrch.o(.text)
    i.BusFault_Handler                       0x0800142e   Section        0  stm32f7xx_it.o(i.BusFault_Handler)
    i.DebugMon_Handler                       0x08001430   Section        0  stm32f7xx_it.o(i.DebugMon_Handler)
    i.ETH_DMARxDescListInit                  0x08001434   Section        0  stm32f7xx_hal_eth.o(i.ETH_DMARxDescListInit)
    ETH_DMARxDescListInit                    0x08001435   Thumb Code   110  stm32f7xx_hal_eth.o(i.ETH_DMARxDescListInit)
    i.ETH_FlushTransmitFIFO                  0x080014a2   Section        0  stm32f7xx_hal_eth.o(i.ETH_FlushTransmitFIFO)
    ETH_FlushTransmitFIFO                    0x080014a3   Thumb Code    46  stm32f7xx_hal_eth.o(i.ETH_FlushTransmitFIFO)
    i.ETH_IRQHandler                         0x080014d0   Section        0  stm32f7xx_it.o(i.ETH_IRQHandler)
    i.ETH_MACDMAConfig                       0x080014dc   Section        0  stm32f7xx_hal_eth.o(i.ETH_MACDMAConfig)
    ETH_MACDMAConfig                         0x080014dd   Thumb Code   154  stm32f7xx_hal_eth.o(i.ETH_MACDMAConfig)
    i.ETH_PHY_IO_DeInit                      0x08001576   Section        0  ethernetif.o(i.ETH_PHY_IO_DeInit)
    i.ETH_PHY_IO_GetTick                     0x0800157a   Section        0  ethernetif.o(i.ETH_PHY_IO_GetTick)
    i.ETH_PHY_IO_Init                        0x08001580   Section        0  ethernetif.o(i.ETH_PHY_IO_Init)
    i.ETH_PHY_IO_ReadReg                     0x08001590   Section        0  ethernetif.o(i.ETH_PHY_IO_ReadReg)
    i.ETH_PHY_IO_WriteReg                    0x080015ac   Section        0  ethernetif.o(i.ETH_PHY_IO_WriteReg)
    i.ETH_Prepare_Tx_Descriptors             0x080015c8   Section        0  stm32f7xx_hal_eth.o(i.ETH_Prepare_Tx_Descriptors)
    ETH_Prepare_Tx_Descriptors               0x080015c9   Thumb Code   358  stm32f7xx_hal_eth.o(i.ETH_Prepare_Tx_Descriptors)
    i.ETH_SetDMAConfig                       0x08001730   Section        0  stm32f7xx_hal_eth.o(i.ETH_SetDMAConfig)
    ETH_SetDMAConfig                         0x08001731   Thumb Code   192  stm32f7xx_hal_eth.o(i.ETH_SetDMAConfig)
    i.ETH_SetMACConfig                       0x080017f4   Section        0  stm32f7xx_hal_eth.o(i.ETH_SetMACConfig)
    ETH_SetMACConfig                         0x080017f5   Thumb Code   270  stm32f7xx_hal_eth.o(i.ETH_SetMACConfig)
    i.ETH_UpdateDescriptor                   0x08001908   Section        0  stm32f7xx_hal_eth.o(i.ETH_UpdateDescriptor)
    ETH_UpdateDescriptor                     0x08001909   Thumb Code   134  stm32f7xx_hal_eth.o(i.ETH_UpdateDescriptor)
    i.Error_Handler                          0x08001994   Section        0  main.o(i.Error_Handler)
    i.HAL_Delay                              0x08001998   Section        0  stm32f7xx_hal.o(i.HAL_Delay)
    i.HAL_ETH_ErrorCallback                  0x080019bc   Section        0  ethernetif.o(i.HAL_ETH_ErrorCallback)
    i.HAL_ETH_GetDMAError                    0x080019d8   Section        0  stm32f7xx_hal_eth.o(i.HAL_ETH_GetDMAError)
    i.HAL_ETH_GetMACConfig                   0x080019de   Section        0  stm32f7xx_hal_eth.o(i.HAL_ETH_GetMACConfig)
    i.HAL_ETH_IRQHandler                     0x08001abc   Section        0  stm32f7xx_hal_eth.o(i.HAL_ETH_IRQHandler)
    i.HAL_ETH_Init                           0x08001b8c   Section        0  stm32f7xx_hal_eth.o(i.HAL_ETH_Init)
    i.HAL_ETH_MspInit                        0x08001ca0   Section        0  ethernetif.o(i.HAL_ETH_MspInit)
    i.HAL_ETH_PMTCallback                    0x08001d74   Section        0  stm32f7xx_hal_eth.o(i.HAL_ETH_PMTCallback)
    i.HAL_ETH_ReadData                       0x08001d76   Section        0  stm32f7xx_hal_eth.o(i.HAL_ETH_ReadData)
    i.HAL_ETH_ReadPHYRegister                0x08001e64   Section        0  stm32f7xx_hal_eth.o(i.HAL_ETH_ReadPHYRegister)
    i.HAL_ETH_ReleaseTxPacket                0x08001ec8   Section        0  stm32f7xx_hal_eth.o(i.HAL_ETH_ReleaseTxPacket)
    i.HAL_ETH_RxAllocateCallback             0x08001f20   Section        0  ethernetif.o(i.HAL_ETH_RxAllocateCallback)
    i.HAL_ETH_RxCpltCallback                 0x08001f68   Section        0  ethernetif.o(i.HAL_ETH_RxCpltCallback)
    i.HAL_ETH_RxLinkCallback                 0x08001f74   Section        0  ethernetif.o(i.HAL_ETH_RxLinkCallback)
    i.HAL_ETH_SetMACConfig                   0x08001fc0   Section        0  stm32f7xx_hal_eth.o(i.HAL_ETH_SetMACConfig)
    i.HAL_ETH_SetMDIOClockRange              0x08001fd8   Section        0  stm32f7xx_hal_eth.o(i.HAL_ETH_SetMDIOClockRange)
    i.HAL_ETH_Start                          0x0800204c   Section        0  stm32f7xx_hal_eth.o(i.HAL_ETH_Start)
    i.HAL_ETH_Start_IT                       0x080020c8   Section        0  stm32f7xx_hal_eth.o(i.HAL_ETH_Start_IT)
    i.HAL_ETH_Stop_IT                        0x08002184   Section        0  stm32f7xx_hal_eth.o(i.HAL_ETH_Stop_IT)
    i.HAL_ETH_Transmit_IT                    0x08002224   Section        0  stm32f7xx_hal_eth.o(i.HAL_ETH_Transmit_IT)
    i.HAL_ETH_TxCpltCallback                 0x0800228c   Section        0  ethernetif.o(i.HAL_ETH_TxCpltCallback)
    i.HAL_ETH_TxFreeCallback                 0x08002298   Section        0  ethernetif.o(i.HAL_ETH_TxFreeCallback)
    i.HAL_ETH_WakeUpCallback                 0x0800229c   Section        0  stm32f7xx_hal_eth.o(i.HAL_ETH_WakeUpCallback)
    i.HAL_ETH_WritePHYRegister               0x080022a0   Section        0  stm32f7xx_hal_eth.o(i.HAL_ETH_WritePHYRegister)
    i.HAL_GPIO_Init                          0x080022f8   Section        0  stm32f7xx_hal_gpio.o(i.HAL_GPIO_Init)
    i.HAL_GPIO_WritePin                      0x08002540   Section        0  stm32f7xx_hal_gpio.o(i.HAL_GPIO_WritePin)
    i.HAL_GetTick                            0x0800254c   Section        0  stm32f7xx_hal.o(i.HAL_GetTick)
    i.HAL_IncTick                            0x08002558   Section        0  stm32f7xx_hal.o(i.HAL_IncTick)
    i.HAL_Init                               0x08002568   Section        0  stm32f7xx_hal.o(i.HAL_Init)
    i.HAL_InitTick                           0x08002594   Section        0  stm32f7xx_hal.o(i.HAL_InitTick)
    i.HAL_MspInit                            0x080025d4   Section        0  stm32f7xx_hal_msp.o(i.HAL_MspInit)
    i.HAL_NVIC_EnableIRQ                     0x0800260c   Section        0  stm32f7xx_hal_cortex.o(i.HAL_NVIC_EnableIRQ)
    i.HAL_NVIC_SetPriority                   0x08002628   Section        0  stm32f7xx_hal_cortex.o(i.HAL_NVIC_SetPriority)
    i.HAL_NVIC_SetPriorityGrouping           0x08002668   Section        0  stm32f7xx_hal_cortex.o(i.HAL_NVIC_SetPriorityGrouping)
    i.HAL_PWREx_EnableOverDrive              0x0800268c   Section        0  stm32f7xx_hal_pwr_ex.o(i.HAL_PWREx_EnableOverDrive)
    i.HAL_RCC_ClockConfig                    0x080026f8   Section        0  stm32f7xx_hal_rcc.o(i.HAL_RCC_ClockConfig)
    i.HAL_RCC_GetHCLKFreq                    0x08002828   Section        0  stm32f7xx_hal_rcc.o(i.HAL_RCC_GetHCLKFreq)
    i.HAL_RCC_GetSysClockFreq                0x08002834   Section        0  stm32f7xx_hal_rcc.o(i.HAL_RCC_GetSysClockFreq)
    i.HAL_RCC_OscConfig                      0x08002898   Section        0  stm32f7xx_hal_rcc.o(i.HAL_RCC_OscConfig)
    i.HAL_SYSTICK_Config                     0x08002c1c   Section        0  stm32f7xx_hal_cortex.o(i.HAL_SYSTICK_Config)
    i.HardFault_Handler                      0x08002c42   Section        0  stm32f7xx_it.o(i.HardFault_Handler)
    i.ITM_SendChar                           0x08002c44   Section        0  retarget_io.o(i.ITM_SendChar)
    i.LAN8742_GetLinkState                   0x08002c68   Section        0  lan8742.o(i.LAN8742_GetLinkState)
    i.LAN8742_Init                           0x08002d24   Section        0  lan8742.o(i.LAN8742_Init)
    i.LAN8742_RegisterBusIO                  0x08002df6   Section        0  lan8742.o(i.LAN8742_RegisterBusIO)
    i.MX_GPIO_Init                           0x08002e24   Section        0  main.o(i.MX_GPIO_Init)
    MX_GPIO_Init                             0x08002e25   Thumb Code   178  main.o(i.MX_GPIO_Init)
    i.MX_LWIP_Init                           0x08002ee4   Section        0  lwip.o(i.MX_LWIP_Init)
    i.MemManage_Handler                      0x08003000   Section        0  stm32f7xx_it.o(i.MemManage_Handler)
    i.NMI_Handler                            0x08003002   Section        0  stm32f7xx_it.o(i.NMI_Handler)
    i.StartDefaultTask                       0x08003004   Section        0  main.o(i.StartDefaultTask)
    i.StartNetTask                           0x08003030   Section        0  main.o(i.StartNetTask)
    i.SysTick_Handler                        0x0800305c   Section        0  stm32f7xx_it.o(i.SysTick_Handler)
    i.SystemClock_Config                     0x08003074   Section        0  main.o(i.SystemClock_Config)
    i.SystemInit                             0x08003114   Section        0  system_stm32f7xx.o(i.SystemInit)
    i.UsageFault_Handler                     0x08003124   Section        0  stm32f7xx_it.o(i.UsageFault_Handler)
    i.__NVIC_SetPriority                     0x08003126   Section        0  stm32f7xx_hal_cortex.o(i.__NVIC_SetPriority)
    __NVIC_SetPriority                       0x08003127   Thumb Code    34  stm32f7xx_hal_cortex.o(i.__NVIC_SetPriority)
    i._sys_close                             0x08003148   Section        0  retarget_io.o(i._sys_close)
    i._sys_flen                              0x08003160   Section        0  retarget_io.o(i._sys_flen)
    i._sys_istty                             0x0800316c   Section        0  retarget_io.o(i._sys_istty)
    i._sys_open                              0x08003184   Section        0  retarget_io.o(i._sys_open)
    i._sys_seek                              0x080031e0   Section        0  retarget_io.o(i._sys_seek)
    i._sys_write                             0x080031ea   Section        0  retarget_io.o(i._sys_write)
    i.accept_function                        0x08003228   Section        0  api_msg.o(i.accept_function)
    accept_function                          0x08003229   Thumb Code   246  api_msg.o(i.accept_function)
    i.check_bit_tcp_status_empty             0x080033a4   Section        0  tcpecho.o(i.check_bit_tcp_status_empty)
    i.cmd_process_init                       0x080033c0   Section        0  cmd_process.o(i.cmd_process_init)
    i.cmd_process_thread                     0x080033ec   Section        0  cmd_process.o(i.cmd_process_thread)
    cmd_process_thread                       0x080033ed   Thumb Code   142  cmd_process.o(i.cmd_process_thread)
    i.do_cmd_process                         0x08003504   Section        0  tcpecho.o(i.do_cmd_process)
    i.do_memp_free_pool                      0x08003598   Section        0  memp.o(i.do_memp_free_pool)
    do_memp_free_pool                        0x08003599   Thumb Code    46  memp.o(i.do_memp_free_pool)
    i.do_memp_malloc_pool                    0x08003640   Section        0  memp.o(i.do_memp_malloc_pool)
    do_memp_malloc_pool                      0x08003641   Thumb Code    60  memp.o(i.do_memp_malloc_pool)
    i.err_tcp                                0x080036f8   Section        0  api_msg.o(i.err_tcp)
    err_tcp                                  0x080036f9   Thumb Code   262  api_msg.o(i.err_tcp)
    i.etharp_cleanup_netif                   0x080038c0   Section        0  etharp.o(i.etharp_cleanup_netif)
    i.etharp_find_entry                      0x080038ec   Section        0  etharp.o(i.etharp_find_entry)
    etharp_find_entry                        0x080038ed   Thumb Code   352  etharp.o(i.etharp_find_entry)
    i.etharp_free_entry                      0x08003b48   Section        0  etharp.o(i.etharp_free_entry)
    etharp_free_entry                        0x08003b49   Thumb Code    32  etharp.o(i.etharp_free_entry)
    i.etharp_input                           0x08003b6c   Section        0  etharp.o(i.etharp_input)
    i.etharp_output                          0x08003c70   Section        0  etharp.o(i.etharp_output)
    i.etharp_output_to_arp_index             0x08003e20   Section        0  etharp.o(i.etharp_output_to_arp_index)
    etharp_output_to_arp_index               0x08003e21   Thumb Code   122  etharp.o(i.etharp_output_to_arp_index)
    i.etharp_query                           0x08003f30   Section        0  etharp.o(i.etharp_query)
    i.etharp_raw                             0x08004118   Section        0  etharp.o(i.etharp_raw)
    etharp_raw                               0x08004119   Thumb Code   202  etharp.o(i.etharp_raw)
    i.etharp_request                         0x0800428c   Section        0  etharp.o(i.etharp_request)
    i.etharp_request_dst                     0x08004298   Section        0  etharp.o(i.etharp_request_dst)
    etharp_request_dst                       0x08004299   Thumb Code    28  etharp.o(i.etharp_request_dst)
    i.etharp_tmr                             0x080042b8   Section        0  etharp.o(i.etharp_tmr)
    i.etharp_update_arp_entry                0x08004318   Section        0  etharp.o(i.etharp_update_arp_entry)
    etharp_update_arp_entry                  0x08004319   Thumb Code   148  etharp.o(i.etharp_update_arp_entry)
    i.ethernet_input                         0x08004434   Section        0  ethernet.o(i.ethernet_input)
    i.ethernet_link_status_updated           0x080044d8   Section        0  lwip.o(i.ethernet_link_status_updated)
    ethernet_link_status_updated             0x080044d9   Thumb Code     2  lwip.o(i.ethernet_link_status_updated)
    i.ethernet_link_thread                   0x080044dc   Section        0  ethernetif.o(i.ethernet_link_thread)
    i.ethernet_output                        0x08004584   Section        0  ethernet.o(i.ethernet_output)
    i.ethernetif_init                        0x0800467c   Section        0  ethernetif.o(i.ethernetif_init)
    i.ethernetif_input                       0x0800470c   Section        0  ethernetif.o(i.ethernetif_input)
    ethernetif_input                         0x0800470d   Thumb Code    64  ethernetif.o(i.ethernetif_input)
    i.fputc                                  0x08004754   Section        0  fputc.o(i.fputc)
    i.get_idx_queue_reply                    0x08004770   Section        0  cmd_process.o(i.get_idx_queue_reply)
    i.get_num_connect                        0x08004798   Section        0  cmd_process.o(i.get_num_connect)
    i.icmp_dest_unreach                      0x080047a4   Section        0  icmp.o(i.icmp_dest_unreach)
    i.icmp_input                             0x080047ac   Section        0  icmp.o(i.icmp_input)
    i.icmp_send_response                     0x08004998   Section        0  icmp.o(i.icmp_send_response)
    icmp_send_response                       0x08004999   Thumb Code   130  icmp.o(i.icmp_send_response)
    i.icmp_time_exceeded                     0x08004aa8   Section        0  icmp.o(i.icmp_time_exceeded)
    i.inHandlerMode                          0x08004ab0   Section        0  cmsis_os.o(i.inHandlerMode)
    inHandlerMode                            0x08004ab1   Thumb Code    12  cmsis_os.o(i.inHandlerMode)
    i.ip4_addr_isbroadcast_u32               0x08004abc   Section        0  ip4_addr.o(i.ip4_addr_isbroadcast_u32)
    i.ip4_frag                               0x08004aec   Section        0  ip4_frag.o(i.ip4_frag)
    i.ip4_input                              0x08004d54   Section        0  ip4.o(i.ip4_input)
    i.ip4_input_accept                       0x08004ec8   Section        0  ip4.o(i.ip4_input_accept)
    ip4_input_accept                         0x08004ec9   Thumb Code    40  ip4.o(i.ip4_input_accept)
    i.ip4_output_if                          0x08004ef4   Section        0  ip4.o(i.ip4_output_if)
    i.ip4_output_if_src                      0x08004f14   Section        0  ip4.o(i.ip4_output_if_src)
    i.ip4_reass                              0x0800508c   Section        0  ip4_frag.o(i.ip4_reass)
    i.ip4_route                              0x08005314   Section        0  ip4.o(i.ip4_route)
    i.ip4addr_ntoa                           0x08005374   Section        0  ip4_addr.o(i.ip4addr_ntoa)
    i.ip4addr_ntoa_r                         0x08005380   Section        0  ip4_addr.o(i.ip4addr_ntoa_r)
    i.ip_frag_free_pbuf_custom_ref           0x080053fc   Section        0  ip4_frag.o(i.ip_frag_free_pbuf_custom_ref)
    ip_frag_free_pbuf_custom_ref             0x080053fd   Thumb Code    32  ip4_frag.o(i.ip_frag_free_pbuf_custom_ref)
    i.ip_reass_chain_frag_into_datagram_and_validate 0x0800548c   Section        0  ip4_frag.o(i.ip_reass_chain_frag_into_datagram_and_validate)
    ip_reass_chain_frag_into_datagram_and_validate 0x0800548d   Thumb Code   344  ip4_frag.o(i.ip_reass_chain_frag_into_datagram_and_validate)
    i.ip_reass_dequeue_datagram              0x080056d4   Section        0  ip4_frag.o(i.ip_reass_dequeue_datagram)
    ip_reass_dequeue_datagram                0x080056d5   Thumb Code    54  ip4_frag.o(i.ip_reass_dequeue_datagram)
    i.ip_reass_free_complete_datagram        0x08005790   Section        0  ip4_frag.o(i.ip_reass_free_complete_datagram)
    ip_reass_free_complete_datagram          0x08005791   Thumb Code   204  ip4_frag.o(i.ip_reass_free_complete_datagram)
    i.ip_reass_remove_oldest_datagram        0x08005928   Section        0  ip4_frag.o(i.ip_reass_remove_oldest_datagram)
    ip_reass_remove_oldest_datagram          0x08005929   Thumb Code   122  ip4_frag.o(i.ip_reass_remove_oldest_datagram)
    i.ip_reass_tmr                           0x080059a8   Section        0  ip4_frag.o(i.ip_reass_tmr)
    i.ipfrag_free_pbuf_custom                0x080059d4   Section        0  ip4_frag.o(i.ipfrag_free_pbuf_custom)
    ipfrag_free_pbuf_custom                  0x080059d5   Thumb Code    38  ip4_frag.o(i.ipfrag_free_pbuf_custom)
    i.low_level_init                         0x08005a6c   Section        0  ethernetif.o(i.low_level_init)
    low_level_init                           0x08005a6d   Thumb Code   372  ethernetif.o(i.low_level_init)
    i.low_level_output                       0x08005bf8   Section        0  ethernetif.o(i.low_level_output)
    low_level_output                         0x08005bf9   Thumb Code   138  ethernetif.o(i.low_level_output)
    i.lwip_cyclic_timer                      0x08005c8c   Section        0  timeouts.o(i.lwip_cyclic_timer)
    lwip_cyclic_timer                        0x08005c8d   Thumb Code    50  timeouts.o(i.lwip_cyclic_timer)
    i.lwip_htonl                             0x08005cc8   Section        0  def.o(i.lwip_htonl)
    i.lwip_htons                             0x08005ccc   Section        0  def.o(i.lwip_htons)
    i.lwip_init                              0x08005cd0   Section        0  init.o(i.lwip_init)
    i.lwip_netconn_do_bind                   0x08005cf2   Section        0  api_msg.o(i.lwip_netconn_do_bind)
    i.lwip_netconn_do_close                  0x08005d28   Section        0  api_msg.o(i.lwip_netconn_do_close)
    i.lwip_netconn_do_close_internal         0x08005e60   Section        0  api_msg.o(i.lwip_netconn_do_close_internal)
    lwip_netconn_do_close_internal           0x08005e61   Thumb Code   434  api_msg.o(i.lwip_netconn_do_close_internal)
    i.lwip_netconn_do_delconn                0x08006124   Section        0  api_msg.o(i.lwip_netconn_do_delconn)
    i.lwip_netconn_do_listen                 0x080062bc   Section        0  api_msg.o(i.lwip_netconn_do_listen)
    i.lwip_netconn_do_newconn                0x08006378   Section        0  api_msg.o(i.lwip_netconn_do_newconn)
    i.lwip_netconn_do_recv                   0x0800638a   Section        0  api_msg.o(i.lwip_netconn_do_recv)
    i.lwip_netconn_do_write                  0x080063cc   Section        0  api_msg.o(i.lwip_netconn_do_write)
    i.lwip_netconn_do_writemore              0x08006518   Section        0  api_msg.o(i.lwip_netconn_do_writemore)
    lwip_netconn_do_writemore                0x08006519   Thumb Code   564  api_msg.o(i.lwip_netconn_do_writemore)
    i.lwip_netconn_err_to_msg                0x080068a0   Section        0  api_msg.o(i.lwip_netconn_err_to_msg)
    lwip_netconn_err_to_msg                  0x080068a1   Thumb Code    54  api_msg.o(i.lwip_netconn_err_to_msg)
    i.lwip_netconn_is_err_msg                0x08006948   Section        0  api_msg.o(i.lwip_netconn_is_err_msg)
    i.main                                   0x080069f4   Section        0  main.o(i.main)
    i.makeFreeRtosPriority                   0x08006a7c   Section        0  cmsis_os.o(i.makeFreeRtosPriority)
    makeFreeRtosPriority                     0x08006a7d   Thumb Code    14  cmsis_os.o(i.makeFreeRtosPriority)
    i.mem_free                               0x08006a8c   Section        0  mem.o(i.mem_free)
    i.mem_init                               0x08006c54   Section        0  mem.o(i.mem_init)
    i.mem_malloc                             0x08006d1c   Section        0  mem.o(i.mem_malloc)
    i.mem_to_ptr                             0x08006f68   Section        0  mem.o(i.mem_to_ptr)
    mem_to_ptr                               0x08006f69   Thumb Code    10  mem.o(i.mem_to_ptr)
    i.mem_trim                               0x08006f78   Section        0  mem.o(i.mem_trim)
    i.memp_free                              0x0800715c   Section        0  memp.o(i.memp_free)
    i.memp_free_pool                         0x080071f8   Section        0  memp.o(i.memp_free_pool)
    i.memp_init                              0x08007280   Section        0  memp.o(i.memp_init)
    i.memp_init_pool                         0x080072a0   Section        0  memp.o(i.memp_init_pool)
    i.memp_malloc                            0x080072cc   Section        0  memp.o(i.memp_malloc)
    i.memp_malloc_pool                       0x08007370   Section        0  memp.o(i.memp_malloc_pool)
    i.netbuf_data                            0x080073fc   Section        0  netbuf.o(i.netbuf_data)
    i.netbuf_delete                          0x080074f8   Section        0  netbuf.o(i.netbuf_delete)
    i.netbuf_next                            0x0800751c   Section        0  netbuf.o(i.netbuf_next)
    i.netconn_accept                         0x080075c4   Section        0  api_lib.o(i.netconn_accept)
    i.netconn_alloc                          0x080076fc   Section        0  api_msg.o(i.netconn_alloc)
    i.netconn_apimsg                         0x08007800   Section        0  api_lib.o(i.netconn_apimsg)
    netconn_apimsg                           0x08007801   Thumb Code    22  api_lib.o(i.netconn_apimsg)
    i.netconn_bind                           0x08007818   Section        0  api_lib.o(i.netconn_bind)
    i.netconn_close                          0x080078d0   Section        0  api_lib.o(i.netconn_close)
    i.netconn_close_shutdown                 0x080078d8   Section        0  api_lib.o(i.netconn_close_shutdown)
    netconn_close_shutdown                   0x080078d9   Thumb Code    50  api_lib.o(i.netconn_close_shutdown)
    i.netconn_delete                         0x08007988   Section        0  api_lib.o(i.netconn_delete)
    i.netconn_drain                          0x080079a6   Section        0  api_msg.o(i.netconn_drain)
    netconn_drain                            0x080079a7   Thumb Code   156  api_msg.o(i.netconn_drain)
    i.netconn_err                            0x08007a42   Section        0  api_lib.o(i.netconn_err)
    i.netconn_free                           0x08007a60   Section        0  api_msg.o(i.netconn_free)
    i.netconn_listen_with_backlog            0x08007bcc   Section        0  api_lib.o(i.netconn_listen_with_backlog)
    i.netconn_new_with_proto_and_callback    0x08007c74   Section        0  api_lib.o(i.netconn_new_with_proto_and_callback)
    i.netconn_prepare_delete                 0x08007dec   Section        0  api_lib.o(i.netconn_prepare_delete)
    i.netconn_recv                           0x08007e0c   Section        0  api_lib.o(i.netconn_recv)
    i.netconn_recv_data                      0x08007f48   Section        0  api_lib.o(i.netconn_recv_data)
    netconn_recv_data                        0x08007f49   Thumb Code   234  api_lib.o(i.netconn_recv_data)
    i.netconn_recv_data_tcp                  0x080080d8   Section        0  api_lib.o(i.netconn_recv_data_tcp)
    netconn_recv_data_tcp                    0x080080d9   Thumb Code   146  api_lib.o(i.netconn_recv_data_tcp)
    i.netconn_tcp_recvd_msg                  0x0800816c   Section        0  api_lib.o(i.netconn_tcp_recvd_msg)
    netconn_tcp_recvd_msg                    0x0800816d   Thumb Code    50  api_lib.o(i.netconn_tcp_recvd_msg)
    i.netconn_write_partly                   0x08008224   Section        0  api_lib.o(i.netconn_write_partly)
    i.netconn_write_vectors_partly           0x08008238   Section        0  api_lib.o(i.netconn_write_vectors_partly)
    i.netif_add                              0x080083c8   Section        0  netif.o(i.netif_add)
    i.netif_do_ip_addr_changed               0x080085a4   Section        0  netif.o(i.netif_do_ip_addr_changed)
    netif_do_ip_addr_changed                 0x080085a5   Thumb Code    22  netif.o(i.netif_do_ip_addr_changed)
    i.netif_do_set_gw                        0x080085ba   Section        0  netif.o(i.netif_do_set_gw)
    netif_do_set_gw                          0x080085bb   Thumb Code    22  netif.o(i.netif_do_set_gw)
    i.netif_do_set_ipaddr                    0x080085d0   Section        0  netif.o(i.netif_do_set_ipaddr)
    netif_do_set_ipaddr                      0x080085d1   Thumb Code    86  netif.o(i.netif_do_set_ipaddr)
    i.netif_do_set_netmask                   0x08008694   Section        0  netif.o(i.netif_do_set_netmask)
    netif_do_set_netmask                     0x08008695   Thumb Code    22  netif.o(i.netif_do_set_netmask)
    i.netif_get_by_index                     0x080086ac   Section        0  netif.o(i.netif_get_by_index)
    i.netif_init                             0x080086d4   Section        0  netif.o(i.netif_init)
    i.netif_issue_reports                    0x080086d8   Section        0  netif.o(i.netif_issue_reports)
    netif_issue_reports                      0x080086d9   Thumb Code    62  netif.o(i.netif_issue_reports)
    i.netif_null_output_ip4                  0x08008798   Section        0  netif.o(i.netif_null_output_ip4)
    netif_null_output_ip4                    0x08008799   Thumb Code     6  netif.o(i.netif_null_output_ip4)
    i.netif_set_addr                         0x080087a0   Section        0  netif.o(i.netif_set_addr)
    i.netif_set_default                      0x08008800   Section        0  netif.o(i.netif_set_default)
    i.netif_set_down                         0x0800880c   Section        0  netif.o(i.netif_set_down)
    i.netif_set_link_callback                0x080088b4   Section        0  netif.o(i.netif_set_link_callback)
    i.netif_set_link_down                    0x080088bc   Section        0  netif.o(i.netif_set_link_down)
    i.netif_set_link_up                      0x08008968   Section        0  netif.o(i.netif_set_link_up)
    i.netif_set_up                           0x08008a28   Section        0  netif.o(i.netif_set_up)
    i.osDelay                                0x08008ac8   Section        0  cmsis_os.o(i.osDelay)
    i.osKernelStart                          0x08008ad6   Section        0  cmsis_os.o(i.osKernelStart)
    i.osKernelSysTick                        0x08008ae0   Section        0  cmsis_os.o(i.osKernelSysTick)
    i.osMessageCreate                        0x08008af8   Section        0  cmsis_os.o(i.osMessageCreate)
    i.osMessageDelete                        0x08008b1e   Section        0  cmsis_os.o(i.osMessageDelete)
    i.osMessageGet                           0x08008b38   Section        0  cmsis_os.o(i.osMessageGet)
    i.osMessagePut                           0x08008bcc   Section        0  cmsis_os.o(i.osMessagePut)
    i.osMessageWaiting                       0x08008c28   Section        0  cmsis_os.o(i.osMessageWaiting)
    i.osMutexCreate                          0x08008c46   Section        0  cmsis_os.o(i.osMutexCreate)
    i.osMutexRelease                         0x08008c58   Section        0  cmsis_os.o(i.osMutexRelease)
    i.osMutexWait                            0x08008ca8   Section        0  cmsis_os.o(i.osMutexWait)
    i.osSemaphoreCreate                      0x08008d10   Section        0  cmsis_os.o(i.osSemaphoreCreate)
    i.osSemaphoreDelete                      0x08008d4e   Section        0  cmsis_os.o(i.osSemaphoreDelete)
    i.osSemaphoreRelease                     0x08008d68   Section        0  cmsis_os.o(i.osSemaphoreRelease)
    i.osSemaphoreWait                        0x08008db8   Section        0  cmsis_os.o(i.osSemaphoreWait)
    i.osThreadCreate                         0x08008e20   Section        0  cmsis_os.o(i.osThreadCreate)
    i.osThreadTerminate                      0x08008e74   Section        0  cmsis_os.o(i.osThreadTerminate)
    i.parse_buff                             0x08008e80   Section        0  cmd_process.o(i.parse_buff)
    i.pbuf_add_header                        0x08008ebc   Section        0  pbuf.o(i.pbuf_add_header)
    i.pbuf_add_header_impl                   0x08008ec4   Section        0  pbuf.o(i.pbuf_add_header_impl)
    pbuf_add_header_impl                     0x08008ec5   Thumb Code    92  pbuf.o(i.pbuf_add_header_impl)
    i.pbuf_alloc                             0x08008f84   Section        0  pbuf.o(i.pbuf_alloc)
    i.pbuf_alloc_reference                   0x080091e0   Section        0  pbuf.o(i.pbuf_alloc_reference)
    i.pbuf_alloced_custom                    0x08009290   Section        0  pbuf.o(i.pbuf_alloced_custom)
    i.pbuf_cat                               0x080092c8   Section        0  pbuf.o(i.pbuf_cat)
    i.pbuf_clen                              0x080093f8   Section        0  pbuf.o(i.pbuf_clen)
    i.pbuf_clone                             0x0800940c   Section        0  pbuf.o(i.pbuf_clone)
    i.pbuf_copy                              0x080094a8   Section        0  pbuf.o(i.pbuf_copy)
    i.pbuf_copy_partial                      0x08009688   Section        0  pbuf.o(i.pbuf_copy_partial)
    i.pbuf_free                              0x080097a4   Section        0  pbuf.o(i.pbuf_free)
    i.pbuf_free_custom                       0x0800990c   Section        0  ethernetif.o(i.pbuf_free_custom)
    i.pbuf_free_ooseq_callback               0x08009938   Section        0  pbuf.o(i.pbuf_free_ooseq_callback)
    pbuf_free_ooseq_callback                 0x08009939   Thumb Code    42  pbuf.o(i.pbuf_free_ooseq_callback)
    i.pbuf_header_force                      0x0800996c   Section        0  pbuf.o(i.pbuf_header_force)
    i.pbuf_header_impl                       0x08009972   Section        0  pbuf.o(i.pbuf_header_impl)
    pbuf_header_impl                         0x08009973   Thumb Code    14  pbuf.o(i.pbuf_header_impl)
    i.pbuf_init_alloced_pbuf                 0x08009980   Section        0  pbuf.o(i.pbuf_init_alloced_pbuf)
    pbuf_init_alloced_pbuf                   0x08009981   Thumb Code    28  pbuf.o(i.pbuf_init_alloced_pbuf)
    i.pbuf_realloc                           0x0800999c   Section        0  pbuf.o(i.pbuf_realloc)
    i.pbuf_ref                               0x08009ad0   Section        0  pbuf.o(i.pbuf_ref)
    i.pbuf_remove_header                     0x08009b6c   Section        0  pbuf.o(i.pbuf_remove_header)
    i.pcb_new                                0x08009c3c   Section        0  api_msg.o(i.pcb_new)
    pcb_new                                  0x08009c3d   Thumb Code   118  api_msg.o(i.pcb_new)
    i.plug_holes                             0x08009d34   Section        0  mem.o(i.plug_holes)
    plug_holes                               0x08009d35   Thumb Code   198  mem.o(i.plug_holes)
    i.poll_tcp                               0x08009ed4   Section        0  api_msg.o(i.poll_tcp)
    poll_tcp                                 0x08009ed5   Thumb Code   112  api_msg.o(i.poll_tcp)
    i.prvAddCurrentTaskToDelayedList         0x08009fb0   Section        0  tasks.o(i.prvAddCurrentTaskToDelayedList)
    prvAddCurrentTaskToDelayedList           0x08009fb1   Thumb Code   102  tasks.o(i.prvAddCurrentTaskToDelayedList)
    i.prvAddNewTaskToReadyList               0x0800a020   Section        0  tasks.o(i.prvAddNewTaskToReadyList)
    prvAddNewTaskToReadyList                 0x0800a021   Thumb Code   194  tasks.o(i.prvAddNewTaskToReadyList)
    i.prvCopyDataFromQueue                   0x0800a0f0   Section        0  queue.o(i.prvCopyDataFromQueue)
    prvCopyDataFromQueue                     0x0800a0f1   Thumb Code    38  queue.o(i.prvCopyDataFromQueue)
    i.prvCopyDataToQueue                     0x0800a116   Section        0  queue.o(i.prvCopyDataToQueue)
    prvCopyDataToQueue                       0x0800a117   Thumb Code   108  queue.o(i.prvCopyDataToQueue)
    i.prvDeleteTCB                           0x0800a182   Section        0  tasks.o(i.prvDeleteTCB)
    prvDeleteTCB                             0x0800a183   Thumb Code    56  tasks.o(i.prvDeleteTCB)
    i.prvHeapInit                            0x0800a1bc   Section        0  heap_4.o(i.prvHeapInit)
    prvHeapInit                              0x0800a1bd   Thumb Code    70  heap_4.o(i.prvHeapInit)
    i.prvIdleTask                            0x0800a20c   Section        0  tasks.o(i.prvIdleTask)
    prvIdleTask                              0x0800a20d   Thumb Code    82  tasks.o(i.prvIdleTask)
    i.prvInitialiseMutex                     0x0800a26c   Section        0  queue.o(i.prvInitialiseMutex)
    prvInitialiseMutex                       0x0800a26d   Thumb Code    22  queue.o(i.prvInitialiseMutex)
    i.prvInitialiseNewQueue                  0x0800a282   Section        0  queue.o(i.prvInitialiseNewQueue)
    prvInitialiseNewQueue                    0x0800a283   Thumb Code    22  queue.o(i.prvInitialiseNewQueue)
    i.prvInitialiseNewTask                   0x0800a298   Section        0  tasks.o(i.prvInitialiseNewTask)
    prvInitialiseNewTask                     0x0800a299   Thumb Code   158  tasks.o(i.prvInitialiseNewTask)
    i.prvInsertBlockIntoFreeList             0x0800a338   Section        0  heap_4.o(i.prvInsertBlockIntoFreeList)
    prvInsertBlockIntoFreeList               0x0800a339   Thumb Code    72  heap_4.o(i.prvInsertBlockIntoFreeList)
    i.prvIsQueueEmpty                        0x0800a384   Section        0  queue.o(i.prvIsQueueEmpty)
    prvIsQueueEmpty                          0x0800a385   Thumb Code    28  queue.o(i.prvIsQueueEmpty)
    i.prvResetNextTaskUnblockTime            0x0800a3a0   Section        0  tasks.o(i.prvResetNextTaskUnblockTime)
    prvResetNextTaskUnblockTime              0x0800a3a1   Thumb Code    26  tasks.o(i.prvResetNextTaskUnblockTime)
    i.prvTaskExitError                       0x0800a3c0   Section        0  port.o(i.prvTaskExitError)
    prvTaskExitError                         0x0800a3c1   Thumb Code    42  port.o(i.prvTaskExitError)
    i.prvTestWaitCondition                   0x0800a3f0   Section        0  event_groups.o(i.prvTestWaitCondition)
    prvTestWaitCondition                     0x0800a3f1   Thumb Code    24  event_groups.o(i.prvTestWaitCondition)
    i.prvUnlockQueue                         0x0800a408   Section        0  queue.o(i.prvUnlockQueue)
    prvUnlockQueue                           0x0800a409   Thumb Code   106  queue.o(i.prvUnlockQueue)
    i.ptr_to_mem                             0x0800a474   Section        0  mem.o(i.ptr_to_mem)
    ptr_to_mem                               0x0800a475   Thumb Code     8  mem.o(i.ptr_to_mem)
    i.pvPortMalloc                           0x0800a480   Section        0  heap_4.o(i.pvPortMalloc)
    i.pvTaskIncrementMutexHeldCount          0x0800a564   Section        0  tasks.o(i.pvTaskIncrementMutexHeldCount)
    i.pxPortInitialiseStack                  0x0800a57c   Section        0  port.o(i.pxPortInitialiseStack)
    i.recv_tcp                               0x0800a5ac   Section        0  api_msg.o(i.recv_tcp)
    recv_tcp                                 0x0800a5ad   Thumb Code   166  api_msg.o(i.recv_tcp)
    i.recv_udp                               0x0800a730   Section        0  api_msg.o(i.recv_udp)
    recv_udp                                 0x0800a731   Thumb Code   164  api_msg.o(i.recv_udp)
    i.sent_tcp                               0x0800a894   Section        0  api_msg.o(i.sent_tcp)
    sent_tcp                                 0x0800a895   Thumb Code   100  api_msg.o(i.sent_tcp)
    i.server                                 0x0800a964   Section        0  tcpecho.o(i.server)
    i.set_identity_client                    0x0800aa78   Section        0  cmd_process.o(i.set_identity_client)
    i.set_num_connect                        0x0800aa88   Section        0  cmd_process.o(i.set_num_connect)
    i.setup_tcp                              0x0800aa94   Section        0  api_msg.o(i.setup_tcp)
    setup_tcp                                0x0800aa95   Thumb Code    50  api_msg.o(i.setup_tcp)
    i.sys_arch_mbox_fetch                    0x0800aad8   Section        0  sys_arch.o(i.sys_arch_mbox_fetch)
    i.sys_arch_mbox_tryfetch                 0x0800ab1e   Section        0  sys_arch.o(i.sys_arch_mbox_tryfetch)
    i.sys_arch_protect                       0x0800ab40   Section        0  sys_arch.o(i.sys_arch_protect)
    i.sys_arch_sem_wait                      0x0800ab58   Section        0  sys_arch.o(i.sys_arch_sem_wait)
    i.sys_arch_unprotect                     0x0800ab90   Section        0  sys_arch.o(i.sys_arch_unprotect)
    i.sys_check_timeouts                     0x0800ab9c   Section        0  timeouts.o(i.sys_check_timeouts)
    i.sys_init                               0x0800abe0   Section        0  sys_arch.o(i.sys_init)
    i.sys_mbox_free                          0x0800abf8   Section        0  sys_arch.o(i.sys_mbox_free)
    i.sys_mbox_new                           0x0800ac0c   Section        0  sys_arch.o(i.sys_mbox_new)
    i.sys_mbox_set_invalid                   0x0800ac38   Section        0  sys_arch.o(i.sys_mbox_set_invalid)
    i.sys_mbox_trypost                       0x0800ac3e   Section        0  sys_arch.o(i.sys_mbox_trypost)
    i.sys_mbox_valid                         0x0800ac52   Section        0  sys_arch.o(i.sys_mbox_valid)
    i.sys_mutex_lock                         0x0800ac5c   Section        0  sys_arch.o(i.sys_mutex_lock)
    i.sys_mutex_new                          0x0800ac66   Section        0  sys_arch.o(i.sys_mutex_new)
    i.sys_mutex_unlock                       0x0800ac84   Section        0  sys_arch.o(i.sys_mutex_unlock)
    i.sys_now                                0x0800ac8a   Section        0  ethernetif.o(i.sys_now)
    i.sys_sem_free                           0x0800ac8e   Section        0  sys_arch.o(i.sys_sem_free)
    i.sys_sem_new                            0x0800ac94   Section        0  sys_arch.o(i.sys_sem_new)
    i.sys_sem_set_invalid                    0x0800acc0   Section        0  sys_arch.o(i.sys_sem_set_invalid)
    i.sys_sem_signal                         0x0800acc6   Section        0  sys_arch.o(i.sys_sem_signal)
    i.sys_sem_valid                          0x0800accc   Section        0  sys_arch.o(i.sys_sem_valid)
    i.sys_thread_new                         0x0800acd6   Section        0  sys_arch.o(i.sys_thread_new)
    i.sys_timeout                            0x0800ad08   Section        0  timeouts.o(i.sys_timeout)
    i.sys_timeout_abs                        0x0800adcc   Section        0  timeouts.o(i.sys_timeout_abs)
    sys_timeout_abs                          0x0800adcd   Thumb Code    88  timeouts.o(i.sys_timeout_abs)
    i.sys_timeouts_init                      0x0800aec4   Section        0  timeouts.o(i.sys_timeouts_init)
    i.sys_timeouts_sleeptime                 0x0800aeec   Section        0  timeouts.o(i.sys_timeouts_sleeptime)
    i.tcp_abandon                            0x0800af14   Section        0  tcp.o(i.tcp_abandon)
    i.tcp_abort                              0x0800b0c4   Section        0  tcp.o(i.tcp_abort)
    i.tcp_accept                             0x0800b0ca   Section        0  tcp.o(i.tcp_accept)
    i.tcp_accept_null                        0x0800b0d8   Section        0  tcp.o(i.tcp_accept_null)
    tcp_accept_null                          0x0800b0d9   Thumb Code    32  tcp.o(i.tcp_accept_null)
    i.tcp_alloc                              0x0800b170   Section        0  tcp.o(i.tcp_alloc)
    i.tcp_arg                                0x0800b29c   Section        0  tcp.o(i.tcp_arg)
    i.tcp_bind                               0x0800b2a4   Section        0  tcp.o(i.tcp_bind)
    i.tcp_client_thread                      0x0800b3f0   Section        0  tcpecho.o(i.tcp_client_thread)
    tcp_client_thread                        0x0800b3f1   Thumb Code   426  tcpecho.o(i.tcp_client_thread)
    i.tcp_close                              0x0800b778   Section        0  tcp.o(i.tcp_close)
    i.tcp_close_shutdown                     0x0800b818   Section        0  tcp.o(i.tcp_close_shutdown)
    tcp_close_shutdown                       0x0800b819   Thumb Code   286  tcp.o(i.tcp_close_shutdown)
    i.tcp_close_shutdown_fin                 0x0800b9f4   Section        0  tcp.o(i.tcp_close_shutdown_fin)
    tcp_close_shutdown_fin                   0x0800b9f5   Thumb Code    96  tcp.o(i.tcp_close_shutdown_fin)
    i.tcp_create_segment                     0x0800bab8   Section        0  tcp_out.o(i.tcp_create_segment)
    tcp_create_segment                       0x0800bab9   Thumb Code   202  tcp_out.o(i.tcp_create_segment)
    i.tcp_eff_send_mss_netif                 0x0800bc3c   Section        0  tcp.o(i.tcp_eff_send_mss_netif)
    i.tcp_enqueue_flags                      0x0800bcf4   Section        0  tcp_out.o(i.tcp_enqueue_flags)
    i.tcp_err                                0x0800bf2c   Section        0  tcp.o(i.tcp_err)
    i.tcp_fasttmr                            0x0800bfd0   Section        0  tcp.o(i.tcp_fasttmr)
    i.tcp_free                               0x0800c03c   Section        0  tcp.o(i.tcp_free)
    i.tcp_free_acked_segments                0x0800c0cc   Section        0  tcp_in.o(i.tcp_free_acked_segments)
    tcp_free_acked_segments                  0x0800c0cd   Thumb Code   152  tcp_in.o(i.tcp_free_acked_segments)
    i.tcp_free_ooseq                         0x0800c20c   Section        0  tcp.o(i.tcp_free_ooseq)
    i.tcp_get_next_optbyte                   0x0800c220   Section        0  tcp_in.o(i.tcp_get_next_optbyte)
    tcp_get_next_optbyte                     0x0800c221   Thumb Code    34  tcp_in.o(i.tcp_get_next_optbyte)
    i.tcp_init                               0x0800c248   Section        0  tcp.o(i.tcp_init)
    i.tcp_input                              0x0800c260   Section        0  tcp_in.o(i.tcp_input)
    i.tcp_input_delayed_close                0x0800c8b0   Section        0  tcp_in.o(i.tcp_input_delayed_close)
    tcp_input_delayed_close                  0x0800c8b1   Thumb Code    70  tcp_in.o(i.tcp_input_delayed_close)
    i.tcp_keepalive                          0x0800c984   Section        0  tcp_out.o(i.tcp_keepalive)
    i.tcp_kill_state                         0x0800ca50   Section        0  tcp.o(i.tcp_kill_state)
    tcp_kill_state                           0x0800ca51   Thumb Code    78  tcp.o(i.tcp_kill_state)
    i.tcp_listen_closed                      0x0800cb0c   Section        0  tcp.o(i.tcp_listen_closed)
    tcp_listen_closed                        0x0800cb0d   Thumb Code    68  tcp.o(i.tcp_listen_closed)
    i.tcp_listen_input                       0x0800cb7c   Section        0  tcp_in.o(i.tcp_listen_input)
    tcp_listen_input                         0x0800cb7d   Thumb Code   266  tcp_in.o(i.tcp_listen_input)
    i.tcp_listen_with_backlog_and_err        0x0800cd14   Section        0  tcp.o(i.tcp_listen_with_backlog_and_err)
    i.tcp_netif_ip_addr_changed              0x0800ce94   Section        0  tcp.o(i.tcp_netif_ip_addr_changed)
    i.tcp_netif_ip_addr_changed_pcblist      0x0800cee0   Section        0  tcp.o(i.tcp_netif_ip_addr_changed_pcblist)
    tcp_netif_ip_addr_changed_pcblist        0x0800cee1   Thumb Code    52  tcp.o(i.tcp_netif_ip_addr_changed_pcblist)
    i.tcp_new_ip_type                        0x0800cfa0   Section        0  tcp.o(i.tcp_new_ip_type)
    i.tcp_new_port                           0x0800cfa8   Section        0  tcp.o(i.tcp_new_port)
    tcp_new_port                             0x0800cfa9   Thumb Code    86  tcp.o(i.tcp_new_port)
    i.tcp_next_iss                           0x0800d008   Section        0  tcp.o(i.tcp_next_iss)
    i.tcp_oos_insert_segment                 0x0800d0a0   Section        0  tcp_in.o(i.tcp_oos_insert_segment)
    tcp_oos_insert_segment                   0x0800d0a1   Thumb Code   134  tcp_in.o(i.tcp_oos_insert_segment)
    i.tcp_output                             0x0800d1b0   Section        0  tcp_out.o(i.tcp_output)
    i.tcp_output_alloc_header                0x0800d490   Section        0  tcp_out.o(i.tcp_output_alloc_header)
    tcp_output_alloc_header                  0x0800d491   Thumb Code    70  tcp_out.o(i.tcp_output_alloc_header)
    i.tcp_output_alloc_header_common         0x0800d55c   Section        0  tcp_out.o(i.tcp_output_alloc_header_common)
    tcp_output_alloc_header_common           0x0800d55d   Thumb Code   132  tcp_out.o(i.tcp_output_alloc_header_common)
    i.tcp_output_control_segment             0x0800d66c   Section        0  tcp_out.o(i.tcp_output_control_segment)
    tcp_output_control_segment               0x0800d66d   Thumb Code    86  tcp_out.o(i.tcp_output_control_segment)
    i.tcp_output_fill_options                0x0800d74c   Section        0  tcp_out.o(i.tcp_output_fill_options)
    tcp_output_fill_options                  0x0800d74d   Thumb Code    66  tcp_out.o(i.tcp_output_fill_options)
    i.tcp_output_segment                     0x0800d828   Section        0  tcp_out.o(i.tcp_output_segment)
    tcp_output_segment                       0x0800d829   Thumb Code   266  tcp_out.o(i.tcp_output_segment)
    i.tcp_output_segment_busy                0x0800da0c   Section        0  tcp_out.o(i.tcp_output_segment_busy)
    tcp_output_segment_busy                  0x0800da0d   Thumb Code    36  tcp_out.o(i.tcp_output_segment_busy)
    i.tcp_parseopt                           0x0800dab4   Section        0  tcp_in.o(i.tcp_parseopt)
    tcp_parseopt                             0x0800dab5   Thumb Code   126  tcp_in.o(i.tcp_parseopt)
    i.tcp_pbuf_prealloc                      0x0800dbb0   Section        0  tcp_out.o(i.tcp_pbuf_prealloc)
    tcp_pbuf_prealloc                        0x0800dbb1   Thumb Code   154  tcp_out.o(i.tcp_pbuf_prealloc)
    i.tcp_pcb_purge                          0x0800dd00   Section        0  tcp.o(i.tcp_pcb_purge)
    i.tcp_pcb_remove                         0x0800ddcc   Section        0  tcp.o(i.tcp_pcb_remove)
    i.tcp_poll                               0x0800df5c   Section        0  tcp.o(i.tcp_poll)
    i.tcp_process                            0x0800e028   Section        0  tcp_in.o(i.tcp_process)
    tcp_process                              0x0800e029   Thumb Code  1222  tcp_in.o(i.tcp_process)
    i.tcp_process_refused_data               0x0800e4f0   Section        0  tcp.o(i.tcp_process_refused_data)
    i.tcp_receive                            0x0800e5f4   Section        0  tcp_in.o(i.tcp_receive)
    tcp_receive                              0x0800e5f5   Thumb Code  2152  tcp_in.o(i.tcp_receive)
    i.tcp_recv                               0x0800ef1c   Section        0  tcp.o(i.tcp_recv)
    i.tcp_recv_null                          0x0800efc0   Section        0  tcp.o(i.tcp_recv_null)
    i.tcp_recved                             0x0800f070   Section        0  tcp.o(i.tcp_recved)
    i.tcp_remove_listener                    0x0800f170   Section        0  tcp.o(i.tcp_remove_listener)
    tcp_remove_listener                      0x0800f171   Thumb Code    42  tcp.o(i.tcp_remove_listener)
    i.tcp_rexmit                             0x0800f1c8   Section        0  tcp_out.o(i.tcp_rexmit)
    i.tcp_rexmit_fast                        0x0800f2b4   Section        0  tcp_out.o(i.tcp_rexmit_fast)
    i.tcp_rexmit_rto                         0x0800f39c   Section        0  tcp_out.o(i.tcp_rexmit_rto)
    i.tcp_rexmit_rto_commit                  0x0800f440   Section        0  tcp_out.o(i.tcp_rexmit_rto_commit)
    i.tcp_rexmit_rto_prepare                 0x0800f4ec   Section        0  tcp_out.o(i.tcp_rexmit_rto_prepare)
    i.tcp_route                              0x0800f5e4   Section        0  tcp_out.o(i.tcp_route)
    tcp_route                                0x0800f5e5   Thumb Code    16  tcp_out.o(i.tcp_route)
    i.tcp_rst                                0x0800f5f4   Section        0  tcp_out.o(i.tcp_rst)
    i.tcp_seg_copy                           0x0800f708   Section        0  tcp.o(i.tcp_seg_copy)
    i.tcp_seg_free                           0x0800f7b4   Section        0  tcp.o(i.tcp_seg_free)
    i.tcp_segs_free                          0x0800f7d0   Section        0  tcp.o(i.tcp_segs_free)
    i.tcp_send_empty_ack                     0x0800f7e4   Section        0  tcp_out.o(i.tcp_send_empty_ack)
    i.tcp_send_fin                           0x0800f8d0   Section        0  tcp_out.o(i.tcp_send_fin)
    i.tcp_sent                               0x0800f99c   Section        0  tcp.o(i.tcp_sent)
    i.tcp_shutdown                           0x0800fa40   Section        0  tcp.o(i.tcp_shutdown)
    i.tcp_slowtmr                            0x0800fb1c   Section        0  tcp.o(i.tcp_slowtmr)
    i.tcp_split_unsent_seg                   0x080100f0   Section        0  tcp_out.o(i.tcp_split_unsent_seg)
    i.tcp_tcp_get_tcp_addrinfo               0x08010320   Section        0  tcp.o(i.tcp_tcp_get_tcp_addrinfo)
    i.tcp_timer_needed                       0x08010348   Section        0  timeouts.o(i.tcp_timer_needed)
    i.tcp_timewait_input                     0x0801037c   Section        0  tcp_in.o(i.tcp_timewait_input)
    tcp_timewait_input                       0x0801037d   Thumb Code   120  tcp_in.o(i.tcp_timewait_input)
    i.tcp_tmr                                0x0801047c   Section        0  tcp.o(i.tcp_tmr)
    i.tcp_trigger_input_pcb_close            0x0801049c   Section        0  tcp_in.o(i.tcp_trigger_input_pcb_close)
    i.tcp_update_rcv_ann_wnd                 0x080104ac   Section        0  tcp.o(i.tcp_update_rcv_ann_wnd)
    i.tcp_write                              0x080105a0   Section        0  tcp_out.o(i.tcp_write)
    i.tcp_write_checks                       0x08010c64   Section        0  tcp_out.o(i.tcp_write_checks)
    tcp_write_checks                         0x08010c65   Thumb Code   134  tcp_out.o(i.tcp_write_checks)
    i.tcp_zero_window_probe                  0x08010dd8   Section        0  tcp_out.o(i.tcp_zero_window_probe)
    i.tcpecho_init                           0x08010f1c   Section        0  tcpecho.o(i.tcpecho_init)
    i.tcpip_init                             0x08010f44   Section        0  tcpip.o(i.tcpip_init)
    i.tcpip_inpkt                            0x08011054   Section        0  tcpip.o(i.tcpip_inpkt)
    i.tcpip_input                            0x08011114   Section        0  tcpip.o(i.tcpip_input)
    i.tcpip_send_msg_wait_sem                0x08011130   Section        0  tcpip.o(i.tcpip_send_msg_wait_sem)
    i.tcpip_tcp_timer                        0x08011150   Section        0  timeouts.o(i.tcpip_tcp_timer)
    tcpip_tcp_timer                          0x08011151   Thumb Code    40  timeouts.o(i.tcpip_tcp_timer)
    i.tcpip_thread                           0x08011188   Section        0  tcpip.o(i.tcpip_thread)
    tcpip_thread                             0x08011189   Thumb Code   122  tcpip.o(i.tcpip_thread)
    i.tcpip_thread_handle_msg                0x08011280   Section        0  tcpip.o(i.tcpip_thread_handle_msg)
    tcpip_thread_handle_msg                  0x08011281   Thumb Code    82  tcpip.o(i.tcpip_thread_handle_msg)
    i.tcpip_try_callback                     0x0801134c   Section        0  tcpip.o(i.tcpip_try_callback)
    i.udp_bind                               0x08011408   Section        0  udp.o(i.udp_bind)
    i.udp_init                               0x08011544   Section        0  udp.o(i.udp_init)
    i.udp_input                              0x0801155c   Section        0  udp.o(i.udp_input)
    i.udp_input_local_match                  0x08011744   Section        0  udp.o(i.udp_input_local_match)
    udp_input_local_match                    0x08011745   Thumb Code   100  udp.o(i.udp_input_local_match)
    i.udp_netif_ip_addr_changed              0x08011850   Section        0  udp.o(i.udp_netif_ip_addr_changed)
    i.udp_new                                0x08011884   Section        0  udp.o(i.udp_new)
    i.udp_new_ip_type                        0x0801189e   Section        0  udp.o(i.udp_new_ip_type)
    i.udp_recv                               0x080118a4   Section        0  udp.o(i.udp_recv)
    i.udp_remove                             0x0801192c   Section        0  udp.o(i.udp_remove)
    i.uxListRemove                           0x080119dc   Section        0  list.o(i.uxListRemove)
    i.uxQueueMessagesWaiting                 0x08011a02   Section        0  queue.o(i.uxQueueMessagesWaiting)
    i.uxQueueMessagesWaitingFromISR          0x08011a2a   Section        0  queue.o(i.uxQueueMessagesWaitingFromISR)
    i.uxTaskResetEventItemValue              0x08011a44   Section        0  tasks.o(i.uxTaskResetEventItemValue)
    i.vApplicationGetIdleTaskMemory          0x08011a5c   Section        0  freertos.o(i.vApplicationGetIdleTaskMemory)
    i.vListInitialise                        0x08011a74   Section        0  list.o(i.vListInitialise)
    i.vListInitialiseItem                    0x08011a8a   Section        0  list.o(i.vListInitialiseItem)
    i.vListInsert                            0x08011a90   Section        0  list.o(i.vListInsert)
    i.vListInsertEnd                         0x08011ac0   Section        0  list.o(i.vListInsertEnd)
    i.vPortEnterCritical                     0x08011ad8   Section        0  port.o(i.vPortEnterCritical)
    i.vPortExitCritical                      0x08011b20   Section        0  port.o(i.vPortExitCritical)
    i.vPortFree                              0x08011b4c   Section        0  heap_4.o(i.vPortFree)
    i.vPortSetupTimerInterrupt               0x08011bb0   Section        0  port.o(i.vPortSetupTimerInterrupt)
    i.vPortValidateInterruptPriority         0x08011bd4   Section        0  port.o(i.vPortValidateInterruptPriority)
    i.vQueueDelete                           0x08011c30   Section        0  queue.o(i.vQueueDelete)
    i.vQueueUnregisterQueue                  0x08011c64   Section        0  queue.o(i.vQueueUnregisterQueue)
    i.vTaskDelay                             0x08011c8c   Section        0  tasks.o(i.vTaskDelay)
    i.vTaskDelete                            0x08011cdc   Section        0  tasks.o(i.vTaskDelete)
    i.vTaskInternalSetTimeOutState           0x08011d8c   Section        0  tasks.o(i.vTaskInternalSetTimeOutState)
    i.vTaskMissedYield                       0x08011d9c   Section        0  tasks.o(i.vTaskMissedYield)
    i.vTaskPlaceOnEventList                  0x08011da8   Section        0  tasks.o(i.vTaskPlaceOnEventList)
    i.vTaskPlaceOnUnorderedEventList         0x08011ddc   Section        0  tasks.o(i.vTaskPlaceOnUnorderedEventList)
    i.vTaskPriorityDisinheritAfterTimeout    0x08011e34   Section        0  tasks.o(i.vTaskPriorityDisinheritAfterTimeout)
    i.vTaskRemoveFromUnorderedEventList      0x08011eec   Section        0  tasks.o(i.vTaskRemoveFromUnorderedEventList)
    i.vTaskStartScheduler                    0x08011f64   Section        0  tasks.o(i.vTaskStartScheduler)
    i.vTaskSuspendAll                        0x08011fd4   Section        0  tasks.o(i.vTaskSuspendAll)
    i.vTaskSwitchContext                     0x08011fe4   Section        0  tasks.o(i.vTaskSwitchContext)
    i.xEventGroupClearBits                   0x08012044   Section        0  event_groups.o(i.xEventGroupClearBits)
    i.xEventGroupCreate                      0x0801208c   Section        0  event_groups.o(i.xEventGroupCreate)
    i.xEventGroupSetBits                     0x080120a8   Section        0  event_groups.o(i.xEventGroupSetBits)
    i.xEventGroupWaitBits                    0x08012140   Section        0  event_groups.o(i.xEventGroupWaitBits)
    i.xPortStartScheduler                    0x08012258   Section        0  port.o(i.xPortStartScheduler)
    i.xPortSysTickHandler                    0x08012318   Section        0  port.o(i.xPortSysTickHandler)
    i.xQueueCreateMutex                      0x08012348   Section        0  queue.o(i.xQueueCreateMutex)
    i.xQueueCreateMutexStatic                0x0801235e   Section        0  queue.o(i.xQueueCreateMutexStatic)
    i.xQueueGenericCreate                    0x08012378   Section        0  queue.o(i.xQueueGenericCreate)
    i.xQueueGenericCreateStatic              0x080123c4   Section        0  queue.o(i.xQueueGenericCreateStatic)
    i.xQueueGenericReset                     0x0801243c   Section        0  queue.o(i.xQueueGenericReset)
    i.xQueueGenericSend                      0x080124d4   Section        0  queue.o(i.xQueueGenericSend)
    i.xQueueGenericSendFromISR               0x08012644   Section        0  queue.o(i.xQueueGenericSendFromISR)
    i.xQueueGiveFromISR                      0x08012710   Section        0  queue.o(i.xQueueGiveFromISR)
    i.xQueueReceive                          0x080127bc   Section        0  queue.o(i.xQueueReceive)
    i.xQueueReceiveFromISR                   0x08012904   Section        0  queue.o(i.xQueueReceiveFromISR)
    i.xQueueSemaphoreTake                    0x080129ac   Section        0  queue.o(i.xQueueSemaphoreTake)
    i.xTaskCheckForTimeOut                   0x08012b38   Section        0  tasks.o(i.xTaskCheckForTimeOut)
    i.xTaskCreate                            0x08012bb8   Section        0  tasks.o(i.xTaskCreate)
    i.xTaskCreateStatic                      0x08012c12   Section        0  tasks.o(i.xTaskCreateStatic)
    i.xTaskGetSchedulerState                 0x08012c70   Section        0  tasks.o(i.xTaskGetSchedulerState)
    i.xTaskGetTickCount                      0x08012c8c   Section        0  tasks.o(i.xTaskGetTickCount)
    i.xTaskGetTickCountFromISR               0x08012c98   Section        0  tasks.o(i.xTaskGetTickCountFromISR)
    i.xTaskIncrementTick                     0x08012ca8   Section        0  tasks.o(i.xTaskIncrementTick)
    i.xTaskPriorityDisinherit                0x08012d74   Section        0  tasks.o(i.xTaskPriorityDisinherit)
    i.xTaskPriorityInherit                   0x08012e1c   Section        0  tasks.o(i.xTaskPriorityInherit)
    i.xTaskRemoveFromEventList               0x08012eb4   Section        0  tasks.o(i.xTaskRemoveFromEventList)
    i.xTaskResumeAll                         0x08012f2c   Section        0  tasks.o(i.xTaskResumeAll)
    x$fpl$fpinit                             0x08012ff4   Section       10  fpinit.o(x$fpl$fpinit)
    $v0                                      0x08012ff4   Number         0  fpinit.o(x$fpl$fpinit)
    .constdata                               0x08013000   Section       56  main.o(.constdata)
    .constdata                               0x08013038   Section       40  ethernetif.o(.constdata)
    .constdata                               0x08013060   Section       28  lwip.o(.constdata)
    .constdata                               0x0801307c   Section       16  system_stm32f7xx.o(.constdata)
    .constdata                               0x0801308c   Section        6  ethernet.o(.constdata)
    .constdata                               0x08013092   Section        6  ethernet.o(.constdata)
    .constdata                               0x08013098   Section        3  api_msg.o(.constdata)
    .constdata                               0x0801309c   Section       12  memp.o(.constdata)
    .constdata                               0x080130a8   Section       12  memp.o(.constdata)
    .constdata                               0x080130b4   Section       12  memp.o(.constdata)
    .constdata                               0x080130c0   Section       12  memp.o(.constdata)
    .constdata                               0x080130cc   Section       12  memp.o(.constdata)
    .constdata                               0x080130d8   Section       12  memp.o(.constdata)
    .constdata                               0x080130e4   Section       12  memp.o(.constdata)
    .constdata                               0x080130f0   Section       12  memp.o(.constdata)
    .constdata                               0x080130fc   Section       12  memp.o(.constdata)
    .constdata                               0x08013108   Section       12  memp.o(.constdata)
    .constdata                               0x08013114   Section       12  memp.o(.constdata)
    .constdata                               0x08013120   Section       12  memp.o(.constdata)
    .constdata                               0x0801312c   Section       12  memp.o(.constdata)
    .constdata                               0x08013138   Section       52  memp.o(.constdata)
    .constdata                               0x0801316c   Section       84  tcp.o(.constdata)
    tcp_persist_backoff                      0x0801316c   Data           7  tcp.o(.constdata)
    tcp_state_str                            0x08013174   Data          44  tcp.o(.constdata)
    tcp_backoff                              0x080131a0   Data          13  tcp.o(.constdata)
    .constdata                               0x080131c0   Section       24  timeouts.o(.constdata)
    .constdata                               0x080131d8   Section        4  ip4_addr.o(.constdata)
    .constdata                               0x080131dc   Section       24  sys_arch.o(.constdata)
    .constdata                               0x080131f4   Section        7  retarget_io.o(.constdata)
    .constdata                               0x080131fb   Section        8  retarget_io.o(.constdata)
    .constdata                               0x08013203   Section        8  retarget_io.o(.constdata)
    .constdata                               0x0801320b   Section       40  _printf_hex_int.o(.constdata)
    uc_hextab                                0x0801320b   Data          20  _printf_hex_int.o(.constdata)
    lc_hextab                                0x0801321f   Data          20  _printf_hex_int.o(.constdata)
    .conststring                             0x08013234   Section       20  main.o(.conststring)
    .conststring                             0x08013248   Section        6  ethernetif.o(.conststring)
    .conststring                             0x08013250   Section        8  lwip.o(.conststring)
    .conststring                             0x08013258   Section      117  tcp.o(.conststring)
    .conststring                             0x080132d0   Section       85  tcp_out.o(.conststring)
    .conststring                             0x08013328   Section       65  etharp.o(.conststring)
    .data                                    0x20000000   Section       12  tcpecho.o(.data)
    tag_num                                  0x20000000   Data           1  tcpecho.o(.data)
    .data                                    0x2000000c   Section        1  cmd_process.o(.data)
    num_connection                           0x2000000c   Data           1  cmd_process.o(.data)
    .data                                    0x20000010   Section       12  main.o(.data)
    .data                                    0x2000001c   Section       32  ethernetif.o(.data)
    RxAllocStatus                            0x2000001c   Data           1  ethernetif.o(.data)
    .data                                    0x2000003c   Section        4  ethernetif.o(.data)
    memp_tab_RX_POOL                         0x2000003c   Data           4  ethernetif.o(.data)
    .data                                    0x20000040   Section       24  lwip.o(.data)
    .data                                    0x20000058   Section       12  stm32f7xx_hal.o(.data)
    .data                                    0x20000064   Section        4  system_stm32f7xx.o(.data)
    .data                                    0x20000068   Section       60  tasks.o(.data)
    pxDelayedTaskList                        0x2000006c   Data           4  tasks.o(.data)
    pxOverflowDelayedTaskList                0x20000070   Data           4  tasks.o(.data)
    uxDeletedTasksWaitingCleanUp             0x20000074   Data           4  tasks.o(.data)
    uxCurrentNumberOfTasks                   0x20000078   Data           4  tasks.o(.data)
    xTickCount                               0x2000007c   Data           4  tasks.o(.data)
    uxTopReadyPriority                       0x20000080   Data           4  tasks.o(.data)
    xSchedulerRunning                        0x20000084   Data           4  tasks.o(.data)
    uxPendedTicks                            0x20000088   Data           4  tasks.o(.data)
    xYieldPending                            0x2000008c   Data           4  tasks.o(.data)
    xNumOfOverflows                          0x20000090   Data           4  tasks.o(.data)
    uxTaskNumber                             0x20000094   Data           4  tasks.o(.data)
    xNextTaskUnblockTime                     0x20000098   Data           4  tasks.o(.data)
    xIdleTaskHandle                          0x2000009c   Data           4  tasks.o(.data)
    uxSchedulerSuspended                     0x200000a0   Data           4  tasks.o(.data)
    .data                                    0x200000a4   Section       24  heap_4.o(.data)
    pxEnd                                    0x200000a4   Data           4  heap_4.o(.data)
    xFreeBytesRemaining                      0x200000a8   Data           4  heap_4.o(.data)
    xMinimumEverFreeBytesRemaining           0x200000ac   Data           4  heap_4.o(.data)
    xBlockAllocatedBit                       0x200000b0   Data           4  heap_4.o(.data)
    xStart                                   0x200000b4   Data           8  heap_4.o(.data)
    .data                                    0x200000bc   Section       12  port.o(.data)
    ucMaxSysCallPriority                     0x200000bc   Data           1  port.o(.data)
    uxCriticalNesting                        0x200000c0   Data           4  port.o(.data)
    ulMaxPRIGROUPValue                       0x200000c4   Data           4  port.o(.data)
    .data                                    0x200000c8   Section       16  tcpip.o(.data)
    tcpip_init_done                          0x200000c8   Data           4  tcpip.o(.data)
    tcpip_init_done_arg                      0x200000cc   Data           4  tcpip.o(.data)
    tcpip_mbox                               0x200000d0   Data           4  tcpip.o(.data)
    .data                                    0x200000d8   Section       16  mem.o(.data)
    ram                                      0x200000d8   Data           4  mem.o(.data)
    ram_end                                  0x200000dc   Data           4  mem.o(.data)
    mem_mutex                                0x200000e0   Data           4  mem.o(.data)
    lfree                                    0x200000e4   Data           4  mem.o(.data)
    .data                                    0x200000e8   Section        4  memp.o(.data)
    memp_tab_UDP_PCB                         0x200000e8   Data           4  memp.o(.data)
    .data                                    0x200000ec   Section        4  memp.o(.data)
    memp_tab_TCP_PCB                         0x200000ec   Data           4  memp.o(.data)
    .data                                    0x200000f0   Section        4  memp.o(.data)
    memp_tab_TCP_PCB_LISTEN                  0x200000f0   Data           4  memp.o(.data)
    .data                                    0x200000f4   Section        4  memp.o(.data)
    memp_tab_TCP_SEG                         0x200000f4   Data           4  memp.o(.data)
    .data                                    0x200000f8   Section        4  memp.o(.data)
    memp_tab_REASSDATA                       0x200000f8   Data           4  memp.o(.data)
    .data                                    0x200000fc   Section        4  memp.o(.data)
    memp_tab_FRAG_PBUF                       0x200000fc   Data           4  memp.o(.data)
    .data                                    0x20000100   Section        4  memp.o(.data)
    memp_tab_NETBUF                          0x20000100   Data           4  memp.o(.data)
    .data                                    0x20000104   Section        4  memp.o(.data)
    memp_tab_NETCONN                         0x20000104   Data           4  memp.o(.data)
    .data                                    0x20000108   Section        4  memp.o(.data)
    memp_tab_TCPIP_MSG_API                   0x20000108   Data           4  memp.o(.data)
    .data                                    0x2000010c   Section        4  memp.o(.data)
    memp_tab_TCPIP_MSG_INPKT                 0x2000010c   Data           4  memp.o(.data)
    .data                                    0x20000110   Section        4  memp.o(.data)
    memp_tab_SYS_TIMEOUT                     0x20000110   Data           4  memp.o(.data)
    .data                                    0x20000114   Section        4  memp.o(.data)
    memp_tab_PBUF                            0x20000114   Data           4  memp.o(.data)
    .data                                    0x20000118   Section        4  memp.o(.data)
    memp_tab_PBUF_POOL                       0x20000118   Data           4  memp.o(.data)
    .data                                    0x2000011c   Section       12  netif.o(.data)
    netif_num                                0x2000011c   Data           1  netif.o(.data)
    .data                                    0x20000128   Section        1  pbuf.o(.data)
    .data                                    0x2000012c   Section       32  tcp.o(.data)
    tcp_timer                                0x2000012d   Data           1  tcp.o(.data)
    tcp_timer_ctr                            0x2000012e   Data           1  tcp.o(.data)
    tcp_port                                 0x20000130   Data           2  tcp.o(.data)
    iss                                      0x20000134   Data           4  tcp.o(.data)
    .data                                    0x2000014c   Section       36  tcp_in.o(.data)
    flags                                    0x2000014c   Data           1  tcp_in.o(.data)
    recv_flags                               0x2000014d   Data           1  tcp_in.o(.data)
    tcphdr_optlen                            0x2000014e   Data           2  tcp_in.o(.data)
    tcphdr_opt1len                           0x20000150   Data           2  tcp_in.o(.data)
    tcp_optidx                               0x20000152   Data           2  tcp_in.o(.data)
    recv_acked                               0x20000154   Data           2  tcp_in.o(.data)
    tcplen                                   0x20000156   Data           2  tcp_in.o(.data)
    tcphdr                                   0x20000158   Data           4  tcp_in.o(.data)
    tcphdr_opt2                              0x2000015c   Data           4  tcp_in.o(.data)
    seqno                                    0x20000160   Data           4  tcp_in.o(.data)
    ackno                                    0x20000164   Data           4  tcp_in.o(.data)
    recv_data                                0x20000168   Data           4  tcp_in.o(.data)
    .data                                    0x20000170   Section       12  timeouts.o(.data)
    next_timeout                             0x20000170   Data           4  timeouts.o(.data)
    current_timeout_due_time                 0x20000174   Data           4  timeouts.o(.data)
    tcpip_tcp_timer_active                   0x20000178   Data           4  timeouts.o(.data)
    .data                                    0x2000017c   Section        8  udp.o(.data)
    udp_port                                 0x2000017c   Data           2  udp.o(.data)
    .data                                    0x20000184   Section        1  etharp.o(.data)
    etharp_cached_entry                      0x20000184   Data           1  etharp.o(.data)
    .data                                    0x20000186   Section        2  ip4.o(.data)
    ip_id                                    0x20000186   Data           2  ip4.o(.data)
    .data                                    0x20000188   Section        8  ip4_frag.o(.data)
    ip_reass_pbufcount                       0x20000188   Data           2  ip4_frag.o(.data)
    reassdatagrams                           0x2000018c   Data           4  ip4_frag.o(.data)
    .data                                    0x20000190   Section        4  sys_arch.o(.data)
    .data                                    0x20000194   Section        4  stdio_streams.o(.data)
    .data                                    0x20000198   Section        4  stdio_streams.o(.data)
    .data                                    0x2000019c   Section        4  stdio_streams.o(.data)
    .bss                                     0x200001a0   Section      220  tcpecho.o(.bss)
    tcp_conn                                 0x200001a0   Data         200  tcpecho.o(.bss)
    .bss                                     0x2000027c   Section     1064  cmd_process.o(.bss)
    buff_temp                                0x200002a4   Data        1024  cmd_process.o(.bss)
    .bss                                     0x200006a4   Section      596  freertos.o(.bss)
    xIdleTaskTCBBuffer                       0x200006a4   Data          84  freertos.o(.bss)
    xIdleStack                               0x200006f8   Data         512  freertos.o(.bss)
    .bss                                     0x200008f8   Section    18819  ethernetif.o(.bss)
    .bss                                     0x2000527c   Section      264  ethernetif.o(.bss)
    .bss                                     0x20005384   Section       52  lwip.o(.bss)
    .bss                                     0x200053b8   Section       64  queue.o(.bss)
    .bss                                     0x200053f8   Section      240  tasks.o(.bss)
    pxReadyTasksLists                        0x200053f8   Data         140  tasks.o(.bss)
    xDelayedTaskList1                        0x20005484   Data          20  tasks.o(.bss)
    xDelayedTaskList2                        0x20005498   Data          20  tasks.o(.bss)
    xPendingReadyList                        0x200054ac   Data          20  tasks.o(.bss)
    xTasksWaitingTermination                 0x200054c0   Data          20  tasks.o(.bss)
    xSuspendedTaskList                       0x200054d4   Data          20  tasks.o(.bss)
    .bss                                     0x200054e8   Section    131072  heap_4.o(.bss)
    ucHeap                                   0x200054e8   Data       131072  heap_4.o(.bss)
    .bss                                     0x200254e8   Section       24  ip.o(.bss)
    .bss                                     0x20025500   Section    10259  mem.o(.bss)
    .bss                                     0x20027d13   Section      131  memp.o(.bss)
    .bss                                     0x20027d96   Section      783  memp.o(.bss)
    .bss                                     0x200280a5   Section      227  memp.o(.bss)
    .bss                                     0x20028188   Section      259  memp.o(.bss)
    .bss                                     0x2002828b   Section      163  memp.o(.bss)
    .bss                                     0x2002832e   Section      363  memp.o(.bss)
    .bss                                     0x20028499   Section       83  memp.o(.bss)
    .bss                                     0x200284ec   Section      203  memp.o(.bss)
    .bss                                     0x200285b7   Section      131  memp.o(.bss)
    .bss                                     0x2002863a   Section      131  memp.o(.bss)
    .bss                                     0x200286bd   Section       51  memp.o(.bss)
    .bss                                     0x200286f0   Section      259  memp.o(.bss)
    .bss                                     0x200287f3   Section     9731  memp.o(.bss)
    .bss                                     0x2002adf8   Section       16  tcp_in.o(.bss)
    inseg                                    0x2002adf8   Data          16  tcp_in.o(.bss)
    .bss                                     0x2002ae08   Section      240  etharp.o(.bss)
    arp_table                                0x2002ae08   Data         240  etharp.o(.bss)
    .bss                                     0x2002aef8   Section       16  ip4_addr.o(.bss)
    str                                      0x2002aef8   Data          16  ip4_addr.o(.bss)
    .bss                                     0x2002af08   Section      228  rand.o(.bss)
    .bss                                     0x2002afec   Section       84  stdio_streams.o(.bss)
    .bss                                     0x2002b040   Section       84  stdio_streams.o(.bss)
    .bss                                     0x2002b094   Section       84  stdio_streams.o(.bss)
    .bss                                     0x2002b0e8   Section       96  libspace.o(.bss)
    HEAP                                     0x2002b148   Section     8192  startup_stm32f746xx.o(HEAP)
    Heap_Mem                                 0x2002b148   Data        8192  startup_stm32f746xx.o(HEAP)
    STACK                                    0x2002d148   Section    16384  startup_stm32f746xx.o(STACK)
    Stack_Mem                                0x2002d148   Data       16384  startup_stm32f746xx.o(STACK)
    __initial_sp                             0x20031148   Data           0  startup_stm32f746xx.o(STACK)
    .ARM.__AT_0x2004C000                     0x2004c000   Section      160  ethernetif.o(.ARM.__AT_0x2004C000)
    .ARM.__AT_0x2004C0A0                     0x2004c0a0   Section      160  ethernetif.o(.ARM.__AT_0x2004C0A0)

    Global Symbols

    Symbol Name                              Value     Ov Type        Size  Object(Section)

    BuildAttributes$$THM_ISAv4$E$P$D$K$B$S$7EM$VFPi5$EXTD16$VFPS$VFMA$PE$PLD8$A:L22UL41UL21$X:L11$S22US41US21$IEEE1$IW$USESV6$~STKCKD$USESV7$~SHL$OTIME$ROPI$EBA8$UX$STANDARDLIB$REQ8$PRES8$EABIv2 0x00000000   Number         0  anon$$obj.o ABSOLUTE
    __ARM_use_no_argv                        0x00000000   Number         0  main.o ABSOLUTE
    __ARM_exceptions_init                     - Undefined Weak Reference
    __alloca_initialize                       - Undefined Weak Reference
    __arm_preinit_                            - Undefined Weak Reference
    __cpp_initialize__aeabi_                  - Undefined Weak Reference
    __cxa_finalize                            - Undefined Weak Reference
    __sigvec_lookup                           - Undefined Weak Reference
    __user_heap_extent                        - Undefined Weak Reference
    _atexit_init                              - Undefined Weak Reference
    _call_atexit_fns                          - Undefined Weak Reference
    _clock_init                               - Undefined Weak Reference
    _fp_trap_init                             - Undefined Weak Reference
    _fp_trap_shutdown                         - Undefined Weak Reference
    _get_lc_collate                           - Undefined Weak Reference
    _get_lc_monetary                          - Undefined Weak Reference
    _get_lc_numeric                           - Undefined Weak Reference
    _get_lc_time                              - Undefined Weak Reference
    _getenv_init                              - Undefined Weak Reference
    _handle_redirection                       - Undefined Weak Reference
    _mutex_acquire                            - Undefined Weak Reference
    _mutex_free                               - Undefined Weak Reference
    _mutex_release                            - Undefined Weak Reference
    _printf_mbtowc                            - Undefined Weak Reference
    _printf_post_padding                      - Undefined Weak Reference
    _printf_pre_padding                       - Undefined Weak Reference
    _printf_truncate_signed                   - Undefined Weak Reference
    _printf_truncate_unsigned                 - Undefined Weak Reference
    _signal_finish                            - Undefined Weak Reference
    _signal_init                              - Undefined Weak Reference
    __Vectors_Size                           0x000001c8   Number         0  startup_stm32f746xx.o ABSOLUTE
    __Vectors                                0x08000000   Data           4  startup_stm32f746xx.o(RESET)
    __Vectors_End                            0x080001c8   Data           0  startup_stm32f746xx.o(RESET)
    __main                                   0x080001c9   Thumb Code     8  __main.o(!!!main)
    __scatterload                            0x080001d1   Thumb Code     0  __scatter.o(!!!scatter)
    __scatterload_rt2                        0x080001d1   Thumb Code    44  __scatter.o(!!!scatter)
    __scatterload_rt2_thumb_only             0x080001d1   Thumb Code     0  __scatter.o(!!!scatter)
    __scatterload_null                       0x080001df   Thumb Code     0  __scatter.o(!!!scatter)
    __decompress                             0x08000205   Thumb Code    90  __dczerorl2.o(!!dczerorl2)
    __decompress1                            0x08000205   Thumb Code     0  __dczerorl2.o(!!dczerorl2)
    __scatterload_zeroinit                   0x08000261   Thumb Code    28  __scatter_zi.o(!!handler_zi)
    _printf_d                                0x0800027d   Thumb Code     0  _printf_d.o(.ARM.Collect$$_printf_percent$$00000009)
    _printf_percent                          0x0800027d   Thumb Code     0  _printf_percent.o(.ARM.Collect$$_printf_percent$$00000000)
    _printf_x                                0x08000283   Thumb Code     0  _printf_x.o(.ARM.Collect$$_printf_percent$$0000000C)
    _printf_s                                0x08000289   Thumb Code     0  _printf_s.o(.ARM.Collect$$_printf_percent$$00000014)
    _printf_percent_end                      0x0800028f   Thumb Code     0  _printf_percent_end.o(.ARM.Collect$$_printf_percent$$00000017)
    __rt_lib_init                            0x08000293   Thumb Code     0  libinit.o(.ARM.Collect$$libinit$$00000000)
    __rt_lib_init_fp_1                       0x08000295   Thumb Code     0  libinit2.o(.ARM.Collect$$libinit$$00000001)
    __rt_lib_init_heap_2                     0x08000299   Thumb Code     0  libinit2.o(.ARM.Collect$$libinit$$00000005)
    __rt_lib_init_preinit_1                  0x08000299   Thumb Code     0  libinit2.o(.ARM.Collect$$libinit$$00000004)
    __rt_lib_init_heap_1                     0x080002a1   Thumb Code     0  libinit2.o(.ARM.Collect$$libinit$$0000000A)
    __rt_lib_init_rand_2                     0x080002a1   Thumb Code     0  libinit2.o(.ARM.Collect$$libinit$$0000000D)
    __rt_lib_init_user_alloc_1               0x080002a1   Thumb Code     0  libinit2.o(.ARM.Collect$$libinit$$0000000C)
    __rt_lib_init_atexit_1                   0x080002a5   Thumb Code     0  libinit2.o(.ARM.Collect$$libinit$$0000001B)
    __rt_lib_init_clock_1                    0x080002a5   Thumb Code     0  libinit2.o(.ARM.Collect$$libinit$$00000021)
    __rt_lib_init_fp_trap_1                  0x080002a5   Thumb Code     0  libinit2.o(.ARM.Collect$$libinit$$0000001F)
    __rt_lib_init_getenv_1                   0x080002a5   Thumb Code     0  libinit2.o(.ARM.Collect$$libinit$$00000023)
    __rt_lib_init_lc_collate_1               0x080002a5   Thumb Code     0  libinit2.o(.ARM.Collect$$libinit$$00000011)
    __rt_lib_init_lc_ctype_1                 0x080002a5   Thumb Code     0  libinit2.o(.ARM.Collect$$libinit$$00000013)
    __rt_lib_init_lc_monetary_1              0x080002a5   Thumb Code     0  libinit2.o(.ARM.Collect$$libinit$$00000015)
    __rt_lib_init_lc_numeric_1               0x080002a5   Thumb Code     0  libinit2.o(.ARM.Collect$$libinit$$00000017)
    __rt_lib_init_lc_time_1                  0x080002a5   Thumb Code     0  libinit2.o(.ARM.Collect$$libinit$$00000019)
    __rt_lib_init_rand_1                     0x080002a5   Thumb Code     0  libinit2.o(.ARM.Collect$$libinit$$0000000E)
    __rt_lib_init_signal_1                   0x080002a5   Thumb Code     0  libinit2.o(.ARM.Collect$$libinit$$0000001D)
    __rt_lib_init_stdio_2                    0x080002a5   Thumb Code     0  libinit2.o(.ARM.Collect$$libinit$$00000024)
    __rt_lib_init_alloca_1                   0x080002a9   Thumb Code     0  libinit2.o(.ARM.Collect$$libinit$$0000002E)
    __rt_lib_init_argv_1                     0x080002a9   Thumb Code     0  libinit2.o(.ARM.Collect$$libinit$$0000002C)
    __rt_lib_init_cpp_1                      0x080002a9   Thumb Code     0  libinit2.o(.ARM.Collect$$libinit$$00000032)
    __rt_lib_init_exceptions_1               0x080002a9   Thumb Code     0  libinit2.o(.ARM.Collect$$libinit$$00000030)
    __rt_lib_init_return                     0x080002a9   Thumb Code     0  libinit2.o(.ARM.Collect$$libinit$$00000033)
    __rt_lib_init_stdio_1                    0x080002a9   Thumb Code     0  libinit2.o(.ARM.Collect$$libinit$$00000025)
    __rt_lib_shutdown                        0x080002ab   Thumb Code     0  libshutdown.o(.ARM.Collect$$libshutdown$$00000000)
    __rt_lib_shutdown_cpp_1                  0x080002ad   Thumb Code     0  libshutdown2.o(.ARM.Collect$$libshutdown$$00000002)
    __rt_lib_shutdown_stdio_2                0x080002ad   Thumb Code     0  libshutdown2.o(.ARM.Collect$$libshutdown$$00000003)
    __rt_lib_shutdown_fp_trap_1              0x080002b1   Thumb Code     0  libshutdown2.o(.ARM.Collect$$libshutdown$$00000007)
    __rt_lib_shutdown_heap_1                 0x080002b1   Thumb Code     0  libshutdown2.o(.ARM.Collect$$libshutdown$$0000000F)
    __rt_lib_shutdown_return                 0x080002b1   Thumb Code     0  libshutdown2.o(.ARM.Collect$$libshutdown$$00000010)
    __rt_lib_shutdown_signal_1               0x080002b1   Thumb Code     0  libshutdown2.o(.ARM.Collect$$libshutdown$$0000000A)
    __rt_lib_shutdown_stdio_1                0x080002b1   Thumb Code     0  libshutdown2.o(.ARM.Collect$$libshutdown$$00000004)
    __rt_lib_shutdown_user_alloc_1           0x080002b1   Thumb Code     0  libshutdown2.o(.ARM.Collect$$libshutdown$$0000000C)
    __rt_entry                               0x080002b3   Thumb Code     0  __rtentry.o(.ARM.Collect$$rtentry$$00000000)
    __rt_entry_presh_1                       0x080002b3   Thumb Code     0  __rtentry2.o(.ARM.Collect$$rtentry$$00000002)
    __rt_entry_sh                            0x080002b3   Thumb Code     0  __rtentry4.o(.ARM.Collect$$rtentry$$00000004)
    __rt_entry_li                            0x080002b9   Thumb Code     0  __rtentry2.o(.ARM.Collect$$rtentry$$0000000A)
    __rt_entry_postsh_1                      0x080002b9   Thumb Code     0  __rtentry2.o(.ARM.Collect$$rtentry$$00000009)
    __rt_entry_main                          0x080002bd   Thumb Code     0  __rtentry2.o(.ARM.Collect$$rtentry$$0000000D)
    __rt_entry_postli_1                      0x080002bd   Thumb Code     0  __rtentry2.o(.ARM.Collect$$rtentry$$0000000C)
    __rt_exit                                0x080002c5   Thumb Code     0  rtexit.o(.ARM.Collect$$rtexit$$00000000)
    __rt_exit_ls                             0x080002c7   Thumb Code     0  rtexit2.o(.ARM.Collect$$rtexit$$00000003)
    __rt_exit_prels_1                        0x080002c7   Thumb Code     0  rtexit2.o(.ARM.Collect$$rtexit$$00000002)
    __rt_exit_exit                           0x080002cb   Thumb Code     0  rtexit2.o(.ARM.Collect$$rtexit$$00000004)
    SVC_Handler                              0x080002d1   Thumb Code    28  port.o(.emb_text)
    __asm___6_port_c_39a90d8d__prvStartFirstTask 0x080002f1   Thumb Code    36  port.o(.emb_text)
    __asm___6_port_c_39a90d8d__prvEnableVFP  0x08000319   Thumb Code    16  port.o(.emb_text)
    PendSV_Handler                           0x0800032d   Thumb Code    92  port.o(.emb_text)
    vPortGetIPSR                             0x0800038d   Thumb Code     6  port.o(.emb_text)
    rand                                     0x08000395   Thumb Code    48  rand.o(.emb_text)
    Reset_Handler                            0x080003c9   Thumb Code     8  startup_stm32f746xx.o(.text)
    _maybe_terminate_alloc                   0x080003c9   Thumb Code     0  maybetermalloc1.o(.emb_text)
    ADC_IRQHandler                           0x080003e3   Thumb Code     0  startup_stm32f746xx.o(.text)
    CAN1_RX0_IRQHandler                      0x080003e3   Thumb Code     0  startup_stm32f746xx.o(.text)
    CAN1_RX1_IRQHandler                      0x080003e3   Thumb Code     0  startup_stm32f746xx.o(.text)
    CAN1_SCE_IRQHandler                      0x080003e3   Thumb Code     0  startup_stm32f746xx.o(.text)
    CAN1_TX_IRQHandler                       0x080003e3   Thumb Code     0  startup_stm32f746xx.o(.text)
    CAN2_RX0_IRQHandler                      0x080003e3   Thumb Code     0  startup_stm32f746xx.o(.text)
    CAN2_RX1_IRQHandler                      0x080003e3   Thumb Code     0  startup_stm32f746xx.o(.text)
    CAN2_SCE_IRQHandler                      0x080003e3   Thumb Code     0  startup_stm32f746xx.o(.text)
    CAN2_TX_IRQHandler                       0x080003e3   Thumb Code     0  startup_stm32f746xx.o(.text)
    CEC_IRQHandler                           0x080003e3   Thumb Code     0  startup_stm32f746xx.o(.text)
    DCMI_IRQHandler                          0x080003e3   Thumb Code     0  startup_stm32f746xx.o(.text)
    DMA1_Stream0_IRQHandler                  0x080003e3   Thumb Code     0  startup_stm32f746xx.o(.text)
    DMA1_Stream1_IRQHandler                  0x080003e3   Thumb Code     0  startup_stm32f746xx.o(.text)
    DMA1_Stream2_IRQHandler                  0x080003e3   Thumb Code     0  startup_stm32f746xx.o(.text)
    DMA1_Stream3_IRQHandler                  0x080003e3   Thumb Code     0  startup_stm32f746xx.o(.text)
    DMA1_Stream4_IRQHandler                  0x080003e3   Thumb Code     0  startup_stm32f746xx.o(.text)
    DMA1_Stream5_IRQHandler                  0x080003e3   Thumb Code     0  startup_stm32f746xx.o(.text)
    DMA1_Stream6_IRQHandler                  0x080003e3   Thumb Code     0  startup_stm32f746xx.o(.text)
    DMA1_Stream7_IRQHandler                  0x080003e3   Thumb Code     0  startup_stm32f746xx.o(.text)
    DMA2D_IRQHandler                         0x080003e3   Thumb Code     0  startup_stm32f746xx.o(.text)
    DMA2_Stream0_IRQHandler                  0x080003e3   Thumb Code     0  startup_stm32f746xx.o(.text)
    DMA2_Stream1_IRQHandler                  0x080003e3   Thumb Code     0  startup_stm32f746xx.o(.text)
    DMA2_Stream2_IRQHandler                  0x080003e3   Thumb Code     0  startup_stm32f746xx.o(.text)
    DMA2_Stream3_IRQHandler                  0x080003e3   Thumb Code     0  startup_stm32f746xx.o(.text)
    DMA2_Stream4_IRQHandler                  0x080003e3   Thumb Code     0  startup_stm32f746xx.o(.text)
    DMA2_Stream5_IRQHandler                  0x080003e3   Thumb Code     0  startup_stm32f746xx.o(.text)
    DMA2_Stream6_IRQHandler                  0x080003e3   Thumb Code     0  startup_stm32f746xx.o(.text)
    DMA2_Stream7_IRQHandler                  0x080003e3   Thumb Code     0  startup_stm32f746xx.o(.text)
    ETH_WKUP_IRQHandler                      0x080003e3   Thumb Code     0  startup_stm32f746xx.o(.text)
    EXTI0_IRQHandler                         0x080003e3   Thumb Code     0  startup_stm32f746xx.o(.text)
    EXTI15_10_IRQHandler                     0x080003e3   Thumb Code     0  startup_stm32f746xx.o(.text)
    EXTI1_IRQHandler                         0x080003e3   Thumb Code     0  startup_stm32f746xx.o(.text)
    EXTI2_IRQHandler                         0x080003e3   Thumb Code     0  startup_stm32f746xx.o(.text)
    EXTI3_IRQHandler                         0x080003e3   Thumb Code     0  startup_stm32f746xx.o(.text)
    EXTI4_IRQHandler                         0x080003e3   Thumb Code     0  startup_stm32f746xx.o(.text)
    EXTI9_5_IRQHandler                       0x080003e3   Thumb Code     0  startup_stm32f746xx.o(.text)
    FLASH_IRQHandler                         0x080003e3   Thumb Code     0  startup_stm32f746xx.o(.text)
    FMC_IRQHandler                           0x080003e3   Thumb Code     0  startup_stm32f746xx.o(.text)
    FPU_IRQHandler                           0x080003e3   Thumb Code     0  startup_stm32f746xx.o(.text)
    I2C1_ER_IRQHandler                       0x080003e3   Thumb Code     0  startup_stm32f746xx.o(.text)
    I2C1_EV_IRQHandler                       0x080003e3   Thumb Code     0  startup_stm32f746xx.o(.text)
    I2C2_ER_IRQHandler                       0x080003e3   Thumb Code     0  startup_stm32f746xx.o(.text)
    I2C2_EV_IRQHandler                       0x080003e3   Thumb Code     0  startup_stm32f746xx.o(.text)
    I2C3_ER_IRQHandler                       0x080003e3   Thumb Code     0  startup_stm32f746xx.o(.text)
    I2C3_EV_IRQHandler                       0x080003e3   Thumb Code     0  startup_stm32f746xx.o(.text)
    I2C4_ER_IRQHandler                       0x080003e3   Thumb Code     0  startup_stm32f746xx.o(.text)
    I2C4_EV_IRQHandler                       0x080003e3   Thumb Code     0  startup_stm32f746xx.o(.text)
    LPTIM1_IRQHandler                        0x080003e3   Thumb Code     0  startup_stm32f746xx.o(.text)
    LTDC_ER_IRQHandler                       0x080003e3   Thumb Code     0  startup_stm32f746xx.o(.text)
    LTDC_IRQHandler                          0x080003e3   Thumb Code     0  startup_stm32f746xx.o(.text)
    OTG_FS_IRQHandler                        0x080003e3   Thumb Code     0  startup_stm32f746xx.o(.text)
    OTG_FS_WKUP_IRQHandler                   0x080003e3   Thumb Code     0  startup_stm32f746xx.o(.text)
    OTG_HS_EP1_IN_IRQHandler                 0x080003e3   Thumb Code     0  startup_stm32f746xx.o(.text)
    OTG_HS_EP1_OUT_IRQHandler                0x080003e3   Thumb Code     0  startup_stm32f746xx.o(.text)
    OTG_HS_IRQHandler                        0x080003e3   Thumb Code     0  startup_stm32f746xx.o(.text)
    OTG_HS_WKUP_IRQHandler                   0x080003e3   Thumb Code     0  startup_stm32f746xx.o(.text)
    PVD_IRQHandler                           0x080003e3   Thumb Code     0  startup_stm32f746xx.o(.text)
    QUADSPI_IRQHandler                       0x080003e3   Thumb Code     0  startup_stm32f746xx.o(.text)
    RCC_IRQHandler                           0x080003e3   Thumb Code     0  startup_stm32f746xx.o(.text)
    RNG_IRQHandler                           0x080003e3   Thumb Code     0  startup_stm32f746xx.o(.text)
    RTC_Alarm_IRQHandler                     0x080003e3   Thumb Code     0  startup_stm32f746xx.o(.text)
    RTC_WKUP_IRQHandler                      0x080003e3   Thumb Code     0  startup_stm32f746xx.o(.text)
    SAI1_IRQHandler                          0x080003e3   Thumb Code     0  startup_stm32f746xx.o(.text)
    SAI2_IRQHandler                          0x080003e3   Thumb Code     0  startup_stm32f746xx.o(.text)
    SDMMC1_IRQHandler                        0x080003e3   Thumb Code     0  startup_stm32f746xx.o(.text)
    SPDIF_RX_IRQHandler                      0x080003e3   Thumb Code     0  startup_stm32f746xx.o(.text)
    SPI1_IRQHandler                          0x080003e3   Thumb Code     0  startup_stm32f746xx.o(.text)
    SPI2_IRQHandler                          0x080003e3   Thumb Code     0  startup_stm32f746xx.o(.text)
    SPI3_IRQHandler                          0x080003e3   Thumb Code     0  startup_stm32f746xx.o(.text)
    SPI4_IRQHandler                          0x080003e3   Thumb Code     0  startup_stm32f746xx.o(.text)
    SPI5_IRQHandler                          0x080003e3   Thumb Code     0  startup_stm32f746xx.o(.text)
    SPI6_IRQHandler                          0x080003e3   Thumb Code     0  startup_stm32f746xx.o(.text)
    TAMP_STAMP_IRQHandler                    0x080003e3   Thumb Code     0  startup_stm32f746xx.o(.text)
    TIM1_BRK_TIM9_IRQHandler                 0x080003e3   Thumb Code     0  startup_stm32f746xx.o(.text)
    TIM1_CC_IRQHandler                       0x080003e3   Thumb Code     0  startup_stm32f746xx.o(.text)
    TIM1_TRG_COM_TIM11_IRQHandler            0x080003e3   Thumb Code     0  startup_stm32f746xx.o(.text)
    TIM1_UP_TIM10_IRQHandler                 0x080003e3   Thumb Code     0  startup_stm32f746xx.o(.text)
    TIM2_IRQHandler                          0x080003e3   Thumb Code     0  startup_stm32f746xx.o(.text)
    TIM3_IRQHandler                          0x080003e3   Thumb Code     0  startup_stm32f746xx.o(.text)
    TIM4_IRQHandler                          0x080003e3   Thumb Code     0  startup_stm32f746xx.o(.text)
    TIM5_IRQHandler                          0x080003e3   Thumb Code     0  startup_stm32f746xx.o(.text)
    TIM6_DAC_IRQHandler                      0x080003e3   Thumb Code     0  startup_stm32f746xx.o(.text)
    TIM7_IRQHandler                          0x080003e3   Thumb Code     0  startup_stm32f746xx.o(.text)
    TIM8_BRK_TIM12_IRQHandler                0x080003e3   Thumb Code     0  startup_stm32f746xx.o(.text)
    TIM8_CC_IRQHandler                       0x080003e3   Thumb Code     0  startup_stm32f746xx.o(.text)
    TIM8_TRG_COM_TIM14_IRQHandler            0x080003e3   Thumb Code     0  startup_stm32f746xx.o(.text)
    TIM8_UP_TIM13_IRQHandler                 0x080003e3   Thumb Code     0  startup_stm32f746xx.o(.text)
    UART4_IRQHandler                         0x080003e3   Thumb Code     0  startup_stm32f746xx.o(.text)
    UART5_IRQHandler                         0x080003e3   Thumb Code     0  startup_stm32f746xx.o(.text)
    UART7_IRQHandler                         0x080003e3   Thumb Code     0  startup_stm32f746xx.o(.text)
    UART8_IRQHandler                         0x080003e3   Thumb Code     0  startup_stm32f746xx.o(.text)
    USART1_IRQHandler                        0x080003e3   Thumb Code     0  startup_stm32f746xx.o(.text)
    USART2_IRQHandler                        0x080003e3   Thumb Code     0  startup_stm32f746xx.o(.text)
    USART3_IRQHandler                        0x080003e3   Thumb Code     0  startup_stm32f746xx.o(.text)
    USART6_IRQHandler                        0x080003e3   Thumb Code     0  startup_stm32f746xx.o(.text)
    WWDG_IRQHandler                          0x080003e3   Thumb Code     0  startup_stm32f746xx.o(.text)
    __user_initial_stackheap                 0x080003e5   Thumb Code     0  startup_stm32f746xx.o(.text)
    __aeabi_uldivmod                         0x08000409   Thumb Code     0  lludivv7m.o(.text)
    _ll_udiv                                 0x08000409   Thumb Code   238  lludivv7m.o(.text)
    __2printf                                0x080004f9   Thumb Code    20  noretval__2printf.o(.text)
    __2sprintf                               0x08000511   Thumb Code    34  noretval__2sprintf.o(.text)
    __printf                                 0x08000539   Thumb Code   104  __printf.o(.text)
    _printf_str                              0x080005a1   Thumb Code    82  _printf_str.o(.text)
    _printf_int_dec                          0x080005f5   Thumb Code   104  _printf_dec.o(.text)
    _printf_int_hex                          0x0800066d   Thumb Code    84  _printf_hex_int.o(.text)
    _printf_longlong_hex                     0x0800066d   Thumb Code     0  _printf_hex_int.o(.text)
    srand                                    0x080006c5   Thumb Code    42  rand.o(.text)
    _rand_init                               0x080006ef   Thumb Code     4  rand.o(.text)
    memcmp                                   0x08000701   Thumb Code    88  memcmp.o(.text)
    strlen                                   0x08000759   Thumb Code    62  strlen.o(.text)
    __aeabi_memcpy                           0x08000797   Thumb Code     0  rt_memcpy_v6.o(.text)
    __rt_memcpy                              0x08000797   Thumb Code   138  rt_memcpy_v6.o(.text)
    _memcpy_lastbytes                        0x080007fd   Thumb Code     0  rt_memcpy_v6.o(.text)
    __aeabi_memcpy4                          0x08000821   Thumb Code     0  rt_memcpy_w.o(.text)
    __aeabi_memcpy8                          0x08000821   Thumb Code     0  rt_memcpy_w.o(.text)
    __rt_memcpy_w                            0x08000821   Thumb Code   100  rt_memcpy_w.o(.text)
    _memcpy_lastbytes_aligned                0x08000869   Thumb Code     0  rt_memcpy_w.o(.text)
    __aeabi_memclr4                          0x08000885   Thumb Code     0  rt_memclr_w.o(.text)
    __aeabi_memclr8                          0x08000885   Thumb Code     0  rt_memclr_w.o(.text)
    __rt_memclr_w                            0x08000885   Thumb Code    78  rt_memclr_w.o(.text)
    _memset_w                                0x08000889   Thumb Code     0  rt_memclr_w.o(.text)
    strcmp                                   0x080008d5   Thumb Code   104  strcmpv7m_pel.o(.text)
    __use_two_region_memory                  0x0800093d   Thumb Code     2  heapauxi.o(.text)
    __rt_heap_escrow                         0x0800093f   Thumb Code     2  heapauxi.o(.text)
    __rt_heap_expand                         0x08000941   Thumb Code     2  heapauxi.o(.text)
    __aeabi_errno_addr                       0x08000945   Thumb Code     8  rt_errno_addr_intlibspace.o(.text)
    __errno$intlibspace                      0x08000945   Thumb Code     0  rt_errno_addr_intlibspace.o(.text)
    __rt_errno_addr$intlibspace              0x08000945   Thumb Code     0  rt_errno_addr_intlibspace.o(.text)
    _printf_int_common                       0x0800094d   Thumb Code   178  _printf_intcommon.o(.text)
    _printf_char_common                      0x08000a0b   Thumb Code    32  _printf_char_common.o(.text)
    _sputc                                   0x08000a31   Thumb Code    10  _sputc.o(.text)
    _printf_cs_common                        0x08000a3b   Thumb Code    20  _printf_char.o(.text)
    _printf_char                             0x08000a4f   Thumb Code    16  _printf_char.o(.text)
    _printf_string                           0x08000a5f   Thumb Code     8  _printf_char.o(.text)
    _printf_char_file                        0x08000a69   Thumb Code    32  _printf_char_file.o(.text)
    __user_libspace                          0x08000a8d   Thumb Code     8  libspace.o(.text)
    __user_perproc_libspace                  0x08000a8d   Thumb Code     0  libspace.o(.text)
    __user_perthread_libspace                0x08000a8d   Thumb Code     0  libspace.o(.text)
    ferror                                   0x08000a95   Thumb Code     8  ferror.o(.text)
    _initio                                  0x08000a9d   Thumb Code   210  initio.o(.text)
    _terminateio                             0x08000b6f   Thumb Code    56  initio.o(.text)
    __user_setup_stackheap                   0x08000bd5   Thumb Code    74  sys_stackheap_outer.o(.text)
    free                                     0x08000c1f   Thumb Code    78  h1_free.o(.text)
    __flsbuf                                 0x08000c6d   Thumb Code   470  flsbuf.o(.text)
    __flsbuf_byte                            0x08000c6d   Thumb Code     0  flsbuf.o(.text)
    __flsbuf_wide                            0x08000c6d   Thumb Code     0  flsbuf.o(.text)
    setvbuf                                  0x08000e43   Thumb Code    70  setvbuf.o(.text)
    freopen                                  0x08000e89   Thumb Code   158  fopen.o(.text)
    fopen                                    0x08000f27   Thumb Code    74  fopen.o(.text)
    _fclose_internal                         0x08000f75   Thumb Code    76  fclose.o(.text)
    fclose                                   0x08000f75   Thumb Code     0  fclose.o(.text)
    exit                                     0x08000fc1   Thumb Code    18  exit.o(.text)
    __rt_SIGRTRED                            0x08000fd3   Thumb Code    14  defsig_rtred_outer.o(.text)
    __rt_heap_descriptor                     0x08000fe1   Thumb Code     8  rt_heap_descriptor_intlibspace.o(.text)
    __use_no_heap                            0x08000fe9   Thumb Code     2  hguard.o(.text)
    __heap$guard                             0x08000feb   Thumb Code     2  hguard.o(.text)
    _terminate_user_alloc                    0x08000fed   Thumb Code     2  init_alloc.o(.text)
    _init_user_alloc                         0x08000fef   Thumb Code     2  init_alloc.o(.text)
    __Heap_Full                              0x08000ff1   Thumb Code    34  init_alloc.o(.text)
    __Heap_Broken                            0x08001013   Thumb Code     6  init_alloc.o(.text)
    _init_alloc                              0x08001019   Thumb Code    94  init_alloc.o(.text)
    malloc                                   0x08001077   Thumb Code    94  h1_alloc.o(.text)
    _fseek                                   0x080010d5   Thumb Code   242  fseek.o(.text)
    fseek                                    0x080010d5   Thumb Code     0  fseek.o(.text)
    _seterr                                  0x080011cd   Thumb Code    20  stdio.o(.text)
    _writebuf                                0x080011e1   Thumb Code    84  stdio.o(.text)
    _fflush                                  0x08001235   Thumb Code    70  stdio.o(.text)
    _deferredlazyseek                        0x0800127b   Thumb Code    60  stdio.o(.text)
    __sig_exit                               0x080012bd   Thumb Code    10  defsig_exit.o(.text)
    __rt_SIGRTRED_inner                      0x080012c9   Thumb Code    14  defsig_rtred_inner.o(.text)
    __rt_SIGRTMEM                            0x080012fd   Thumb Code    14  defsig_rtmem_outer.o(.text)
    _sys_exit                                0x0800130d   Thumb Code     8  sys_exit.o(.text)
    __I$use$semihosting                      0x08001319   Thumb Code     0  use_no_semi.o(.text)
    __use_no_semihosting_swi                 0x08001319   Thumb Code     2  use_no_semi.o(.text)
    __Heap_Initialize                        0x0800131b   Thumb Code    10  h1_init.o(.text)
    __semihosting_library_function           0x0800131b   Thumb Code     0  indicate_semi.o(.text)
    __Heap_DescSize                          0x08001325   Thumb Code     4  h1_init.o(.text)
    __Heap_ProvideMemory                     0x08001329   Thumb Code    52  h1_extend.o(.text)
    _ftell_internal                          0x0800135d   Thumb Code    66  ftell.o(.text)
    ftell                                    0x0800135d   Thumb Code     0  ftell.o(.text)
    __default_signal_display                 0x0800139f   Thumb Code    50  defsig_general.o(.text)
    __rt_SIGRTMEM_inner                      0x080013d1   Thumb Code    22  defsig_rtmem_inner.o(.text)
    _ttywrch                                 0x08001421   Thumb Code    14  sys_wrch.o(.text)
    BusFault_Handler                         0x0800142f   Thumb Code     2  stm32f7xx_it.o(i.BusFault_Handler)
    DebugMon_Handler                         0x08001431   Thumb Code     2  stm32f7xx_it.o(i.DebugMon_Handler)
    ETH_IRQHandler                           0x080014d1   Thumb Code     6  stm32f7xx_it.o(i.ETH_IRQHandler)
    ETH_PHY_IO_DeInit                        0x08001577   Thumb Code     4  ethernetif.o(i.ETH_PHY_IO_DeInit)
    ETH_PHY_IO_GetTick                       0x0800157b   Thumb Code     4  ethernetif.o(i.ETH_PHY_IO_GetTick)
    ETH_PHY_IO_Init                          0x08001581   Thumb Code    12  ethernetif.o(i.ETH_PHY_IO_Init)
    ETH_PHY_IO_ReadReg                       0x08001591   Thumb Code    24  ethernetif.o(i.ETH_PHY_IO_ReadReg)
    ETH_PHY_IO_WriteReg                      0x080015ad   Thumb Code    24  ethernetif.o(i.ETH_PHY_IO_WriteReg)
    Error_Handler                            0x08001995   Thumb Code     4  main.o(i.Error_Handler)
    HAL_Delay                                0x08001999   Thumb Code    32  stm32f7xx_hal.o(i.HAL_Delay)
    HAL_ETH_ErrorCallback                    0x080019bd   Thumb Code    24  ethernetif.o(i.HAL_ETH_ErrorCallback)
    HAL_ETH_GetDMAError                      0x080019d9   Thumb Code     6  stm32f7xx_hal_eth.o(i.HAL_ETH_GetDMAError)
    HAL_ETH_GetMACConfig                     0x080019df   Thumb Code   222  stm32f7xx_hal_eth.o(i.HAL_ETH_GetMACConfig)
    HAL_ETH_IRQHandler                       0x08001abd   Thumb Code   196  stm32f7xx_hal_eth.o(i.HAL_ETH_IRQHandler)
    HAL_ETH_Init                             0x08001b8d   Thumb Code   262  stm32f7xx_hal_eth.o(i.HAL_ETH_Init)
    HAL_ETH_MspInit                          0x08001ca1   Thumb Code   192  ethernetif.o(i.HAL_ETH_MspInit)
    HAL_ETH_PMTCallback                      0x08001d75   Thumb Code     2  stm32f7xx_hal_eth.o(i.HAL_ETH_PMTCallback)
    HAL_ETH_ReadData                         0x08001d77   Thumb Code   238  stm32f7xx_hal_eth.o(i.HAL_ETH_ReadData)
    HAL_ETH_ReadPHYRegister                  0x08001e65   Thumb Code    98  stm32f7xx_hal_eth.o(i.HAL_ETH_ReadPHYRegister)
    HAL_ETH_ReleaseTxPacket                  0x08001ec9   Thumb Code    88  stm32f7xx_hal_eth.o(i.HAL_ETH_ReleaseTxPacket)
    HAL_ETH_RxAllocateCallback               0x08001f21   Thumb Code    58  ethernetif.o(i.HAL_ETH_RxAllocateCallback)
    HAL_ETH_RxCpltCallback                   0x08001f69   Thumb Code     8  ethernetif.o(i.HAL_ETH_RxCpltCallback)
    HAL_ETH_RxLinkCallback                   0x08001f75   Thumb Code    72  ethernetif.o(i.HAL_ETH_RxLinkCallback)
    HAL_ETH_SetMACConfig                     0x08001fc1   Thumb Code    24  stm32f7xx_hal_eth.o(i.HAL_ETH_SetMACConfig)
    HAL_ETH_SetMDIOClockRange                0x08001fd9   Thumb Code    84  stm32f7xx_hal_eth.o(i.HAL_ETH_SetMDIOClockRange)
    HAL_ETH_Start                            0x0800204d   Thumb Code   122  stm32f7xx_hal_eth.o(i.HAL_ETH_Start)
    HAL_ETH_Start_IT                         0x080020c9   Thumb Code   178  stm32f7xx_hal_eth.o(i.HAL_ETH_Start_IT)
    HAL_ETH_Stop_IT                          0x08002185   Thumb Code   154  stm32f7xx_hal_eth.o(i.HAL_ETH_Stop_IT)
    HAL_ETH_Transmit_IT                      0x08002225   Thumb Code   104  stm32f7xx_hal_eth.o(i.HAL_ETH_Transmit_IT)
    HAL_ETH_TxCpltCallback                   0x0800228d   Thumb Code     8  ethernetif.o(i.HAL_ETH_TxCpltCallback)
    HAL_ETH_TxFreeCallback                   0x08002299   Thumb Code     4  ethernetif.o(i.HAL_ETH_TxFreeCallback)
    HAL_ETH_WakeUpCallback                   0x0800229d   Thumb Code     2  stm32f7xx_hal_eth.o(i.HAL_ETH_WakeUpCallback)
    HAL_ETH_WritePHYRegister                 0x080022a1   Thumb Code    86  stm32f7xx_hal_eth.o(i.HAL_ETH_WritePHYRegister)
    HAL_GPIO_Init                            0x080022f9   Thumb Code   530  stm32f7xx_hal_gpio.o(i.HAL_GPIO_Init)
    HAL_GPIO_WritePin                        0x08002541   Thumb Code    10  stm32f7xx_hal_gpio.o(i.HAL_GPIO_WritePin)
    HAL_GetTick                              0x0800254d   Thumb Code     6  stm32f7xx_hal.o(i.HAL_GetTick)
    HAL_IncTick                              0x08002559   Thumb Code    12  stm32f7xx_hal.o(i.HAL_IncTick)
    HAL_Init                                 0x08002569   Thumb Code    40  stm32f7xx_hal.o(i.HAL_Init)
    HAL_InitTick                             0x08002595   Thumb Code    54  stm32f7xx_hal.o(i.HAL_InitTick)
    HAL_MspInit                              0x080025d5   Thumb Code    52  stm32f7xx_hal_msp.o(i.HAL_MspInit)
    HAL_NVIC_EnableIRQ                       0x0800260d   Thumb Code    26  stm32f7xx_hal_cortex.o(i.HAL_NVIC_EnableIRQ)
    HAL_NVIC_SetPriority                     0x08002629   Thumb Code    60  stm32f7xx_hal_cortex.o(i.HAL_NVIC_SetPriority)
    HAL_NVIC_SetPriorityGrouping             0x08002669   Thumb Code    28  stm32f7xx_hal_cortex.o(i.HAL_NVIC_SetPriorityGrouping)
    HAL_PWREx_EnableOverDrive                0x0800268d   Thumb Code   100  stm32f7xx_hal_pwr_ex.o(i.HAL_PWREx_EnableOverDrive)
    HAL_RCC_ClockConfig                      0x080026f9   Thumb Code   284  stm32f7xx_hal_rcc.o(i.HAL_RCC_ClockConfig)
    HAL_RCC_GetHCLKFreq                      0x08002829   Thumb Code     6  stm32f7xx_hal_rcc.o(i.HAL_RCC_GetHCLKFreq)
    HAL_RCC_GetSysClockFreq                  0x08002835   Thumb Code    88  stm32f7xx_hal_rcc.o(i.HAL_RCC_GetSysClockFreq)
    HAL_RCC_OscConfig                        0x08002899   Thumb Code   888  stm32f7xx_hal_rcc.o(i.HAL_RCC_OscConfig)
    HAL_SYSTICK_Config                       0x08002c1d   Thumb Code    38  stm32f7xx_hal_cortex.o(i.HAL_SYSTICK_Config)
    HardFault_Handler                        0x08002c43   Thumb Code     2  stm32f7xx_it.o(i.HardFault_Handler)
    ITM_SendChar                             0x08002c45   Thumb Code    32  retarget_io.o(i.ITM_SendChar)
    LAN8742_GetLinkState                     0x08002c69   Thumb Code   188  lan8742.o(i.LAN8742_GetLinkState)
    LAN8742_Init                             0x08002d25   Thumb Code   210  lan8742.o(i.LAN8742_Init)
    LAN8742_RegisterBusIO                    0x08002df7   Thumb Code    46  lan8742.o(i.LAN8742_RegisterBusIO)
    MX_LWIP_Init                             0x08002ee5   Thumb Code   260  lwip.o(i.MX_LWIP_Init)
    MemManage_Handler                        0x08003001   Thumb Code     2  stm32f7xx_it.o(i.MemManage_Handler)
    NMI_Handler                              0x08003003   Thumb Code     2  stm32f7xx_it.o(i.NMI_Handler)
    StartDefaultTask                         0x08003005   Thumb Code    26  main.o(i.StartDefaultTask)
    StartNetTask                             0x08003031   Thumb Code    40  main.o(i.StartNetTask)
    SysTick_Handler                          0x0800305d   Thumb Code    24  stm32f7xx_it.o(i.SysTick_Handler)
    SystemClock_Config                       0x08003075   Thumb Code   152  main.o(i.SystemClock_Config)
    SystemInit                               0x08003115   Thumb Code    12  system_stm32f7xx.o(i.SystemInit)
    UsageFault_Handler                       0x08003125   Thumb Code     2  stm32f7xx_it.o(i.UsageFault_Handler)
    _sys_close                               0x08003149   Thumb Code    24  retarget_io.o(i._sys_close)
    _sys_flen                                0x08003161   Thumb Code    12  retarget_io.o(i._sys_flen)
    _sys_istty                               0x0800316d   Thumb Code    24  retarget_io.o(i._sys_istty)
    _sys_open                                0x08003185   Thumb Code    68  retarget_io.o(i._sys_open)
    _sys_seek                                0x080031e1   Thumb Code    10  retarget_io.o(i._sys_seek)
    _sys_write                               0x080031eb   Thumb Code    60  retarget_io.o(i._sys_write)
    check_bit_tcp_status_empty               0x080033a5   Thumb Code    26  tcpecho.o(i.check_bit_tcp_status_empty)
    cmd_process_init                         0x080033c1   Thumb Code    20  cmd_process.o(i.cmd_process_init)
    do_cmd_process                           0x08003505   Thumb Code   112  tcpecho.o(i.do_cmd_process)
    etharp_cleanup_netif                     0x080038c1   Thumb Code    40  etharp.o(i.etharp_cleanup_netif)
    etharp_input                             0x08003b6d   Thumb Code   148  etharp.o(i.etharp_input)
    etharp_output                            0x08003c71   Thumb Code   280  etharp.o(i.etharp_output)
    etharp_query                             0x08003f31   Thumb Code   300  etharp.o(i.etharp_query)
    etharp_request                           0x0800428d   Thumb Code     6  etharp.o(i.etharp_request)
    etharp_tmr                               0x080042b9   Thumb Code    90  etharp.o(i.etharp_tmr)
    ethernet_input                           0x08004435   Thumb Code   160  ethernet.o(i.ethernet_input)
    ethernet_link_thread                     0x080044dd   Thumb Code   162  ethernetif.o(i.ethernet_link_thread)
    ethernet_output                          0x08004585   Thumb Code    98  ethernet.o(i.ethernet_output)
    ethernetif_init                          0x0800467d   Thumb Code    50  ethernetif.o(i.ethernetif_init)
    fputc                                    0x08004755   Thumb Code    26  fputc.o(i.fputc)
    get_idx_queue_reply                      0x08004771   Thumb Code    36  cmd_process.o(i.get_idx_queue_reply)
    get_num_connect                          0x08004799   Thumb Code     6  cmd_process.o(i.get_num_connect)
    icmp_dest_unreach                        0x080047a5   Thumb Code     8  icmp.o(i.icmp_dest_unreach)
    icmp_input                               0x080047ad   Thumb Code   284  icmp.o(i.icmp_input)
    icmp_time_exceeded                       0x08004aa9   Thumb Code     8  icmp.o(i.icmp_time_exceeded)
    ip4_addr_isbroadcast_u32                 0x08004abd   Thumb Code    46  ip4_addr.o(i.ip4_addr_isbroadcast_u32)
    ip4_frag                                 0x08004aed   Thumb Code   434  ip4_frag.o(i.ip4_frag)
    ip4_input                                0x08004d55   Thumb Code   364  ip4.o(i.ip4_input)
    ip4_output_if                            0x08004ef5   Thumb Code    30  ip4.o(i.ip4_output_if)
    ip4_output_if_src                        0x08004f15   Thumb Code   216  ip4.o(i.ip4_output_if_src)
    ip4_reass                                0x0800508d   Thumb Code   484  ip4_frag.o(i.ip4_reass)
    ip4_route                                0x08005315   Thumb Code    86  ip4.o(i.ip4_route)
    ip4addr_ntoa                             0x08005375   Thumb Code     8  ip4_addr.o(i.ip4addr_ntoa)
    ip4addr_ntoa_r                           0x08005381   Thumb Code   124  ip4_addr.o(i.ip4addr_ntoa_r)
    ip_reass_tmr                             0x080059a9   Thumb Code    40  ip4_frag.o(i.ip_reass_tmr)
    lwip_htonl                               0x08005cc9   Thumb Code     4  def.o(i.lwip_htonl)
    lwip_htons                               0x08005ccd   Thumb Code     4  def.o(i.lwip_htons)
    lwip_init                                0x08005cd1   Thumb Code    34  init.o(i.lwip_init)
    lwip_netconn_do_bind                     0x08005cf3   Thumb Code    54  api_msg.o(i.lwip_netconn_do_bind)
    lwip_netconn_do_close                    0x08005d29   Thumb Code   178  api_msg.o(i.lwip_netconn_do_close)
    lwip_netconn_do_delconn                  0x08006125   Thumb Code   254  api_msg.o(i.lwip_netconn_do_delconn)
    lwip_netconn_do_listen                   0x080062bd   Thumb Code   184  api_msg.o(i.lwip_netconn_do_listen)
    lwip_netconn_do_newconn                  0x08006379   Thumb Code    18  api_msg.o(i.lwip_netconn_do_newconn)
    lwip_netconn_do_recv                     0x0800638b   Thumb Code    66  api_msg.o(i.lwip_netconn_do_recv)
    lwip_netconn_do_write                    0x080063cd   Thumb Code   180  api_msg.o(i.lwip_netconn_do_write)
    lwip_netconn_is_err_msg                  0x08006949   Thumb Code    62  api_msg.o(i.lwip_netconn_is_err_msg)
    main                                     0x080069f5   Thumb Code   118  main.o(i.main)
    mem_free                                 0x08006a8d   Thumb Code   208  mem.o(i.mem_free)
    mem_init                                 0x08006c55   Thumb Code    76  mem.o(i.mem_init)
    mem_malloc                               0x08006d1d   Thumb Code   314  mem.o(i.mem_malloc)
    mem_trim                                 0x08006f79   Thumb Code   314  mem.o(i.mem_trim)
    memp_free                                0x0800715d   Thumb Code    34  memp.o(i.memp_free)
    memp_free_pool                           0x080071f9   Thumb Code    26  memp.o(i.memp_free_pool)
    memp_init                                0x08007281   Thumb Code    26  memp.o(i.memp_init)
    memp_init_pool                           0x080072a1   Thumb Code    42  memp.o(i.memp_init_pool)
    memp_malloc                              0x080072cd   Thumb Code    38  memp.o(i.memp_malloc)
    memp_malloc_pool                         0x08007371   Thumb Code    30  memp.o(i.memp_malloc_pool)
    netbuf_data                              0x080073fd   Thumb Code    72  netbuf.o(i.netbuf_data)
    netbuf_delete                            0x080074f9   Thumb Code    34  netbuf.o(i.netbuf_delete)
    netbuf_next                              0x0800751d   Thumb Code    48  netbuf.o(i.netbuf_next)
    netconn_accept                           0x080075c5   Thumb Code   156  api_lib.o(i.netconn_accept)
    netconn_alloc                            0x080076fd   Thumb Code   126  api_msg.o(i.netconn_alloc)
    netconn_bind                             0x08007819   Thumb Code    54  api_lib.o(i.netconn_bind)
    netconn_close                            0x080078d1   Thumb Code     6  api_lib.o(i.netconn_close)
    netconn_delete                           0x08007989   Thumb Code    30  api_lib.o(i.netconn_delete)
    netconn_err                              0x08007a43   Thumb Code    30  api_lib.o(i.netconn_err)
    netconn_free                             0x08007a61   Thumb Code   104  api_msg.o(i.netconn_free)
    netconn_listen_with_backlog              0x08007bcd   Thumb Code    40  api_lib.o(i.netconn_listen_with_backlog)
    netconn_new_with_proto_and_callback      0x08007c75   Thumb Code   154  api_lib.o(i.netconn_new_with_proto_and_callback)
    netconn_prepare_delete                   0x08007ded   Thumb Code    28  api_lib.o(i.netconn_prepare_delete)
    netconn_recv                             0x08007e0d   Thumb Code   150  api_lib.o(i.netconn_recv)
    netconn_write_partly                     0x08008225   Thumb Code    20  api_lib.o(i.netconn_write_partly)
    netconn_write_vectors_partly             0x08008239   Thumb Code   204  api_lib.o(i.netconn_write_vectors_partly)
    netif_add                                0x080083c9   Thumb Code   238  netif.o(i.netif_add)
    netif_get_by_index                       0x080086ad   Thumb Code    34  netif.o(i.netif_get_by_index)
    netif_init                               0x080086d5   Thumb Code     2  netif.o(i.netif_init)
    netif_set_addr                           0x080087a1   Thumb Code    90  netif.o(i.netif_set_addr)
    netif_set_default                        0x08008801   Thumb Code     6  netif.o(i.netif_set_default)
    netif_set_down                           0x0800880d   Thumb Code    42  netif.o(i.netif_set_down)
    netif_set_link_callback                  0x080088b5   Thumb Code     8  netif.o(i.netif_set_link_callback)
    netif_set_link_down                      0x080088bd   Thumb Code    42  netif.o(i.netif_set_link_down)
    netif_set_link_up                        0x08008969   Thumb Code    64  netif.o(i.netif_set_link_up)
    netif_set_up                             0x08008a29   Thumb Code    40  netif.o(i.netif_set_up)
    osDelay                                  0x08008ac9   Thumb Code    14  cmsis_os.o(i.osDelay)
    osKernelStart                            0x08008ad7   Thumb Code    10  cmsis_os.o(i.osKernelStart)
    osKernelSysTick                          0x08008ae1   Thumb Code    24  cmsis_os.o(i.osKernelSysTick)
    osMessageCreate                          0x08008af9   Thumb Code    38  cmsis_os.o(i.osMessageCreate)
    osMessageDelete                          0x08008b1f   Thumb Code    24  cmsis_os.o(i.osMessageDelete)
    osMessageGet                             0x08008b39   Thumb Code   144  cmsis_os.o(i.osMessageGet)
    osMessagePut                             0x08008bcd   Thumb Code    88  cmsis_os.o(i.osMessagePut)
    osMessageWaiting                         0x08008c29   Thumb Code    30  cmsis_os.o(i.osMessageWaiting)
    osMutexCreate                            0x08008c47   Thumb Code    16  cmsis_os.o(i.osMutexCreate)
    osMutexRelease                           0x08008c59   Thumb Code    74  cmsis_os.o(i.osMutexRelease)
    osMutexWait                              0x08008ca9   Thumb Code    98  cmsis_os.o(i.osMutexWait)
    osSemaphoreCreate                        0x08008d11   Thumb Code    62  cmsis_os.o(i.osSemaphoreCreate)
    osSemaphoreDelete                        0x08008d4f   Thumb Code    24  cmsis_os.o(i.osSemaphoreDelete)
    osSemaphoreRelease                       0x08008d69   Thumb Code    74  cmsis_os.o(i.osSemaphoreRelease)
    osSemaphoreWait                          0x08008db9   Thumb Code    98  cmsis_os.o(i.osSemaphoreWait)
    osThreadCreate                           0x08008e21   Thumb Code    84  cmsis_os.o(i.osThreadCreate)
    osThreadTerminate                        0x08008e75   Thumb Code    10  cmsis_os.o(i.osThreadTerminate)
    parse_buff                               0x08008e81   Thumb Code    36  cmd_process.o(i.parse_buff)
    pbuf_add_header                          0x08008ebd   Thumb Code     6  pbuf.o(i.pbuf_add_header)
    pbuf_alloc                               0x08008f85   Thumb Code   334  pbuf.o(i.pbuf_alloc)
    pbuf_alloc_reference                     0x080091e1   Thumb Code    68  pbuf.o(i.pbuf_alloc_reference)
    pbuf_alloced_custom                      0x08009291   Thumb Code    54  pbuf.o(i.pbuf_alloced_custom)
    pbuf_cat                                 0x080092c9   Thumb Code    96  pbuf.o(i.pbuf_cat)
    pbuf_clen                                0x080093f9   Thumb Code    18  pbuf.o(i.pbuf_clen)
    pbuf_clone                               0x0800940d   Thumb Code    48  pbuf.o(i.pbuf_clone)
    pbuf_copy                                0x080094a9   Thumb Code   232  pbuf.o(i.pbuf_copy)
    pbuf_copy_partial                        0x08009689   Thumb Code   126  pbuf.o(i.pbuf_copy_partial)
    pbuf_free                                0x080097a5   Thumb Code   178  pbuf.o(i.pbuf_free)
    pbuf_free_custom                         0x0800990d   Thumb Code    34  ethernetif.o(i.pbuf_free_custom)
    pbuf_header_force                        0x0800996d   Thumb Code     6  pbuf.o(i.pbuf_header_force)
    pbuf_realloc                             0x0800999d   Thumb Code   142  pbuf.o(i.pbuf_realloc)
    pbuf_ref                                 0x08009ad1   Thumb Code    46  pbuf.o(i.pbuf_ref)
    pbuf_remove_header                       0x08009b6d   Thumb Code    74  pbuf.o(i.pbuf_remove_header)
    pvPortMalloc                             0x0800a481   Thumb Code   222  heap_4.o(i.pvPortMalloc)
    pvTaskIncrementMutexHeldCount            0x0800a565   Thumb Code    18  tasks.o(i.pvTaskIncrementMutexHeldCount)
    pxPortInitialiseStack                    0x0800a57d   Thumb Code    42  port.o(i.pxPortInitialiseStack)
    server                                   0x0800a965   Thumb Code   182  tcpecho.o(i.server)
    set_identity_client                      0x0800aa79   Thumb Code    10  cmd_process.o(i.set_identity_client)
    set_num_connect                          0x0800aa89   Thumb Code     6  cmd_process.o(i.set_num_connect)
    sys_arch_mbox_fetch                      0x0800aad9   Thumb Code    70  sys_arch.o(i.sys_arch_mbox_fetch)
    sys_arch_mbox_tryfetch                   0x0800ab1f   Thumb Code    34  sys_arch.o(i.sys_arch_mbox_tryfetch)
    sys_arch_protect                         0x0800ab41   Thumb Code    18  sys_arch.o(i.sys_arch_protect)
    sys_arch_sem_wait                        0x0800ab59   Thumb Code    56  sys_arch.o(i.sys_arch_sem_wait)
    sys_arch_unprotect                       0x0800ab91   Thumb Code     8  sys_arch.o(i.sys_arch_unprotect)
    sys_check_timeouts                       0x0800ab9d   Thumb Code    62  timeouts.o(i.sys_check_timeouts)
    sys_init                                 0x0800abe1   Thumb Code    14  sys_arch.o(i.sys_init)
    sys_mbox_free                            0x0800abf9   Thumb Code    20  sys_arch.o(i.sys_mbox_free)
    sys_mbox_new                             0x0800ac0d   Thumb Code    40  sys_arch.o(i.sys_mbox_new)
    sys_mbox_set_invalid                     0x0800ac39   Thumb Code     6  sys_arch.o(i.sys_mbox_set_invalid)
    sys_mbox_trypost                         0x0800ac3f   Thumb Code    20  sys_arch.o(i.sys_mbox_trypost)
    sys_mbox_valid                           0x0800ac53   Thumb Code    10  sys_arch.o(i.sys_mbox_valid)
    sys_mutex_lock                           0x0800ac5d   Thumb Code    10  sys_arch.o(i.sys_mutex_lock)
    sys_mutex_new                            0x0800ac67   Thumb Code    30  sys_arch.o(i.sys_mutex_new)
    sys_mutex_unlock                         0x0800ac85   Thumb Code     6  sys_arch.o(i.sys_mutex_unlock)
    sys_now                                  0x0800ac8b   Thumb Code     4  ethernetif.o(i.sys_now)
    sys_sem_free                             0x0800ac8f   Thumb Code     6  sys_arch.o(i.sys_sem_free)
    sys_sem_new                              0x0800ac95   Thumb Code    44  sys_arch.o(i.sys_sem_new)
    sys_sem_set_invalid                      0x0800acc1   Thumb Code     6  sys_arch.o(i.sys_sem_set_invalid)
    sys_sem_signal                           0x0800acc7   Thumb Code     6  sys_arch.o(i.sys_sem_signal)
    sys_sem_valid                            0x0800accd   Thumb Code    10  sys_arch.o(i.sys_sem_valid)
    sys_thread_new                           0x0800acd7   Thumb Code    48  sys_arch.o(i.sys_thread_new)
    sys_timeout                              0x0800ad09   Thumb Code    46  timeouts.o(i.sys_timeout)
    sys_timeouts_init                        0x0800aec5   Thumb Code    30  timeouts.o(i.sys_timeouts_init)
    sys_timeouts_sleeptime                   0x0800aeed   Thumb Code    34  timeouts.o(i.sys_timeouts_sleeptime)
    tcp_abandon                              0x0800af15   Thumb Code   258  tcp.o(i.tcp_abandon)
    tcp_abort                                0x0800b0c5   Thumb Code     6  tcp.o(i.tcp_abort)
    tcp_accept                               0x0800b0cb   Thumb Code    14  tcp.o(i.tcp_accept)
    tcp_alloc                                0x0800b171   Thumb Code   288  tcp.o(i.tcp_alloc)
    tcp_arg                                  0x0800b29d   Thumb Code     8  tcp.o(i.tcp_arg)
    tcp_bind                                 0x0800b2a5   Thumb Code   168  tcp.o(i.tcp_bind)
    tcp_close                                0x0800b779   Thumb Code    48  tcp.o(i.tcp_close)
    tcp_eff_send_mss_netif                   0x0800bc3d   Thumb Code    54  tcp.o(i.tcp_eff_send_mss_netif)
    tcp_enqueue_flags                        0x0800bcf5   Thumb Code   270  tcp_out.o(i.tcp_enqueue_flags)
    tcp_err                                  0x0800bf2d   Thumb Code    34  tcp.o(i.tcp_err)
    tcp_fasttmr                              0x0800bfd1   Thumb Code   102  tcp.o(i.tcp_fasttmr)
    tcp_free                                 0x0800c03d   Thumb Code    34  tcp.o(i.tcp_free)
    tcp_free_ooseq                           0x0800c20d   Thumb Code    20  tcp.o(i.tcp_free_ooseq)
    tcp_init                                 0x0800c249   Thumb Code    20  tcp.o(i.tcp_init)
    tcp_input                                0x0800c261   Thumb Code  1584  tcp_in.o(i.tcp_input)
    tcp_keepalive                            0x0800c985   Thumb Code    82  tcp_out.o(i.tcp_keepalive)
    tcp_listen_with_backlog_and_err          0x0800cd15   Thumb Code   182  tcp.o(i.tcp_listen_with_backlog_and_err)
    tcp_netif_ip_addr_changed                0x0800ce95   Thumb Code    70  tcp.o(i.tcp_netif_ip_addr_changed)
    tcp_new_ip_type                          0x0800cfa1   Thumb Code     6  tcp.o(i.tcp_new_ip_type)
    tcp_next_iss                             0x0800d009   Thumb Code    32  tcp.o(i.tcp_next_iss)
    tcp_output                               0x0800d1b1   Thumb Code   552  tcp_out.o(i.tcp_output)
    tcp_pcb_purge                            0x0800dd01   Thumb Code    88  tcp.o(i.tcp_pcb_purge)
    tcp_pcb_remove                           0x0800ddcd   Thumb Code   174  tcp.o(i.tcp_pcb_remove)
    tcp_poll                                 0x0800df5d   Thumb Code    58  tcp.o(i.tcp_poll)
    tcp_process_refused_data                 0x0800e4f1   Thumb Code   132  tcp.o(i.tcp_process_refused_data)
    tcp_recv                                 0x0800ef1d   Thumb Code    34  tcp.o(i.tcp_recv)
    tcp_recv_null                            0x0800efc1   Thumb Code    60  tcp.o(i.tcp_recv_null)
    tcp_recved                               0x0800f071   Thumb Code   104  tcp.o(i.tcp_recved)
    tcp_rexmit                               0x0800f1c9   Thumb Code   118  tcp_out.o(i.tcp_rexmit)
    tcp_rexmit_fast                          0x0800f2b5   Thumb Code   108  tcp_out.o(i.tcp_rexmit_fast)
    tcp_rexmit_rto                           0x0800f39d   Thumb Code    42  tcp_out.o(i.tcp_rexmit_rto)
    tcp_rexmit_rto_commit                    0x0800f441   Thumb Code    44  tcp_out.o(i.tcp_rexmit_rto_commit)
    tcp_rexmit_rto_prepare                   0x0800f4ed   Thumb Code   118  tcp_out.o(i.tcp_rexmit_rto_prepare)
    tcp_rst                                  0x0800f5f5   Thumb Code   128  tcp_out.o(i.tcp_rst)
    tcp_seg_copy                             0x0800f709   Thumb Code    56  tcp.o(i.tcp_seg_copy)
    tcp_seg_free                             0x0800f7b5   Thumb Code    28  tcp.o(i.tcp_seg_free)
    tcp_segs_free                            0x0800f7d1   Thumb Code    18  tcp.o(i.tcp_segs_free)
    tcp_send_empty_ack                       0x0800f7e5   Thumb Code   110  tcp_out.o(i.tcp_send_empty_ack)
    tcp_send_fin                             0x0800f8d1   Thumb Code    84  tcp_out.o(i.tcp_send_fin)
    tcp_sent                                 0x0800f99d   Thumb Code    34  tcp.o(i.tcp_sent)
    tcp_shutdown                             0x0800fa41   Thumb Code   104  tcp.o(i.tcp_shutdown)
    tcp_slowtmr                              0x0800fb1d   Thumb Code  1410  tcp.o(i.tcp_slowtmr)
    tcp_split_unsent_seg                     0x080100f1   Thumb Code   362  tcp_out.o(i.tcp_split_unsent_seg)
    tcp_tcp_get_tcp_addrinfo                 0x08010321   Thumb Code    38  tcp.o(i.tcp_tcp_get_tcp_addrinfo)
    tcp_timer_needed                         0x08010349   Thumb Code    36  timeouts.o(i.tcp_timer_needed)
    tcp_tmr                                  0x0801047d   Thumb Code    28  tcp.o(i.tcp_tmr)
    tcp_trigger_input_pcb_close              0x0801049d   Thumb Code    12  tcp_in.o(i.tcp_trigger_input_pcb_close)
    tcp_update_rcv_ann_wnd                   0x080104ad   Thumb Code    92  tcp.o(i.tcp_update_rcv_ann_wnd)
    tcp_write                                0x080105a1   Thumb Code  1698  tcp_out.o(i.tcp_write)
    tcp_zero_window_probe                    0x08010dd9   Thumb Code   194  tcp_out.o(i.tcp_zero_window_probe)
    tcpecho_init                             0x08010f1d   Thumb Code    20  tcpecho.o(i.tcpecho_init)
    tcpip_init                               0x08010f45   Thumb Code    88  tcpip.o(i.tcpip_init)
    tcpip_inpkt                              0x08011055   Thumb Code    82  tcpip.o(i.tcpip_inpkt)
    tcpip_input                              0x08011115   Thumb Code    20  tcpip.o(i.tcpip_input)
    tcpip_send_msg_wait_sem                  0x08011131   Thumb Code    26  tcpip.o(i.tcpip_send_msg_wait_sem)
    tcpip_try_callback                       0x0801134d   Thumb Code    78  tcpip.o(i.tcpip_try_callback)
    udp_bind                                 0x08011409   Thumb Code   194  udp.o(i.udp_bind)
    udp_init                                 0x08011545   Thumb Code    20  udp.o(i.udp_init)
    udp_input                                0x0801155d   Thumb Code   310  udp.o(i.udp_input)
    udp_netif_ip_addr_changed                0x08011851   Thumb Code    48  udp.o(i.udp_netif_ip_addr_changed)
    udp_new                                  0x08011885   Thumb Code    26  udp.o(i.udp_new)
    udp_new_ip_type                          0x0801189f   Thumb Code     4  udp.o(i.udp_new_ip_type)
    udp_recv                                 0x080118a5   Thumb Code    22  udp.o(i.udp_recv)
    udp_remove                               0x0801192d   Thumb Code    58  udp.o(i.udp_remove)
    uxListRemove                             0x080119dd   Thumb Code    38  list.o(i.uxListRemove)
    uxQueueMessagesWaiting                   0x08011a03   Thumb Code    40  queue.o(i.uxQueueMessagesWaiting)
    uxQueueMessagesWaitingFromISR            0x08011a2b   Thumb Code    26  queue.o(i.uxQueueMessagesWaitingFromISR)
    uxTaskResetEventItemValue                0x08011a45   Thumb Code    20  tasks.o(i.uxTaskResetEventItemValue)
    vApplicationGetIdleTaskMemory            0x08011a5d   Thumb Code    18  freertos.o(i.vApplicationGetIdleTaskMemory)
    vListInitialise                          0x08011a75   Thumb Code    22  list.o(i.vListInitialise)
    vListInitialiseItem                      0x08011a8b   Thumb Code     6  list.o(i.vListInitialiseItem)
    vListInsert                              0x08011a91   Thumb Code    48  list.o(i.vListInsert)
    vListInsertEnd                           0x08011ac1   Thumb Code    24  list.o(i.vListInsertEnd)
    vPortEnterCritical                       0x08011ad9   Thumb Code    62  port.o(i.vPortEnterCritical)
    vPortExitCritical                        0x08011b21   Thumb Code    38  port.o(i.vPortExitCritical)
    vPortFree                                0x08011b4d   Thumb Code    96  heap_4.o(i.vPortFree)
    vPortSetupTimerInterrupt                 0x08011bb1   Thumb Code    32  port.o(i.vPortSetupTimerInterrupt)
    vPortValidateInterruptPriority           0x08011bd5   Thumb Code    82  port.o(i.vPortValidateInterruptPriority)
    vQueueDelete                             0x08011c31   Thumb Code    50  queue.o(i.vQueueDelete)
    vQueueUnregisterQueue                    0x08011c65   Thumb Code    36  queue.o(i.vQueueUnregisterQueue)
    vTaskDelay                               0x08011c8d   Thumb Code    70  tasks.o(i.vTaskDelay)
    vTaskDelete                              0x08011cdd   Thumb Code   162  tasks.o(i.vTaskDelete)
    vTaskInternalSetTimeOutState             0x08011d8d   Thumb Code    12  tasks.o(i.vTaskInternalSetTimeOutState)
    vTaskMissedYield                         0x08011d9d   Thumb Code     8  tasks.o(i.vTaskMissedYield)
    vTaskPlaceOnEventList                    0x08011da9   Thumb Code    48  tasks.o(i.vTaskPlaceOnEventList)
    vTaskPlaceOnUnorderedEventList           0x08011ddd   Thumb Code    84  tasks.o(i.vTaskPlaceOnUnorderedEventList)
    vTaskPriorityDisinheritAfterTimeout      0x08011e35   Thumb Code   174  tasks.o(i.vTaskPriorityDisinheritAfterTimeout)
    vTaskRemoveFromUnorderedEventList        0x08011eed   Thumb Code   112  tasks.o(i.vTaskRemoveFromUnorderedEventList)
    vTaskStartScheduler                      0x08011f65   Thumb Code    94  tasks.o(i.vTaskStartScheduler)
    vTaskSuspendAll                          0x08011fd5   Thumb Code    10  tasks.o(i.vTaskSuspendAll)
    vTaskSwitchContext                       0x08011fe5   Thumb Code    86  tasks.o(i.vTaskSwitchContext)
    xEventGroupClearBits                     0x08012045   Thumb Code    72  event_groups.o(i.xEventGroupClearBits)
    xEventGroupCreate                        0x0801208d   Thumb Code    28  event_groups.o(i.xEventGroupCreate)
    xEventGroupSetBits                       0x080120a9   Thumb Code   152  event_groups.o(i.xEventGroupSetBits)
    xEventGroupWaitBits                      0x08012141   Thumb Code   276  event_groups.o(i.xEventGroupWaitBits)
    xPortStartScheduler                      0x08012259   Thumb Code   176  port.o(i.xPortStartScheduler)
    xPortSysTickHandler                      0x08012319   Thumb Code    42  port.o(i.xPortSysTickHandler)
    xQueueCreateMutex                        0x08012349   Thumb Code    22  queue.o(i.xQueueCreateMutex)
    xQueueCreateMutexStatic                  0x0801235f   Thumb Code    26  queue.o(i.xQueueCreateMutexStatic)
    xQueueGenericCreate                      0x08012379   Thumb Code    76  queue.o(i.xQueueGenericCreate)
    xQueueGenericCreateStatic                0x080123c5   Thumb Code   118  queue.o(i.xQueueGenericCreateStatic)
    xQueueGenericReset                       0x0801243d   Thumb Code   148  queue.o(i.xQueueGenericReset)
    xQueueGenericSend                        0x080124d5   Thumb Code   362  queue.o(i.xQueueGenericSend)
    xQueueGenericSendFromISR                 0x08012645   Thumb Code   204  queue.o(i.xQueueGenericSendFromISR)
    xQueueGiveFromISR                        0x08012711   Thumb Code   172  queue.o(i.xQueueGiveFromISR)
    xQueueReceive                            0x080127bd   Thumb Code   322  queue.o(i.xQueueReceive)
    xQueueReceiveFromISR                     0x08012905   Thumb Code   168  queue.o(i.xQueueReceiveFromISR)
    xQueueSemaphoreTake                      0x080129ad   Thumb Code   392  queue.o(i.xQueueSemaphoreTake)
    xTaskCheckForTimeOut                     0x08012b39   Thumb Code   124  tasks.o(i.xTaskCheckForTimeOut)
    xTaskCreate                              0x08012bb9   Thumb Code    90  tasks.o(i.xTaskCreate)
    xTaskCreateStatic                        0x08012c13   Thumb Code    94  tasks.o(i.xTaskCreateStatic)
    xTaskGetSchedulerState                   0x08012c71   Thumb Code    22  tasks.o(i.xTaskGetSchedulerState)
    xTaskGetTickCount                        0x08012c8d   Thumb Code     6  tasks.o(i.xTaskGetTickCount)
    xTaskGetTickCountFromISR                 0x08012c99   Thumb Code    12  tasks.o(i.xTaskGetTickCountFromISR)
    xTaskIncrementTick                       0x08012ca9   Thumb Code   196  tasks.o(i.xTaskIncrementTick)
    xTaskPriorityDisinherit                  0x08012d75   Thumb Code   158  tasks.o(i.xTaskPriorityDisinherit)
    xTaskPriorityInherit                     0x08012e1d   Thumb Code   144  tasks.o(i.xTaskPriorityInherit)
    xTaskRemoveFromEventList                 0x08012eb5   Thumb Code   112  tasks.o(i.xTaskRemoveFromEventList)
    xTaskResumeAll                           0x08012f2d   Thumb Code   188  tasks.o(i.xTaskResumeAll)
    _fp_init                                 0x08012ff5   Thumb Code    10  fpinit.o(x$fpl$fpinit)
    __fplib_config_fpu_vfp                   0x08012ffd   Thumb Code     0  fpinit.o(x$fpl$fpinit)
    __fplib_config_pureend_doubles           0x08012ffd   Thumb Code     0  fpinit.o(x$fpl$fpinit)
    memp_RX_POOL                             0x08013038   Data          12  ethernetif.o(.constdata)
    AHBPrescTable                            0x0801307c   Data          16  system_stm32f7xx.o(.constdata)
    ethbroadcast                             0x0801308c   Data           6  ethernet.o(.constdata)
    ethzero                                  0x08013092   Data           6  ethernet.o(.constdata)
    netconn_aborted                          0x08013098   Data           1  api_msg.o(.constdata)
    netconn_reset                            0x08013099   Data           1  api_msg.o(.constdata)
    netconn_closed                           0x0801309a   Data           1  api_msg.o(.constdata)
    memp_UDP_PCB                             0x0801309c   Data          12  memp.o(.constdata)
    memp_TCP_PCB                             0x080130a8   Data          12  memp.o(.constdata)
    memp_TCP_PCB_LISTEN                      0x080130b4   Data          12  memp.o(.constdata)
    memp_TCP_SEG                             0x080130c0   Data          12  memp.o(.constdata)
    memp_REASSDATA                           0x080130cc   Data          12  memp.o(.constdata)
