:020000040800F2
:1000000058170320F1030008094D0008EB460008CB
:10001000054D0008BB180008B5540008000000009A
:10002000000000000000000000000000F9020008CD
:100030007D1B00080000000055030008554E000815
:100040000B0400080B0400080B0400080B04000854
:100050000B0400080B0400080B0400080B04000844
:100060000B0400080B0400080B0400080B04000834
:100070000B0400080B0400080B0400080B04000824
:100080000B0400080B0400080B0400080B04000814
:100090000B0400080B0400080B0400080B04000804
:1000A0000B0400080B0400080B0400080B040008F4
:1000B0000B0400080B0400080B0400080B040008E4
:1000C0000B0400080B0400080B0400080B040008D4
:1000D0000B0400080B0400080B0400080B040008C4
:1000E0000B0400080B0400080B0400080B040008B4
:1000F0000B0400080B0400080B0400080B040008A4
:100100000B0400080B0400080B0400080B04000893
:100110000B0400080B0400080B0400080B04000883
:100120000B0400080B0400080B0400080B04000873
:100130000B040008911D00080B0400080B040008C4
:100140000B0400080B0400080B0400080B04000853
:100150000B0400080B0400080B0400080B04000843
:100160000B0400080B0400080B0400080B04000833
:100170000B0400080B0400080B040008000000003A
:100180000B0400080B0400080B0400080B04000813
:100190000B0400080B0400080B0400080B04000803
:1001A0000B0400080B0400080B0400080B040008F3
:1001B0000B0400080B0400080B0400080B040008E3
:1001C0000B0400080B04000800F002F800F085F8AA
:1001D0000AA090E8000C82448344AAF10107DA45A2
:1001E00001D100F07AF8AFF2090EBAE80F0013F06F
:1001F000010F18BFFB1A43F00103184730B4010088
:1002000050B401000A444FF0000C10F8013B13F009
:10021000070408BF10F8014B1D1108BF10F8015B5F
:10022000641E05D010F8016B641E01F8016BF9D152
:1002300013F0080F1EBF10F8014BAD1C0C1B09D1A9
:100240006D1E58BF01F801CBFAD505E014F8016B1B
:1002500001F8016B6D1EF9D59142D6D370470000AD
:100260000023002400250026103A28BF78C1FBD8BF
:10027000520728BF30C148BF0B60704703681B0A94
:1002800028BF41F08001642900F0C481782900F082
:100290006682F52900F0FA81632900F088857329C8
:1002A00000F08D85002070471FB51AF0C1FE9DE853
:1002B000030001F0F7F800F058FB00F0ABFC04007D
:1002C000002000211AF09EFE401C606000F01EFE1F
:1002D0001FBD10B500F083FE10BD00F0B3FE114647
:1002E000FFF7E2FF0AF00CF801F0B0F803B4FFF7F3
:1002F000F0FF03BC01F050FA2D4B19680868B0E814
:10030000F04F80F30988BFF36F8F4FF0000080F348
:10031000118870470000000008480068006880F3FA
:1003200008884FF0000080F3148862B661B6BFF30E
:100330004F8FBFF36F8F00DF00BF00BF08ED00E0FD
:10034000DFF80C00016841F470010160704700BFE4
:1003500088ED00E0EFF30980BFF36F8F144B1A684C
:100360001EF0100F08BF20ED108A20E9F04F10603A
:1003700009B44FF0500072B680F31188BFF34F8F6D
:10038000BFF36F8F62B619F0C3F94FF0000080F32E
:10039000118809BC19680868B0E8F04F1EF0100F0A
:1003A00008BFB0EC108A80F30988BFF36F8F7047E5
:1003B00038010020EFF30580704700000B49D1F8A9
:1003C00000C04A685CF8043B1068184442F8040B0B
:1003D0008C4528BFA1F1DC0C8A4228BFA1F1DC02C8
:1003E000C1F800C04A6020F000407047F4B5022018
:1003F0000948804709480047FEE7FEE7FEE7FEE7B9
:10040000FEE7FEE7FEE7FEE7FEE7FEE704480549F4
:10041000054A064B70470000214F0008C90100083B
:1004200058B702205817032058D7022058D7022067
:1004300010B500F0EFFB001D10BD00BFC9AB0100FF
:1004400053EA020C00F069802DE9F04B4FF00006F2
:10045000002B1FBFB3FA83F503FA05F424FA05F65F
:100460005E4012BF1643B2FA82F502FA05F4C5F1F6
:1004700020051EBF22FA05FC44EA0C04203556EA8A
:10048000044C4FEA144418BF641C4FF000084FF0AE
:100490000009904271EB030C39D3002919BFB1FA5E
:1004A00081F701FA07F6B0FA80F700FA07F6C7F10C
:1004B00020071EBF20FA07FC46EA0C062037B6FBD1
:1004C000F4FCA7EB0507103F07F01F0BCBF120064C
:1004D0000CFA0BFB2CFA06F644BFB3460026202F7D
:1004E000A4BF5E464FF0000B5BEA060C08BF4FF05E
:1004F000010B19EB0B09ABFB027C48EB0608C01B98
:1005000006FB02CC0BFB03CC71EB0C01C1E70B46E5
:10051000024641464846BDE8F08B13B54FF0000057
:100520004FF00001AFF30080BDE81C4070470000B1
:100530000FB4044910B503AA029800F045FC10BCA2
:100540005DF814FB50B602200FB41CB5084B06AA88
:100550007B4469460090059800F007FC04460020A3
:10056000694600F015FC20461CBC5DF814FB000039
:100570003D08000070B5044685690068C10601D5D4
:10058000302600E02026C00707D070BDD4E9012145
:1005900030469047206A401C20626D1EF6D570BD23
:1005A00070B5044685690078C00707D170BDD4E9ED
:1005B000012120209047206A401C20626D1EF6D544
:1005C00070BD70B50C460546012A05D02878800616
:1005D00000D5EA69002302E0012305E05B1C934299
:1005E00002D2E05C0028F9D1A869E618C01AA86117
:1005F000286A184428622846FFF7BCFF04E0D5E9C2
:10060000012114F8010B9047B442F8D32846FFF7B4
:10061000C7FF70BD2DE9F04106460024106875291A
:10062000314616A510D0AFF30080002802DA404210
:1006300013A507E031688A0701D512A502E0490732
:1006400004D511A5012401E0AFF3008000210A22A6
:1006500006F1240709E0B0FBF2FCB0FBF2F302FB69
:100660001C00303078541846491C0028F3D123462A
:100670002A463046BDE8F04100F019BB00000000FA
:100680002D0000002B000000200000002DE9F041AB
:100690008046D21D22F007020025D2E90002F5298A
:1006A00015A614D0011E72F1000106DA0023D0EB6A
:1006B000030063EB020211A608E0D8F800108B07D4
:1006C00001D50FA602E0490701D50EA60125114666
:1006D000002408F1240704E000F0A4FA30323A556F
:1006E000641C50EA0102F7D12B46324621464046AF
:1006F000BDE8F04100F0DBBA000000002D00000072
:100700002B00000020000000F0B40D460188090510
:1007100002D5214C7C4402E01F4C7C440E34002165
:1007200000F1240608E002F00F071209E75D42EA33
:1007300003721B097754491C52EA0307F3D102786C
:100740000023120704D5702D06D009B102231134FD
:100750002246F0BC00F0ABBA01231034F8E770B5C4
:1007600004460D4621461068AFF300800246294634
:100770002046BDE870400023C6E7D21D22F00703E3
:10078000D3E90023C0E70368126843F02003036045
:100790000823C3610023B7E7EFAB01002DE9F05F49
:1007A000894604464FF0000ADFF874B1FB44C0F8F4
:1007B00020A02046E1688847002874D0252806D06C
:1007C000D4E901219047206A401C2062F1E700260D
:1007D0005F462046E16888472028054607DB312D23
:1007E00005D2781910F8200C08B10643F1E7B007DC
:1007F00001D526F00406C4F81CA00027C4F818A0F0
:100800002A2D09D0284604F073FE38B304EB87087C
:10081000303DC8F8185019E059F8041B204604EB85
:1008200087029161E1688847012F054618D1E06988
:10083000002820DA26F020061DE0D8F8180000EB8A
:10084000800005EB40003038C8F818002046E16809
:100850008847054604F04CFE0028EED1012F0AD04F
:100860002E2D08D12046E16888477F1C0546022FBF
:1008700046F02006C4DBA069002803DA404246F0B7
:100880000106A061F00701D026F010066C2D0BD0F8
:10089000682D09D04C2D39D06A2D35D0742D35D026
:1008A0007A2D33D016E038E0E1682F46204688479D
:1008B000B842054609D16C2F26D04FF48060E1681C
:1008C000064320468847054604E06C2F1AD04FF4B3
:1008D000807006430DB3A5F14100192802D82035D8
:1008E00046F400664A462946204626604E46FFF7F3
:1008F000C5FC80B101280BD0F61D26F0070000F1E1
:10090000080956E74020E4E78020D8E70020D6E732
:1009100006F104094DE7284652E7206ABDE8F09F3A
:100920007FAB010070B5064600F078F90468054613
:1009300030460A22002100F059FA2C6070BD0000F8
:100940000B4910B5A1F17C020A4CC2E937123721DC
:1009500006E000EB104342F82130074B00FB034058
:100960000B1EA1F10101F4DC10BD0120E8E700003D
:1009700094B50220E119D666CD0D010040EA0103CD
:1009800010B59B070FD1042A0DD310C808C9121F38
:100990009C42F8D020BA19BA884201D9012010BD72
:1009A0004FF0FF3010BD1AB1D30703D0521C07E03F
:1009B000002010BD10F8013B11F8014B1B1B07D1A3
:1009C00010F8013B11F8014B1B1B01D1921EF1D114
:1009D000184610BD10B5431C02E010F8011B71B1A0
:1009E0008107FAD14FF0013202C88C1A8C4314EA05
:1009F000C211F9D0C01A0A0603D0C01E10BDC01A19
:100A000010BD0A0401D0801E10BD0902FCD0401E9A
:100A100010BD032A40F2308010F0030C00F0158066
:100A200011F8013BBCF1020F624498BF11F801CBF1
:100A300000F8013B38BF11F8013BA2F1040298BF56
:100A400000F801CB38BF00F8013B11F0030300F0C0
:100A50002580083AC0F0088051F8043B083A51F864
:100A600004CBA0E80810F5E7121D5CBF51F8043B69
:100A700040F8043BAFF30080D20724BF11F8013BDC
:100A800011F801CB48BF11F8012B24BF00F8013B3E
:100A900000F801CB48BF00F8012B704710B5203A91
:100AA000C0F00B80B1E81850203AA0E81850B1E827
:100AB0001850A0E81850BFF4F5AF5FEA027C24BFDD
:100AC000B1E81850A0E8185044BF18C918C0BDE8D4
:100AD00010405FEA827C24BF51F8043B40F8043B9D
:100AE00008BF7047D20728BF31F8023B48BF11F852
:100AF000012B28BF20F8023B48BF00F8012B7047AC
:100B000002F0FF0343EA032242EA024200F002B885
:100B10004FF000020429C0F0128010F0030C00F026
:100B20001B80CCF1040CBCF1020F18BF00F8012BA4
:100B3000A8BF20F8022BA1EB0C0100F00DB85FEA72
:100B4000C17C24BF00F8012B00F8012B48BF00F83E
:100B5000012B70474FF0000200B5134694469646AD
:100B6000203922BFA0E80C50A0E80C50B1F12001C0
:100B7000BFF4F7AF090728BFA0E80C5048BF0CC06E
:100B80005DF804EB890028BF40F8042B08BF7047CC
:100B900048BF20F8022B11F0804F18BF00F8012B3E
:100BA000704700004FF0013C50F8042B51F8043B13
:100BB0009A4215D1A2EB0C03934313EACC130BD149
:100BC00050F8042B51F8043B9A4209D1A2EB0C03D4
:100BD000934313EACC13E7D04FF00000704700BFF7
:100BE000D01A01BAB1FA81F101F0180122FA01F02C
:100BF000CB40C1F12001DBB2C0B2C01A2CFA01F324
:100C0000D11A914311EAC311E6D17047704770477A
:100C1000704700000048704718B70220004870472E
:100C2000F8B6022030B5B0F10A024FEA900E71F129
:100C300000034EEA817EB0EB0E0061EB91014FEABA
:100C4000101E4EEA017E10EB0E0041EB11114FEA2F
:100C5000102E4EEA016E10EB0E0041EB11214FEA0F
:100C6000104E4EEA014E10EB0E0041EB11414018C0
:100C700041F100014FEAD00040EA41704FEAD10152
:100C800010EB80054FEA810444EA907444EB0104C0
:100C90006D1944EB0404521BA3414FF0000348BFFD
:100CA0000A3200D530BD401C41F1000130BD2DE9B4
:100CB000F0470D4699469246044600F12408016823
:100CC000880604D5E06921F01001216000E00120D0
:100CD000A84201DD471B00E00027A1697A1902EB59
:100CE0000900081AA0612078C00602D42046FFF748
:100CF00041FC002608E0D4E901211AF806009047DB
:100D0000206A401C761C20624E45F4DB2078C00629
:100D10000AD52046FFF72EFC06E0D4E90121302059
:100D20009047206A401C2062381EA7F10107F4DCBE
:100D300007E0D4E9012118F805009047206A401C1B
:100D40002062281EA5F10105F3DC2046FFF728FCF0
:100D50002078000602D50220BDE8F0870120FBE7DD
:100D600001694A1C02610878704700B58FB0CDE96F
:100D700001310021059105497944CDE9031011465F
:100D80006846FFF70BFD0FB000BD0000E5FFFFFF59
:100D90000A6802F8010B0A60704710B5436913B185
:100DA000AFF3008001E0FFF70CFC012010BD1278CA
:100DB00000F124010A7000224A700122EDE7116857
:100DC0004FF0FF32E9E70000074B70B50D467B445A
:100DD000FFF7CBFF0446284600F093F810B14FF020
:100DE000FF3070BD204670BDA36700002DE9F047BD
:100DF00091460F4680460446002614F8015B2DB14B
:100E0000FFF716FB0068405DC007F6D12B2D02D01E
:100E10002D2D18D0641E4A463946204600F022F88F
:100E200027B13968A14201D1C7F800804FF0020410
:100E300071050BD54042002803DDFFF7EFFE04608B
:100E4000A007BDE8F08746F48066E4E70028F8DAFA
:100E5000FFF7E4FE04606FF00040F2E700487047DF
:100E6000F8B602202DE9F05F824615468B46002732
:100E70000AF10104B9460078302801D09DB113E091
:100E800014F8010B0127782803D0582801D045B168
:100E90000AE00DB1102D07D1002714F8010B102521
:100EA00002E0082500E00A250026B0460EE005FB1A
:100EB000080005FB06F101271FFA80F801EB104638
:100EC000B6F5803F00D3B94614F8010B294600F06F
:100ED00005F90028EBDABBF1000F05D00FB1641E55
:100EE00000E05446CBF80040B9F1000F06D0FFF700
:100EF00095FE02210160C81EBDE8F09F48EA064049
:100F0000FAE7007B00F080007047000010B542480F
:100F10005421FFF71FFE41485421FFF71BFE4048B4
:100F20005421FFF717FE3F493B483C4A3F4B0860BE
:100F30003D490A603A491960531C0365481C106515
:100F4000012008653B48344A39A1784400F0E2F9B1
:100F500020B9384878440A3800F081FA37482F4AD7
:100F600035A1784400F0D6F920B9344878440A38DD
:100F700000F075FA32482A4A2FA1784400F0CAF9E5
:100F800020B92F4878440A3800F069FA40232248F3
:100F9000DC000021224600F09AF920B1254878446F
:100FA000543800F05CFA1D4822464023002100F02E
:100FB0008EF920B121487844543800F050FA18488E
:100FC00022461023002100F082F9002806D01C4898
:100FD0007844BDE81040563800F041BA10BD1048C2
:100FE00070B5006D20F001040B4800F009FA0B48C1
:100FF00000F006FA0A4800F003FA09E0206D20F03C
:101000000105204600F0FCF9204600F040F82C468F
:10101000002CF3D170BD0000FCB5022050B60220B8
:10102000A4B602207C02002080020020840200205E
:1010300072000000A2A301007700000091A301004C
:1010400081A301007546FFF709FFAE46050069461A
:10105000534620F00700854618B020B5FFF7D6F9B3
:10106000BDE820404FF000064FF000074FF00008A9
:101070004FF0000B21F00701AC46ACE8C009ACE82A
:10108000C009ACE8C009ACE8C0098D46704770B52E
:101090000446051F00F0EAF90068002C14BF4468FC
:1010A00070BD002C18BFAC423CBF20466468F8D32A
:1010B00001680A18AA4218BF456003D12A6805468C
:1010C0001144016028684119A1421CBF6C6070BDC9
:1010D0006168696021680844286070BD3A2800D2C0
:1010E000303820F02002412A01D3A2F13700884293
:1010F00001D34FF0FF3070472DE9F04705460C460D
:10110000C86820F4201040F48000C860800602D532
:10111000084600F0F8FAE06841F282014FF0FF392A
:101120000140022903D0204600F096FAB5E000F411
:101130002041B1F5004F0FD1C00306D56168E06AC8
:10114000884200D80846606006E02069E06260607E
:10115000606904F0E7F9A061A0680022EEB20028FF
:101160000DDAE1688B050AD4C043A06041F49030E9
:101170002260E0606068411C61600670A5E0E06884
:101180009046226040F40050E060206968BB6069CE
:1011900004F0DAF9012704F12405A0B1A08910F4C4
:1011A000407F08D0E06900F0ACF9206118B1E06838
:1011B00040F4006016E0E7612561E06820F44070CB
:1011C00040F480600EE0E06900F09BF900282061A7
:1011D000F1D0E06840F4006010F4407FE06002D19C
:1011E00040F48070E06020696060E06825696FF01D
:1011F000010AC1051FD56168E06A884200D8084627
:10120000411B04D02246284600F030FAF0BBE068CB
:10121000010203D5E562C4E9015854E0691CE162AA
:101220006160E16940F48030491EC4E90210304633
:101230002E70BDE8F087010202D500F480320AE08A
:101240006068411C61600670E0680A2E40F48030DE
:10125000E06006D00022E16A6068814203D90B4653
:1012600002E00122F7E70346A7895B1B7F0503D451
:10127000E7699F4200DDE2B1814200D80146E562A4
:101280000F1AC4E90158002B09DD00E005E02246F1
:101290001946284600F0EAF908B14846C9E747B1BF
:1012A000A069E5626560C01BA061E06840F01000C5
:1012B000E060E068000208D56168A069E562491B4A
:1012C00008446560A0615046B3E73046B1E770B5A9
:1012D000C468A50713D0650211D4B2F5807F09D088
:1012E000B2F5007F06D0B2F5806F08D1012300F17E
:1012F000240106E05D1E6FF07F46B54201D3012058
:1013000070BD0161C361416024F470611143C1602B
:10131000002070BD2DE9F0410C46074616461046E8
:1013200000F06EF82078611C61280AD0722802D083
:1013300077283CD102E00125002405E002250424A1
:1013400002E0082448F2020511F8010B2B2806D010
:10135000622809D011F8010C74280AD00BE045F07E
:10136000030544F00204EFE745F0040544F00104EE
:10137000EAE744F010043846214604F0F7F8411C2F
:1013800015D00021316171604FF40071F560F16199
:101390007061200704D530460222002100F0E0F8F9
:1013A000306D40F0010030653046BDE8F08100202E
:1013B000FBE72DE9F0410D460646104C206DC107B4
:1013C00004D0410804D020F00104F7E722460EE0E3
:1013D000542000F096F807000ED0206D47F0010170
:1013E0000843542120653846FFF7B4FB3A462946A6
:1013F0003046BDE8F0418DE70020D6E7FCB502207D
:101400002DE9F04704464FF000094FF0FF37C5685B
:10141000D4E90486A80707D0204600F051F93046E9
:1014200004F06DF8002802DA3846BDE8F087280598
:1014300002D54046FFF72BFE4C212046FFF78AFBE2
:10144000206D20F0010020654846EEE710B5044607
:10145000AFF300802046BDE81040FEF747BF10B54F
:1014600000F078F9BDE8104000F06EB90048704710
:1014700000B70220704770477047704738B5044680
:101480000A4600206946AFF30080002808BF38BD37
:1014900002460099204600F08DF9012038BD012058
:1014A00000F072B9F8B5AFF30080054600200C4695
:1014B000102000BF0646A819A0420DD93246694641
:1014C0000020AFF30080070008BF00F05DF900982E
:1014D000A04218BF0546C419FFF7C8FF05600746BC
:1014E000F01D20F007004619284600F05CF9B442D0
:1014F00008BFF8BDA21B31463868BDE8F84000F0CF
:1015000059B970B50646FFF7B1FF056806F10B0043
:1015100020F00704B4429CBF002070BD2B466A68CF
:10152000BAB11068A04210D304F1080188423CBF50
:101530005068586007D35168101941601168091B41
:10154000016058601460101D70BD13465268002A77
:10155000E7D121462846FFF791FF0028DED170BD74
:101560002DE9F041044616460D464769007B800789
:101570002ED0384603F0E8FF50BB3EB3012E02D018
:10158000022E25D104E0204600F02EF905441DE08E
:10159000384603F0C7FFE168002841F01001E16020
:1015A00005DA204600F058F80120BDE8F081C903B3
:1015B0000BD56268E16A914200D81146A2691144D4
:1015C0002269891A814200DD08460544002D01DAAE
:1015D0000220EAE7E16A6068E268814206D291038C
:1015E000E06203D522F4003141F01002A669002721
:1015F000AE4213DCE16A814201D90B4600E00346AA
:1016000003EB060C2369ACEB030CAC4506DD814211
:1016100001D98C4600E084469C4505D1A76027602F
:1016200042F02000A5620DE0AD1BE669AE1B8142D1
:10163000A66000D90846C01A281A206058196060B0
:1016400022F0200003490840E060002084F8487040
:10165000ABE70000BFCFD7FFC16821F4001141F014
:101660008001C16000218160016070472DE9F04771
:10167000814614460E464FF0FF383248D568576908
:10168000054209D03846A16903F0A4FF002811DB08
:101690002C48C0430540E5602B4632464946384653
:1016A00003F0AEFFA16920F00042B21A11440028F5
:1016B000A16103D02046FFF7CFFF4046BDE8F08789
:1016C00070B504460569C06A6168884200D808465A
:1016D000E16821F42011E160C90312D5A84208D0C5
:1016E0002246411B2846FFF7C1FF10B14FF0FF30E3
:1016F00070BD0020E562C4E90150E06820F480304C
:10170000E060002070BD10B50446C06820F02000E5
:10171000E060A16AA06988420DD02046FFF7D0FFA3
:10172000E06820F4405040F01000E060A06AA06142
:101730002069E062606044F24001E0688843E06054
:1017400010BD000010000200002801D000F024B8F5
:101750007047000010B5014602A000F066F80120B5
:1017600010BD000053494752545245443A20526537
:101770006469726563743A2063616E2774206F70C8
:10178000656E3A200000000010B500F067F8BDE873
:101790001040FFF7D9BF000001491820ABBEFEE79B
:1017A00026000200704700210160C0E90110704767
:1017B00010207047034640688C46002818BF8842B6
:1017C0003CBF03464068F8D318681844884207D0E5
:1017D0000CF1030020F00700001D411A521A0146C7
:1017E000081D0A60FFF753BC10B50146C268900798
:1017F00003D0900607D5886A0AE0FFF70FFA0121A7
:101800000160881E10BD8B69486818440B69C01AB6
:1018100091F848301BB191F84910401A10BD1103DE
:10182000FCD50028FADD401E10BD70B505460C46FB
:101830000A2000E06D1C00F039F835B12878002846
:10184000F8D102E0641C00F031F814B120780028CF
:10185000F8D1BDE870400A2000F028B810B5012882
:1018600005D0002103A0FFF7E0FF012010BD09A172
:10187000F8E7000053494752544D454D3A204F7503
:1018800074206F662068656170206D656D6F727978
:10189000000000003A2048656170206D656D6F7230
:1018A0007920636F727275707465640008B569465B
:1018B0008DF800000320ABBE08BD00BFFEE77047F7
:1018C00030B585B004460D4614216846FFF742F94D
:1018D000012000900195029400231A4669460648AB
:1018E000006818F0CFFA012802D004A0FEF720FE0D
:1018F000012005B030BD0000C00000204552523A22
:101900002078517565756553656E642071546864FF
:10191000537076204661696C65642121210A0000BC
:1019200070B58AB0044600200090019400231A4646
:1019300069461748006818F0A5FA012821D1821ECF
:1019400005A91448006818F075FC012814D1059EFB
:10195000079D022E0BD106990198884207D1012DCF
:1019600014D00DA0FEF7E4FD00200AB070BD15A054
:10197000FEF7DEFD0020F8E71DA0FEF7D9FD0020F0
:10198000F3E728A0FEF7D4FD0020EEE70120ECE706
:10199000C0000020C40000204572723A20715265D8
:1019A000706C79546864537076436C69656E74200A
:1019B000726573756C74206661696C6564212121A0
:1019C0000A0000004572723A2046616C736520710E
:1019D0005265706C79546864537076436C69656EB7
:1019E0007420666F726D61742121210A000000006D
:1019F0004572723A207851756575655265636569FF
:101A0000766520715265706C7954686453707643C2
:101A10006C69656E74206661696C65642121210AB8
:101A2000000000004572723A207851756575655363
:101A3000656E642071546864537076206661696CC9
:101A400065642121210A000070B58AB00446142182
:101A500005A8FFF77FF814216846FFF77BF80025FB
:101A6000002604200090019400231A466946174876
:101A7000006818F007FA012821D1821E05A9144830
:101A8000006818F0D7FB012814D1059D079E062D8C
:101A90000BD106990198884207D1012E14D00DA0D0
:101AA000FEF746FD00200AB070BD15A0FEF740FD10
:101AB0000020F8E71CA0FEF73BFD0020F3E726A07E
:101AC000FEF736FD0020EEE70120ECE7C000002025
:101AD000C80000204572723A20715265706C7954CA
:101AE00068645370764C706F727420726573756C95
:101AF00074206661696C65642121210A0000000080
:101B00004572723A2046616C736520715265706C43
:101B1000795468645370764C706F727420666F727B
:101B20006D61742121210A004572723A2078517545
:101B30006575655265636569766520715265706C7F
:101B4000795468645370764C706F72742066616962
:101B50006C65642121210A004572723A2078517522
:101B600065756553656E64207154686453707620A2
:101B70006661696C65642121210A000070470000DC
:101B80002DE9F0438BB007460E4614461D46DDF89E
:101B900048804FF47A7900200690079608942888A8
:101BA000099000231A4606A91948006818F06AF936
:101BB000012825D1821E01A9384618F03BFB0128D7
:101BC00017D1019878B9059868B92046DDE9021265
:101BD000FEF71FFF03982880049888F80000002073
:101BE0000BB0BDE8F0830BA0FEF7A2FC4FF0FF3076
:101BF000F6E70FA0FEF79CFCA9F10A00814605E07C
:101C000016A0FEF795FC4FF0FF30E9E700BFE7E7CD
:101C1000140000204572723A205061796C6F616443
:101C200020496E76616C69642121210D0A00000053
:101C30004572723A207851756575655265636569BC
:101C40007665207468645F717565756520466169A5
:101C50006C65642121210D0A000000004572723A72
:101C60002078517565756553656E642071436D64A8
:101C700050726F63657373204661696C65642121DE
:101C8000210D0A0010B50146002226E002EB820475
:101C90000B6903EBC4000023036043608360C360EF
:101CA000036243624FF00043036044F2F853436021
:101CB000436823F00043436001F1480343F82200E6
:101CC000032A07D202EB82040B6903EBC403283317
:101CD000C36001E00B69C360521C042AD6D3002400
:101CE000CC650C668C66CC668C650B6803F58053FE
:101CF0000C69DC6010BD10B50146002222E002EB49
:101D00008204CB6803EBC40000230360436083605C
:101D1000C36001F1180343F82200036843F4801301
:101D20000360032A07D202EB8204CB6803EBC403EF
:101D30002833C36001E0CB68C360036843F4400309
:101D40000360521C042ADAD300248C620B6803F56A
:101D50008053CC681C6110BD38B50446002000904B
:101D6000206800F58050806940F48011206800F5FB
:101D700080508161206800F58050806900900120CA
:101D800000F0DEFB0099206800F58050816138BDCD
:101D900010B5024800F070FC10BD0000D8570020BC
:101DA00030B503461479557944EA0520084C0C44B3
:101DB0002064D4782406957844EA0544557844EAAA
:101DC0000524157844EA0500014C0C44606430BDDC
:101DD0000080024010B5A4B0044601208DF83C00FC
:101DE0008DF83D0000200D908DF84B0001208DF8FE
:101DF0004A0000208DF8480001208DF830000020B6
:101E00008DF84C008DF83B0014908DF854001D9017
:101E10008DF878001F908DF882008DF880004FF4C7
:101E200080401090C010119000208DF881000BA907
:101E3000204600F095F901208DF80C008DF80D007A
:101E40008DF81D008DF80E00002005908DF81C0007
:101E50008DF81E00089001208DF824008DF80400F4
:101E600000040290800106904012049001208DF839
:101E7000250000200A9000906946204600F010F9E5
:101E800024B010BD0020704710B501F051FA10BD0C
:101E900010B5024800F0F2FE002010BDD857002017
:101EA00070B504460D46164633462A462146044878
:101EB00000F008FE10B14FF0FF3070BD0020FCE7CD
:101EC000D857002070B504460D46164633462A46BC
:101ED0002146044801F075F810B14FF0FF3070BD95
:101EE0000020FCE7D85700202DE9F04F80460C4633
:101EF000164608F118031A69D3F810904FF0000C39
:101F000053F82210A568E246086800F00040B0F1DE
:101F1000004F04D003F1140050F8220010B1022049
:101F2000BDE8F08F0CF1010C2868886048686FF3F9
:101F30000C00D5F804B040EA0B004860207800F0AF
:101F4000010038B1086820F44000D4F814B040EA29
:101F50000B000860207800F0200038B1086820F0FD
:101F60004060D4F810B040EA0B000860207800F020
:101F7000040018B1086840F080000860086840F06C
:101F80008050086000BF00BF00BFBFF35F8F00BF7D
:101F900000BF00BF086840F0004008605DE00868CE
:101FA00020F00050086026B1086840F080400860CA
:101FB00003E0086820F08040086000BF521C042A3B
:101FC00000D3121F00BF53F82210086820F0805081
:101FD0000860086800F00040B0F1004F04D003F141
:101FE000140050F82200E8B14A4653F822100027A6
:101FF00014E000BF00BF00BFBFF35F8F00BF00BF92
:1020000000BF086820F00040086000BF521C042A8E
:1020100000D3121F00BF53F822107F1C6745E8D37E
:1020200002207DE70CF1010CAD68286888604868E3
:102030006FF30C00D5F804B040EA0B0048600AF1D9
:10204000010A00BF00BF00BFBFF35F8F00BF00BF2A
:1020500000BF086840F000400860A86800289ED1D2
:1020600026B1086840F08040086003E0086820F06E
:1020700080400860086840F00050086003F11400D8
:10208000D3F824B040F822B01A6172B60AF1010008
:10209000D3F828B05844986262B6002040E70000A8
:1020A00070B505460C46286800F5805086692B48B7
:1020B0000640207B08B9012000E000208006617BFB
:1020C00040EA4160617F09B9012100E0002140EA56
:1020D0000150A17B40EA415061690843217F40EAF9
:1020E000C110A17F40EA8110216A084394F82410AE
:1020F00040EA81000643286800F580508661286820
:1021000000F580508669012000F01AFA286800F571
:10211000805086612179A06840EA4160A169084346
:102120002169084394F8251040EAC110A16A40EAE9
:1021300081002168084340F40001286800F58050C0
:102140000160286800F580500668012000F0F8F969
:10215000286800F58050066070BD0000233FDEF85F
:1021600070B505460C46286806683A480640207C4B
:1021700008B9012000E00020C005617C09B90121F7
:1021800000E0002140EA8150A1680843E17F40EA75
:10219000014061690843A17F09B9012100E00021E4
:1021A00040EA4130217F40EA0130A16908432179AA
:1021B00040EA812094F8201009B9012100E00021B3
:1021C00040EA4120E17B40EAC110616A084394F88B
:1021D000281040EA0110064328680660286806684F
:1021E000012000F0ADF928680660286886694FF67E
:1021F00041700640A06C000494F84C1009B901210C
:1022000000E0002140EAC110216D084394F8551008
:10221000012900D100E0002140EAC10094F85610E5
:10222000012900D100E0002140EA810094F8541017
:10223000012900D100E0002140EA4100064328685E
:10224000866128688669012000F07AF9286886612D
:1022500070BD00000F8120FF2DE9F84304460020E7
:1022600000904FF00108A66E04F1480050F8265087
:10227000E76E2FE0286A58B9684600F095FC009890
:1022800010B94FF0000803E0009828620098A86099
:10229000B8F1000F1ED0A06D10B91648686002E0BA
:1022A00044F2F850686000BF00BF00BFBFF35F8F0B
:1022B00000BF00BF00BF286840F00040286000BF9A
:1022C000761C042E00D3361F00BF04F1480050F8DE
:1022D00026507F1E17B1B8F1000FCBD1E06EB84287
:1022E00006D00021206800F580508160A666E76670
:1022F000BDE8F883F845008072B600BFFEE7000035
:1023000010B5002201B909E0012901D10A0205E056
:10231000022901D10A0201E04FF44072124B1B68FE
:1023200023F44073104C236023461B68134323603F
:1023300023461B6823F0F803236023461B6802240E
:1023400044EAC0042343084C236023461B6843F43B
:102350008033236000BF00BF00BFBFF34F8F00BFBB
:1023600000BF00BF10BD0000103C02400B4A1268C5
:1023700022F44072094B1A601A4612681A601A4613
:10238000126842F001021A60017000BF00BF00BF76
:10239000BFF34F8F00BF00BF00BF7047103C02402B
:1023A00010B51149096821F440710F4C2160214694
:1023B000096841F4407121602146096841F001013A
:1023C0002160026000BF00BF00BFBFF36F8F00BF7E
:1023D00000BF00BF436000BF00BF00BFBFF34F8F0F
:1023E00000BF00BF00BF10BD103C02400C4A126885
:1023F00022F440720A4B1A601A46126842F4807244
:102400001A601A46126842F001021A60018000BF89
:1024100000BF00BFBFF34F8F00BF00BF00BF7047BA
:10242000103C02400C4A126822F440720A4B1A60B7
:102430001A46126842F400721A601A46126842F094
:1024400001021A60016000BF00BF00BFBFF34F8FE1
:1024500000BF00BF00BF7047103C02401D4800682D
:1024600000F0020028B11C48806940F020001A49A1
:1024700088611848006800F0100028B1164880698B
:1024800040F01000144988611248006800F02000F4
:1024900028B11148806940F008000F4988610D4853
:1024A000006800F0400028B10B48806940F004004B
:1024B000094988610748006800F0800028B1064893
:1024C000806940F0020004498861F22001490860F7
:1024D000704700000C3C02401459002070B50446BF
:1024E000002500201449886100F022FF054609E01C
:1024F000601C38B124B100F01BFF401BA04201D981
:10250000032070BD0D48006800F480300028EFD132
:102510000A48006800F0F20018B1FFF79FFF0120A1
:10252000EFE70648006800F0010010B10120034900
:1025300008600020E5E70000145900200C3C024030
:1025400070B5044600F0F4FE06462546681C10B13E
:1025500004480078054400BF00F0EAFE801BA84252
:10256000FAD370BD3001002010B50446204600F0BB
:102570000BF800F08000802803D1024800680AF0C0
:1025800091FD10BDF40000200146D1F88C00704789
:10259000024609B90120704710680068C0F30010B6
:1025A00081F828001068006800F060004862106838
:1025B0000068C0F3402080F0010081F8200010681E
:1025C0000068C0F30040C87710680068C0F340306E
:1025D00080F00100887710680068C0F30030087749
:1025E0001068006800F4006088611068006800F4FA
:1025F0008040486110680068C0F3805080F001009E
:10260000487410680068C0F3C05080F0010008747E
:1026100010680068C0F3C010C8731068006800F448
:102620006020886010680068C0F38020087110681E
:102630008069C0F3400081F8540010688069C0F3DD
:10264000C01080F0010081F84C001068806900F033
:102650003000086510688069000C88641068806923
:10266000C0F3800081F8560010688069C0F3C00094
:1026700081F8550000208EE710B50446206800F56B
:102680008050406900F0400040280FD1206800F5DC
:102690008050C06900F04000402807D142492068BE
:1026A00000F580504161204600F0A2FA206800F554
:1026B0008050406900F0010078B1206800F580503A
:1026C000C06900F0010040B14FF00111206800F531
:1026D00080504161204600F063FC206800F5805086
:1026E000406900F40040B0F5004F3DD1206800F58E
:1026F0008050C06900F40040B0F5004F34D1D4F8E8
:10270000880040F00800C4F88800206800F5805078
:10271000406900F40050B0F5005F15D1206800F565
:102720008050406921490840C4F88C00206800F5B9
:102730008050C06920F4C031206800F58050C1612C
:10274000E020C4F884000CE0206800F58050406967
:1027500048F280610840C4F88C00206800F5805081
:1027600041612046FFF700FF2068806B00F0080001
:1027700008280BD12068C06A00F06000C4F89400FB
:10278000204600F01DF90020C4F8940008480068B5
:1027900000F4002030B14FF40020054908602046C5
:1027A00000F00EFC10BD00004000010000207E0083
:1027B000143C014038B504460CB9012038BDD4F8AA
:1027C000840028B92320C4F88400204600F05AF879
:1027D00000BF2A48006840F4804028490860084645
:1027E000006800F48040009000BF00BF24480068EB
:1027F00020F400002249086008460068A1680843E8
:102800001F49086008460068206800F5805000688D
:1028100040F00101206800F58050016000F088FD63
:1028200005460DE000F084FD401BB0F5FA7F07D9A6
:102830000420C4F88800E020C4F884000120BDE72B
:10284000206800F58050006800F001000028E9D100
:102850002046FFF7BFFA2046FFF74DFA2046FFF764
:1028600011FA002120466268FFF79AFA0020C4F8A6
:1028700088001020C4F8840000209FE744380240FC
:102880000438014010B586B00446142101A8FEF7B3
:1028900061F94649206888427ED100BF00BF4448A4
:1028A000006840F00070424908600846006800F087
:1028B0000070009000BF00BF00BF0846006840F0F5
:1028C000806008600846006800F08060009000BFEB
:1028D00000BF00BF0846006840F00060086008467E
:1028E000006800F00060009000BF00BF00BF00BFA4
:1028F0000846006840F0400008600846006800F0A4
:102900004000009000BF00BF00BF0846006840F0D4
:10291000040008600846006800F00400009000BF52
:1029200000BF00BF0846006840F00100086008468C
:10293000006800F00100009000BF00BF4FF4D040DD
:1029400001900220029000200390032004900B20AD
:10295000059001A9174800F0DFFB3220019002200A
:10296000029000200390032004900B20059001A901
:10297000114800F0D1FB8620019002200290002037
:102980000390032004900B20059001A90B4800F050
:10299000C3FB0022052100E005E03D2000F04EFDD4
:1029A0003D2000F03BFD06B010BD0000008002405D
:1029B0003038024000180240000802400000024087
:1029C00070472DE9F05F04460F464FF00008C346FC
:1029D00047B9D4F8880040F00100C4F8880001200D
:1029E000BDE8F09FD4F88400232801D00120F7E748
:1029F000E66D04F1480050F82650E06EC0F104097D
:102A000042E0286800F4807018B1A969A167E969FB
:102A10006167286800F4007008B9E06F40B3286867
:102A200000F4007010B1002121666166D4F814A092
:102A3000286800F4807040B12868C0F30D40A0F110
:102A4000040A296821674FF0010BA86828621FFA61
:102A50008AF304F18001081F2A6A00F0D3F8206E7F
:102A6000401C2066606E00EB0A016166002028624F
:102A700000BF761C042E00D3361F00BF04F14800AF
:102A800050F8265008F10108286800F0004020B9ED
:102A9000C84502D2BBF1000FB3D0E06E00EB0801D5
:102AA000E166E06E10B12046FFF7D6FBE665BBF1AC
:102AB000010F05D1E06F38600021E16700208FE74A
:102AC00001208DE72DE9F04705460E46174698464A
:102AD0002868046904F01C044FF4784000EAC6201A
:102AE00004434FF4F86000EA8710044324F0020422
:102AF00044F001042868046100F01AFC81460BE0F0
:102B000000F016FCA0EB0900B0F5803F02D30120D5
:102B1000BDE8F0872868046904F001000028EFD1BF
:102B20002868406980B2C8F800000020F0E72DE96D
:102B3000F047064606F11804A76AE56A4FF0010857
:102B40002AE04FF001097F1E04F1140050F825001F
:102B500020B9681C00F003054FF00009B9F1000F1F
:102B60001AD005EB8501F06850F8310000F0004004
:102B700080B904F1140151F8250000F01BFA00217E
:102B800004F1140040F82510681C00F00305A7624A
:102B9000E56201E04FF0000817B1B8F1000FD0D1A5
:102BA0000020BDE8F08700007CB504460D4808F021
:102BB00045FB054685B105F1200020600A482861E3
:102BC0004FF4C06120682B464122CDE9000100216D
:102BD00008460AF075FF04E001200449087000204F
:102BE00020607CBD28B1010839E20008F000002017
:102BF00010B50446024800680AF054FA10BD0000FF
:102C0000F40000202DE9F0470646894617461D4688
:102C1000B046CA460024A7F120040020206020818D
:102C20006581D8F8000010B9C8F8004002E0DAF871
:102C300000000460CAF80040D8F8004003E0208992
:102C4000284420812468002CF9D12946384602F016
:102C50009BF8BDE8F08770B504460D460DB901201C
:102C600070BDD4F88400102805D129462046FFF70E
:102C700077FA0020F4E70120F2E7000070B506467D
:102C80003068056925F01C0501F0AEF804461348CC
:102C9000844205D31248844202D245F008051AE066
:102CA0000F48844205D30F48844202D245F00C05F8
:102CB00011E00C48844203D30B48844200D20AE05E
:102CC0000948844205D30948844202D245F00405EC
:102CD00001E045F010053068056170BD002D31013F
:102CE000C00E16020087930300E1F50580D1F008BD
:102CF00070B50446D4F8840010283DD12320C4F8D0
:102D000084000421E1662046FFF7A6FA20680068E7
:102D100040F0080021680860206805680120FFF77E
:102D20000FFC206805602068006840F004002168FE
:102D30000860206805680120FFF702FC2068056034
:102D40002046FFF709F8206800F58050806940F4BC
:102D50000051206800F580508161206800F58050A6
:102D6000806940F00201206800F5805081612320D5
:102D7000C4F88400002070BD0120FCE770B5044653
:102D8000D4F8840010285FD12320C4F884000121E6
:102D9000A1652068C06B40F402702168C863206898
:102DA000D0F80C01294908432168C1F80C012068BA
:102DB000D0F8100140F403102168C1F8100104217B
:102DC000E1662046FFF748FA2068006840F00800F6
:102DD00021680860206805680120FFF7B1FB2068C2
:102DE00005602068006840F00400216808602068E1
:102DF00005680120FFF7A4FB206805602046FEF768
:102E0000ABFF206800F58050806940F400512068D5
:102E100000F580508161206800F58050806940F0A5
:102E20000201206800F580508161206800F5805023
:102E3000C06907490843216801F58051C861232012
:102E4000C4F88400002070BD0120FCE7600002008F
:102E5000C1A001002DE9F0410446D4F884002328E4
:102E600051D1C4F88400206800F58050C06927491A
:102E70000840216801F58051C861206800F5805044
:102E8000806920F40051206800F58050816120683D
:102E900000F58050806920F00201206800F5805024
:102EA00081612068006820F00400216808602068C3
:102EB00007680120FFF744FB206807602046FEF703
:102EC0004BFF2068006820F0080021680860206837
:102ED00007680120FFF734FB20680760002508E041
:102EE00004F1480050F82560706840F000407060C0
:102EF0006D1C042DF4D30021A1651020C4F88400BA
:102F00000020BDE8F0810120FBE700003E5FFEFFEE
:102F100070B504460D463DB9D4F8880040F0010074
:102F2000C4F88800012070BDD4F88400232835D16E
:102F3000696BE163012229462046FEF7D5FF38B1CF
:102F4000D4F8880040F00200C4F888000120EAE7C5
:102F500000BF00BF00BFBFF34F8F00BF00BF00BF67
:102F600000BFA06A401CA062A06A042802D3A06A25
:102F7000001FA06200BF206800F58050406900F08B
:102F8000040048B10421206800F58050416100210F
:102F9000206800F5805041600020C4E70120C2E7AE
:102FA00010B50446024800680AF07CF810BD000025
:102FB000F800002010B5044620460BF069F810BD5B
:102FC00070472DE9F04705460E4617469846286893
:102FD000046904F01C044FF4784000EAC62004435E
:102FE0004FF4F86000EA8710044344F0020444F010
:102FF00001041FFA88F0296848612868046100F01C
:1030000097F981460BE000F093F9A0EB0900B0F5C9
:10301000803F02D30120BDE8F0872868046904F0EE
:1030200001000028EFD100BFF5E700000348006869
:1030300040F000400149086000207047103C024009
:103040002DE9F04106460F4614461D464FF0010893
:1030500000BF2248007D012802D10220BDE8F08196
:1030600001201E49087500BF4CF25030FFF736FAB8
:103070008046B8F1000F29D136B1012E09D0022EB9
:103080000CD0032E15D10EE0E1B23846FFF76EF9F1
:1030900010E0A1B23846FFF7A9F90BE02146384607
:1030A000FFF7C0F906E022462B463846FFF778F9CD
:1030B00000E000BF00BF4CF25030FFF70FFA80462F
:1030C0000748006820F001000549086000BF0020A3
:1030D0000249087500BF4046C0E7000014590020AF
:1030E000103C024000200949096801F0004159B133
:1030F0000749064A0C3A11600649116003490968FC
:1031000001F0004101B1012070470000103C024075
:1031100023016745AB89EFCDF8B502460B46002188
:1031200000250024002000BFDEE0012606FA01F59C
:103130001E6806EA0504AC4272D11E7906F0030649
:10314000012E04D01E7906F00306022E13D19068DA
:103150004F000326BE40B0434F00DE68BE40304300
:103160009060506801268E40B0431E79C6F3001669
:103170008E40304350601E7906F00306032E09D0BE
:10318000D0684F000326BE40B0434F009E68BE404B
:103190003043D0601E7906F00306022E13D1CF080B
:1031A00002F1200656F827004E07F70E0F26BE4004
:1031B000B0434F07FF0E1E69BE403043CF0802F1F7
:1031C000200646F8270010684F000326BE40B04393
:1031D0001E7906F003064F00BE40304310605E6863
:1031E00006F44036002E7ED000BF414E366846F4CD
:1031F00080463F4F3E603E46366806F48046009665
:1032000000BF00BF3B4E8F0856F827008E07370FD0
:103210000F26BE40B043384EB24202D100262EE007
:1032200061E0364EB24201D1012628E0344EB2426E
:1032300001D1022623E0334EB24201D103261EE023
:10324000314EB24201D1042619E0304EB24201D1D2
:10325000052614E02E4EB24201D106260FE02D4E77
:10326000B24201D107260AE02B4EB24201D1082614
:1032700005E02A4EB24201D1092600E00A268F0756
:103280003F0FBE4030431B4E8F0846F82700244EA8
:103290003068A0435E6806F4801606B12043204ED5
:1032A0003060361D3068A0435E6806F4001606B133
:1032B00020431B4E361D3060194E361F3068A04328
:1032C0005E6806F4003606B12043154E361F3060A6
:1032D000361F3068A0435E6806F4803606B120438E
:1032E0000F4E083E3060491C1029FFF41EAFF8BD98
:1032F0004438024008380140000002400004024007
:1033000000080240000C024000100240001402407D
:1033100000180240001C024000200240002402402D
:10332000083C01400AB1816101E00B0483617047F0
:103330000148006870470000280100200348006829
:1033400003490978084401490860704728010020B2
:103350003001002010B50A48006840F400700849A8
:1033600008600846006840F480700860032000F0A0
:10337000A3F80F2000F006F800F02AF8002010BD96
:10338000003C024070B504460E4800784FF47A7154
:10339000B1FBF0F00C490968B1FBF0F5284601F0EB
:1033A00023F808B1012070BD102C07D2002221465D
:1033B000501E00F043F80548046001E00120F2E7E8
:1033C0000020F0E730010020340100202C01002013
:1033D00008B500BF1048006840F080500E490860F2
:1033E0000846006800F08050009000BF00BF00BF9A
:1033F000081D006840F48040091D08600846006808
:1034000000F48040009000BF00BF00220F21901EFA
:1034100000F014F808BD000040380240014608469C
:10342000002809DB00F01F0301229A4043099B009A
:1034300003F1E023C3F8002100BF70472DE9F05FDE
:1034400080460D461646002702F036F807463946F4
:103450002A46334601F00700C0F1070ABAF1040F0B
:1034600002D94FF0040A01E0C0F1070AD14600F189
:10347000040ABAF1070F02D24FF0000A01E0A0F1EE
:10348000030AD4464FF0010A0AFA09FAAAF1010A1E
:103490000AEA020A0AFA0CFA4FF0010B0BFA0CFBCB
:1034A000ABF1010B0BEA030B4AEA0B042146404641
:1034B00002F00AF8BDE8F09F00BF00F00702064BDB
:1034C00019684FF6FF031940044B0B4343EA0221EE
:1034D000014B196000BF70470CED00E00000FA05D9
:1034E00038B5002400BF2048006840F080501E49D5
:1034F00008600846006800F08050009000BF00BFE0
:103500001A48006840F4803018490860FFF710FF3F
:10351000044607E0FFF70CFF001BB0F57A7F01D9E6
:10352000032038BD1148406800F48030B0F5803F7A
:10353000F0D10E48006840F400300C490860FFF7F5
:10354000F7FE044607E0FFF7F3FE001BB0F57A7FB5
:1035500001D90320E5E70548406800F40030B0F5E4
:10356000003FF0D10020DCE740380240007000400E
:103570002DE9F8430446002600250027A846A94661
:10358000207800F0010088B100BFFE48006820F4F8
:103590000000FC49086008460068616B0843F9496F
:1035A000086000BF606B08B94FF00108206800F4A4
:1035B0000020B0F5002F13D1F2488430006820F4C9
:1035C0004010E16B0843EF4984310860E06BB0F5CF
:1035D000801F01D14FF00108E06B08B94FF00109DD
:1035E000206800F48010B0F5801F13D1E5488430C6
:1035F000006820F44000216C0843E24984310860EF
:10360000206CB0F5800F01D14FF00108206C08B993
:103610004FF00109206800F08070B0F1807F01D187
:103620004FF00108207800F02000202870D100BF62
:10363000D4483830006840F08050D24938310860B2
:103640000846006800F08050009000BF00BFCE48E0
:10365000006840F48070CC490860FFF769FE0646B8
:1036600007E0FFF765FE801B642802D90320BDE850
:10367000F883C548006800F480700028F1D0C14884
:103680006830006800F4407585B3208E00F4407007
:10369000A8422BD0BB486830006820F44075B94878
:1036A0006830006840F48030B649683108600846E8
:1036B000006820F48030086008460560006800F06B
:1036C000010098B1FFF734FE064608E0FFF730FE30
:1036D000801B41F28831884201D90320C7E7A948FD
:1036E00068300068C0F340000028EFD000BF208E93
:1036F00000F44070B0F5407F0BD1A248006820F480
:10370000F810A24A216B114008439E49086006E068
:1037100010E09C48006820F4F8109A490860994825
:1037200068300068218EC1F30B0108439549683168
:10373000086000BF207800F01000102810D100BFF2
:1037400090488430006820F080708E498431086091
:1037500008460068A16B08438A498431086000BFAD
:10376000208800F48040B0F5804F09D1854888302A
:10377000006820F44030616E084382498831086057
:10378000208800F40040B0F5004F09D17D48883012
:10379000006820F44020A16E08437A49883108600F
:1037A000206800F48030B0F5803F09D1754888303A
:1037B000006820F44010E16E0843724988310860C7
:1037C000206800F40030B0F5003F09D16D48883022
:1037D000006820F44000216F08436A49883108607E
:1037E000207800F04000402809D166488830006801
:1037F00020F00300616C084362498831086020783A
:1038000000F08000802809D15E488830006820F0F0
:103810000C00A16C08435B4988310860208800F4E3
:103820008070B0F5807F09D156488830006820F05C
:103830003000E16C0843534988310860208800F467
:103840000070B0F5007F09D14E488830006820F044
:10385000C000216D08434B4988310860208800F47E
:103860008060B0F5806F09D146488830006820F448
:103870004070616D0843434988310860208800F436
:103880000060B0F5006F09D13E488830006820F430
:103890004060A16D08433B4988310860208800F4EE
:1038A0008050B0F5805F09D136488830006820F438
:1038B0004050E16D0843334988310860208800F4A6
:1038C0000050B0F5005F09D12E488830006820F420
:1038D0004040216E08432B4988310860206800F47D
:1038E0008000B0F5800F09D126488830006820F0AC
:1038F0008060A16F0843234988310860206800F484
:103900000010B0F5001F0FD11E488830006820F06D
:103910000060E16F08431B4988310860E06FB0F137
:10392000006F01D14FF00109207800F0080008284D
:1039300001D14FF00109206800F48020B0F5802FFC
:1039400009D110488830006820F04070616F08434A
:103950000C4988310860206800F40000B0F5000FC1
:103960000AD108488830006820F08050D4F88010D0
:103970000843044988310860B8F1010F0DD0206870
:1039800006E000000838024000700040FFFCFF0F16
:1039900000F00070B0F1007F7DD1AD48006820F0EC
:1039A0008060AB490860FFF7C3FC064606E0FFF7FE
:1039B000BFFC801B642801D9032058E6A448006896
:1039C000C0F3C0600028F2D1207800F00100B8B147
:1039D000606BA8B99E4884300068C0F301459C48DC
:1039E00084300068C0F303676068800140EA0540E6
:1039F00040EA0761207A41EA007095498431086005
:103A0000206800F40020B0F5002F03D1E06BB0F582
:103A1000801F09D0206800F48010B0F5801F24D1E9
:103A2000206CB0F5800F20D1894884300068C0F345
:103A30000145874884300068C0F3027760688001E0
:103A400040EA0541207B41EA006040EA0770804976
:103A5000843108607E488C30006820F01F00616A65
:103A6000491E08437A498C310860206800F0807054
:103A7000B0F1807F17D1764884300068C0F30365C9
:103A8000734884300068C0F3027760688101208A3F
:103A900041EA004000E031E040EA056040EA07709A
:103AA0006B4984310860206800F00070B0F1007F3D
:103AB0000DD160688101208A41EA0041207B41EA02
:103AC0000061207A41EA00706149843108606048F1
:103AD000006840F080605E490860FFF729FC0646F8
:103AE00006E0FFF725FC801B642801D90320BEE512
:103AF00057480068C0F3C0600028F2D0B9F1010F48
:103B00007ED15348006820F0805051490860FFF78B
:103B10000FFC064606E0FFF70BFC801B642801D96A
:103B20000320A4E54A480068C0F340700028F2D1A1
:103B3000206800F40020B0F5002F01D1E06B38B10F
:103B4000206800F48010B0F5801F22D1206C00BBEB
:103B50003F4888300068C0F301453D488830006820
:103B6000C0F302776069800140EA0541207E41EAA6
:103B7000006040EA0770364988310860081D006817
:103B800020F4F851A06A401E41EA002030498C31EF
:103B90000860206800F40010B0F5001F19D1E06F34
:103BA000B0F1006F15D12A4888300068C0F3036572
:103BB000274888300068C0F3027760698101208C53
:103BC00041EA004040EA056040EA07702049883138
:103BD0000860207800F00800082820D11C488830B0
:103BE0000068C0F303651A4888300068C0F30147D5
:103BF0006069800140EA074040EA0561207F00E0FB
:103C000024E041EA0070124988310860081D00680C
:103C100020F44030E16A08430D498C3108600C48BB
:103C2000006840F080500A490860FFF781FB0646B3
:103C300006E0FFF77DFB801B642801D9032016E511
:103C400003480068C0F340700028F2D000200EE561
:103C50000038024070B504460D4600260CB901201C
:103C600070BD5C48006800F00F00A8420ED25948B1
:103C7000006820F00F002843564908600846006895
:103C800000F00F00A84201D00120E9E7207800F001
:103C9000020002281DD1207800F00400042805D17C
:103CA0004D48006840F4E0504B490860207800F02F
:103CB0000800082805D14848006840F4604046499B
:103CC00008604548006820F0F000A16808434249B8
:103CD0000860207800F0010090B36068012807D1E7
:103CE0003D4808380068C0F34040A0B90120B7E75C
:103CF0006068022807D1384808380068C0F340607F
:103D000048B90120ACE7344808380068C0F34000E7
:103D100008B90120A4E73048006820F0030061687A
:103D200008432D490860FFF703FB064609E0FFF74B
:103D3000FFFA801B41F28831884202D903208FE7C5
:103D400007E02548006800F00C006168B0EB810FC7
:103D5000EDD12048006800F00F00A8420ED91D48A0
:103D6000006820F00F0028431A49086008460068E0
:103D700000F00F00A84201D0012071E7207800F088
:103D80000400042807D11448006820F4E050E168DA
:103D9000084311490860207800F00800082808D17D
:103DA0000D48006820F46040216940EAC1000A49DA
:103DB000086000F03FF808490968C1F30311074A99
:103DC000515CC8400649086006480068FFF7DAFA07
:103DD000002045E7003C0240083802406CB1010871
:103DE000340100202C0100200148006870470000C9
:103DF0003401002000B5FFF7F7FF04490968C1F35B
:103E00008221034A515CC84000BD000008380240CE
:103E10007CB1010800B5FFF7E7FF04490968C1F369
:103E20004231034A515CC84000BD000008380240DE
:103E30007CB101082DE9F047002400250026A146A9
:103E40002548006800F00C0020B1042805D008289F
:103E50003AD105E0DFF8849039E0DFF8849036E06D
:103E60001D48001F006800F03F041B48001F006849
:103E700000F4800078B11A481749091F0968C1F396
:103E80008811A0FB01700146224600233846FCF74A
:103E9000D7FA05460EE011480F49091F0968C1F31A
:103EA0008811A0FB01700146224600233846FCF72A
:103EB000C7FA05460848001F0068C0F30140401CCF
:103EC0004600B5FBF6F902E0DFF8109000BF00BF36
:103ED0004846BDE8F0870000083802400024F4009E
:103EE00040787D01F8B5044600270CB90120F8BDE3
:103EF000207800F00100002871D0F948006800F037
:103F00000C0004280DD0F648006800F00C000828CA
:103F100013D1F348001F006800F48000B0F5800F53
:103F20000BD1EF4808380068C0F34040002869D042
:103F30006068002866D10120D9E700BF6068B0F54D
:103F4000803F08D1E6480838006840F48030E449F2
:103F5000083908602EE0606868B9E14808380068F0
:103F600020F48030DE49083908600846006820F4F3
:103F7000802008601EE06068B0F5A02F0DD1D84801
:103F80000838006840F48020D549083908600846A0
:103F9000006840F4803008600CE0D14808380068C0
:103FA00020F48030CE49083908600846006820F4C3
:103FB0008020086000BF606890B1FFF7B9F905463E
:103FC00006E0FFF7B5F9401B642801D903208EE70E
:103FD000C34808380068C0F340400028F1D011E021
:103FE000FFF7A6F9054606E0FFF7A2F9401B642893
:103FF00001D903207BE7BA4808380068C0F3404085
:104000000028F1D1207800F00200022869D1B448DC
:10401000006800F00C0058B1B148006800F00C00D6
:1040200008281CD1AE48001F006800F48000B0B919
:10403000AB4808380068C0F3400020B1E0680128B0
:1040400001D0012053E7A6480838006820F0F800A6
:10405000216940EAC100A2490839086041E0E068EE
:1040600028B39F480838006840F001009C4908398F
:104070000860FFF75DF9054606E0FFF759F9401BB8
:10408000022801D9032032E7954808380068C0F3B8
:1040900040000028F1D092480838006820F0F8006D
:1040A000216940EAC1008E490839086019E08C484E
:1040B0000838006820F00100894908390860FFF7D6
:1040C00037F9054606E0FFF733F9401B022801D90E
:1040D00003200CE7824808380068C0F3400000283D
:1040E000F1D1207800F00800082836D16069D0B1FD
:1040F0007B486C30006840F0010079496C31086001
:10410000FFF716F9054606E0FFF712F9401B0228F3
:1041100001D90320EBE672486C300068C0F3400020
:104120000028F1D019E06E486C30006820F00100E2
:104130006B496C310860FFF7FBF8054606E0FFF7B6
:10414000F7F8401B022801D90320D0E664486C3000
:104150000068C0F340000028F1D1207800F004008E
:10416000042874D15E483830006800F0805080B96F
:1041700000BF5B483830006840F080505849383103
:1041800008600846006800F08050009000BF00BF43
:1041900001275448006800F48070B0B951480068A5
:1041A00040F480704F490860FFF7C2F8054606E00A
:1041B000FFF7BEF8401B642801D9032097E6494861
:1041C000006800F480700028F2D000BFA0680128C9
:1041D00008D143486830006840F001004049683128
:1041E00008602DE0A06868B93D486830006820F09C
:1041F00001003B49683108600846006820F004006F
:1042000008601DE0A06805280DD1354868300068B9
:1042100040F004003249683108600846006840F008
:10422000010008600CE02E486830006820F00100B2
:104230002B49683108600846006820F004000860D7
:1042400000BFA068A8B1FFF773F8054609E02EE0AB
:10425000FFF76EF8401B41F28831884201D90320F4
:1042600045E61F4868300068C0F340000028EFD0E2
:1042700013E0FFF75DF8054608E0FFF759F8401B2B
:1042800041F28831884201D9032030E61448683071
:104290000068C0F340000028EFD1012F07D110487B
:1042A0003830006820F080500D4938310860A0692E
:1042B000002852D00A48006800F00C00082865D099
:1042C000A06902284AD106480838006820F08070AA
:1042D000034908390860FFF72BF805460BE000009A
:1042E0000838024000700040FFF722F8401B022807
:1042F00001D90320FBE53B480068C0F3406000287B
:10430000F2D1E06940F00050216A0843616A40EA56
:1043100081110122A06AC2EB500041EA00412C2029
:10432000005D41EA00602F49091D0860081F006810
:1043300040F08070091F0860FEF7FAFF054606E0AE
:10434000FEF7F6FF401B022801D90320CFE52548E0
:104350000068C0F340600028F2D040E021480068C7
:1043600020F080701F490860FEF7E2FF054606E076
:10437000FEF7DEFF401B022801D90320B7E51948EC
:104380000068C0F340600028F2D128E01548001D05
:104390000668A069012820D006F48001E069814206
:1043A0001BD106F03F01206A814216D147F6C0704A
:1043B0003040616AB0EB811F0FD106F44031012219
:1043C000A06AC2EB5000B1EB004F06D106F070615D
:1043D0002C20005DB1EB006F01D0012087E50020AB
:1043E00085E500000038024070B504462546681E89
:1043F000B0F1807F01D301200FE0681E4FF0E02173
:1044000048610F214FF0FF3001F05EF800204FF0BF
:10441000E021886107200861002070BD10B50446C6
:104420000CB9012010BDA06900B100E000BFE06F31
:1044300028B9002084F87800204600F029F82420CC
:10444000E0672068006820F00100216808602046CD
:1044500000F014FE012800D1E4E7606A10B12046A4
:1044600000F068FD2068406820F4904021684860B2
:104470002068806820F02A00216888602068006831
:1044800040F0010021680860204600F0CFFDC9E738
:1044900010B5A8B00446142123A8FCF75BFB8421C7
:1044A00002A8FCF757FB1E492068884235D1C0148A
:1044B00002900020189002A8FFF75AF808B1FDF703
:1044C0001BFF00BF1748006840F020001549086036
:1044D0000846006800F02000019000BF00BF00BF48
:1044E00010481438006840F004000E491439086080
:1044F0000846006800F00400019000BF00BFC02023
:10450000239002202490002025900320269008204C
:10451000279023A90448FEF7FFFD28B010BD000036
:104520000014014044380240000802402DE9F84FD1
:1045300004460E4617469A46D4F88000202879D1C2
:1045400006B117B90120BDE8F88F00205834E062A9
:104550002220A0620020A060FEF7EAFE83462780AA
:104560006780583C00BFA068B0F5805F0AD1206921
:1045700020B940F2FF10A4F85C0020E0FF20A4F86E
:104580005C001CE0A06848B9206918B9FF20A4F8B5
:104590005C0014E07F20A4F85C0010E0A068B0F19B
:1045A000805F09D1206918B97F20A4F85C0006E07B
:1045B0003F20A4F85C0002E00020A4F85C0000BFEB
:1045C000B4F85C90A068B0F5805F04D1206910B9A0
:1045D0000025B04602E035464FF0000820E05B467B
:1045E000002220212046CDF800A000F0E5FE08B111
:1045F0000320A8E745B92068406A00EA0900A8F846
:10460000000008F1020806E02068406A09F0FF0196
:10461000084028706D1CB4F85A00401EA4F85A00D7
:10462000B4F85A000028DAD12020C4F88000002015
:1046300089E7FFE7022086E72DE9F84F04460E469A
:1046400017469946E06F20284DD106B117B90120D1
:10465000BDE8F88F0020503460632120E062FEF74F
:1046600067FE824627806780503CA068B0F5805F77
:1046700004D1206910B90025B04602E035464FF05C
:1046800000081DE05346002280212046CDF800900E
:1046900000F092FE08B10320DAE745B9B8F800004F
:1046A000C0F308002168886208F1020803E0287856
:1046B000216888626D1CB4F85200401EA4F85200B4
:1046C000B4F852000028DDD1534600224021204694
:1046D000CDF8009000F070FE08B10320B8E720206C
:1046E000E0670020B4E70220B2E700BFFEE7000069
:1046F0000A49096801F0010171B108498039096866
:1047000001F0010141B100BF4FF06041096800298B
:10471000FAD04FF06042107070470000800E00E049
:1047200038B5044600200090012163696A4620687C
:104730009847002802DA6FF0040038BD6369012150
:1047400020686A469847002802DA6FF0040038BDF6
:10475000009810F0040F09D06369002120686A46B0
:104760009847002804DA6FF0040038BD012038BDF6
:10477000009810F4805F09D063691F2120686A46A1
:104780009847002814DA6FF0040038BD4FF4045144
:10479000814304D010F4005F03D0032038BD022011
:1047A00038BD10F4807F01D0042038BD052038BD0D
:1047B000009810F4805F09D000F01C00182807D082
:1047C000082807D0142807D0052038BD062038BD9A
:1047D000022038BD032038BD042038BDF8B504469A
:1047E00000200090002600256068002851D1A068B4
:1047F00000B1804720202060636912216A4630465C
:104800009847002802DA6FF0040507E0009800F0EE
:104810001F00B04202D12660002502E0761C1F2E48
:10482000EAD920681F2801D96FF002051DBB236952
:1048300000214FF400429847002828DB63690021DB
:1048400020686A46984700281EDBA0698047064614
:10485000009810F4004F1CD0A0698047801BB0F571
:10486000FA7F09D86369002120686A4698470028C2
:1048700005DA6FF004050CE06FF0010509E000981F
:1048800010F4004FE8D104E06FF0040501E06FF090
:10489000030555B9A06980470646A0698047801B7B
:1048A000B0F5FA6FF9D9012060602846F8BD0028FC
:1048B00011D0CA687AB18A686AB10A695AB10A68BD
:1048C00082604A68C260CA6842618A680261096996
:1048D0008161002070474FF0FF30704700B587B00E
:1048E000142102A8FCF736F900BF3848006840F0F0
:1048F0004000364908600846006800F0400001901A
:1049000000BF00BF00BF0846006840F0020008601A
:104910000846006800F00200019000BF00BF00BF21
:104920000846006840F0010008600846006800F092
:104930000100019000BF00BF00BF0846006840F4BE
:10494000807008600846006800F48070019000BF25
:1049500000BF00BF0846006840F0800008600846BD
:10496000006800F08000019000BF00BF00BF084653
:10497000006840F0040008600846006800F0040089
:10498000019000BF00BF002202211148FEF7CAFCBF
:10499000002204210F48FEF7C5FC022002900120EE
:1049A000039000200490059002A90948FEF7B4FB8B
:1049B000042002900120039000200490059002A999
:1049C0000448FEF7A9FB07B000BD000030380240E4
:1049D000002002400018024030B58BB0C0209F4933
:1049E0000870A8204870002088706F20C870FF20D1
:1049F0009B490870487088700020C870C020994991
:104A00000870A8204870002088700120C87001F04C
:104A100003F802F0CBFD04469049206800F0EAFE5E
:104A20008F49A06800F0E6FE8E49E06800F0E2FEE3
:104A30000021084613F0AEFB88480078000687493D
:104A4000497840EA01408549897840EA0120834954
:104A5000C978084302068148007800067F494978F2
:104A600040EA01407D49897840EA01207B49C978C4
:104A7000084300F47F4042EA0022784800780006AC
:104A80007649497840EA01417448807841EA00203B
:104A90007249C978084300F47F0042EA10226F4847
:104AA000007801066D48407841EA00416B48807803
:104AB00041EA00206949C978084342EA10606A491E
:104AC00008606748007800066549497840EA014077
:104AD0006349897840EA01206149C97808430206A0
:104AE0005F48007800065E49497840EA01405C4929
:104AF000897840EA01205A49C978084300F47F4088
:104B000042EA00225648007800065549497840EAB2
:104B100001415348807841EA00205149C97808434F
:104B200000F47F0042EA10224D48007801064C480C
:104B3000407841EA00414A48807841EA00204849EB
:104B4000C978084342EA106048490860454800783F
:104B500000064449497840EA01404249897840EAE0
:104B600001204049C978084302063E480078000603
:104B70003C49497840EA01403A49897840EA0120B5
:104B80003849C978084300F47F4042EA002235489A
:104B9000007800063349497840EA0141314880787D
:104BA00041EA00202F49C978084300F47F0042EA17
:104BB00010222C48007801062A48407841EA00413A
:104BC0002848807841EA00202649C978084342EA0B
:104BD000106027490860274827490022244BCDE967
:104BE00000210290214A2049244807F0E7FC23488D
:104BF00007F056FF214890F82D00C0F3800018B14F
:104C00001E4808F08DF802E01C4807F04FFF1C49D1
:104C10001A4807F0B1FF1C221A4904A8FBF73EFF0F
:104C2000164904A808F09AFA0F4803F03DFC05461F
:104C3000294615A0FBF77CFC0C4803F035FC054623
:104C4000294618A0FBF774FC094803F02DFC054623
:104C5000294618A0FBF76CFC0BB030BD1C010020EE
:104C60002001002024010020100100201401002058
:104C7000180100208D830108AD730008E058002062
:104C8000D171000850B1010853544D3332204950BE
:104C90002041646472657373206973203D3E202552
:104CA000730A00006E65746D61736B203D3E2025B4
:104CB000730A000067617465776179203D3E2025A5
:104CC000730A000010B50D480D4908604FF41650E6
:104CD000486000210A488160C16001610C21416186
:104CE00000218161C16101620020054948620846D6
:104CF000FFF794FB08B1FDF7FFFA10BD0014014067
:104D00001403002000BFFEE700BFFEE700BF00BFA6
:104D100000BFBFF34F8F00BF00BF00BF00BF00BF89
:104D200000BFBFF36F8F00BF00BF00BF002014495A
:104D3000086000BF00BF00BFBFF34F8F00BF00BFC0
:104D400000BF00BF00BF00BFBFF36F8F00BF00BF39
:104D500000BF0C48006840F400300A49086000BFFA
:104D600000BF00BFBFF34F8F00BF00BF00BF00BF39
:104D700000BF00BFBFF36F8F00BF00BF00BF704711
:104D800050EF00E014ED00E030B50A460446202361
:104D900000BF00BF00BFBFF34F8F00BF00BF00BF09
:104DA00003E00B4D2C601C44D21A002AF9DC00BF32
:104DB00000BF00BFBFF34F8F00BF00BF00BF00BFE9
:104DC00000BF00BFBFF36F8F00BF00BF00BF30BD8B
:104DD0005CEF00E0FFF700FE07A0FBF7A9FB13F074
:104DE000F9F820B908A0FBF7A3FBFDF785FA00BF8F
:104DF000002008F0E6F9FBE7537461727420544315
:104E0000502E2E2E0A0000004552523A2074637034
:104E10006563686F5F696E6974204641494C45441B
:104E20002121210A0000000000BF012202210848C0
:104E3000FEF778FA642007F0D3FF0022022104482D
:104E4000FEF770FA4FF4FA6007F0CAFFEDE70000D2
:104E50000020024010B5FEF771FA15F075FD01282B
:104E600001D014F0D3FE10BD00B593B0302107A8D7
:104E7000FBF770FE142102A8FBF76CFE00BF26486A
:104E8000006840F08050244908600846006800F03F
:104E90008050019000BF00BF00BF2048006840F470
:104EA00040401E4908600846006800F440400190F8
:104EB00000BF00BF012007904FF4A02008900220FF
:104EC0000D9041050E9119210F914FF4D871109159
:104ED00002211191129107A8FFF704F808B1FDF71C
:104EE0000BFAFEF7FDFA08B1FDF706FA0F20029063
:104EF00002200390002004904FF4A05005904FF43E
:104F000080500690072102A8FEF7A4FE08B1FDF725
:104F1000F3F913B000BD00004038024000700040BB
:104F20000348006840F470000149086070470000C1
:104F300088ED00E090F8241001F0010139B101681A
:104F4000496821F40031826A11430268516090F887
:104F5000241001F00201022907D10168496821F4F7
:104F60008031C26A11430268516090F8241001F048
:104F70000401042907D10168496821F48021026BEA
:104F800011430268516090F8241001F008010829CB
:104F900007D10168496821F40041426B114302685E
:104FA000516090F8241001F01001102907D1016818
:104FB000896821F48051826B11430268916090F8F6
:104FC000241001F02001202907D10168896821F40B
:104FD0000051C26B11430268916090F8241001F0F7
:104FE0004001402913D10168496821F48011026C05
:104FF000114302685160016CB1F5801F07D101684F
:10500000496821F4C001426C11430268516090F874
:10501000241001F08001802907D10168496821F43A
:105020000021826C114302685160704738B5044614
:105030000020C4F88400FEF77BF90546206800686C
:1050400000F0080008280CD16FF07E402B460022AB
:105050004FF400110090204600F0AEF908B1032093
:1050600038BD2020E067C4F880000020206660661C
:1050700000BF84F8780000BF00BFF1E72DE9F047DA
:1050800005464FF0000A2969A86808436969084382
:10509000E96940EA010828680068BC49084040EA1C
:1050A0000800296808602868406820F44050E968D2
:1050B000084329684860D5F81880286A40EA08083B
:1050C0002868806820F4306040EA08002968886019
:1050D00000BFAF492868884216D1AE48006800F08A
:1050E000030030B1012808D0022804D0032808D1D9
:1050F00005E0012407E0022405E0042403E008247D
:1051000001E0102400BFC9E0A3492868884216D1F5
:10511000A048006800F00C0030B1042808D008282E
:1051200004D00C2808D105E0002407E0022405E0A3
:10513000042403E0082401E0102400BFAEE09749F6
:105140002868884216D19348006800F0300030B1DA
:10515000102808D0202804D0302808D105E00024E9
:1051600007E0022405E0042403E0082401E0102401
:1051700000BF93E08A492868884216D185480068B4
:1051800000F0C00030B1402808D0802804D0C028EA
:1051900008D105E0002407E0022405E0042403E030
:1051A000082401E0102400BF78E07E492868884286
:1051B00019D17848006800F4407048B1B0F5807F9C
:1051C0000AD0B0F5007F05D0B0F5407F08D105E0EA
:1051D000002407E0022405E0042403E0082401E0A1
:1051E000102400BF5AE070492868884219D16948E4
:1051F000006800F4406048B1B0F5806F0AD0B0F5A7
:10520000006F05D0B0F5406F08D105E0012407E03C
:10521000022405E0042403E0082401E0102400BF78
:105220003CE062492868884219D15A48006800F475
:10523000405048B1B0F5805F0AD0B0F5005F05D0AE
:10524000B0F5405F08D105E0002407E0022405E046
:10525000042403E0082401E0102400BF1EE05449A8
:105260002868884219D14B48006800F4404048B192
:10527000B0F5804F0AD0B0F5004F05D0B0F5404FE3
:1052800008D105E0002407E0022405E0042403E03F
:10529000082401E0102400BF00E0102400BFE869EA
:1052A000B0F5004F39D1092C17D2DFE804F0050919
:1052B0000D160F1616161300FEF79CFD064610E09D
:1052C000FEF7A8FD06460CE03A4E0AE0FEF7B2FDF6
:1052D000064606E04FF4004603E000264FF0010AC0
:1052E00000BF00BF86B37000696800EB5100B0FBDF
:1052F000F1F7102F0ED3B7F5803F0BD24FF6F070B9
:1053000007EA0009C7F3420049EA00092868C0F823
:105310000C9034E04FF0010A31E0092C18D2DFE89C
:1053200004F005090D170F1717171400FEF762FD9B
:10533000064611E0FEF76EFD06460DE01D4E0BE041
:10534000FEF778FD064607E019E04FF4004603E05B
:1053500000264FF0010A00BF00BF86B1686806EB67
:1053600050006968B0FBF1F7102F06D3B7F5803F06
:1053700003D2B8B22968C86001E04FF0010A0020EA
:10538000A866E8665046BDE8F0870000F369FFEFC5
:1053900000100140903802400044004000480040A6
:1053A000004C0040005000400014014000780040D4
:1053B000007C00400024F4002DE9F04104460D4635
:1053C00017469846069E69E0701C002866D0FDF7D7
:1053D000AFFFA0EB0800B04200D83EBB00BF00BF4B
:1053E000216851E8001F21F4D070226842E80001D2
:1053F0000029F5D100BF00BF00BF2168083151E886
:10540000001F21F001002168083141E80002002A54
:10541000F3D100BF2020E067C4F8800000BF002067
:1054200084F8780000BF0320BDE8F08120680068A0
:1054300000F0040088B32068C069C0F3C02060B3E6
:105440004FF400602168086200BF00BF216851E886
:10545000001F21F4D070226842E800010029F5D134
:1054600000BF00BF00BF2168083151E8001F21F0D4
:1054700001002168083141E80002002AF3D100BF91
:105480002020E067C4F88000C4F8840000BF00203A
:1054900084F8780000BF0320C6E7FFE72068C069F2
:1054A0002840A84201D1012000E00020B8428BD062
:1054B0000020B9E700BFFEE702480068C0F3022001
:1054C000704700000CED00E010B5002804DB0A076F
:1054D000130E054A135406E00A07140E034A00F09F
:1054E0000F031B1FD45410BD00E400E018ED00E0D2
:1054F00030380A2801D20120704700207047014649
:105500006FF40040084420B1012804D0022806D1DD
:1055100003E0002070470020FCE70020FAE74FF08E
:10552000FF30F7E701466FF40040084420B101283E
:1055300004D0022806D103E0002070470020FCE7D9
:105540000020FAE70020F8E701466FF40040084425
:1055500020B1012804D0022806D103E001207047C1
:105560000120FCE70120FAE70020F8E770B50446C7
:105570000D4614B94FF0FF3070BD20783A281AD18B
:105580000EA12046FBF70EFB10B948F20100F3E72D
:105590000CA12046FBF706FB10B948F20200EBE72E
:1055A0000AA12046FBF7FEFA10B948F20300E3E730
:1055B0004FF0FF30E0E74FF0FF30DDE73A5354445F
:1055C000494E00003A5354444F5554003A53544402
:1055D0004552520002466FF40040104420B10128A9
:1055E00005D0022809D105E04FF0FF3070474FF099
:1055F000FF30FBE74FF0FF30F8E74FF0FF30F5E703
:105600002DE9F04107460C46154698466FF40040D8
:10561000384420B1012806D002281AD10EE04FF0FC
:10562000FF30BDE8F08105E014F8016B30460AF068
:10563000B5FE6D1E002DF7D10020F2E705E014F84D
:10564000016B30460AF0A4FE6D1E002DF7D100203C
:10565000E7E74FF0FF30E4E72DE9F04706460F4655
:10566000904634461CB96FF00500BDE8F08704F1A0
:1056700014000BF02FF810B96FF00500F5E7A7B98B
:105680006FF00C0004F082FD8146494604F11400DD
:105690000BF011F830B9606A20B1002211462046A3
:1056A000636A98476FF00500DFE700BFB8F1000FAD
:1056B00008D000BF2EA340F22A223AA143A0FAF755
:1056C00037FF00BF00BF2078616A06F023F8054667
:1056D000A5B96FF00C0004F059FD8146494604F16C
:1056E00014000AF0E8FF30B9606A20B100221146C8
:1056F0002046636A98474FF0FF30B6E76F60284650
:105700000AF0CAFB294604F114000AF0D4FF30B3B2
:10571000D5F80490002148460BF07EFB0021484656
:1057200010F056F90021484610F05EFF00221146A5
:1057300048460EF065FE002148460CF08DFA002028
:10574000686005F110000AF091FF05F110000AF001
:10575000AFFF284606F0C4F94FF0FF3085E7606AD6
:1057600020B1002211462046636A984700207CE75A
:105770002E2E2F4D6964646C6577617265732F54AA
:10578000686972645F50617274792F4C7749502F49
:105790007372632F6170692F6170695F6D73672E1B
:1057A00063000000657870656374206E65777063D0
:1057B00062203D3D204E554C4C206F722065727228
:1057C000203D3D204552525F4F4B000041737365B1
:1057D0007274696F6E2022257322206661696C6580
:1057E00064206174206C696E6520256420696E20D8
:1057F00025730A00020E0A70020C4A70020A8A70AF
:10580000C87070470146002005E0012282400A402E
:1058100002B97047401C0228F7D3FF20F9E70000C7
:1058200018B50446002000906946204601F0C2FEEB
:10583000012809D105489DF8001000EBC1000021A6
:1058400001604160012018BD0020FCE788020020B3
:1058500008B5002214210A2014F01AFA0A49086037
:105860000846006808B9002008BD4FF0FF304FF42B
:10587000F06300220549009005A00AF081FF08B9F5
:105880000020F1E70120EFE714000020A1580008F4
:10589000636D645F70726F636573735F74686400D7
:1058A0008EB0142109A8FBF755F9142104A8FBF7C1
:1058B00051F9002003900290002400250027019058
:1058C000002600906BE04FF0FF3209A934480068D1
:1058D00014F0B0FC01285DD1099800B15FE00A9C8A
:1058E000214630A0FAF724FE02A9204601F062FE0C
:1058F00001284BD19DF8080001F084FE05466F6831
:1059000001AB00220121384611F044FC0C9880B212
:1059100003900B9EBDF8040042F2117188420ED133
:105920002748007828B928460AF0B0FA012024490F
:1059300008706A4603A9304601F0A4FD0BE09DF80B
:105940000820BDF80C10304607F068FC3046FBF725
:1059500041F880B20390002004900596BDF80C0039
:1059600006909DF800000790002008909DF8080020
:1059700001F054FE804600231A4604A914F082FA6E
:10598000012808D00FA0FAF7D3FD04E01AA0FAF717
:10599000CFFD00E000BF012007F022FA00BF92E730
:1059A0001400002046726F6D20736F75726365205E
:1059B000706F727420544350203D2025780A0000F7
:1059C000200000204572726F723A2078517565751B
:1059D0006553656E6420715265706C79436D6450D7
:1059E000726F63657373436C69656E742046616999
:1059F0006C65642121210A004572726F723A204E53
:105A00006F20666F756E6420736F757263652070AA
:105A10006F72742121210A0010B586B00124FF2283
:105A200018216846FBF76CF818210B4809F060FE56
:105A3000182209496846FAF7A1FF00B144B10648A7
:105A400000F036F905A0FAF773FD0EA0FAF770FD25
:105A5000012006B010BD0000980200205741524EB0
:105A6000494E473A204E6F20436F6E74656E742026
:105A70006F662043666720696E20466C61736821FB
:105A800021210A005741524E494E473A204D616B41
:105A90006520746F2064656661756C742043666769
:105AA0002121210A000000002DE9FC4104460D4699
:105AB00016461F46DDF8208033462A46214604A0BC
:105AC000CDE90078FAF734FD0120BDE8FC81000043
:105AD000436F6E6669677572652053657269616CA4
:105AE000202564202D3E2025642025642025642067
:105AF00025630A0D0000000001460022002006E098
:105B0000012383400B400BB1531CDAB2401C022826
:105B1000F6D31046704700002DE9F04105460E46C9
:105B20000027002400221146102006F0F9F8044650
:105B30002CB913A0FAF7FCFC0020BDE8F081314637
:105B400016A0FAF7F5FC32460021204605F086FE45
:105B500007463FB1204605F04DFF17A0FAF7E8FCD5
:105B60000020EAE7FF21204606F07CF8074627B12F
:105B700019A0FAF7DDFC0020DFE72C600120DCE74C
:105B80004572723A206E6574636F6E6E5F6E6577F4
:105B9000206661696C65642121210A006E65746369
:105BA0006F6E6E5F62696E6420706F727420256420
:105BB0002E2E2E0A000000004572723A206E657487
:105BC000636F6E6E5F64656C657465206661696C99
:105BD00065642121210A00004572723A206E6574C5
:105BE000636F6E6E5F6C697374656E206661696C5D
:105BF00065642121210A000010B504460022142109
:105C00000A2014F045F8034941F82400084650F8EA
:105C1000240010BD18000020F8B504460D461646B5
:105C20001A4805601A480660002214210A2014F060
:105C30002FF8184908600846006808B90020F8BD28
:105C4000002214210A2014F023F8134908600846A2
:105C5000006808B90020F2E7002214210A2014F09D
:105C600017F80E4908600846006808B90020E6E702
:105C700000204FF4806322460949009009A00AF0F1
:105C80007FFD08B90020DAE70120D8E7D400002022
:105C9000D8000020C0000020C8000020C400002060
:105CA000DDFE00087370765F7468726561640000E1
:105CB00086B072A10968029171A10968019171A170
:105CC000096800919DF80B1009069DF80A2041EA29
:105CD00002419DF8092041EA02219DF80820114364
:105CE0000B069DF80B1009069DF80A2041EA0241B7
:105CF0009DF8092041EA02219DF80820114301F492
:105D00007F4143EA01239DF80B1009069DF80A2004
:105D100041EA02429DF8091042EA01219DF808205B
:105D2000114301F47F0143EA11239DF80B100A0689
:105D30009DF80A1042EA01429DF8091042EA012149
:105D40009DF80820114343EA116105919DF8071061
:105D500009069DF8062041EA02419DF8052041EA26
:105D600002219DF8042011430B069DF80710090637
:105D70009DF8062041EA02419DF8052041EA0221F2
:105D80009DF80420114301F47F4143EA01239DF86B
:105D9000071009069DF8062041EA02429DF8051009
:105DA00042EA01219DF80420114301F47F0143EAF6
:105DB00011239DF807100A069DF8061042EA0142D9
:105DC0009DF8051042EA01219DF80420114343EAA1
:105DD000116104919DF8031009069DF8022041EA23
:105DE00002419DF8012041EA02219DF80020114363
:105DF0000B069DF8031009069DF8022041EA0241B6
:105E00009DF8012041EA02219DF80020114301F490
:105E10007F4143EA01239DF8031009069DF8022003
:105E200041EA02429DF8011042EA01219DF800205A
:105E3000114301F47F0143EA11239DF803100A0680
:105E40009DF8021042EA01429DF8011042EA012148
:105E50009DF80020114343EA116103910599016007
:105E600005994160049981600399C16040F2F51180
:105E7000016142F21072426106B07047C0A800642E
:105E8000FFFFFF00C0A800012DE9F04104460D46C8
:105E900000BF05F00300002808D000BF0BA34FF49B
:105EA000B67216A11DA0FAF743FB00BF00BF2E4635
:105EB0000AF070FB0746A06800683060A0680660C2
:105EC00038460AF093FBBDE8F08100002E2E2F4DDE
:105ED0006964646C6577617265732F546869726474
:105EE0005F50617274792F4C7749502F7372632F12
:105EF000636F72652F6D656D702E63006D656D70DB
:105F00005F667265653A206D656D2070726F7065B1
:105F1000726C7920616C69676E65640041737365AA
:105F20007274696F6E2022257322206661696C6528
:105F300064206174206C696E6520256420696E2080
:105F400025730A0070B505460AF024FB0646A868CA
:105F50000468002C16D02068A968086000BF04F00F
:105F60000300002808D000BF09A34FF48C7214A1CD
:105F70001CA0FAF7DDFA00BF00BF30460AF036FB7E
:105F8000204670BD30460AF031FB0020F9E70000E2
:105F90002E2E2F4D6964646C6577617265732F5482
:105FA000686972645F50617274792F4C7749502F21
:105FB0007372632F636F72652F6D656D702E630052
:105FC0006D656D705F6D616C6C6F633A206D656DB2
:105FD000702070726F7065726C7920616C69676E89
:105FE00065640000417373657274696F6E202225C9
:105FF0007322206661696C6564206174206C696E2F
:106000006520256420696E2025730A0010B5FDF710
:1060100069F802210720FCF773F9FDF707F810BDB6
:106020002DE9F05F07460E463C4600BF44B900BF6D
:106030004BA34FF4DC7257A15AA0FAF779FA00BFCC
:1060400000BF0AF0A7FA8346002060602672207F16
:1060500040F00100207765780020607058460AF013
:10606000C5FA606A20B1002204212046636A98477D
:10607000606A20B1002211462046636A9847606A30
:1060800020B1002202212046636A9847304604F07E
:106090007DF8824604F110000AF01CFB20B1514645
:1060A00004F110000AF007FB04F114000AF012FBDF
:1060B00020B1514604F114000AF0FDFA012D03D07D
:1060C000042D01D0032D3CD1207FC0F3800900BFF7
:1060D00000BF207F00F0FB00207700BF00BFB9F1B8
:1060E000000F2DD100BF206A40B900BF1CA34FF4A0
:1060F000F37236A12BA0FAF71BFA00BF00BF042DE4
:1061000003D10020216A087101E0206A0671206A2B
:10611000006800F10C0800BF40460AF02AFB40B9B5
:1061200000BF0FA340F2EF122FA11EA0FAF700FA52
:1061300000BF00BF0020206240460AF014FB00BFF1
:106140000CE000BF206A40B100BF05A340F2F71287
:106150002CA114A0FAF7ECF900BF00BFBDE8F09F36
:106160002E2E2F4D6964646C6577617265732F54B0
:10617000686972645F50617274792F4C7749502F4F
:106180007372632F6170692F6170695F6D73672E21
:1061900063000000636F6E6E20213D204E554C4C15
:1061A00000000000417373657274696F6E202225D0
:1061B0007322206661696C6564206174206C696E6D
:1061C0006520256420696E2025730A00636F6E6E5A
:1061D0002D3E63757272656E745F6D736720213D2D
:1061E000204E554C4C000000696E61766C6964204D
:1061F0006F705F636F6D706C657465645F73656D00
:1062000000000000636F6E6E2D3E63757272656EE6
:10621000745F6D7367203D3D204E554C4C0000006F
:1062200070B50546002411E004EB4400094901EB78
:10623000C000067D4EB104EB440001EBC000806855
:10624000A84202D1204600F087F9641C0A2CEBDB3F
:1062500070BD000018B402202DE9FF5F0646894694
:1062600017464FF00A0AD346D04600240A2003906E
:10627000002002900190009000BF73E004EB440006
:10628000764901EBC000057DB8F10A0F02D10DB9C6
:10629000A04665E0002D63D000BF012D0AD0022D7D
:1062A00008DA00BF6EA340F223127BA18AA0FAF79E
:1062B0003FF900BF00BFAEB104EB4401674A02EBF7
:1062C000C1013068496888420CD13FB104EB4400F9
:1062D000114601EBC0008068B84203D1204604B0EB
:1062E000BDE8F09F012D28D104EB44005B4951F833
:1062F000300080B104EB440001EBC000418A0298F9
:1063000081422DDB039404EB4400544901EBC000AF
:10631000408A029024E004EB4400504901EBC000A5
:10632000418A019881421BDBA24604EB44004B49A1
:1063300001EBC000408A019012E0022D10DB04EB5B
:106340004400464901EBC000418A0098814207DBC6
:10635000A34604EB4400414901EBC000408A009091
:10636000601C04B20A2C89DB09F0020028B9B8F1DC
:106370000A0F05D109F0010010B94FF0FF30AEE768
:10638000B8F10A0F01DA444631E0BBF10A0F11DA25
:106390005C4600BF04EB4400304951F8300040B186
:1063A00000BF2FA340F26D1255A14BA0FAF7C0F821
:1063B00000BF0CE0BAF10A0F01DA544607E0039877
:1063C0000A2801DA039C02E04FF0FF3087E700BFA4
:1063D0000A2C08DB00BF22A340F27F124EA13EA090
:1063E000FAF7A6F800BF00BF204600F0B5F800BFDE
:1063F0000A2C08DB00BF1AA340F2831246A136A084
:10640000FAF796F800BF00BF00BF04EB4400134941
:1064100001EBC000007D40B100BF11A34FF4C27278
:1064200042A12DA0FAF784F800BF00BF36B104EBFB
:1064300044010A4A02EBC10130684860002004EBC5
:106440004401064A02EBC101488204EB44001146B4
:1064500001EBC0008760204641E7000018B402202D
:106460002E2E2F4D6964646C6577617265732F54AD
:10647000686972645F50617274792F4C7749502F4C
:106480007372632F636F72652F697076342F657432
:10649000686172702E6300007374617465203D3D05
:1064A000204554484152505F53544154455F504534
:1064B0004E44494E47207C7C207374617465203EB5
:1064C0003D204554484152505F53544154455F5319
:1064D0005441424C45000000417373657274696F0A
:1064E0006E2022257322206661696C6564206174C8
:1064F000206C696E6520256420696E2025730A0072
:106500006172705F7461626C655B695D2E71203DC4
:106510003D204E554C4C000069203C204152505FBC
:106520005441424C455F53495A4500006172705FC7
:106530007461626C655B695D2E7374617465203D86
:106540003D204554484152505F53544154455F45A6
:106550004D5054590000000010B5044604EB4400AF
:106560000C4951F8300060B104EB4401094A52F87B
:10657000310007F08DFD002004EB4401054A42F88C
:106580003100002004EB4401024A02EBC10108750E
:1065900010BD000018B40220F0B587B007460D46C4
:1065A00000BF002D0AD100BF2EA340F28A223BA1DA
:1065B0003EA0F9F7BDFF00BF07B0F0BD00BF7C688B
:1065C0002088B0F5807F08D12079062805D1607930
:1065D000042802D16088082803D0384607F058FD07
:1065E000EAE7D4F80E000690A0690590686808B93B
:1065F000002607E005986968884201D1012000E083
:10660000002006460EB1012000E00220034604F1FE
:10661000080206A9284600F0CBFCE088B0F5807F90
:1066200003D0B0F5007F15D113E086B1022206AB8E
:1066300004F10800291DCDE90232CDE9001005F171
:10664000260302462231284600F05CFB00E000BF32
:1066500001E000E000BF00BF384607F019FD00BFB1
:10666000AAE700002E2E2F4D6964646C6577617275
:1066700065732F54686972645F50617274792F4C2E
:106680007749502F7372632F636F72652F6970762D
:10669000342F6574686172702E6300006E657469D2
:1066A0006620213D204E554C4C000000417373651F
:1066B0007274696F6E2022257322206661696C6591
:1066C00064206174206C696E6520256420696E20E9
:1066D00025730A002DE9FE4304460F461546A946D8
:1066E00000BF002C08D100BF5DA340F21E326AA19A
:1066F0006DA0F9F71DFF00BF00BF00BF47B900BF85
:1067000057A340F21F3272A167A0F9F711FF00BF33
:1067100000BF00BF002D08D100BF51A34FF4487245
:106720006EA161A0F9F704FF00BF00BF21462868F1
:1067300001F092F910B1DFF8B48186E0287800F01A
:10674000F000E02816D101208DF8040000208DF81B
:1067500005005E208DF80600687800F07F008DF857
:106760000700A8788DF80800E8788DF809000DF189
:10677000040869E02868A1680840D4E901121140C2
:1067800088420ED0288880B24FF6A961884208D08E
:10679000E06810B104F10C0903E06FF00300BDE8FC
:1067A000FE835348007800EB4000524901EBC000E3
:1067B000007D02281BDB4E48007800EB400001EB17
:1067C000C0008068A04212D14949097801EB41011B
:1067D000484A02EBC101D9F800004968884206D155
:1067E000434802783946204600F086F8D7E700266D
:1067F00022E006EB46003F4901EBC000007D022885
:1068000018DB06EB460001EBC0008068A04211D106
:1068100006EB4601374A02EBC101D9F8000049688E
:10682000884207D13248067032463946204600F089
:1068300063F8B4E7701CC6B20A2EDADB3A46494662
:10684000204600F00DF9AAE700BF4FF40060434670
:1068500004F1260239460090204600F025FD9EE70F
:106860002E2E2F4D6964646C6577617265732F54A9
:10687000686972645F50617274792F4C7749502F48
:106880007372632F636F72652F697076342F65742E
:10689000686172702E6300006E6574696620213D28
:1068A000204E554C4C000000417373657274696F43
:1068B0006E2022257322206661696C6564206174F4
:1068C000206C696E6520256420696E2025730A009E
:1068D0007120213D204E554C4C00000069706164D0
:1068E000647220213D204E554C4C000084B10108BB
:1068F0006802002018B40220F8B505460E4614467A
:1069000000BF04EB4400314901EBC000007D0228C8
:1069100008DA00BF2EA340F2EE223BA146A0F9F711
:1069200007FE00BF00BF04EB4400284901EBC00094
:10693000007D022839D104EB440001EBC000408AFD
:10694000B0F58E7F11DD04EB44000A4602EBC00077
:10695000011D284600F09CFA38BB032004EB4401DB
:106960001A4A02EBC10108751FE004EB4400174905
:1069700001EBC000408AB0F5877F16DB04EB4400D2
:106980000B4603EBC00000F10C0204EB440003EBE8
:10699000C000011D284600F087FA30B9032004EB3F
:1069A00044010A4A02EBC10108754FF400600090EF
:1069B00004EB4400054901EBC00000F10C0305F1B4
:1069C00026023146284600F06FFCF8BD18B40220BC
:1069D0002E2E2F4D6964646C6577617265732F5438
:1069E000686972645F50617274792F4C7749502FD7
:1069F0007372632F636F72652F697076342F6574BD
:106A0000686172702E6300006172705F7461626C05
:106A1000655B6172705F6964785D2E737461746523
:106A2000203E3D204554484152505F535441544507
:106A30005F535441424C4500417373657274696FF2
:106A40006E2022257322206661696C656420617462
:106A5000206C696E6520256420696E2025730A000C
:106A60002DE9FE4F81460F46164609F1260A4FF0E2
:106A7000FF300290002001904946386800F0ECFF9A
:106A800038B9387800F0F000E02802D00FB138684B
:106A900018B96FF00F00BDE8FE8F4A460121384655
:106AA000FFF7DAFB8046B8F1000F02DA4FFA88F000
:106AB000F1E700BFB8F17F0F08D300BF5FA340F23A
:106AC000C1326CA16FA0F9F733FD00BF00BF08F021
:106AD000FF0404EB4400754901EBC000007D70B970
:106AE0000120019004EB4401704A02EBC1010875DA
:106AF00004EB4400114601EBC000C0F8089000BF51
:106B000004EB4400694901EBC000007D01280FD06F
:106B100004EB440001EBC000007D022808DA00BF4E
:106B200046A340F2CD3262A156A0F9F701FD00BFA5
:106B300000BF019800B93EB93946484600F0A8F9AF
:106B400002900EB90298A6E700BF46B900BF3BA36A
:106B500040F2E13260A14BA0F9F7EAFC00BF00BFB0
:106B600004EB4400514901EBC000007D022811DB19
:106B70005C4804704FF40060009004EB440001EBAB
:106B8000C00000F10C0352463146484600F08CFB31
:106B9000029050E004EB4400444901EBC000007D4A
:106BA000012848D14FF0000B354618E000BF688936
:106BB000298988420AD1286840B100BF1FA340F24A
:106BC000F13249A12FA0F9F7B3FC00BF00BF287B29
:106BD00000F0400010B14FF0010B02E02D68002DD5
:106BE000E4D100BFBBF1000F07D032464FF4207153
:106BF0000E2007F041F8054603E03546284607F029
:106C000057FCA5B104EB4400284951F8300030B1DD
:106C100004EB4401254A52F8310007F039FA04EB3D
:106C20004400224941F830500020029002E04FF029
:106C3000FF30029000BF02982DE700002E2E2F4D4E
:106C40006964646C6577617265732F5468697264F6
:106C50005F50617274792F4C7749502F7372632F94
:106C6000636F72652F697076342F65746861727016
:106C70002E63000074797065206F766572666C6FA4
:106C800077000000417373657274696F6E2022256E
:106C90007322206661696C6564206174206C696E82
:106CA0006520256420696E2025730A0018B402202F
:106CB0006172705F7461626C655B695D2E73746193
:106CC0007465203D3D2050454E44494E47206F722B
:106CD00020535441424C45007120213D204E554CDB
:106CE0004C000000680200206E6F207061636B65CD
:106CF000742071756575657320616C6C6F77656460
:106D0000210000002DE9FC5F06460F46904699469B
:106D1000DDE90CAB0020019000BF002E08D100BFC0
:106D200031A340F257423EA141A0F9F701FC00BF58
:106D300000BF4FF420721C210E2006F013FD054603
:106D40001DB94FF0FF30BDE8FC9F00BF68891C28CB
:106D500008DA00BF24A340F262423FA134A0F9F751
:106D6000E7FB00BF00BF6C680F9802F0BAFAE08042
:106D700000BF96F82C00062808D000BF1AA340F2E6
:106D8000694242492AA0F9F7D3FB00BF00BFD9F8F6
:106D90000000A060B9F80400A081DBF80000C4F88E
:106DA0001200BBF80400E082DAF80000C4F80E001C
:106DB0000E980068A0614FF48070208008206080E9
:106DC000062020710420607140F6060043463A46D2
:106DD00029460090304600F067FA284607F058F937
:106DE00000250198AFE700002E2E2F4D6964646CDA
:106DF0006577617265732F54686972645F50617260
:106E000074792F4C7749502F7372632F636F7265BB
:106E10002F697076342F6574686172702E6300007C
:106E20006E6574696620213D204E554C4C00000073
:106E3000417373657274696F6E2022257322206618
:106E400061696C6564206174206C696E65202564DD
:106E500020696E2025730A00636865636B2074687F
:106E60006174206669727374207062756620636154
:106E70006E20686F6C64207374727563742065741F
:106E8000686172705F68647200000000E8B5010814
:106E900070B504460D46034A2946204600F004F822
:106EA00070BD000084B101087FB504460D4616464A
:106EB0000121074A201D04F126038DE825000391D6
:106EC000324619462046FFF71DFF04B070BD000092
:106ED0008AB1010870B5002464E004EB4400334932
:106EE00001EBC000057D002D5BD004EB440001EBFD
:106EF000C000408A401C04EB44012C4A02EBC10153
:106F0000488204EB4400114601EBC000408AB0F512
:106F1000967F0DDA04EB440001EBC000007D0128F0
:106F20000AD104EB440001EBC000408A052803DBD2
:106F30002046FFF711FB34E004EB44001B4901EB52
:106F4000C000007D032807D1042004EB4401174A48
:106F500002EBC101087524E004EB4400134901EB86
:106F6000C000007D042807D1022004EB44010F4A31
:106F700002EBC101087514E004EB44000B4901EB7E
:106F8000C000007D01280CD104EB44020B4603EB4A
:106F9000C202111D04EB440203EBC2029068FFF72A
:106FA00077FF641C0A2C98DB70BD000018B4022027
:106FB0002DE9F84305460E461746984600BF95F85A
:106FC0002C00062808D000BF2EA340F2A9123BA136
:106FD00043A0F9F7ADFA00BF00BF5EB1306848B119
:106FE0002946306800F038FD20B9307800F0F00014
:106FF000E02803D16FF00F00BDE8F8832A46414630
:107000003046FFF729F90446002C01DA60B2F3E7B5
:10701000022004EB44013C4A02EBC101087504EB79
:107020004400114601EBC000856004EB440001EB15
:10703000C0003968C160B9880182002004EB4401B6
:1070400002EBC101488204EB4400114651F83000C4
:10705000B0B104EB440051F83090002004EB44013F
:1070600042F831004FF400603B4605F126024946E4
:107070000090284600F018F9484607F009F800BFCC
:107080000020B9E72E2E2F4D6964646C657761721C
:1070900065732F54686972645F50617274792F4C04
:1070A0007749502F7372632F636F72652F69707603
:1070B000342F6574686172702E6300006E657469A8
:1070C000662D3E6877616464725F6C656E203D3D3D
:1070D000204554485F4857414444525F4C454E0058
:1070E000417373657274696F6E2022257322206666
:1070F00061696C6564206174206C696E652025642B
:1071000020696E2025730A0018B402202DE9F04191
:1071100004460E464FF00E0860890E2800DC4FE052
:10712000E07B18B996F83000401CE0736568AF89C1
:10713000287800F00100B0B12878012809D16878DA
:1071400088B9A8785E280ED1607B40F0100060738B
:1071500009E006221D492846F9F710FC18B9607BA2
:1071600040F008006073082F03D0B7F5C16F22D13B
:1071700010E096F82D0000F0080000B920E041462C
:10718000204607F0E9F900B11AE03146204600F048
:10719000F1FD11E096F82D0000F0080000B90FE0B5
:1071A0004146204607F0D8F900B109E031462046B3
:1071B000FFF7F2F900E003E000BF0020BDE8F08136
:1071C000204606F065FF0020F8E7000084B10108C2
:1071D000704700009AB00646642101A8F9F7BAFC8E
:1071E00000240027A046A146354600BF2C48FDF7E5
:1071F00097FA044695F82D00C0F3800058B1012C91
:1072000009DC2848FBF726FE284605F04FFC2846F7
:1072100005F0B6FC3FE095F82D00C0F38000002893
:1072200039D1012C37DD022C06D0032C0AD0042CD6
:107230000ED0052C17D111E04FF400694FF48048AF
:10724000012711E04FF000094FF4804801270BE0BF
:107250004FF400694FF00008012705E04FF00009E6
:10726000C846012700E000BF00BFA7B101A90D4833
:10727000FBF78EF9CDF81C90CDF8188001A90948CC
:10728000FBF7E9FC0748FBF733FD284605F048FD0E
:10729000284605F0DBFC642005F0A2FDA6E700000F
:1072A000C0580020D85700202DE9F04705460E466B
:1072B00017469846DDF82090484602F012F88246BC
:1072C0000E21304606F0D0F900B122E07468A4F82F
:1072D0000CA0D8F800002060B8F80400A08038683E
:1072E000C4F80600B888608100BF95F82C00062815
:1072F00008D000BF08A34FF4997215A121A0F9F797
:1073000017F900BF00BF31462846AA699047BDE87B
:10731000F0876FF00100FAE72E2E2F4D6964646C40
:107320006577617265732F54686972645F5061722A
:1073300074792F4C7749502F7372632F6E6574697F
:10734000662F65746865726E65742E6300000000B8
:107350006E657469662D3E6877616464725F6C6502
:107360006E206D757374206265203620666F722002
:1073700065746865726E65745F6F7574707574217D
:1073800000000000417373657274696F6E202225DE
:107390007322206661696C6564206174206C696E7B
:1073A0006520256420696E2025730A0010B5044607
:1073B00000BF44B900BF0CA340F2EF1211A115A009
:1073C000F9F7B6F800BF00BF732084F82E007421CF
:1073D0002F200155194860611948A061204601F02D
:1073E000F5FD002010BD00002E2E2F4C5749502FC8
:1073F0005461726765742F65746865726E6574692F
:10740000662E63006E6574696620213D204E554CE2
:107410004C000000417373657274696F6E20222501
:107420007322206661696C6564206174206C696EEA
:107430006520256420696E2025730A00D566000842
:10744000B991000806460024354600BF4FF0FF31D1
:107450000B48006805F04EFE0028F7D100BF284613
:1074600001F098FE04463CB1294620462A6990471F
:1074700010B1204606F00CFE002CF0D1E6E700002B
:10748000F40000202DE9F04704460D4616464FF063
:1074900000084FF006092F8800203070A0786F2870
:1074A00014D004222EA1601DF9F768FA70B1E0191A
:1074B00010F8020C0D2802D00020BDE8F087E0197A
:1074C00010F8010C0A2801D00020F6E720780128E6
:1074D00001D00020F1E7641C2078202801D0002092
:1074E000EBE7641C022220A12046F9F747FA38B9DD
:1074F0004FF001094946204608F064FC804627E029
:1075000002221AA12046F9F739FA38B94FF00209D8
:107510004946204608F056FC804619E0022214A194
:107520002046F9F72BFA38B94FF0030949462046AF
:1075300008F048FC80460BE02078732806D03246DD
:107540002946204602F022FF804601E00020B4E7F1
:10755000B8F1010F01D00020AFE70120ADE7000036
:107560006461746100000000733100007332000038
:10757000733300008A68002A01DCF9F7BDBD521E92
:107580008A604A68C0B2531C4B601070704710B5D7
:1075900004460021204612F027FC204611F0EAFDA7
:1075A00010BD0000004870475000002000487047A0
:1075B0009802002002460B4600210AE0074800EB33
:1075C000C1004068904202D1197001207047481CE8
:1075D000C1B20229F2DB0020F8E700008802002097
:1075E0000146002007E0064A52F820208A4200D1D6
:1075F0007047421CD0B20228F5DBFF20F8E70000FC
:10760000000000200146024850F8210070470000A9
:107610000000002000487047380000200146024862
:1076200050F8210070470000180000200148006851
:10763000704700002C00002070B505460C4622461D
:107640000321284600F03AF970BD00002DE9FF5FE4
:1076500005468A46654880680390039800780007CD
:10766000860E142E00DAB7E06889042800D2B3E051
:107670006868047814B1082C70D100E0A6E0DFF847
:107680006C9109F114095948007D00F0F000E028E0
:1076900000D1A5E0554A1168506900F0DDF900B14C
:1076A0009EE02889082800D296E006F10E012846BF
:1076B00005F0DAFF002840D0288930441FFA80FB0B
:1076C0002889584500DD8BE04FF4207259460E2082
:1076D00006F048F8074607B982E0798906F1080004
:1076E000814203D2384606F0D3FC79E0324678680E
:1076F0000399F9F78EF93146384606F02DFF002838
:107700000DD000BF00BF3AA3B62247A154A0F8F79E
:107710000FFF00BF00BF384606F0BAFC60E0294604
:10772000384606F001FB18B1384606F0B1FC57E0C8
:10773000284606F0ADFC3D4611E006F10E01284654
:1077400006F00AFF58B100BF00BF29A3C7224EA10F
:1077500043A0F8F7EDFE00BF00BF41E024E0D5F8FC
:1077600004803146284605F07FFFE0B96F68D9F8FC
:107770000000F8601D4800693861002088F80000AA
:10778000A8F80200FF203872002078810120002133
:10779000FF230A46CDE9010A00914946284600F038
:1077A000D1FB834600BF11E0032C0ED00B2C0CD074
:1077B0000C2C0AD0042C08D0052C06D00D2C04D09B
:1077C0000E2C02D0112C00D000BF00BF00BF2846F5
:1077D00006F05EFCBDE8FF9F284606F059FCF9E77D
:1077E000284606F055FC00BFF4E70000505B02207D
:1077F0002E2E2F4D6964646C6577617265732F540A
:10780000686972645F50617274792F4C7749502FA8
:107810007372632F636F72652F697076342F69639B
:107820006D702E630000000069636D705F696E709B
:1078300075743A206D6F76696E6720722D3E7061A7
:10784000796C6F616420746F2069636D7020686566
:1078500061646572206661696C65640A00000000FD
:10786000417373657274696F6E20222573222066DE
:1078700061696C6564206174206C696E65202564A3
:1078800020696E2025730A0069636D705F696E70F0
:1078900075743A20726573746F72696E67206F72C7
:1078A0006967696E616C20702D3E7061796C6F61E3
:1078B00064206661696C65640A0000002DE9FF4779
:1078C0000746884691464FF420722421222005F075
:1078D00049FF05460DB9BDE8FF8700BF6889242828
:1078E00008D200BF19A34FF4B47226A130A0F8F754
:1078F0001FFE00BF00BFD7F804A06C6884F80080AA
:1079000084F801900020A080E08079686A6802F124
:1079100008001C22F9F77DF8DAF80C00039003A8A0
:1079200000F078FD06465EB1002060800120002155
:10793000FF2303AACDE901060091284600F002FBCF
:10794000284606F0A5FB00BFC5E700002E2E2F4DF0
:107950006964646C6577617265732F5468697264D9
:107960005F50617274792F4C7749502F7372632F77
:10797000636F72652F697076342F69636D702E6343
:1079800000000000636865636B20746861742066A2
:107990006972737420706275662063616E20686F0F
:1079A0006C642069636D70206D6573736167650039
:1079B000417373657274696F6E202225732220668D
:1079C00061696C6564206174206C696E6520256452
:1079D00020696E2025730A0070B505460C462246C4
:1079E0000B212846FFF76AFF70BD00BFEFF305804B
:1079F00008B1012070470020FCE7000038B50025E1
:107A0000FFF7D0FD0546012012F01CF90C49086073
:107A10000846006808B9002038BDAC680948002352
:107A200001222146009008A013F0F2F909490860EC
:107A30000846006808B90020EEE70120ECE70000E6
:107A40002C000020C1FA0008506572696F646963F8
:107A5000505400002800002018B502460092D04380
:107A600000B10AB9012018BD91F82D0000F0020004
:107A700008B90020F7E74868904201D10020F2E7FA
:107A800000988B681840D1E901342340984208D10E
:107A9000886822EA00008C68E343984201D1012003
:107AA000E1E70020DFE700002DE9F74F8CB0044646
:107AB0000F464FF00008B98CA1F11400C11700EB7C
:107AC0005171C1F3CF0A1420059060680990DDF868
:107AD000249099F8000000F00F001421B1EB800F02
:107AE00004D06FF005000FB0BDE8F08F00BF6089D3
:107AF00014280BDA00BF72A34FF43F727FA186A057
:107B0000F8F716FD00BF6FF00500ECE700BFB9F80D
:107B1000060001F0E6FB04900498C0F30C00079007
:107B2000049800F400500390208914381FFA80FB59
:107B3000BDE04FF6FF7000EACA00584501DD584627
:107B400003E04FF6FF7000EACA0008904FF420727D
:107B500014210E2005F006FE054605B9ADE000BF74
:107B60006889142808DA00BF55A34FF4497274A13C
:107B700069A0F8F7DDFC00BF00BF1422686809990E
:107B8000F8F747FFD5F8049008980A9054E0618907
:107B90000598081A80B2029000BF61890598814259
:107BA00008DA00BF46A340F22D326DA15AA0F8F7C3
:107BB000BFFC00BF00BF02990A98884201DA0A9808
:107BC00000E002988046B8F1000F03D10020059034
:107BD000246831E000F0C6FC06461EB9284606F0CF
:107BE00057FA6AE0616805980844334641224146E5
:107BF000CDE90008002005F063FF0B900B9830B929
:107C0000304600F0B5FC284606F042FA55E0204622
:107C100006F04EFC74615648306128460B9905F019
:107C200079FF0A98A0EB080080B20A900A9810B178
:107C300000200590246800BF0A980028A7D1059865
:107C4000404480B20590B88C1438584501DB0120BF
:107C500000E0002006900798C0F30C0004900698FE
:107C600008B1039818B1049840F4005004900498A7
:107C700001F037FBA9F806000899143188B201F029
:107C800030FBA9F802000020A9F80A007B69294608
:107C900038460E9A9847284606F0FAF90898ABEB52
:107CA00000001FFA80FB0798504480B20790BBF198
:107CB000000F7FF43EAF002015E74FF0FF3012E7D2
:107CC0002E2E2F4D6964646C6577617265732F5435
:107CD000686972645F50617274792F4C7749502FD4
:107CE0007372632F636F72652F697076342F6970BA
:107CF000345F667261672E63000000006970345F54
:107D00006672616728293A207062756620746F6F09
:107D10002073686F72740000417373657274696FC9
:107D20006E2022257322206661696C65642061746F
:107D3000206C696E6520256420696E2025730A0019
:107D400074686973206E6565647320612070627564
:107D50006620696E206F6E6520706965636521001D
:107D6000702D3E6C656E203E3D20706F6666000093
:107D7000C18C00082DE9F04707460E467D6828783B
:107D80000421B1EB201F05D0384606F081F9002010
:107D9000BDE8F087287800074FEA9068688801F00E
:107DA000A0FA81463989494503DD4946384606F03F
:107DB000CBFA7889404505DB3889484502DBB8F1C4
:107DC000140F04DA384606F063F90020E0E728696A
:107DD0004D494861E86808610846007D00F0F00000
:107DE000E0280AD196F82D0000F0010018B1706863
:107DF00008B134461CE000241AE0304600F088F850
:107E000008B1344614E000243F48007D7F280FD09D
:107E10003E48046809E0B44200D105E0204600F085
:107E200077F800B103E000BF2468002CF3D100BF55
:107E3000354908693146FFF70FFE28B93248007C02
:107E400000F0F000E02804D1384606F021F90020C7
:107E50009EE724B9384606F01BF9002098E7E88829
:107E60004FF63F71084038B1384600F055F90746E3
:107E70000FB900208CE77D68234804604660856068
:107E800028780007800E204988814146384606F050
:107E900063FB687A01280DD0062806D011280ED180
:107EA0003146384610F0B8FC22E0314638460AF038
:107EB00011F91DE031463846FFF7C8FB18E01249BA
:107EC00048692146FFF7C8FD70B90F48007D00F0F2
:107ED000F000E02808D00FFA88F1384606F0E9F9FA
:107EE00002213846FFF7A8FB384606F0D1F800BF5C
:107EF00000BF0020044908604860886088810861EC
:107F0000486100BF44E70000505B022000020020EF
:107F100010B5044694F82D0000F0010070B16068BF
:107F200060B1074840696168884205D004494869E2
:107F30002146FFF791FD08B1012010BD0020FCE7AC
:107F4000505B02202DE9FE4F07460C461546984629
:107F5000DDE90C9A0E9EA34625B10CB1206808B944
:107F600006F1040B43462A4659463846CDE9009AA5
:107F7000029600F003F8BDE8FE8F00002DE9F84FEF
:107F800005460F4690469A46DDF828B00C9E00BF85
:107F9000A87B012808D000BF37A34FF4557243A136
:107FA00045A0F8F7C5FA00BF00BFB8F1000F46D0F2
:107FB0004FF014091421284605F056FB18B16FF054
:107FC0000100BDE8F88F6C6800BF6889142808D2EA
:107FD00000BF29A34FF4627241A137A0F8F7A8FAB5
:107FE00000BF00BF84F808A00B986072D8F80000AA
:107FF000206148464FEAE97109EB9171C1F38701AD
:1080000041F04001217084F801B0288901F069F93C
:1080100060800020E0803E48008801F062F9A08086
:108020003B480088401C3A4908801FB9394800681D
:10803000E06001E03868E0600020608109E0688964
:10804000142802DA6FF00100BBE76C682069009029
:10805000E846B08C48B12889B18C884205DD42469B
:1080600031462846FFF720FDABE742462946304619
:1080700073699847A5E700002E2E2F4D6964646C44
:108080006577617265732F54686972645F506172BD
:1080900074792F4C7749502F7372632F636F726519
:1080A0002F697076342F6970342E6300702D3E7204
:1080B0006566203D3D203100417373657274696FC0
:1080C0006E2022257322206661696C6564206174CC
:1080D000206C696E6520256420696E2025730A0076
:1080E000636865636B207468617420666972737479
:1080F00020706275662063616E20686F6C64207307
:1081000074727563742069705F68647200000000A7
:108110006A020020D0B201082DE9F14F84B0049822
:108120004568287800F00F001421B1EB800F00D0D3
:1081300011E1E88801F0D5F8C0F30C004FF6FF71AB
:1081400001EAC00A688801F0CCF8074628780007E1
:10815000810E02910299B94200DDFCE00298381AC2
:1081600087B2049805F07EFD06467D48018888198F
:108170000A280ADD3146284600F044FD20B178483F
:10818000008830440A2800DDE5E07648046811E004
:108190006069E968884209D1A0692969884205D1E6
:1081A000A089A988884201D1012000E0002000B107
:1081B00002E02468002CEBD100BF34B931462846D8
:1081C00000F006FC044694B9C5E0E88801F089F89F
:1081D000C0F30C0058B9E08901F083F8C0F30C003B
:1081E00028B11422294604F10800F8F712FCE888A7
:1081F000012121EA50100190019850B10AEB0701CA
:1082000088B2504503DB4FF6EB71884200DD80E019
:1082100000BF2046019A049900F0F6F983460BF15D
:10822000010000B975E04E48008830444C49088090
:10823000019840B10AEB070188B2A083A17F41F009
:108240000101A17700BFBBF1010F60D1A08B1430F9
:1082500080B2009060684068D0F80090606845681F
:10826000142204F108012846F8F7D3FB009801F026
:1082700038F868800020E8806881606804900DE02C
:10828000D9F8040003901421484606F065F94946E0
:10829000049805F03FFC0398D0F80090B9F1000F66
:1082A000EED130480068844202D14FF000080EE061
:1082B0002C48D0F8008006E0D8F80000A04200D199
:1082C00004E0D8F80080B8F1000FF5D100BF4146B6
:1082D000204600F01BFB049805F0C4FC064600BFD6
:1082E0001F480088B04208DA00BF1FA340F29B225B
:1082F0002CA133A0F8F71CF900BF00BF1848008874
:10830000801B17490880049805B0BDE8F08F002055
:10831000FAE700BF44B900BF13A34FF42A7232A199
:1083200027A0F8F705F900BF00BF606890B900BF4B
:108330000C480068844208D000BF0BA340F2AB2277
:108340002CA11FA0F8F7F4F800BF00BF00212046C1
:1083500000F0DCFA00BF049805F09AFE0020D3E795
:10836000700200206C0200202E2E2F4D6964646C78
:108370006577617265732F54686972645F506172CA
:1083800074792F4C7749502F7372632F636F726526
:108390002F697076342F6970345F667261672E635F
:1083A0000000000069705F72656173735F706275D1
:1083B00066636F756E74203E3D20636C656E0000D1
:1083C000417373657274696F6E2022257322206673
:1083D00061696C6564206174206C696E6520256438
:1083E00020696E2025730A0069707220213D204E9D
:1083F000554C4C006E6F74206669727374616C74B6
:10840000686F756768206A75737420656E7175652D
:108410007565640010B502462148016821E091F8B5
:108420002D0000F00100D8B191F82D00C0F38000BC
:10843000B0B14868A0B110688B681840D1E9013428
:108440002340984201D1084610BD91F82D0000F05C
:10845000020028B91068CB68984201D10846F3E7BA
:1084600009680029DBD10F480068A0B10D480068F9
:1084700090F82D0000F0010068B10A48006890F8FB
:108480002D00C0F3800030B106480068406810B18C
:1084900010787F2801D10020D6E702480068D3E792
:1084A000000200200402002010B5044610220249F8
:1084B000204600F003F810BD08B502202DE9FC4766
:1084C00006460B4614464FF0000C306801901946E2
:1084D00001AA00273CE0002500BF10784FF00A09F0
:1084E00090FBF9FA09FB1A0000F0FF08107890FBE6
:1084F000F9F0107008F1300000F0FF0A284605F18D
:10850000010909F0FF050DF800A010780028E4D15A
:108510000BE060460CF1010CA04202DB0020BDE83C
:10852000FC871DF8050001F8010B281EA5F10109C3
:1085300009F0FF05EDD160460CF1010CA04201DB12
:108540000020ECE72E2001F8010B521C781CC7B26A
:10855000042FC0DB4FF00009481E014680F8009050
:108560001846DCE710B5052002F010FE10BD000033
:1085700010B5044600BF002C08D100BF06A34FF47D
:10858000317214A116A0F7F7D3FF00BF00BF214638
:10859000052002F02DFD10BD2E2E2F4D6964646C58
:1085A0006577617265732F54686972645F50617298
:1085B00074792F4C7749502F7372632F636F7265F4
:1085C0002F697076342F6970345F667261672E632D
:1085D000000000007020213D204E554C4C00000052
:1085E000417373657274696F6E2022257322206651
:1085F00061696C6564206174206C696E6520256416
:1086000020696E2025730A002DE9F74F84B00646D5
:108610008846002501200190D8F8040002900299B4
:10862000488800F05EFE8346029800780007800EBE
:1086300003900398584503DD681E07B0BDE8F08F2E
:108640000398ABEB00001FFA80FB0299C88800F08A
:1086500048FEC0F30C004FF6FF7101EAC00A00BFEC
:1086600000BFD8F8044000202060A4F804A00AEB62
:108670000B00E080E088504502DA4FF0FF30DCE785
:10868000D6F804903EE0D9F80470A088B9888842F2
:1086900020DAC4F800909DB1A088E988884203DB05
:1086A000E088B988884202DD4FF0FF30C5E7C5F8A1
:1086B0000080E888A18888420BD00020019008E063
:1086C000E088B988884202DD4FF0FF30B5E7C6F890
:1086D00004801AE0A088B988884202D14FF0FF30A8
:1086E000ABE7A088F988884202DA4FF0FF30A4E7B0
:1086F0002DB1E888B988884201D000200190D7F8D0
:1087000000903D46B9F1000FBDD100BFB9F1000F97
:1087100028D1002D17D000BFE888A188884208DD45
:1087200000BF3EA34FF4DB724BA153A0F7F700FF4D
:1087300000BF00BFC5F80080E888A188884211D03A
:10874000002001900EE000BF706840B100BF33A36D
:108750004FF4DF7252A148A0F7F7EAFE00BF00BF56
:10876000C6F80480069820B9B07F00F00100002808
:1087700051D00198002848D0706818B170684068DE
:10878000808810B1002001903FE02546D4F8009089
:108790000BE0D9F80440E888A188884202D0002084
:1087A000019005E02546D4F80090B9F1000FF0D112
:1087B00000BF0198002828D000BF706840B900BFF2
:1087C00016A340F2DF1244A12BA0F7F7B1FE00BFC1
:1087D00000BF00BF70684068A04208D100BF0FA36F
:1087E0004FF4F0723CA124A0F7F7A2FE00BF00BF37
:1087F00000BF206840B100BF08A34FF4F1723AA156
:108800001DA0F7F795FE00BF00BF019808B1012039
:1088100013E7002011E700200FE700002E2E2F4D58
:108820006964646C6577617265732F5468697264FA
:108830005F50617274792F4C7749502F7372632F98
:10884000636F72652F697076342F6970345F66725A
:1088500061672E6300000000636865636B206672C9
:1088600061676D656E747320646F6E2774206F7618
:1088700065726C6170000000417373657274696F9A
:108880006E2022257322206661696C656420617404
:10889000206C696E6520256420696E2025730A00AE
:1088A0006E6F2070726576696F757320667261678E
:1088B0006D656E742C2074686973206D75737420F7
:1088C00062652074686520666972737420667261DF
:1088D000676D656E7421000073616E697479206341
:1088E0006865636B0000000076616C6964617465A3
:1088F0005F646174616772616D3A6E6578745F7010
:10890000627566213D4E554C4C00000070B5044622
:108910000D460E480068A04203D10C49206808604B
:108920000EE000BF002D08D100BF09A340F24512A0
:1089300016A11DA0F7F7FCFD00BF00BF206828604E
:108940002146042002F054FB70BD00006C020020A0
:108950002E2E2F4D6964646C6577617265732F5498
:10896000686972645F50617274792F4C7749502F37
:108970007372632F636F72652F697076342F69701D
:10898000345F667261672E630000000073616E6978
:10899000747920636865636B206C696E6B65642015
:1089A0006C69737400000000417373657274696FC1
:1089B0006E2022257322206661696C6564206174D3
:1089C000206C696E6520256420696E2025730A007D
:1089D00070B505460E46042002F0D8FB044664B983
:1089E0003146284600F00EF9B04203DB042002F0C5
:1089F000CDFB04460CB9002070BD20212046F8F7BD
:108A0000A9F80F20E0770648006820600448046059
:108A10001422294604F10800F7F7FBFF2046EBE794
:108A20006C0200202DE9F04704468846002500BF6F
:108A3000A04507D100BF40A3AB224EA150A0F7F73D
:108A400077FD00BF00BFB8F1000F0DD000BFD8F810
:108A50000000A04207D000BF37A3AD2252A148A01A
:108A6000F7F766FD00BF00BF6068D0F80490B9F862
:108A70000400002824D16768D9F80000606014223F
:108A800004F108017868F7F7C4FF01213846FEF7C2
:108A9000A3FF384605F0E6F8064600BFA819B0F572
:108AA000803F07DB00BF24A3BC2244A134A0F7F71A
:108AB0003FFD00BF00BFA81985B2384605F0E8FAAF
:108AC00067681CE0D7F80490BA46D9F800705046A1
:108AD00005F0C8F8064600BFA819B0F5803F07DBCF
:108AE00000BF15A3CC2235A125A0F7F721FD00BFBB
:108AF00000BFA81985B2504605F0CAFA00BF002F82
:108B0000E0D141462046FFF701FF00BF334800880F
:108B1000A84207DA00BF08A3D22231A118A0F7F7B4
:108B200007FD00BF00BF2D480088401B2B4908806F
:108B30002846BDE8F08700002E2E2F4D6964646C36
:108B40006577617265732F54686972645F506172F2
:108B500074792F4C7749502F7372632F636F72654E
:108B60002F697076342F6970345F667261672E6387
:108B7000000000007072657620213D20697072004F
:108B8000417373657274696F6E20222573222066AB
:108B900061696C6564206174206C696E6520256470
:108BA00020696E2025730A00707265762D3E6E6511
:108BB0007874203D3D206970720000007062756617
:108BC000735F6672656564202B20636C656E203C64
:108BD0003D20307866666666000000007002002066
:108BE00069705F72656173735F70627566636F75DC
:108BF0006E74203E3D2070627566735F66726565B7
:108C0000640000002DE9F84F05468946002700BFA3
:108C10000026B2460020009083461B48046821E0ED
:108C20006069E968884207D1A0692969884203D14F
:108C3000A089A988884201D0012000E0002068B105
:108C40000BF1010B1EB92646CDF800A006E0E07F2F
:108C5000F17F884202DC2646CDF800A0206800B1F2
:108C6000A2462468002CDBD12EB130460099FFF7D4
:108C7000D9FE804647444F4502DABBF1010FC7DCFD
:108C80003846BDE8F88F00006C02002070B5002562
:108C90000A4804680FE0E07F002805DDE07F401E01
:108CA000E0772546246806E02646246829463046B3
:108CB000FFF7B8FE00BF002CEDD170BD6C020020A4
:108CC00070B505462C4600BF002C08D100BF0FA38D
:108CD00040F2CE221CA11FA0F7F72AFC00BF00BF64
:108CE00000BFAC4208D000BF08A340F2CF2223A1AE
:108CF00018A0F7F71DFC00BF00BF606910B16069E4
:108D000005F0C6F92046FFF733FC70BD2E2E2F4D1F
:108D10006964646C6577617265732F546869726405
:108D20005F50617274792F4C7749502F7372632FA3
:108D3000636F72652F697076342F6970345F667265
:108D400061672E630000000070637220213D204E99
:108D5000554C4C00417373657274696F6E20222507
:108D60007322206661696C6564206174206C696E91
:108D70006520256420696E2025730A0070637220C7
:108D80003D3D2070000000001CB505460026002077
:108D900001900027002400908046814600213C4835
:108DA000006810F049FD81464846FCF72BFDC4B22F
:108DB000384840F82450012000FA04F13448006893
:108DC00010F07BFD00BF334850F8240030B932A0CA
:108DD000F7F7AEFB012004F003F8F4E7019830B197
:108DE00035A0F7F7A5FB012003F0FAFFEBE72949CF
:108DF00051F8240001A902F0D7FB0646002E3CD111
:108E000000213648006810F017FD80464046FCF708
:108E100073FE07461F4951F824106B46002248682C
:108E200001210EF0B7F9BDF8002039462CA0F7F764
:108E30007FFB022F0EDC0198F8F772FD012820D08D
:108E40000198F8F76DFD01281BD0394631A0F7F7DE
:108E50006FFB16E039A0F7F76BFB019802F062FD9B
:108E600038B9019802F0C6FD58B13FA0F7F760FB92
:108E700007E045A0F7F75CFB03E031464AA0F7F7AF
:108E800057FB00200190012003F0AAFF9BE70000A0
:108E9000D0000020080000204572723A204F626A1C
:108EA00065637420686173206265656E2064656C1B
:108EB00065746564210A00004572723A206E657718
:108EC0005F636F6E6E656374696F6E204D7573744A
:108ED000206265204E554C4C210A0000CC00002039
:108EE0000A0A47726162206E657720636F6E6E6555
:108EF0006374696F6E20636C69656E74206E756D46
:108F0000202564205B506F72742025645D2E2E2E08
:108F10000A0000004572723A20437265617465432D
:108F20006C69656E745468726561642025642046BE
:108F300061696C65642121210A0000004552523AA2
:108F4000206E756D20636F6E6E656374696F6E2041
:108F50006E6F7420616C6C6F7765642063726561FD
:108F600074652121210A00004552523A206E657431
:108F7000636F6E6E5F64656C657465204661696CD5
:108F800065642121210A00004552523A206E657421
:108F9000636F6E6E5F636C6F7365204661696C65AD
:108FA000642121210A0000004552523A206E657466
:108FB000636F6E6E5F616363657074204641494CF8
:108FC0004544212121205B25645D0A002DE9F04103
:108FD000A2B004460027B8460026642109A8F7F786
:108FE000B9FD61486149086000208DF81C008020AF
:108FF0008DF81D00E1208DF81E0000208DF81F0067
:109000008DF820008DF8210007A848604FF400017A
:10901000564881605649C160564901614FF4C061AC
:109020004161F9F7C7FB074638215348F7F792FD2E
:109030002120514908604FF4400048610020086138
:109040004E4802F08DF8062084F82C00474840680E
:10905000007884F82600454840684178272001556B
:109060004248406881782820015540484068C178CE
:10907000292001553D48406801792A2001553B4887
:10908000406841792B20015540F2DC50A08494F8CF
:109090002D0040F00A0084F82D0003220021012059
:1090A00010F0F6FD3649086003220021012010F07F
:1090B000EFFD344908601C2233496846F7F7EEFC9F
:1090C0002146684604F04AF830493148FBF7EFFB87
:1090D0002F48FBF783FB002F41D12D48FBF720FBE6
:1090E0000646012E06DC204603F04AFD204603F02A
:1090F000DDFC36E0022E06D0032E09D0042E0BD064
:10910000052E11D10DE04FF400654FF4804810E0BA
:1091100000254FF480480CE04FF400654FF0000844
:1091200007E00025A84604E04FF400654FF48048AE
:1091300000BF00BF09A90D48F9F72AFA0F95CDF82D
:10914000388009A90948F9F786FD0848F9F716FE9D
:10915000204603F0E5FD204603F078FD01E0F9F735
:10916000CBF822B0BDE8F08100800240D857002043
:10917000A0C0042000C004208858002028B10108A5
:10918000F4000020F800002034B10108FC000020A9
:10919000C058002038B504460020009004480078EC
:1091A00018B969460348F9F70CFC009838BD00006F
:1091B000F0000020D85700202DE9F0418CB0804607
:1091C0000D4600240026002730216846F7F7C2FC30
:1091D00030216846F7F7BEFC2E4629E0042C04D364
:1091E0006FF00B000CB0BDE8F08104EB4401706837
:1091F0004DF82100708904EB44016A4602EB8101BD
:10920000486054B104EB4400694601EB8001601EE4
:1092100000EB400002EB80008160306830B9002034
:1092200004EB44016A4602EB81018860641C3668E5
:10923000002ED3D128890D494860C1F808D00846CE
:109240004563284605F034F908490948F9F760FEF6
:1092500000BF4FF0FF310748006803F04BFF0028C4
:10926000F7D10348F9F763FC3846BBE7885800207C
:10927000D8570020F80000202DE9F041044625468B
:109280006868804707F04BFA06460D492868096868
:109290004718B81BB0F1004F01D3012000E00020B7
:1092A00030B1296888192246064907F0EDFA04E032
:1092B00022460449384607F0E7FABDE8F08100008D
:1092C00058020020799200080146080601F47F4206
:1092D00040EA022001F47F0240EA122040EA1160D5
:1092E000704701460806000C40EA11207047000054
:1092F00008B50020009000BF6846804208D000BF3B
:109300000CA340F25112174917A0F7F711F900BF4B
:1093100000BF00BF00BF07F09DF901F035FB01F071
:109320000FFF03F01BFB0FF06BFA08F0C7FE07F00E
:109330004BFB08BD2E2E2F4D6964646C65776172FE
:1093400065732F54686972645F50617274792F4C31
:109350007749502F7372632F636F72652F696E693F
:10936000742E6300D4B40108417373657274696F1D
:109370006E2022257322206661696C656420617409
:10938000206C696E6520256420696E2025730A00B3
:1093900070B50646344620684068D8B12068007829
:1093A00000F0F000102809D020280FD1A2892368EE
:1093B000A16858680FF092F905460AE0A28923686F
:1093C000A168586807F02CFD054602E06FF005051E
:1093D00000BF01E06FF00505257170BD70B5054651
:1093E0002C46206846782068406800285ED02068B7
:1093F000007800F0F000102858D1207A032801D01E
:10940000022E53D0032E02D1F520207150E0012E00
:1094100002D1FB2020714BE0207A00F0010010B156
:10942000206802F0F6FA00BF2068006A40B100BF71
:1094300020A340F2BD722CA132A0F7F779F800BF4B
:1094400000BF042021684870206804620021206861
:1094500000F072F8002828D000BF20684078042867
:1094600008D000BF13A340F2C27230A125A0F7F7C5
:109470005FF800BF00BF2F4807F04BF9216801F1EA
:109480000C00002107F092F82A4807F02AF900BFE3
:109490002068407840B100BF06A340F2C67223A105
:1094A00018A0F7F745F800BF00BF70BDF520207188
:1094B00000BFFAE72E2E2F4D6964646C65776172E8
:1094C00065732F54686972645F50617274792F4CB0
:1094D0007749502F7372632F6170692F6170695FD4
:1094E0006D73672E63000000616C726561647920A2
:1094F00077726974696E67206F7220636C6F73692D
:109500006E670000417373657274696F6E20222567
:109510007322206661696C6564206174206C696ED9
:109520006520256420696E2025730A0073746174B8
:1095300065210000B80100202DE9FC5F04468B4640
:109540000020019000BF44B900BF8AA340F2A232BC
:1095500095A199A0F6F7ECFF00BF00BF00BF2078EF
:1095600000F0F000102808D000BF82A340F2A33220
:109570009BA191A0F6F7DCFF00BF00BF00BF6078A1
:10958000042808D000BF7BA34FF469729CA18AA075
:10959000F6F7CEFF00BF00BF00BF606840B900BF54
:1095A00074A340F2A5329FA183A0F6F7C1FF00BFCC
:1095B00000BF00BF206A002808D100BF6DA340F2A1
:1095C000A6329DA17CA0F6F7B3FF00BF00BF67687D
:1095D000206A90F808A00AF001090AF00208BAF11E
:1095E000030F01D1012517E0B9F1000F0AD0387D32
:1095F000052805D0387D062802D0387D082801D1FD
:10960000012509E0B8F1000F05D0B87E00F0100088
:1096100008B1012500E000251DB10021384607F002
:10962000FBFB387D012804D10021384607F037FBC9
:109630001BE0B9F1000F07D0002138460CF0C8F943
:109640000021384607F02BFBB8F1000F03D00021B2
:1096500038460CF0C9FF45B10022114638460AF0E1
:10966000CFFE0021384608F0F7FA25B1384607F05A
:109670006DFE064605E04246494638460DF00AF8BA
:10968000064616B9012001900EE0701C50B9206A00
:10969000407A48B90120019035B1384607F0F8FA10
:1096A000002601E001200190019878B3206A00684B
:1096B0000C300090206A0671002020626070E6B9CC
:1096C0003DB16060606A20B1002204212046636AD7
:1096D0009847B9F1000F06D0606A20B10022114608
:1096E0002046636A9847B8F1000F06D0606A20B13F
:1096F000002202212046636A9847BBF1000F02D086
:10970000009807F030F80020BDE8FC9FFFE70198C3
:10971000002821D100BF387D012808D100BF15A342
:1097200040F241424BA124A0F6F702FF00BF00BF68
:10973000B8F1000F03D0504938460CF055FF012214
:109740004E4938460AF05CFE4D49384608F084FA26
:109750002146384607F060FB00BF46B900BF05A3AD
:1097600040F24D4247A114A0F6F7E2FE00BF00BF51
:109770003046C9E72E2E2F4D6964646C657761729F
:1097800065732F54686972645F50617274792F4CED
:109790007749502F7372632F6170692F6170695F11
:1097A0006D73672E63000000696E76616C696420DA
:1097B000636F6E6E00000000417373657274696FB1
:1097C0006E2022257322206661696C6564206174B5
:1097D000206C696E6520256420696E2025730A005F
:1097E0007468697320697320666F722074637020D7
:1097F0006E6574636F6E6E73206F6E6C790000001F
:10980000636F6E6E206D75737420626520696E20C3
:109810007374617465204E4554434F4E4E5F434C04
:109820004F53450070636220616C726561647920FA
:10983000636C6F7365640000636F6E6E2D3E6375BD
:109840007272656E745F6D736720213D204E554CBA
:109850004C000000436C6F73696E672061206C6977
:109860007374656E20706362206D6179206E6F7411
:10987000206661696C210000D9FC000869E90008D4
:109880002160000865727220213D204552525F4FD1
:109890004B00000070B5064634462068457800BF8E
:1098A000002D0ED02068007800F0F000102808D0BD
:1098B00000BF52A340F25E425DA162A0F6F738FEFF
:1098C00000BF00BF1DB1022D01D0032D06D1032D15
:1098D00007D12068007F00F0040010B9FB20207140
:1098E00085E000BF032D0DD12068007F00F004004B
:1098F00040B900BF41A340F27A425CA151A0F6F703
:1099000017FE00BF00BF00202071206802F081F820
:109910002068406800285AD02068007800F0F000E5
:1099200010280AD020284DD1002021684968C8613C
:10993000216848680FF0DAF945E000BF2068006A46
:1099400040B100BF2DA340F2944250A13DA0F6F7D4
:10995000EFFD00BF00BF0420216848700320207283
:109960002068046200212068FFF7E6FD002828D067
:1099700000BF20684078042808D000BF1FA340F231
:109980009A4249A12FA0F6F7D3FD00BF00BF484877
:1099900006F0BFFE216801F10C00002106F006FE72
:1099A000434806F09EFE00BF2068407840B100BFEB
:1099B00012A340F29E423CA122A0F6F7B9FD00BFDF
:1099C00000BF70BD00BF00BF002021684860206854
:1099D000406A20B1206800221146436A98472068F7
:1099E000406A20B1206800220221436A984721681A
:1099F00001F10C0006F0BDFE00BFE2E72E2E2F4D58
:109A00006964646C6577617265732F546869726408
:109A10005F50617274792F4C7749502F7372632FA6
:109A20006170692F6170695F6D73672E630000005C
:109A30006E6574636F6E6E207374617465206572F9
:109A4000726F7200417373657274696F6E202225A4
:109A50007322206661696C6564206174206C696E94
:109A60006520256420696E2025730A00626C6F638F
:109A70006B696E6720636F6E6E65637420696E201C
:109A800070726F677265737300000000616C7265BD
:109A90006164792077726974696E67206F722063E0
:109AA0006C6F73696E6700007374617465210000E8
:109AB000B8010020F8B50646344620684068002802
:109AC00060D02068007800F0F000102857D120689E
:109AD0004078002849D120684068007D10B1FA2004
:109AE000009041E0FF2721686A464868394609F03E
:109AF000FDF90546002D36D0216801F1100006F071
:109B0000E9FD48B1216801F1100006F0AFFD2168C0
:109B100001F1100006F0CCFD00200090216801F159
:109B2000140006F0D7FD30B9216801F114000621B8
:109B300006F0A6FD00909DF8000070B90220216893
:109B40004870206845602168486807F065F9216819
:109B500048680F4907F0A3F805E0284607F0F6FB30
:109B600000202168486000BF0EE02068407802288D
:109B700002D10020009007E0F520009004E0F020E2
:109B8000009001E0F52000909DF900002071F8BDE3
:109B90005956000870B504462546002028712868EB
:109BA000406810B9284604F06BFD70BD2DE9F04106
:109BB00005462C460020207120684068C0B120680E
:109BC000007800F0F000102812D1A66800BFB6F5AA
:109BD000803F02D34FF6FF7000E0304687B2216825
:109BE000486839460BF0ACFFF61B002EEFD100BFE2
:109BF000BDE8F08170B505462C46206801F05EFF97
:109C00000646002E65D12068007800F0F00010288C
:109C10005DD12068407808B1761F5AE0206840681E
:109C2000002851D001202168487000BF2068006AD8
:109C3000002808D000BF28A340F2237233A13AA025
:109C4000F6F776FC00BF00BF00BF606940B900BFF7
:109C500021A340F224723EA133A0F6F769FC00BFB5
:109C600000BF206804620021206800F081F800280D
:109C700029D000BF20684078012808D000BF16A373
:109C80004FF4E56237A128A0F6F752FC00BF00BFF1
:109C9000364806F03EFD216801F10C00002106F077
:109CA00085FC324806F01DFD00BF20684078012881
:109CB00008D100BF08A340F22C722AA11AA0F6F71F
:109CC00037FC00BF00BF70BD6FF00A0601E06FF007
:109CD0000506267100BFF6E72E2E2F4D6964646CD1
:109CE0006577617265732F54686972645F50617241
:109CF00074792F4C7749502F7372632F6170692FDD
:109D00006170695F6D73672E63000000616C72653E
:109D10006164792077726974696E67206F7220635D
:109D20006C6F73696E670000417373657274696F5D
:109D30006E2022257322206661696C65642061743F
:109D4000206C696E6520256420696E2025730A00E9
:109D50006D73672D3E6D73672E772E6C656E2021B7
:109D60003D2030007374617465210000B80100204B
:109D70002DE9F34F83B004460020019000BF44B9A1
:109D800000BFADA340F27362B8A1BCA0F6F7D0FB50
:109D900000BF00BF00BF6078012808D000BFA6A3A5
:109DA00040F27462BFA1B5A0F6F7C2FB00BF00BFCE
:109DB00000BF206A002808D100BF9FA340F275624F
:109DC000C0A1AEA0F6F7B4FB00BF00BF00BF606843
:109DD000002808D100BF98A340F27662C0A1A7A0D6
:109DE000F6F7A6FB00BF00BF00BF206AD0E905015F
:109DF000814208D300BF90A340F27762BEA19FA02A
:109E0000F6F796FB00BF00BF00BF206A80890028DC
:109E100008DC00BF88A340F27962C7A197A0F6F7DB
:109E200087FB00BF00BF206A077F207F00F0020091
:109E300010B907F0040008B1012000E000208146BD
:109E400000BF206A80680168206A006908440290A7
:109E5000206A80684168206A0069A1EB0008B8F5B3
:109E6000803F04D34FF6FF7647F0020701E01FFA68
:109E700088F66068B0F864B0B3450FDA5E46B9F1B1
:109E8000000F09D056B9206A806910B96FF006003A
:109E900000E0002005465EE047F0020700BF206AB0
:109EA00000693044216A89684968884208D900BF3E
:109EB00061A340F2A362AAA170A0F6F739FB00BF2C
:109EC00000BF4FF6FF70864202D1B8F5803F07D23F
:109ED0001FFA88F0B04208D1206A8089012804DD89
:109EE0000120009047F0020701E0002000903B466F
:109EF0003246606802990DF0C9FA054615BB206A22
:109F000080698119206A8161206A00698119206A4B
:109F10000161206A0069216A89684968884211D113
:109F2000206A8089401E81B2206A8181206A8089EE
:109F3000002807DD206A80680830216A88600021D7
:109F4000206A0161009810B1002D3FF47AAF0DB185
:109F5000681C30BB00BFB9F1000F10D0206AD0E9F7
:109F6000050181420BD2606A20B100220321204604
:109F7000636A9847207F40F01000207711E0606806
:109F8000B0F86400B0F5866F04DB6068B0F8660076
:109F9000052806DB606A20B1002203212046636A9F
:109FA0009847A5B9206AD0E90501814202D0B9F1EC
:109FB000000F01D001200190606809F031FA82465B
:109FC0000AF1040010B95546012001901CE0681CFC
:109FD000C0B9606809F024FA82460AF1040018B991
:109FE0005546012001900CE0B9F1000F09D0206A1C
:109FF000806910B96FF0060000E0002005460120DE
:10A00000019001E001200190019870B1206A006880
:10A0100000F10C0A206A057100202062607004982B
:10A0200010B1504606F09FFB04E04FF0FF3005B042
:10A03000BDE8F08F0020FAE72E2E2F4D6964646C86
:10A040006577617265732F54686972645F506172DD
:10A0500074792F4C7749502F7372632F6170692F79
:10A060006170695F6D73672E63000000636F6E6ED1
:10A0700020213D204E554C4C00000000417373657B
:10A080007274696F6E2022257322206661696C6587
:10A0900064206174206C696E6520256420696E20DF
:10A0A00025730A00636F6E6E2D3E737461746520B4
:10A0B0003D3D204E4554434F4E4E5F575249544507
:10A0C00000000000636F6E6E2D3E63757272656EE8
:10A0D000745F6D736720213D204E554C4C0000008D
:10A0E000636F6E6E2D3E7063622E74637020213D2F
:10A0F000204E554C4C000000636F6E6E2D3E637514
:10A100007272656E745F6D73672D3E6D73672E7727
:10A110002E6F6666736574203C20636F6E6E2D3EF5
:10A1200063757272656E745F6D73672D3E6D7367D4
:10A130002E772E6C656E0000636F6E6E2D3E63751C
:10A140007272656E745F6D73672D3E6D73672E77E7
:10A150002E766563746F725F636E74203E203000EC
:10A160006C7769705F6E6574636F6E6E5F646F5F4E
:10A1700077726974656D6F72653A20696E76616C8D
:10A180006964206C656E67746821000010B5044630
:10A1900014F10F0F09D014F10E0F04D014F10D0FAC
:10A1A00005D1094810BD0948FCE70948FAE700BF96
:10A1B0003CB100BF07A37D2213A117A0F6F7B8F9A1
:10A1C00000BF00BF0020EDE790B1010891B1010888
:10A1D00092B101082E2E2F4D6964646C657761720F
:10A1E00065732F54686972645F50617274792F4C83
:10A1F0007749502F7372632F6170692F6170695FA7
:10A200006D73672E63000000756E68616E646C6527
:10A2100064206572726F7200417373657274696F46
:10A220006E2022257322206661696C65642061744A
:10A23000206C696E6520256420696E2025730A00F4
:10A2400070B505460C4600BF3CB900BF0FA3852280
:10A250001BA11EA0F6F76CF900BF00BF2548854280
:10A2600003D1F3202070012070BD2348854203D123
:10A27000F22020700120F7E72048854203D1F12029
:10A2800020700120F0E70020EEE700002E2E2F4D79
:10A290006964646C6577617265732F546869726470
:10A2A0005F50617274792F4C7749502F7372632F0E
:10A2B0006170692F6170695F6D73672E63000000C4
:10A2C00065727220213D204E554C4C0041737365E0
:10A2D0007274696F6E2022257322206661696C6535
:10A2E00064206174206C696E6520256420696E208D
:10A2F00025730A0090B1010891B1010892B10108DB
:10A3000092B0FAF703FDF9F725F8FAF7ADFDFAF781
:10A31000E5FAFAF7D7FC002010901190012110A85F
:10A3200002F08EFE14490860144903C9CDE90E01FC
:10A33000002201210EA802F04BFF114908601C22E7
:10A340000E49083107A8F6F7A9FB002107A802F07B
:10A3500005FF0C4908601C22084924316846F6F7BD
:10A360009DFB0021684602F0F9FE0749086002F0F3
:10A3700043FD00BFFEE70000E8000020E8B0010850
:10A38000E4000020DC000020E00000202DE9F04F78
:10A3900085B004460E469046002500270020029016
:10A3A00003900490FDF7FEF80546FDF733F90746E4
:10A3B0004FF0000A28E020786F280ED1A41C2078E6
:10A3C000303800F0FF0BA41C20783038C0B2019068
:10A3D0005846019905F0E8FF07E0BAF1010F03DBE9
:10A3E000012005B0BDE8F08F11E0641C14F8011BDA
:10A3F0000A2901D00020F4E714F8011B0D2901D02F
:10A400000020EEE70AF1010ABAF1050FD3DB00BF25
:10A410000522A4A12046F6F7B1FA68BBA41D204688
:10A42000F6F780FA00B2B880B7F904209FA102A81D
:10A43000F6F78AF802A8F6F7CDFA81464C4414F8EC
:10A44000011B0D2901D00020CBE714F8011B0A29BC
:10A4500001D00020C5E7052295A12046F6F78EFA27
:10A4600028B9A41D2046F6F75DFA00B2F8803846F8
:10A4700000F030FF0120B4E705228DA12046F6F759
:10A480007DFA70BBA41D2046F6F74CFA00B2F880A6
:10A49000B7F9062085A102A8F6F756F802A8F6F744
:10A4A00099FA81464C4414F8011B0D2901D0002073
:10A4B00097E7641C14F8011B0A2901D0002090E7DB
:10A4C000052278A12046F6F759FA28B9A41D20469E
:10A4D000F6F728FA00B2B880384600F0FBFE0120FB
:10A4E0007FE7FFE7052274A12046F6F747FA50B947
:10A4F000A41D2046F6F716FAA881A98970A0F6F7E0
:10A5000017F801206DE7052275A12046F6F736FA07
:10A5100050B9A41D2046F6F705FAE881A98972A072
:10A52000F6F706F801205CE700BF012088F800007C
:10A53000062275A12046F6F721FA30B96B8872A27F
:10A5400073A17548F6F700F888E0062273A120464B
:10A55000F6F714FA30B92B8870A26DA16E48F5F7A2
:10A56000F3FF7BE006226FA12046F6F707FA30B929
:10A570002B796EA266A16848F5F7E6FF6EE0062229
:10A580006CA12046F6F7FAF930B96B796BA260A19D
:10A590006148F5F7D9FF61E006226AA12046F6F787
:10A5A000EDF9C8BB002088F80000A01DF6F7BAF945
:10A5B000A860A86870B96548006810F003FD01281C
:10A5C00008D1002003460246032100905F4800683E
:10A5D00010F0B4FCA86878B364200090A86800EB81
:10A5E00080004200002304215848006810F0A6FCB7
:10A5F000012833D15548006810F0E4FCE0B910F0B0
:10A60000B3F98246002003465246012100904F488C
:10A61000006810F093FC21E0FFE7052243A12046EB
:10A62000F6F7ACF9C0B9002088F80000641D14F8F2
:10A63000011B0D2901D0D4E610E014F8011B0A29F2
:10A6400001D00020CDE605223CA12046F6F796F980
:10A6500020B905F0BDFE01E00020C2E698F8000038
:10A6600008B90120BDE6A41E2B48F6F7B3F98246CF
:10A67000294837A338A239A1CDE900A02046F5F733
:10A6800063FF2046F6F7A6F930800A213288501C75
:10A690003080A1540D213288501C3080A1540120FB
:10A6A0009FE60000612076656C00000025640000D4
:10A6B000652076656C00000061206C696D0000000B
:10A6C0006C696D69742076656C6F6369747920615B
:10A6D0007A696D757468203D3E2025640D0A00007E
:10A6E00065206C696D0000006C696D697420766589
:10A6F0006C6F6369747920656C6576617465203D63
:10A700003E2025640D0A00006520676D696E00001B
:10A710002573202564000000B00200206520676DCD
:10A720006178000061206773796E000061207379A1
:10A730006E00000065206773796E000065207379F4
:10A740006E000000706572696F64000028000020D0
:10A7500064617461000000007330000025732025DF
:10A76000732025642025730001460020842901D030
:10A77000CA1C10447047000070B5054605B970BD8D
:10A7800005F00300002813D000BF00BF3DA340F236
:10A79000732248A150A0F5F7CBFE00BF00BF00BF59
:10A7A00005F0F8FE0646304605F020FF00BFE6E75C
:10A7B000A5F1080452480068844205D305F10C0055
:10A7C00050490968884213D900BF00BF2DA340F249
:10A7D0007F224DA140A0F5F7ABFE00BF00BF00BF38
:10A7E00005F0D8FE0646304605F000FF00BFC6E77C
:10A7F0004C4805F076FF2079002816D100BF00BF35
:10A8000020A34FF4237248A133A0F5F791FE00BFB7
:10A8100000BF444805F07DFF00BF05F0BBFE0646C3
:10A82000304605F0E3FE00BFA9E7204600F026F918
:10A83000002816D100BF00BF12A340F2952244A108
:10A8400025A0F5F775FE00BF00BF364805F061FF93
:10A8500000BF05F09FFE0646304605F0C7FE00BF6C
:10A860008DE70020207147480068844201D24548A6
:10A870000460204603F08CFF2A4805F04AFF00BF21
:10A880007DE700002E2E2F4D6964646C6577617240
:10A8900065732F54686972645F50617274792F4CCC
:10A8A0007749502F7372632F636F72652F6D656DDB
:10A8B0002E6300006D656D5F667265653A20736199
:10A8C0006E69747920636865636B20616C69676E7B
:10A8D0006D656E7400000000417373657274696F7A
:10A8E0006E2022257322206661696C656420617484
:10A8F000206C696E6520256420696E2025730A002E
:10A90000BC010020C00100206D656D5F6672656549
:10A910003A20696C6C6567616C206D656D6F72794A
:10A9200000000000C40100206D656D5F6672656502
:10A930003A20696C6C6567616C206D656D6F72792A
:10A940003A20646F75626C65206672656500000070
:10A950006D656D5F667265653A20696C6C656761EF
:10A960006C206D656D6F72793A206E6F6E2D6C691B
:10A970006E6B65643A20646F75626C652066726503
:10A9800065000000C801002010B500BF00BF1948D5
:10A9900020F0030018490860084604684FF420506E
:10A9A00020800020608020714FF4205004F0CEFD04
:10A9B000124908600120096808714FF420500F49BE
:10A9C000096808800D49096848800B4800680C49EF
:10A9D00008600C4805F08DFE00280AD000BF00BFBB
:10A9E00009A340F21F2214A11AA0F5F7A1FD00BF90
:10A9F00000BF10BD6B5B0220BC010020C001002025
:10AA0000C8010020C40100202E2E2F4D6964646C03
:10AA10006577617265732F54686972645F50617203
:10AA200074792F4C7749502F7372632F636F72655F
:10AA30002F6D656D2E6300006661696C656420741E
:10AA40006F20637265617465206D656D5F6D7574EF
:10AA500065780000417373657274696F6E202225FA
:10AA60007322206661696C6564206174206C696E74
:10AA70006520256420696E2025730A002DE9F041C8
:10AA80000446204600F084F90546208804F05EFD67
:10AA90000646608804F05AFD07462088B0F5205F1E
:10AAA00010D86088B0F5205F0CD86088A84202D02A
:10AAB0003888A84206D106480068864205D07088CA
:10AAC000A84202D00020BDE8F0810120FBE7000091
:10AAD000C00100202DE9F0478146B9F1000F02D1F5
:10AAE0000020BDE8F08709F1030020F0030085B2E3
:10AAF0000C2D00D20C25B5F5205F01D84D4501DAAB
:10AB00000020EEE75C4805F0ECFD5C48006800F0D2
:10AB10003FF90646A6E0304604F018FD04462079C9
:10AB200000287CD1218806F10800081AA84276D3B3
:10AB3000218806F10800091A05F11400814229D381
:10AB400006F1080028441FFA80F800BFB8F5205F1E
:10AB500008D100BF4AA340F2873255A159A0F5F7AA
:10AB6000E7FC00BF00BF404604F0F0FC07460021B0
:10AB70003971218839807E80A4F8008001202071FD
:10AB80003888B0F5205F07D0388804F0DFFCA0F8E3
:10AB9000028001E00120207138480068844227D1FA
:10ABA0003648D0F800A004E0BAF8000004F0CEFC6B
:10ABB00082469AF8040018B14C4800688245F3D1E7
:10ABC0002E48C0F800A000BF0068484909688842C4
:10ABD0000CD02A480068007940B100BF28A340F299
:10ABE000B53243A137A0F5F7A3FC00BF00BF00BFFB
:10ABF000214805F08EFD00BF04F1080028443B49C0
:10AC00000968884208D900BF1DA340F2B9323FA1AC
:10AC10002CA0F5F78DFC00BF00BF00BF00E01DE0D9
:10AC200004F0030040B100BF15A340F2BB3243A1C2
:10AC300024A0F5F77DFC00BF00BF00BF04F00300B7
:10AC400040B100BF0EA340F2BD3248A11DA0F5F7F0
:10AC50006FFC00BF00BF04F1080042E7304604F07B
:10AC600075FC0688C5F52050B0423FF654AF024847
:10AC700005F04FFD002034E7C4010020C80100208A
:10AC80002E2E2F4D6964646C6577617265732F5445
:10AC9000686972645F50617274792F4C7749502FE4
:10ACA0007372632F636F72652F6D656D2E63000085
:10ACB000696E76616C6964206E6578742070747258
:10ACC00000000000417373657274696F6E20222565
:10ACD0007322206661696C6564206174206C696E02
:10ACE0006520256420696E2025730A00C0010020BC
:10ACF0006D656D5F6D616C6C6F633A20216C66727F
:10AD000065652D3E75736564000000006D656D5FBF
:10AD10006D616C6C6F633A20616C6C6F636174651C
:10AD200064206D656D6F7279206E6F742061626F43
:10AD300076652072616D5F656E642E006D656D5F76
:10AD40006D616C6C6F633A20616C6C6F63617465EC
:10AD500064206D656D6F72792070726F7065726CB2
:10AD60007920616C69676E65642E00006D656D5FAA
:10AD70006D616C6C6F633A2073616E6974792063E6
:10AD80006865636B20616C69676E6D656E74000049
:10AD9000014602480088081A80B27047BC010020B2
:10ADA0002DE9F84F81468B460BF1030020F003009C
:10ADB00085B20C2D00D20C25B5F5205F01D85D457C
:10ADC00002DA0020BDE8F88F00BF5C4800688145CA
:10ADD00003D35B480068814508D300BF59A340F204
:10ADE000D12264A169A0F5F7A3FB00BF00BF5348BF
:10ADF0000068814503D352480068814509D300BFEC
:10AE000005F0C8FB0090009805F0F0FB00BF484635
:10AE1000D8E7A9F108063046FFF7BAFF07463188A0
:10AE2000C81B08381FFA80FA00BF554508DD00BF6F
:10AE300044A34FF439725FA154A0F5F779FB00BF2A
:10AE400000BF554501DD0020BCE7554501D148460E
:10AE5000B8E7604805F045FC308804F077FB04460D
:10AE60002079002833D100BF3088B0F5205F08D1A9
:10AE700000BF34A340F2F52257A144A0F5F758FBD8
:10AE800000BF00BF2088009007F1080028441FFA87
:10AE900080F856480068A04204D1404604F056FBB2
:10AEA00052490860404604F051FB044600202071DE
:10AEB000009820806780A6F800802088B0F5205F89
:10AEC00004D0208804F042FBA0F8028031E005F1B4
:10AED000140050452DD807F1080028441FFA80F8C7
:10AEE00000BF3088B0F5205F08D100BF15A340F245
:10AEF000163239A125A0F5F71BFB00BF00BF404665
:10AF000004F024FB044639480068844201D23748E3
:10AF1000046000202071308820806780A6F80080BF
:10AF20002088B0F5205F04D0208804F00FFBA0F843
:10AF30000280284805F0EDFB484643E7BC010020AD
:10AF4000C00100202E2E2F4D6964646C65776172FC
:10AF500065732F54686972645F50617274792F4C05
:10AF60007749502F7372632F636F72652F6D656D14
:10AF70002E6300006D656D5F7472696D3A206C65BB
:10AF800067616C206D656D6F727900004173736548
:10AF90007274696F6E2022257322206661696C6568
:10AFA00064206174206C696E6520256420696E20C0
:10AFB00025730A006D656D5F7472696D2063616E43
:10AFC000206F6E6C7920736872696E6B206D656D91
:10AFD0006F727900C4010020696E76616C6964202B
:10AFE0006E6578742070747200000000C801002043
:10AFF00070B504460D4600BF0D2C09DB00BF0AA347
:10B000004FF4D57214A11BA0F5F792FA00BF70BDE2
:10B0100000BF05B9FBE7214951F824002946FAF79A
:10B0200033FF00BFF3E700002E2E2F4D6964646CE0
:10B030006577617265732F54686972645F506172DD
:10B0400074792F4C7749502F7372632F636F726539
:10B050002F6D656D702E63006D656D705F66726536
:10B06000653A2074797065203C204D454D505F4D08
:10B0700041580000417373657274696F6E20222518
:10B080007322206661696C6564206174206C696E4E
:10B090006520256420696E2025730A0030B20108FE
:10B0A00070B504460D4600BF002C08D100BF09A3AF
:10B0B00040F2951213A118A0F5F73AFA00BF00BFAD
:10B0C00004B105B970BD29462046FAF7DDFE00BF80
:10B0D000F8E700002E2E2F4D6964646C657761726D
:10B0E00065732F54686972645F50617274792F4C74
:10B0F0007749502F7372632F636F72652F6D656D83
:10B10000702E6300696E76616C696420706F6F6C7D
:10B110002064657363000000417373657274696F26
:10B120006E2022257322206661696C65642061743B
:10B13000206C696E6520256420696E2025730A00E5
:10B1400010B5002406E0054951F8240000F008F885
:10B15000601C84B20D2CF6D310BD000030B2010883
:10B1600010B50023846823604368DB1C23F00301CF
:10B17000002207E083681B680B60836819600388FE
:10B180001944521C43889342F4DC10BD70B5044648
:10B1900000BF0D2C0ADB00BF09A340F2571214A117
:10B1A0001BA0F5F7C5F900BF002070BD00BF224904
:10B1B00051F82400FAF7C6FE05462846F5E70000D8
:10B1C0002E2E2F4D6964646C6577617265732F5400
:10B1D000686972645F50617274792F4C7749502F9F
:10B1E0007372632F636F72652F6D656D702E6300D0
:10B1F0006D656D705F6D616C6C6F633A2074797012
:10B2000065203C204D454D505F4D415800000000E9
:10B21000417373657274696F6E20222573222066F4
:10B2200061696C6564206174206C696E65202564B9
:10B2300020696E2025730A0030B2010810B504465B
:10B2400000BF002C08D100BF07A34FF49E7212A1CB
:10B2500016A0F5F76DF900BF00BF0CB9002010BDB6
:10B260002046FAF76FFEFAE72E2E2F4D6964646CC4
:10B270006577617265732F54686972645F5061729B
:10B2800074792F4C7749502F7372632F636F7265F7
:10B290002F6D656D702E6300696E76616C69642038
:10B2A000706F6F6C20646573630000004173736599
:10B2B0007274696F6E2022257322206661696C6545
:10B2C00064206174206C696E6520256420696E209D
:10B2D00025730A0010B50446B4F90620B4F9041029
:10B2E00017A0F5F725F9A08860B9E08850B91CA02F
:10B2F000F5F71EF94FF47A7307221D491D48F9F737
:10B300009BF91AE0A08801280AD11BA0F5F710F9D3
:10B310004FF47A7307221C491648F9F78DF90CE0AF
:10B32000E088012809D119A0F5F702F94FF47A73E2
:10B3300007221A490F48F9F77FF9012010BD0000D4
:10B340004D6F7665202D3E20617A696D75742025DC
:10B350006420656C65766174652025640D0A0000C3
:10B3600053746F7020416374696F6E0D0A000000A2
:10B37000AE000020140300204C6566742041637405
:10B38000696F6E0D0A000000A7000020526967680F
:10B390007420416374696F6E0D0A0000A0000020E4
:10B3A00070B504460D46164600BF002C0AD100BFFA
:10B3B0001AA3C62226A12DA0F5F7BAF800BF6FF098
:10B3C0000F0070BD00BF00BF002D0AD100BF13A346
:10B3D000C72230A125A0F5F7ABF800BF6FF00F0032
:10B3E000EFE700BF00BF002E0AD100BF0BA3C822A9
:10B3F00030A11EA0F5F79CF800BF6FF00F00E0E74A
:10B4000000BF606810B96FF00100DAE7606840685B
:10B4100028606068408930800020D2E72E2E2F4DB2
:10B420006964646C6577617265732F5468697264CE
:10B430005F50617274792F4C7749502F7372632F6C
:10B440006170692F6E65746275662E63000000007E
:10B450006E65746275665F646174613A20696E76C8
:10B46000616C696420627566000000004173736559
:10B470007274696F6E2022257322206661696C6583
:10B4800064206174206C696E6520256420696E20DB
:10B4900025730A006E65746275665F646174613A53
:10B4A00020696E76616C6964206461746170747285
:10B4B000000000006E65746275665F646174613AD5
:10B4C00020696E76616C6964206C656E0000000016
:10B4D00010B504465CB1206828B1206802F0D8FDA0
:10B4E00000206060206021460620FFF781FD10BD2E
:10B4F00010B5044600BF002C09D100BF0CA3E02208
:10B5000018A11FA0F5F714F800BF601E10BD00BF02
:10B510006068006810B94FF0FF30F7E760680068B6
:10B5200060606068006808B90120EFE70020EDE77F
:10B530002E2E2F4D6964646C6577617265732F548C
:10B54000686972645F50617274792F4C7749502F2B
:10B550007372632F6170692F6E65746275662E63F6
:10B56000000000006E65746275665F6E6578743AFF
:10B5700020696E76616C6964206275660000000067
:10B58000417373657274696F6E2022257322206681
:10B5900061696C6564206174206C696E6520256446
:10B5A00020696E2025730A007CB504460D4600BF55
:10B5B000002D0BD100BF30A340F2E1123BA143A00C
:10B5C000F4F7B6FF00BF6FF00F007CBD00BF002096
:10B5D000286000BF002C0BD100BF27A340F2E3126C
:10B5E00044A13AA0F4F7A4FF00BF6FF00F00ECE70E
:10B5F00000BF204600F062FA01909DF8040010B1EF
:10B600009DF90400E1E704F1140005F063F818B1B6
:10B61000207F00F0010010B16FF00E00D5E7207F11
:10B6200000F0020048B1694604F1140004F099FFEB
:10B63000401C40B96FF00600C7E70022694604F1DC
:10B64000140004F05FFF606A20B10022012120464F
:10B65000636A984701A90098FEF7F2FD10B19DF9C1
:10B660000400B2E7009810B96FF00E00ADE7009E3D
:10B670002E600020A9E700002E2E2F4D6964646C17
:10B680006577617265732F54686972645F50617287
:10B6900074792F4C7749502F7372632F6170692F23
:10B6A0006170695F6C69622E630000006E6574638F
:10B6B0006F6E6E5F6163636570743A20696E766168
:10B6C0006C696420706F696E746572004173736594
:10B6D0007274696F6E2022257322206661696C6521
:10B6E00064206174206C696E6520256420696E2079
:10B6F00025730A006E6574636F6E6E5F61636365C8
:10B7000070743A20696E76616C696420636F6E6E46
:10B71000000000002DE9F04105460F464FF00008FB
:10B720000720FFF733FD044614B90020BDE8F0817F
:10B73000002020722570606005F0F000102803D012
:10B74000202803D106260DE006260BE000BF00BF2F
:10B7500018A340F2E52224A12DA0F4F7E9FE00BFD2
:10B7600000BF21E000BF314604F1100004F088FF63
:10B7700000B119E0002104F10C0004F0DAFF20B15F
:10B7800004F1100004F072FF0EE004F1140004F064
:10B790008FFF00206070401EA06167620020206261
:10B7A00084F81C802046C1E721460720FFF720FCD3
:10B7B0000020BBE72E2E2F4D6964646C65776172A3
:10B7C00065732F54686972645F50617274792F4C8D
:10B7D0007749502F7372632F6170692F6170695FB1
:10B7E0006D73672E630000006E6574636F6E6E5F2D
:10B7F000616C6C6F633A20756E646566696E656432
:10B80000206E6574636F6E6E5F7479706500000002
:10B81000417373657274696F6E20222573222066EE
:10B8200061696C6564206174206C696E65202564B3
:10B8300020696E2025730A0070B506460C46206804
:10B8400000F10C02214630460CF0B8FD054615B952
:10B8500094F9040070BD2846FCE70000F0B589B0FB
:10B8600004460D46164600BF002C0CD100BF0DA3A8
:10B870004FF49C7218A11FA0F4F75AFE00BF6FF09E
:10B880000F0009B0F0BD00BF05B9244D0194039528
:10B89000ADF8106001A92248FFF7CEFF07463846F1
:10B8A000EFE700002E2E2F4D6964646C657761729E
:10B8B00065732F54686972645F50617274792F4C9C
:10B8C0007749502F7372632F6170692F6170695FC0
:10B8D0006C69622E630000006E6574636F6E6E5F4C
:10B8E00062696E643A20696E76616C696420636F88
:10B8F0006E6E0000417373657274696F6E2022254D
:10B900007322206661696C6564206174206C696EC5
:10B910006520256420696E2025730A00D0B20108D5
:10B920009193000810B504460321204600F002F868
:10B9300010BD000070B588B004460D4600BF002C55
:10B940000CD100BF0CA340F2474218A11EA0F4F78F
:10B95000EFFD00BF6FF00F0008B070BD00BF009496
:10B960008DF8085029218DF8091069462048FFF705
:10B9700063FF06463046EFE72E2E2F4D6964646C58
:10B980006577617265732F54686972645F50617284
:10B9900074792F4C7749502F7372632F6170692F20
:10B9A0006170695F6C69622E630000006E6574638C
:10B9B0006F6E6E5F636C6F73653A20696E76616C53
:10B9C000696420636F6E6E00417373657274696F92
:10B9D0006E2022257322206661696C656420617483
:10B9E000206C696E6520256420696E2025730A002D
:10B9F000DD93000870B505460DB9002070BD2846DE
:10BA000000F064FA044614B9284600F069F82046AC
:10BA1000F4E77CB5044604F1100004F05BFE08B3C3
:10BA200010E0207800F0F000102808D16946019855
:10BA3000FEF706FC10B9019802F02AFB02E001981B
:10BA4000FFF746FD01A904F1100004F08AFD401C37
:10BA50000028E6D104F1100004F008FE04F1100003
:10BA600004F026FE04F1140004F034FE28B314E0C0
:10BA700069460198FEF7E4FB70B9019D2846FFF77F
:10BA8000C8FF686820B1686805F002F900206860A6
:10BA9000284600F025F800BF00BF01A904F11400FA
:10BAA00004F05FFD401C0028E2D104F1140004F012
:10BAB000DDFD04F1140004F0FBFD7CBD70B504460F
:10BAC0000CB9002070BD04F065FD064694F90850DD
:10BAD00000202072304604F089FD2846F2E700007D
:10BAE00010B5044600BF6068002808D000BF1CA342
:10BAF0004FF4477227A133A0F4F71AFD00BF00BF2F
:10BB000000BF04F1100004F0E5FD002808D000BFDC
:10BB100013A340F2233235A12AA0F4F709FD00BF98
:10BB200000BF00BF04F1140004F0D4FD002808D0C9
:10BB300000BF0BA340F226323BA122A0F4F7F8FC91
:10BB400000BF00BF04F10C0004F0EDFD04F10C0097
:10BB500004F006FE21460720FFF74AFA10BD000058
:10BB60002E2E2F4D6964646C6577617265732F5456
:10BB7000686972645F50617274792F4C7749502FF5
:10BB80007372632F6170692F6170695F6D73672EC7
:10BB900063000000504342206D757374206265207D
:10BBA0006465616C6C6F6361746564206F75747338
:10BBB00069646520746869732066756E6374696F63
:10BBC0006E000000417373657274696F6E202225E8
:10BBD0007322206661696C6564206174206C696EF3
:10BBE0006520256420696E2025730A0072656376DE
:10BBF0006D626F78206D7573742062652064656175
:10BC00006C6C6F6361746564206265666F72652039
:10BC100063616C6C696E6720746869732066756E09
:10BC20006374696F6E0000006163636570746D62B8
:10BC30006F78206D757374206265206465616C6C2B
:10BC40006F6361746564206265666F72652063610D
:10BC50006C6C696E6720746869732066756E6374B6
:10BC6000696F6E0070B588B004460E4600BF002CA8
:10BC70000CD100BF0AA340F2BB1216A11DA0F4F71D
:10BC800057FC00BF6FF00F0008B070BD00BF0094FC
:10BC900069462248FFF7D0FD05462846F4E7000034
:10BCA0002E2E2F4D6964646C6577617265732F5415
:10BCB000686972645F50617274792F4C7749502FB4
:10BCC0007372632F6170692F6170695F6C69622E96
:10BCD000630000006E6574636F6E6E5F6C697374F1
:10BCE000656E3A20696E76616C696420636F6E6E72
:10BCF00000000000417373657274696F6E20222525
:10BD00007322206661696C6564206174206C696EC1
:10BD10006520256420696E2025730A00B59A000805
:10BD20002DE9F04188B007460D46164631463846A3
:10BD3000FFF7F0FC0446002C58D08DF80850009412
:10BD400069462B48FFF778FD8046B8F1000F4CD0CC
:10BD500000BF6068002807D000BF26A3A32232A13D
:10BD60003AA0F4F7E5FB00BF00BF00BF04F11000EC
:10BD700004F0B0FC002807D100BF1EA3A4223DA1FF
:10BD800032A0F4F7D5FB00BF00BF00BF04F11400E0
:10BD900004F0A0FC002807D000BF16A3A6223BA1F8
:10BDA0002AA0F4F7C5FB00BF00BF00BF04F10C00E0
:10BDB00004F0DFFC002807D100BF0EA3A9223CA19C
:10BDC00022A0F4F7B5FB00BF00BF04F10C0004F0A3
:10BDD000AAFC04F1100004F049FC21460720FFF7FB
:10BDE00007F9002008B0BDE8F08100BF2046F9E760
:10BDF000959B00082E2E2F4D6964646C65776172E7
:10BE000065732F54686972645F50617274792F4C46
:10BE10007749502F7372632F6170692F6170695F6A
:10BE20006C69622E6300000066726565696E67204A
:10BE3000636F6E6E20776974686F757420667265C3
:10BE400065696E672070636200000000417373656E
:10BE50007274696F6E2022257322206661696C6599
:10BE600064206174206C696E6520256420696E20F1
:10BE700025730A00636F6E6E20686173206E6F20F9
:10BE8000726563766D626F7800000000636F6E6E9E
:10BE90002D3E6163636570746D626F782073686FA7
:10BEA000756C646E277420657869737400000000F7
:10BEB000636F6E6E20686173206E6F206F705F63BA
:10BEC0006F6D706C657465640000000030B589B0FA
:10BED000044614B9002009B030BD019429218DF821
:10BEE0000D1001A90448FFF7A7FC05460DB128462F
:10BEF000F1E70020EFE7000095980008F8B5064646
:10BF00000D46002400BF002D0BD100BF2AA340F234
:10BF1000633236A13DA0F4F70BFB00BF6FF00F00BA
:10BF2000F8BD00BF0020286000BF002E0BD100BF6D
:10BF300021A340F265323FA134A0F4F7F9FA00BF23
:10BF40006FF00F00ECE700BF307800F0F000102831
:10BF50002CD1002000900620FFF718F9044614B9F0
:10BF60004FF0FF30DCE700226946304600F062F90E
:10BF700007462FB121460620FFF73AF83846CFE7AB
:10BF800000BF009840B900BF0BA340F2793230A146
:10BF90001EA0F4F7CDFA00BF00BF00982060009803
:10BFA00060600020A081A0602C60B9E700222946D3
:10BFB000304600F053F8B3E72E2E2F4D6964646CC1
:10BFC0006577617265732F54686972645F5061723E
:10BFD00074792F4C7749502F7372632F6170692FDA
:10BFE0006170695F6C69622E630000006E65746346
:10BFF0006F6E6E5F726563763A20696E76616C690A
:10C000006420706F696E746572000000417373651F
:10C010007274696F6E2022257322206661696C65D7
:10C0200064206174206C696E6520256420696E202F
:10C0300025730A006E6574636F6E6E5F726563765A
:10C040003A20696E76616C696420636F6E6E0000E1
:10C050007020213D204E554C4C0000002DE9FC4144
:10C0600004460D4617460020019000BF002D0CD15C
:10C0700000BF47A34FF4127252A15AA0F4F758FA26
:10C0800000BF6FF00F00BDE8FC8100BF00202860FA
:10C0900000BF002C0BD100BF3DA340F24A225BA1A0
:10C0A00050A0F4F745FA00BF6FF00F00EBE700BFB8
:10C0B00004F1100004F00EFB58B92046FFF7FEFC17
:10C0C0008046B8F1000F01D04046DCE76FF00A006F
:10C0D000D9E7207F00F0020040B907F0040028B93A
:10C0E000207F00F0010008B9207AD0B101A904F145
:10C0F000100004F036FA401C90B92046FFF7DEFC31
:10C100008046B8F1000F01D04046BCE7207F00F028
:10C11000010010B16FF00A00B5E76FF00600B2E75A
:10C1200005E0002201A904F1100004F0EBF92078E9
:10C1300000F0F000102810D169460198FEF780F851
:10C1400040B19DF900000F3008B900209BE79DF930
:10C15000000098E7019806890FE000BF019840B9F8
:10C1600000BF0BA340F291222FA11EA0F4F7E0F92B
:10C1700000BF00BF019800680689606A20B132469E
:10C1800001212046636A98470198286000207AE7D9
:10C190002E2E2F4D6964646C6577617265732F5420
:10C1A000686972645F50617274792F4C7749502FBF
:10C1B0007372632F6170692F6170695F6C69622EA1
:10C1C000630000006E6574636F6E6E5F7265637608
:10C1D0003A20696E76616C696420706F696E74656F
:10C1E00072000000417373657274696F6E202225BE
:10C1F0007322206661696C6564206174206C696ECD
:10C200006520256420696E2025730A006E657463BD
:10C210006F6E6E5F726563763A20696E76616C69E7
:10C220006420636F6E6E000062756620213D204EB3
:10C23000554C4C002DE9F04389B00446884617461A
:10C2400004F1100004F046FA20B96FF00A0009B0BA
:10C25000BDE8F083207F00F0800030B100BF207F78
:10C2600000F07F00207700BF26E03A464146204696
:10C27000FFF7F4FE05460DB12846E8E7D8F8006060
:10C2800007F0080050B90EB1308900E00120814666
:10C2900001AA4946204600F02BF800BF36BB07F044
:10C2A000100040B100BF207F40F08000207700BF29
:10C2B0006FF00600CBE700BF606A20B100220121C9
:10C2C0002046636A9847606848B92046FFF7F6FB46
:10C2D00005460DB12846BAE76FF00D00B7E701211A
:10C2E0002046FFF727FB6FF00E00B0E72846AEE7C9
:10C2F00070B504460E46154600BF24B1207800F004
:10C30000F00010280BD000BF09A340F2A72215A10E
:10C310001DA0F4F70DF900BF6FF00F0070BD00BF56
:10C320002C60AE6029462248FFF786FAF6E7000047
:10C330002E2E2F4D6964646C6577617265732F547E
:10C34000686972645F50617274792F4C7749502F1D
:10C350007372632F6170692F6170695F6C69622EFF
:10C36000630000006E6574636F6E6E5F7265637666
:10C370005F7463705F706275663A20696E76616C97
:10C38000696420636F6E6E00417373657274696FC8
:10C390006E2022257322206661696C6564206174B9
:10C3A000206C696E6520256420696E2025730A0063
:10C3B000AD9B00082DE9FE4306460C4615461F4678
:10C3C000DDF82880019402953B46012201A9304600
:10C3D000CDF8008000F002F8BDE8FE832DE9F04FB3
:10C3E00089B005460F4691469A46DDF8488000BF61
:10C3F000002D0DD100BF40A340F2EE324BA152A060
:10C40000F4F796F800BF6FF00F0009B0BDE8F08FA9
:10C4100000BF00BF287800F0F00010280BD000BF4C
:10C4200035A340F2EF3252A147A0F4F781F800BFE4
:10C430006FF00500E9E700BF287F00F0020010B9A7
:10C440000AF0040008B1012000E0002000900098EC
:10C4500028B1B8F1000F02D16FF00500D5E7002434
:10C4600000260CE007EBC6004068044407EBC6005A
:10C470004068A04202D96FF00500C6E7761C4E4521
:10C48000F0DB0CB90020C0E7B4F1004F09D3B8F1DC
:10C49000000F02D16FF00500B7E76FF000410C46C6
:10C4A00000BF01950397ADF81090002105918DF81C
:10C4B00020A00694079101A93648FFF7BDF98346ED
:10C4C000BBF1000F15D1B8F1000F02D00798C8F8E2
:10C4D0000000009868B900BF0798A04208D000BFCC
:10C4E00005A34FF486622CA117A0F4F721F800BF32
:10C4F00000BF584689E700002E2E2F4D6964646CFA
:10C500006577617265732F54686972645F506172F8
:10C5100074792F4C7749502F7372632F6170692F94
:10C520006170695F6C69622E630000006E65746300
:10C530006F6E6E5F77726974653A20696E76616CB2
:10C54000696420636F6E6E00417373657274696F06
:10C550006E2022257322206661696C6564206174F7
:10C56000206C696E6520256420696E2025730A00A1
:10C570006E6574636F6E6E5F77726974653A206979
:10C580006E76616C696420636F6E6E2D3E74797097
:10C5900065000000F59B0008646F5F777269746541
:10C5A000206661696C656420746F207772697465B8
:10C5B00020616C6C20627974657300002DE9F05F76
:10C5C00004460E4617469846DDE90AB900BF002C1E
:10C5D0000BD100BF49A340F2271255A15BA0F3F78E
:10C5E000A7FF00BF0020BDE8F09F00BF00BFB9F16A
:10C5F000000F0AD100BF41A34FF494725DA153A074
:10C60000F3F796FF00BF0020EDE700BF06B9624ECA
:10C6100007B9614FB8F1000F01D1DFF87C8100202C
:10C620006060A060E0605D4860610020A08484F8E4
:10C630002D00E061C4F820B05948007884F830003B
:10C640000C98206143463A463146204600F0F8F9FE
:10C650002046C84708B10020C5E700BF94F8300065
:10C66000FF2802D1002084F830004FF0000A4D4826
:10C67000056829E000BFA54208D100BF1FA340F212
:10C680008B1249A131A0F3F753FF00BF00BF0AF19D
:10C69000010A00BFBAF1FF0F08DD00BF17A340F287
:10C6A0008D1246A129A0F3F743FF00BF00BF95F804
:10C6B000300094F83010884205D194F83000401CC6
:10C6C00084F8300002E02D68002DD3D100BF002D8A
:10C6D000C4D194F83000FE2803D1002030490870FE
:10C6E00004E094F83000401C2D4908702D48006883
:10C6F00020602C480460204675E700002E2E2F4D48
:10C700006964646C6577617265732F5468697264DB
:10C710005F50617274792F4C7749502F7372632F79
:10C72000636F72652F6E657469662E63000000008A
:10C730006E657469665F6164643A20696E76616CE7
:10C740006964206E6574696600000000417373655A
:10C750007274696F6E2022257322206661696C6590
:10C7600064206174206C696E6520256420696E20E8
:10C7700025730A006E657469665F6164643A204ED1
:10C780006F20696E69742066756E6374696F6E20C0
:10C79000676976656E000000D0B2010839CA0008EA
:10C7A00008020020000200206E6574696620616C3A
:10C7B000726561647920616464656400746F6F20E0
:10C7C0006D616E79206E65746966732C206D617879
:10C7D0002E20737570706F72746564206E756D6253
:10C7E00065722069732032353500000070B504464B
:10C7F0000D462946204606F05BFC294620460CF0F3
:10C80000CDF970BD10B503460868DC68A04201D1BF
:10C81000012000E0002030B909B9002000E00868DC
:10C82000D860012010BD0020FCE70000F8B50546E7
:10C830000C46164600BF002C08D100BF18A340F2DA
:10C84000CB1224A127A0F3F773FE00BF00BF00BFE7
:10C8500046B900BF12A34FF4E6721EA121A0F3F760
:10C8600067FE00BF00BF20686968884201D10120CF
:10C8700000E0002090B92068009068683060694648
:10C880003046FFF7B3FF0CB9002000E02068686075
:10C890000121284600F064F80120F8BD0020FCE7E3
:10C8A0002E2E2F4D6964646C6577617265732F5409
:10C8B000686972645F50617274792F4C7749502FA8
:10C8C0007372632F636F72652F6E657469662E6372
:10C8D00000000000696E76616C696420706F696E9B
:10C8E00074657200417373657274696F6E202225DE
:10C8F0007322206661696C6564206174206C696EC6
:10C900006520256420696E2025730A0010B5034652
:10C9100008689C68A04201D1012000E0002030B9E5
:10C9200009B9002000E008689860012010BD0020CF
:10C93000FCE7000002466AB10748016808E091F888
:10C940003000401CC0B2904201D1084670470968CF
:10C950000029F4D10020F9E7000200207047000010
:10C9600070B504460D4600BF002C08D100BF12A3CD
:10C9700040F26D321DA126A0F3F7DAFD00BF00BF23
:10C9800094F82D0000F0040020B194F82D0000F080
:10C99000010000B970BD05F0010050B1606840B100
:10C9A00094F82D0000F0080018B1211D2046FAF778
:10C9B0006FFA00BFEEE700002E2E2F4D6964646C05
:10C9C0006577617265732F54686972645F50617234
:10C9D00074792F4C7749502F7372632F636F726590
:10C9E0002F6E657469662E63000000006E657469C1
:10C9F000665F69737375655F7265706F7274733AA1
:10CA000020696E76616C6964206E657469660000E9
:10CA1000417373657274696F6E20222573222066DC
:10CA200061696C6564206174206C696E65202564A1
:10CA300020696E2025730A0003466FF00B007047D3
:10CA40002DE9F84F80460C4615461E464FF000096A
:10CA5000CA4604B9114C05B9104D06B90F4E0CB1B8
:10CA6000206808B9012000E00020074627B16A4687
:10CA700021464046FFF7DAFE4A4629464046FFF780
:10CA800045FF524631464046FFF7BCFE27B96A468D
:10CA900021464046FFF7CAFEBDE8F88FD0B2010834
:10CAA00001490860704700000402002010B50446E8
:10CAB00000BF002C09D100BF10A340F29B321CA183
:10CAC00023A0F3F735FD00BF10BD00BF94F82D0083
:10CAD00000F0010078B100BF94F82D0000F0FE00D6
:10CAE00084F82D0000BF94F82D0000F0080010B16C
:10CAF0002046F9F795FB00BFE6E700002E2E2F4DEC
:10CB00006964646C6577617265732F5468697264D7
:10CB10005F50617274792F4C7749502F7372632F75
:10CB2000636F72652F6E657469662E630000000086
:10CB30006E657469665F7365745F646F776E3A20C3
:10CB4000696E76616C6964206E65746966000000C8
:10CB5000417373657274696F6E202225732220669B
:10CB600061696C6564206174206C696E6520256460
:10CB700020696E2025730A0000B1C1617047000072
:10CB800010B5044600BF002C09D100BF0FA340F22E
:10CB900006421BA123A0F3F7CBFC00BF10BD00BFD2
:10CBA00094F82D0000F0040070B100BF94F82D003F
:10CBB00000F0FB0084F82D0000BF00BFE06910B159
:10CBC0002046E169884700BF00BFE7E72E2E2F4DC2
:10CBD0006964646C6577617265732F546869726407
:10CBE0005F50617274792F4C7749502F7372632FA5
:10CBF000636F72652F6E657469662E6300000000B6
:10CC00006E657469665F7365745F6C696E6B5F6493
:10CC10006F776E3A20696E76616C6964206E657418
:10CC200069660000417373657274696F6E20222516
:10CC30007322206661696C6564206174206C696E82
:10CC40006520256420696E2025730A0010B504460E
:10CC500000BF002C09D100BF11A34FF478721DA1B1
:10CC600025A0F3F765FC00BF10BD00BF94F82D00B0
:10CC700000F0040090B900BF94F82D0040F00400CB
:10CC800084F82D0000BF03212046FFF769FE00BF96
:10CC9000E06910B12046E169884700BF00BFE3E7C3
:10CCA0002E2E2F4D6964646C6577617265732F5405
:10CCB000686972645F50617274792F4C7749502FA4
:10CCC0007372632F636F72652F6E657469662E636E
:10CCD000000000006E657469665F7365745F6C695F
:10CCE0006E6B5F75703A20696E76616C6964206E58
:10CCF0006574696600000000417373657274696F42
:10CD00006E2022257322206661696C65642061743F
:10CD1000206C696E6520256420696E2025730A00E9
:10CD200010B5044600BF002C09D100BF0EA34FF47C
:10CD300054721AA120A0F3F7FBFB00BF10BD00BF87
:10CD400094F82D0000F0010058B900BF94F82D00B0
:10CD500040F0010084F82D0000BF03212046FFF7BA
:10CD6000FFFD00BFEAE700002E2E2F4D6964646CC2
:10CD70006577617265732F54686972645F50617280
:10CD800074792F4C7749502F7372632F636F7265DC
:10CD90002F6E657469662E63000000006E6574690D
:10CDA000665F7365745F75703A20696E76616C6951
:10CDB00064206E6574696600417373657274696F8F
:10CDC0006E2022257322206661696C65642061747F
:10CDD000206C696E6520256420696E2025730A0029
:10CDE00070B5044625460DB1294600E001210846EC
:10CDF0000CF01AFA002070BD10B50CF021FC0020D8
:10CE000010BD10B5FAF7F1FD10B10DF0B3FD10BD76
:10CE10000DF0AAFDFBE7F8B504460D46A06840B149
:10CE2000E06830B10020009094E80F000CF062FF41
:10CE3000F8BD0022D4E900010CF02AFFF8E710B594
:10CE40000446FAF7D2FD08B1822010BD20460CF04E
:10CE500091F90020F9E700002DE9FF4107460D4652
:10CE600014460295002001903DB9802000909DE875
:10CE7000070087E80700BDE8FF8100200390002637
:10CE8000601C08B9761E03E014B1264606B90126D7
:10CE9000FAF7ABFDB0B103AA01A928460DF084FA58
:10CEA000012802D11020009001E00020009003989A
:10CEB000B8B14FF080500E490860BFF34F8FBFF3F9
:10CEC0006F8F0EE0324601A928460DF0B3F9012814
:10CED00002D11020009004E00EB9002000E04020B4
:10CEE00000909DE8070087E8070000BFC3E7000047
:10CEF00004ED00E077B581B00646144600200090AE
:10CF0000254605B90125FAF770FDA8B100236A4648
:10CF100002A930460DF092F8012802D0FF2004B09B
:10CF200070BD009890B14FF0805009490860BFF380
:10CF30004F8FBFF36F8F09E000232A4602A93046C6
:10CF40000CF0A0FF012801D0FF20E8E70020E6E771
:10CF500004ED00E010B50446FAF747FD18B120468D
:10CF60000BF093FF10BD20460BF078FFFAE710B5E9
:10CF70000446606820B1012061680CF074FE10BDA9
:10CF800001200CF05FFEFAE738B5044600250020CA
:10CF90000090FAF72AFD90B1694620460DF0D2F8CC
:10CFA000012801D0FF2038BD009888B14FF0805093
:10CFB00008490860BFF34F8FBFF36F8F08E000236D
:10CFC0001A46194620460CF05DFF012800D0FF25C7
:10CFD0002846E8E704ED00E0F8B506460C460020D8
:10CFE00000900EB98020F8BD0025601C08B96D1EA8
:10CFF00003E014B1254605B90125FAF7F6FC98B10E
:10D000006A46002130460DF0CFF9012801D0FF20FB
:10D01000E9E7009880B14FF0805008490860BFF3FD
:10D020004F8FBFF36F8F07E0294630460DF028FA87
:10D03000012801D0FF20D6E70020D4E704ED00E06E
:10D04000F8B504460D46606860B1012D08D1032093
:10D05000009000221146012063680CF04BFEF8BDE1
:10D060000020FCE7012D0ED10322002101200CF04D
:10D070000FFE06462EB100231A46194630460CF024
:10D0800001FF3046EBE70020E9E710B50446FAF768
:10D09000ACFC08B1822010BD20460CF06BF80020DB
:10D0A000F9E7000038B50446002500200090FAF7A3
:10D0B0009CFC90B1694620460DF044F8012801D04F
:10D0C000FF2038BD009888B14FF0805008490860B3
:10D0D000BFF34F8FBFF36F8F08E000231A46194646
:10D0E00020460CF0CFFE012800D0FF252846E8E7B7
:10D0F00004ED00E0F8B506460C46002000900EB99D
:10D100008020F8BD0025601C08B96D1E03E014B135
:10D11000254605B90125FAF768FC98B16A46002151
:10D1200030460DF041F9012801D0FF20E9E70098D1
:10D1300080B14FF0805008490860BFF34F8FBFF3B4
:10D140006F8F07E0294630460DF09AF9012801D08B
:10D15000FF20D6E70020D4E704ED00E07FB50446C9
:10D160000D46606998B1A06988B1B4F90800FDF76F
:10D17000FBFA0646D4E90510CDE9006102902B4682
:10D180002269D4E900100DF0DBFA039013E0B4F942
:10D190000800FDF7E9FA064603A8CDE90060238AF6
:10D1A0009AB22B46D4E900100DF098FA012802D06B
:10D1B000002004B070BD0398FBE710B50DF0BEFB76
:10D1C00010BD10B5044620460CF05EF8002010BDDE
:10D1D0007CB504460D461646606878B1D4E9000176
:10D1E000CDE90001012D01D1012000E0002002461F
:10D1F0003346012108A00DF026FE7CBD206800907A
:10D20000012D01D1012000E000200246334601211A
:10D2100001A00DF0FDFDF0E7000000002DE9FF4743
:10D220000446894616463046FAF7ECF90746D7F821
:10D2300004806B4603AA0121404609F0ABFF207829
:10D24000EE2803D0002004B0BDE8F0876078002805
:10D2500059D1A07882283FD008DC14280DD064284A
:10D260001AD0742827D081284AD134E0832834D0BA
:10D27000842833D0852843D131E04FF480612046A3
:10D28000F3F746FC03A8FBF70FF982465246B3A119
:10D290002046F3F759F935E04FF480612046F3F763
:10D2A00037FCB548FBF700F982465246B3A1204649
:10D2B000F3F74AF926E04FF480612046F3F728FCA3
:10D2C000AD48001FFBF7F0F882465246B4A1204655
:10D2D000F3F73AF916E000BF00BF00BF00BF4FF4FC
:10D2E00080612046F3F714FCA078813805F1100125
:10D2F00051F82030A278B3A12046F3F725F901E0D8
:10D300000020A0E728E1607801287DD1FAF74EF9E6
:10D310000546A078822878D008DC14280DD064282F
:10D3200056D0742872D0812871D1EEE083286FD056
:10D3300084286ED08528F7D1EBE0E07800062179CB
:10D3400040EA0140617940EA0120A17908430206E0
:10D35000E0780006217940EA0140617940EA012045
:10D36000A179084300F47F4042EA0022E0780006F9
:10D37000217940EA0141607941EA0020A17908431E
:10D3800000F47F0042EA1022E0780106207941EAA9
:10D390000041607941EA0020A179084342EA106027
:10D3A00003900398286002F07DFB012801D0002043
:10D3B00049E74FF480612046F3F7AAFB03A8FBF787
:10D3C00073F88246524687A12046F3F7BDF8C0E0C5
:10D3D000E0780006217940EA0140617940EA0120C5
:10D3E000A17908430206E0780006217940EA01406D
:10D3F000617940EA0120A179084300F47F4042EAC4
:10D400000022E078000605E0A4E07FE032E09EE044
:10D410007DE07DE0217940EA0141607941EA002028
:10D42000A179084300F47F0042EA1022E078010667
:10D43000207941EA0041607941EA0021A079014365
:10D4400042EA116001900198E86002F02BFB01288C
:10D4500001D00020F7E64FF480612046F3F758FB37
:10D4600001A8FBF721F88246524665A12046F3F752
:10D470006BF86EE0E0780006217940EA01406179BE
:10D4800040EA0120A17908430206E07800062179EC
:10D4900040EA0140617940EA0120A179084300F4A3
:10D4A0007F4042EA0022E0780006217940EA01410B
:10D4B000607941EA0020A179084300F47F0042EA44
:10D4C0001022E0780106207941EA0041607941EAC2
:10D4D0000020A179084342EA106002900298A860F7
:10D4E00002F0E0FA012801D00020ACE64FF48061A0
:10D4F0002046F3F70DFB02A8FAF7D6FF8246524604
:10D5000048A12046F3F720F823E000BF00BF00BF8A
:10D5100000BFE278A078813805F1100141F82020A1
:10D5200002F0C0FA012801D000208CE64FF480619F
:10D530002046F3F7EDFAA078813805F1100151F893
:10D540002030A27840A12046F2F7FEFF01E0002043
:10D5500079E601E0002076E6012074E64765742054
:10D5600053544D33322049502061646472657373A3
:10D570002069732025730A00EC5800204765742049
:10D5800053544D333220474154455741592061642B
:10D5900064726573732069732025780A00000000A7
:10D5A0004765742053544D3332204E45544D4153FA
:10D5B0004B20616464726573732069732025730A5C
:10D5C000000000004765742053544D3332206C69CD
:10D5D0007374656E20706F727420256420697320E7
:10D5E00025640A005365742053544D33322049504A
:10D5F00020616464726573732069732025730A0067
:10D600005365742053544D3332204741544557419C
:10D610005920616464726573732069732025730AED
:10D62000000000005365742053544D3332204E45A2
:10D63000544D41534B206164647265737320697368
:10D640002025730A000000005365742053544D33A5
:10D6500032206C697374656E20706F72742025645B
:10D660002069732025640A0070B504460D46002227
:10D670002946204600F002F870BD00002DE9F04771
:10D6800004460D46904600BF44B900BF1CA340F2BB
:10D69000DF1227A129A0F2F74BFF00BF00BF14B192
:10D6A000B5F5803F02D30120BDE8F0870DB9002019
:10D6B000FAE7AEB22089304480B2B04201DA0120EC
:10D6C000F2E794F80C9009F0800038B16068471BCD
:10D6D00004F11000874209D20120E5E7B8F1000FFC
:10D6E00002D06068471B01E00120DDE767606089C8
:10D6F000304460812089304420810020D4E700003C
:10D700002E2E2F4D6964646C6577617265732F549A
:10D71000686972645F50617274792F4C7749502F39
:10D720007372632F636F72652F706275662E63006C
:10D730007020213D204E554C4C0000004173736514
:10D740007274696F6E2022257322206661696C6590
:10D7500064206174206C696E6520256420696E20E8
:10D7600025730A002DE9FE4F82460E469046574625
:10D77000B8F1010F0AD0B8F1410F06D0B8F5C17F5A
:10D780000BD0B8F5207F7DD16AE000BF424631461C
:10D79000002000F037F90446AEE00024002002909B
:10D7A000B14600BF0C20FDF7F1FC054645B900F07D
:10D7B000A9FD14B1204600F06BFC0020BDE8FE8FEF
:10D7C000F81C20F00300C0F5147080B2484501DD5C
:10D7D000484605E0F81C20F00300C0F5147080B244
:10D7E00083460020CDE9008005F110003844C01CBC
:10D7F00020F003015B464A46284600F074FD00BF56
:10D80000287900F00300002808D000BF3CA34FF4A3
:10D81000807247A152A0F2F78BFE00BF00BF00BF8D
:10D82000F81C20F00300C0F51470002808D100BFD8
:10D8300033A34FF4817254A149A0F2F779FE00BFDF
:10D8400000BF0CB92C4601E0029805600295A9EBD7
:10D850000B001FFA80F90027B9F1000FA2DC4BE0A2
:10D86000F81C20F00301F01C20F00300084485B2EE
:10D8700005F110001FFA80F9F01C20F00300A84207
:10D8800006D800E02BE0F01C20F00300484501D949
:10D89000002093E74846FDF71DF904460CB9002027
:10D8A0008CE70020CDE9008004F110003844C01C52
:10D8B00020F0030133463246204600F014FD00BF3D
:10D8C000207900F0030040B100BF0DA34FF4917226
:10D8D0003AA123A0F2F72CFE00BF00BF0CE000BF6E
:10D8E00000BF07A340F227123FA11DA0F2F720FEC0
:10D8F00000BF00BF002061E700BF20465EE70000D8
:10D900002E2E2F4D6964646C6577617265732F5498
:10D91000686972645F50617274792F4C7749502F37
:10D920007372632F636F72652F706275662E63006A
:10D93000706275665F616C6C6F633A2070627566C9
:10D9400020712D3E7061796C6F61642070726F7010
:10D9500065726C7920616C69676E65640000000017
:10D96000417373657274696F6E202225732220667D
:10D9700061696C6564206174206C696E6520256442
:10D9800020696E2025730A00504255465F504F4F64
:10D990004C5F42554653495A45206D757374206259
:10D9A0006520626967676572207468616E204D4505
:10D9B0004D5F414C49474E4D454E5400706275666F
:10D9C0005F616C6C6F633A20706275662D3E7061AA
:10D9D000796C6F61642070726F7065726C79206110
:10D9E0006C69676E65640000706275665F616C6C7F
:10D9F0006F633A206572726F6E656F75732074790C
:10DA0000706500002DE9FC4107460D46144600BF35
:10DA1000412C0AD0012C08D000BF0EA34FF4A572F0
:10DA200018A11DA0F2F784FD00BF00BF0B20FDF779
:10DA3000ADFB064616B90020BDE8FC8100202B4650
:10DA40002A463946CDE90040304600F04CFC3046CD
:10DA5000F2E700002E2E2F4D6964646C65776172C9
:10DA600065732F54686972645F50617274792F4CCA
:10DA70007749502F7372632F636F72652F706275D1
:10DA8000662E6300696E76616C69642070627566EB
:10DA90005F74797065000000417373657274696F1B
:10DAA0006E2022257322206661696C656420617492
:10DAB000206C696E6520256420696E2025730A003C
:10DAC0002DE9FC5F05460C4617469846DDE90C9BA0
:10DAD000AA460AF1030020F003002044584502D969
:10DAE0000020BDE8FC9FB9F1000F06D00AF1030049
:10DAF00020F0030000EB090600E000260220234688
:10DB000022463146CDE90070404600F0ECFB40462D
:10DB1000E7E7000070B506460D4600BF0EB1002DC8
:10DB200009D100BF1BA340F2593226A133A0F2F75E
:10DB3000FFFC00BF70BD00BF344604E02089298986
:10DB400008442081246820680028F7D100BF20897C
:10DB50006189884208D000BF0EA340F2623231A131
:10DB600026A0F2F7E5FC00BF00BF00BF206840B16F
:10DB700000BF08A340F2633236A120A0F2F7D8FC20
:10DB800000BF00BF2089298908442081256000BF8B
:10DB9000D0E700002E2E2F4D6964646C65776172AA
:10DBA00065732F54686972645F50617274792F4C89
:10DBB0007749502F7372632F636F72652F70627590
:10DBC000662E6300286820213D204E554C4C2920AC
:10DBD000262620287420213D204E554C4C292028F3
:10DBE00070726F6772616D6D65722076696F6C61BE
:10DBF000746573204150492900000000417373652A
:10DC00007274696F6E2022257322206661696C65CB
:10DC100064206174206C696E6520256420696E2023
:10DC200025730A00702D3E746F745F6C656E203D25
:10DC30003D20702D3E6C656E20286F66206C6173F0
:10DC400074207062756620696E20636861696E2950
:10DC500000000000702D3E6E657874203D3D204E22
:10DC6000554C4C000146002002E0421C90B209686D
:10DC70000029FAD1704700002DE9F04180460E4698
:10DC80001446218932464046FFF76CFD074617B916
:10DC90000020BDE8F0812146384600F045F80546F1
:10DCA00000BF45B100BF05A340F224520FA114A04C
:10DCB000F2F73EFC00BF00BF3846EAE72E2E2F4D9C
:10DCC0006964646C6577617265732F546869726406
:10DCD0005F50617274792F4C7749502F7372632FA4
:10DCE000636F72652F706275662E63007062756671
:10DCF0005F636F7079206661696C65640000000085
:10DD0000417373657274696F6E20222573222066D9
:10DD100061696C6564206174206C696E652025649E
:10DD200020696E2025730A002DE9F04105460C4656
:10DD30000026002700BF25B11CB12889218988420F
:10DD40000CDA00BF44A340F2C9324FA15AA0F2F747
:10DD5000EFFB00BF6FF00F00BDE8F08100BF00BF18
:10DD60006889801B6189C91B884203D36089A0EB45
:10DD7000070802E06889A0EB06086268D1196A68A2
:10DD800090194246F2F745FE4644474400BF688971
:10DD9000B04208D200BF30A340F2D93250A146A011
:10DDA000F2F7C6FB00BF00BF00BF6089B84208D2CF
:10DDB00000BF29A340F2DA324FA13FA0F2F7B8FB2F
:10DDC00000BF00BF6089B84201D800272468688975
:10DDD000B04211D100262D6800BF65B95CB100BF0B
:10DDE0001DA34FF479724BA133A0F2F7A1FB00BF42
:10DDF0006FF00F00B0E700BF002C13D060892189BD
:10DE000088420FD100BF206858B100BF12A340F272
:10DE1000E93244A128A0F2F78BFB00BF6FF00500A8
:10DE20009AE700BF002D13D06889298988420FD155
:10DE300000BF286858B100BF07A340F2EE3239A1F5
:10DE40001DA0F2F775FB00BF6FF0050084E700BF6F
:10DE5000002C85D100207FE72E2E2F4D6964646C45
:10DE60006577617265732F54686972645F5061727F
:10DE700074792F4C7749502F7372632F636F7265DB
:10DE80002F706275662E6300706275665F636F70D7
:10DE9000793A20746172676574206E6F74206269CC
:10DEA0006720656E6F75676820746F20686F6C649B
:10DEB00020736F7572636500417373657274696F67
:10DEC0006E2022257322206661696C65642061746E
:10DED000206C696E6520256420696E2025730A0018
:10DEE0006F66667365745F746F203C3D20705F746D
:10DEF0006F2D3E6C656E00006F66667365745F66BD
:10DF0000726F6D203C3D20705F66726F6D2D3E6CB0
:10DF1000656E0000705F746F20213D204E554C4CA3
:10DF200000000000706275665F636F7079282920B9
:10DF3000646F6573206E6F7420616C6C6F772070F6
:10DF400061636B65742071756575657321000000F0
:10DF50002DE9F05F8046894616461D464FF0000ABF
:10DF6000D34600BFB8F1000F0BD100BF21A340F290
:10DF70000A422CA133A0F2F7DBFA00BF0020BDE873
:10DF8000F09F00BF00BFB9F1000F0AD100BF19A375
:10DF900040F20B4235A12BA0F2F7CAFA00BF0020D5
:10DFA000EDE700BF444620E035B16089A84203DCBC
:10DFB0006089281A85B217E06089401B87B2B74292
:10DFC00000DD37466268511909EB0A003A46F2F75C
:10DFD00020FD0BEB07001FFA80FB0AEB07001FFA7E
:10DFE00080FAF01B86B2002524680EB1002CDBD12C
:10DFF0005846C4E72E2E2F4D6964646C65776172B4
:10E0000065732F54686972645F50617274792F4C24
:10E010007749502F7372632F636F72652F7062752B
:10E02000662E6300706275665F636F70795F706102
:10E03000727469616C3A20696E76616C6964206201
:10E0400075660000417373657274696F6E202225D6
:10E050007322206661696C6564206174206C696E4E
:10E060006520256420696E2025730A00706275663C
:10E070005F636F70795F7061727469616C3A206977
:10E080006E76616C69642064617461707472000002
:10E090002DE9F0470446002C0ED100BF44B900BF63
:10E0A00038A34FF4377243A145A0F2F741FA00BFFD
:10E0B00000BF0020BDE8F08700265EE002F06AFAAB
:10E0C000824600BFA07B002808DC00BF2DA340F2E1
:10E0D000F12245A13AA0F2F72BFA00BF00BFA07BC6
:10E0E000401E00F0FF0884F80E80504602F07EFAD1
:10E0F000B8F1000F3FD12768207B00F00F05607B4F
:10E1000000F00200002814D0A14600BFD9F810008A
:10E11000002808D100BF1BA340F2FF2238A128A08D
:10E12000F2F706FA00BF00BF2046D9F81010884762
:10E130001DE0022D04D121460C20FCF759FF16E00A
:10E14000012D04D121460B20FCF752FF0FE01DB931
:10E150002046FCF711FB0AE000BF00BF09A340F214
:10E160000F3230A116A0F2F7E3F900BF00BF701C18
:10E17000C6B23C4600E0002400BF002C9ED13046D1
:10E1800098E700002E2E2F4D6964646C65776172EC
:10E1900065732F54686972645F50617274792F4C93
:10E1A0007749502F7372632F636F72652F7062759A
:10E1B000662E63007020213D204E554C4C0000001F
:10E1C000417373657274696F6E2022257322206615
:10E1D00061696C6564206174206C696E65202564DA
:10E1E00020696E2025730A00706275665F6672652D
:10E1F000653A20702D3E726566203E20300000009A
:10E2000070632D3E637573746F6D5F667265655FD5
:10E2100066756E6374696F6E20213D204E554C4CBF
:10E2200000000000696E76616C696420706275663A
:10E23000207479706500000070B5044625462946B3
:10E240000748FCF72DFF07480078012806D1002079
:10E250000449087004480068FEF724FF70BD000000
:10E2600028B10108F0000020F400002070B500BFC4
:10E2700002F090F90546002009490870284602F08E
:10E28000B5F900BF0748046806E0606F18B1204682
:10E2900003F0CCFE70BDE468002CF6D100BFF9E7B6
:10E2A000090200201C02002010B50446FFF7DEFF23
:10E2B00010BD70B504460D4601222946204600F0E7
:10E2C00001F870BD70B505460C461646002C04DA00
:10E2D0006142284600F040F970BD3246214628468A
:10E2E000FFF7CCF9F8E770B5DDE9044500260660D4
:10E2F00041600281438104734573012686730026C1
:10E30000C67370BD70B502F045F905460C48047837
:10E3100001200B490870284602F068F97CB900BF5B
:10E32000002108480AF078F940B102F033F90546B7
:10E33000002003490870284602F058F900BF70BD5C
:10E3400009020020A9E200082DE9F04106460F4627
:10E3500000BF002E08D100BF2CA34FF4CC7237A110
:10E360003CA0F2F7E5F800BF00BF3089B84201DCFD
:10E37000BDE8F0813089C01B1FFA80F83D46344665
:10E3800013E06089281A85B22089A0EB080020815B
:10E39000246800BF44B900BF1CA340F2AF1237A1EC
:10E3A0002CA0F2F7C5F800BF00BF6089A842E8DBE7
:10E3B000207B00F00F0000281BD16089A84218D0F4
:10E3C000607B00F00200002813D1A088001B2844C5
:10E3D00081B22046FCF7E4FC044600BF44B900BF0C
:10E3E0000AA340F2BD122BA11AA0F2F7A1F800BFB8
:10E3F00000BF658160892081206810B12068FFF727
:10E4000047FE0020206000BFB2E700002E2E2F4DF7
:10E410006964646C6577617265732F5468697264AE
:10E420005F50617274792F4C7749502F7372632F4C
:10E43000636F72652F706275662E63007062756619
:10E440005F7265616C6C6F633A207020213D204ED5
:10E45000554C4C00417373657274696F6E202225B0
:10E460007322206661696C6564206174206C696E3A
:10E470006520256420696E2025730A007062756628
:10E480005F7265616C6C6F633A207120213D204E94
:10E49000554C4C006D656D5F7472696D20726574CA
:10E4A00075726E65642071203D3D204E554C4C00C8
:10E4B00070B50446002C18D000BF02F06BF805467A
:10E4C000A07B401CA073284602F090F800BF00BF5C
:10E4D000A07B002808DC00BF04A340F242320FA159
:10E4E00013A0F2F725F800BF00BF70BD2E2E2F4DF0
:10E4F0006964646C6577617265732F5468697264CE
:10E500005F50617274792F4C7749502F7372632F6B
:10E51000636F72652F706275662E63007062756638
:10E5200020726566206F766572666C6F77000000FA
:10E53000417373657274696F6E20222573222066A1
:10E5400061696C6564206174206C696E6520256466
:10E5500020696E2025730A002DE9F04104460D461E
:10E5600000BF44B900BF18A340F24B2222A125A04E
:10E57000F1F7DEFF00BF00BF14B1B5F5803F02D355
:10E580000120BDE8F0810DB90020FAE7AEB200BF6E
:10E590006089B0420ADA00BF0BA340F2552223A1E2
:10E5A00018A0F1F7C5FF00BF0120EAE700BF6768C8
:10E5B0006068284460606089801B60812089801BBE
:10E5C00020810020DDE700002E2E2F4D6964646C51
:10E5D0006577617265732F54686972645F50617208
:10E5E00074792F4C7749502F7372632F636F726564
:10E5F0002F706275662E63007020213D204E554CB1
:10E600004C000000417373657274696F6E2022259F
:10E610007322206661696C6564206174206C696E88
:10E620006520256420696E2025730A00696E637277
:10E63000656D656E745F6D61676E69747564652084
:10E640003C3D20702D3E6C656E000000014611B906
:10E650000A48006800E00846024662B900BF502040
:10E6600072B680F31188BFF34F8FBFF36F8F62B61E
:10E6700000BF00BFFEE702F1340070473801002000
:10E6800070B50446002500BF20684068002808D007
:10E6900000BF1FA340F265222AA132A0F1F748FF74
:10E6A00000BF00BF2068007800F0F000102817D0ED
:10E6B000202821D128460AF097FA2168486020686E
:10E6C000406860B120680078222803D101202168C9
:10E6D0004968087422682D4950680AF0B9FA0EE0BA
:10E6E000284604F073FD216848602068406810B136
:10E6F000206801F0D1FB02E0FA20207170BD00BF5C
:10E700002068406808B9FF20207100BFF6E70000CC
:10E710002E2E2F4D6964646C6577617265732F547A
:10E72000686972645F50617274792F4C7749502F19
:10E730007372632F6170692F6170695F6D73672EEB
:10E74000630000007063625F6E65773A20706362F9
:10E7500020616C726561647920616C6C6F636174B7
:10E7600065640000417373657274696F6E202225C1
:10E770007322206661696C6564206174206C696E27
:10E780006520256420696E2025730A00D1F80008F1
:10E790002DE9F041044600BF3B480068844208D29E
:10E7A00000BF3AA340F2DF1244A14AA0F1F7C0FE35
:10E7B00000BF00BF00BF51480068844208D300BFBB
:10E7C00032A34FF4F0724EA142A0F1F7B1FE00BFA8
:10E7D00000BF00BF2079002808D000BF2BA340F263
:10E7E000E1124EA13BA0F1F7A3FE00BF00BF00BFA6
:10E7F0002088B0F5205F08D900BF24A34FF4F2723F
:10E800004DA134A0F1F794FE00BF00BF208800F0B6
:10E810009DFE0546AC4219D02879B8B93748006842
:10E82000854213D04F480068A84201D14D4804608A
:10E83000288820802888B0F5205F07D02046FCF784
:10E84000A7FA0746288800F081FE4780608800F01C
:10E850007DFE0646A64215D0307998B94148006839
:10E86000A04201D13F480660208830802088B0F562
:10E87000205F07D03046FCF78BFA0746208800F06F
:10E8800065FE4780BDE8F081BC0100202E2E2F4D93
:10E890006964646C6577617265732F54686972642A
:10E8A0005F50617274792F4C7749502F7372632FC8
:10E8B000636F72652F6D656D2E630000706C7567F8
:10E8C0005F686F6C65733A206D656D203E3D207208
:10E8D000616D0000417373657274696F6E2022254B
:10E8E0007322206661696C6564206174206C696EB6
:10E8F0006520256420696E2025730A00C001002070
:10E90000706C75675F686F6C65733A206D656D201C
:10E910003C2072616D5F656E64000000706C75670D
:10E920005F686F6C65733A206D656D2D3E7573651C
:10E9300064203D3D20300000706C75675F686F6C2F
:10E9400065733A206D656D2D3E6E657874203C3D93
:10E95000204D454D5F53495A455F414C49474E450F
:10E9600044000000C801002070B505460E462C4644
:10E9700000BF44B900BF21A34FF4B5722CA130A051
:10E98000F1F7D6FD00BF00BF6078012804D1012156
:10E990002046FBF7EDF911E0607804280ED1206ADB
:10E9A00040B1206A407A28B1206A407A401EC1B244
:10E9B000206A417201212046FAF7BEFD207F00F057
:10E9C0001000C8B16068B8B16068B0F86400B0F514
:10E9D000866F11DB6068B0F8660005280CDA00BFAE
:10E9E000207F00F0EF00207700BF606A20B1002296
:10E9F00002212046636A9847002070BD2E2E2F4DBD
:10EA00006964646C6577617265732F5468697264B8
:10EA10005F50617274792F4C7749502F7372632F56
:10EA20006170692F6170695F6D73672E630000000C
:10EA3000636F6E6E20213D204E554C4C000000004F
:10EA4000417373657274696F6E202225732220668C
:10EA500061696C6564206174206C696E6520256451
:10EA600020696E2025730A002DE9F04105460E4607
:10EA70001C4807681C480068001D0AF0DBF950B903
:10EA80001948006890F82C1001208840174909683F
:10EA9000814316480160681C38B936B112480168D4
:10EAA000091D13480AF054FA1AE07C190E48006850
:10EAB0004460BC4207D20C480168091D0D4800683B
:10EAC0000AF02CFA0CE008480168091D0A480068A1
:10EAD0000AF024FA09480068844201D20748046019
:10EAE000BDE8F0814C0100203801002050010020D9
:10EAF0004C5A0020400100203C0100206801002009
:10EB000010B504460AF030FA24480068401C234936
:10EB100008602348006840B921480460084600683E
:10EB200001280DD100F048FA0AE01E48006838B903
:10EB30001B480068C06AE16A884201D8184804602E
:10EB400019480068401C184908600846006860645D
:10EB500094F82C100120884014490968084313498F
:10EB60000860E16A01EB8101114A02EB8100211D7D
:10EB70000AF0EEF90AF026FA0A48006868B1084877
:10EB80000068C06AE16A884207D24FF080500949A4
:10EB90000860BFF34F8FBFF36F8F10BD4801002097
:10EBA00038010020540100206401002050010020A1
:10EBB0007059002004ED00E008B50AF0D5F91248BC
:10EBC0000068E8B911480AF099F911480AF096F975
:10EBD0000E48104908600E480F49086000200F4B8E
:10EBE0000F4A0C2100900A200BF084F806490860B7
:10EBF0000846006820B10BA1034800680AF0A4FA97
:10EC00000AF0E0F908BD00007C010020605A0020F5
:10EC1000745A00207401002078010020885A0020D6
:10EC2000D85A0020546D72510000000010B516E053
:10EC30000AF09AF90C48C068C468201D0AF0FAF876
:10EC40000A480068401E0949086009480068401EDB
:10EC5000074908600AF0B6F9204600F05FF804485A
:10EC600000680028E4D110BD385A00204801002077
:10EC70004401002070B504460D46206C70B1216C33
:10EC8000E0680144E160D4E90210884201D32168C0
:10EC9000E1602846226CE168F1F7BBFE70BD2DE90A
:10ECA000F04104460F4615464FF00008A66B206C55
:10ECB00048B9206800282CD1A0680BF00BFF8046D3
:10ECC0000020A06025E07DB93946226C6068F1F72C
:10ECD000A0FE216C606808446060D4E901018842AC
:10ECE00017D32068606014E03946226CE068F1F7C1
:10ECF00090FE216CE068411AE1602168E06888427A
:10ED000003D2216CA068411AE160022D01D106B145
:10ED1000761E701CA0634046BDE8F08110B5044625
:10ED200094F8590030B9206B0AF06CF920460AF0CB
:10ED300069F91CE094F85900012803D120460AF033
:10ED400061F914E094F85900022801D1012000E093
:10ED5000002060B900BF502072B680F31188BFF365
:10ED60004F8FBFF36F8F62B600BF00BFFEE710BDCD
:10ED700001464A6A22B10A6B1268C2F1070000E03C
:10ED8000002070470146084A126812680AB9012239
:10ED900000E000220A600A6822B9034A1268D268B9
:10EDA000106800E0002070477401002030B54FF477
:10EDB0000033174800F007042CB1C01D20F00700F5
:10EDC000134C041B1B1B0246124C22600024114DE5
:10EDD0006C60D018083820F007000F4C2060002429
:10EDE0000D4D2D686C600C4D2D682C601146441A39
:10EDF0004C60094C24680C60084D4C682C60084D30
:10EE00004C682C604FF00044064D2C6030BD000073
:10EE1000505B002088010020900100209801002014
:10EE2000940100209C01002000BFFFF7FFFE064870
:10EE300000680128F9D94FF0805004490860BFF3F9
:10EE40004F8FBFF36F8FF0E77059002004ED00E0A3
:10EE500010B5044654B10020A06020600021E1609C
:10EE600000231A46194620460BF00CF810BD2DE978
:10EE7000F04106460D4617469846069C0DB924609B
:10EE800000E02760E6632564012120460AF0ACFF1C
:10EE900084F84C80BDE8F0812DE9F05F82460E4693
:10EEA00090469B460A9F0C9C4FEA8801A522206B46
:10EEB000F1F726FEA8F10100216B01EB800929F092
:10EEC000070909F0070008B9012000E0002060B937
:10EED00000BF502072B680F31188BFF34F8FBFF38D
:10EEE0006F8F62B600BF00BFFEE786B1002507E066
:10EEF000715D04F134004155705D00B902E06D1C94
:10EF0000102DF5D300BF00214320015502E0002061
:10EF100084F83400072F00D30627E762E764002057
:10EF20002065201D09F0F7FF04F1180009F0F3FF38
:10EF30002461C7F10700A06164620020606584F865
:10EF400058005A465146484600F0BCFB20600B98DA
:10EF500008B10B980460BDE8F09F2DE9F047064624
:10EF60000D4617469846DDE908940DB1012000E0F2
:10EF7000002060B900BF502072B680F31188BFF343
:10EF80004F8FBFF36F8F62B600BF00BFFEE78CB13B
:10EF9000FFF712FE2660A561C4F81C80C4F820901B
:10EFA000201D09F0B8FF2FB194F8280040F00400AC
:10EFB00084F82800BDE8F08710B5002407E004EBD2
:10EFC00084010F4A02EB810009F098FF641C072CB2
:10EFD000F5D30C4809F092FF0B4809F08FFF0B485E
:10EFE00009F08CFF0A4809F089FF0A4809F086FFFA
:10EFF00004480949086004480849086010BD000039
:10F0000070590020FC590020105A0020245A00207A
:10F01000385A00204C5A00203C01002040010020BA
:10F0200010B50146164800E0006803688B42FBD328
:10F030000246436813448B4204D143684C6823441E
:10F04000436001460A464B6813440468A34211D149
:10F050000C4C03682468A34208D04B6804686468B9
:10F0600023444B6003681B680B6005E0054B1B687D
:10F070000B6001E003680B60884200D0016010BDA6
:10F0800088010020900100202DE9F04104460D4642
:10F0900016461F464FF0000865602461B5420CD843
:10F0A000F01BA169884202D34FF0010811E0211D35
:10F0B0000948006809F032FF0BE0BE4204D2BD42AD
:10F0C00002D34FF0010804E0211D0448006809F054
:10F0D00025FF4046BDE8F081780100207401002042
:10F0E00070B5054609F040FFA86B08B9012400E09F
:10F0F000002409F067FF204670BD70B5054609F091
:10F1000033FFA86BE96B884201D1012400E00024A1
:10F1100009F058FF204670BDF8B505460F461B485C
:10F120000068C068C468201D09F084FE94F82800B7
:10F1300000F00400F8B1A06941192B463A46204678
:10F14000FFF7A2FFE8B1002003462A4601460090DF
:10F1500020460BF0F3FE064666B900BF502072B69B
:10F1600080F31188BFF34F8FBFF36F8F62B600BF7C
:10F1700000BFFEE705E094F8280020F0010084F8C5
:10F1800028002046216A8847F8BD0000740100204D
:10F1900070B586B08FE003980028FBDB059C6069A2
:10F1A00008B9012000E0002010B9201D09F042FE3E
:10F1B00002A800F0E1F8054603980A2879D2DFE8B2
:10F1C00000F00905073B436706083C4400BF00BF49
:10F1D00000BF00BF94F8280040F0010084F8280028
:10F1E0000498A269811803462A462046FFF74CFF7F
:10F1F00008B32046216A884794F8280000F00400EC
:10F20000C8B1002000900498A16942180023194653
:10F2100020460BF093FE064666B900BF502072B63A
:10F2200080F31188BFF34F8FBFF36F8F62B600BFBB
:10F2300000BFFEE700BF3DE000BF94F8280020F0CB
:10F24000010084F8280035E000BF94F8280040F061
:10F25000010084F828000498A061A06908B1012089
:10F2600000E0002060B900BF502072B680F3118822
:10F27000BFF34F8FBFF36F8F62B600BF00BFFEE7D3
:10F28000A06941192B462A462046FFF7FDFE11E0F2
:10F2900094F8280000F0020020B9204609F0B2FEE0
:10F2A00006E006E094F8280020F0010084F8280029
:10F2B00000E000BF00BF002203A9044800680AF074
:10F2C000B9FF00287FF467AF06B070BD7C01002055
:10F2D000F8B505460C460AF013FA684600F04CF8FB
:10F2E0000646009820BB44B9B54206D80BF00CFD89
:10F2F00031462846FFF710FF1CE03CB10E4800687D
:10F30000006808B9012000E000200446A91B22463D
:10F310000A48006809F062FF0BF0F6FC50B94FF0A4
:10F32000805007490860BFF34F8FBFF36F8F01E034
:10F330000BF0EAFCF8BD0000780100207C01002001
:10F3400004ED00E00A490968096809B9012100E0F3
:10F35000002121B14FF0FF31064A116006E0044957
:10F360000968C968C868034A4168116070470000AD
:10F370003C0100206801002070B504460BF0F4FA4F
:10F38000054607480068854204D200F00BF80120CA
:10F39000206001E00020206001480560284670BD23
:10F3A000840100202DE9F84336E026480068C06853
:10F3B000056824480068C068C468201D09F03AFD4B
:10F3C0002046216A884794F8280000F0040018B30A
:10F3D000A0694619AE4207D966602461211D19480B
:10F3E000006809F09BFD17E0002003462A4601460D
:10F3F000009020460BF0A2FD074667B900BF5020E1
:10F4000072B680F31188BFF34F8FBFF36F8F62B670
:10F4100000BF00BFFEE700BF0A480068006808B9E7
:10F42000012000E000200028BFD00648D0F800806E
:10F4300005480068034908600348C0F80080BDE83B
:10F44000F883000074010020780100201048006853
:10F45000401C08B9012000E0002060B900BF502026
:10F4600072B680F31188BFF34F8FBFF36F8F62B610
:10F4700000BF00BFFEE700BF502072B680F31188C6
:10F48000BFF34F8FBFF36F8F62B600BF00BFFEE7C1
:10F49000A001002010B50346002022B903EA0104B0
:10F4A00034B1012004E003EA01048C4200D10120C0
:10F4B00010BD08B500BF6846FFF764FC044620464F
:10F4C0000099FFF705FFFFF763FEF4E770B5044608
:10F4D00009F04AFD94F9455010E0606A08B901202E
:10F4E00000E0002038B904F124000BF0BFFB18B194
:10F4F00009F052FF00E003E0681E45B2002DECDC8D
:10F5000000BFFF2084F8450009F05CFD09F02CFDE8
:10F5100094F9445010E0206908B9012000E000206F
:10F5200048B904F110000BF0A1FB08B109F034FF59
:10F53000681E45B200E001E0002DECDC00BFFF20BA
:10F5400084F8440009F03EFD70BD00000146024809
:10F550000068084470470000BC0100202DE9F0411C
:10F5600004464FF000080AF0CBF84948006808B993
:10F57000FFF71CFC47480068204000286FD1E4B129
:10F58000083404F00700C0B104F00700C0F108001F
:10F59000044404F0070008B9012000E0002060B92D
:10F5A00000BF502072B680F31188BFF34F8FBFF3B6
:10F5B0006F8F62B600BF00BFFEE7002C4FD0364809
:10F5C000006884424BD8354E3046056801E02E462F
:10F5D0002D686868A04202D228680028F7D12C481C
:10F5E000006885423BD0306800F108082868306028
:10F5F0006868001B10281BD92F1907F0070008B9ED
:10F60000012000E0002060B900BF502072B680F3F6
:10F610001188BFF34F8FBFF36F8F62B600BF00BF7B
:10F62000FEE76868001B78606C603846FFF7F8FCFE
:10F63000194968680968081A174908600846006887
:10F6400017490968884203D21348006814490860C2
:10F6500010496868096808436860002028600BF05A
:10F6600053FB08F0070008B9012000E0002060B952
:10F6700000BF502072B680F31188BFF34F8FBFF3E5
:10F680006F8F62B600BF00BFFEE74046BDE8F08165
:10F69000900100209C01002094010020880100209E
:10F6A000980100200648006830B10549096801F159
:10F6B0005000096D491C0160014800687047000056
:10F6C00038010020001F4FF080730360001F21F0FD
:10F6D00001030360001F054B036014380260001F24
:10F6E0006FF0020303602038704700004DF40008FB
:10F6F00070B504460D46084EF3F7F4FC002004E014
:10F7000031782154761C411C88B2A842F8D3F3F713
:10F710008DFC012070BD000000000C082DE9F047B1
:10F7200006460F4615469A4600BF002F08D100BF77
:10F7300030A34FF496723CA144A0F0F7F9FE00BF4D
:10F7400000BF00BF002E08D100BF2AA340F22D1237
:10F7500048A13EA0F0F7ECFE00BF00BF00BFBAF129
:10F76000000F08D000BF23A34FF4977249A137A020
:10F77000F0F7DEFE00BF00BF34461CB96FF0050095
:10F78000BDE8F08700BF6068B84208D000BF19A389
:10F7900040F2351245A12DA0F0F7CAFE00BF00BF10
:10F7A00004F1100000F096FF48B935B129893846B8
:10F7B00006F0C6F92846FEF76BFC0020E0E71DB115
:10F7C000A846B5F8089003E0DFF800814FF0000983
:10F7D000414604F1100000F06EFF10B14FF0FF3011
:10F7E000CEE7606A20B14A4600212046636A984706
:10F7F0000020C5E72E2E2F4D6964646C6577617219
:10F8000065732F54686972645F50617274792F4C0C
:10F810007749502F7372632F6170692F6170695F30
:10F820006D73672E63000000726563765F746370AA
:10F83000206D757374206861766520612070636245
:10F8400020617267756D656E7400000041737365A9
:10F850007274696F6E2022257322206661696C655F
:10F8600064206174206C696E6520256420696E20B7
:10F8700025730A00726563765F746370206D75731B
:10F8800074206861766520616E20617267756D65B0
:10F890006E74000065727220213D204552525F4F08
:10F8A0004B20756E68616E646C656400726563768A
:10F8B0005F7463703A207265637620666F7220779A
:10F8C000726F6E67207063622100000092B10108C0
:10F8D0002DE9F05F0746884616469946DDF828B0C0
:10F8E00000BFB8F1000F07D100BF2DA3E52239A159
:10F8F00041A0F0F71DFE00BF00BF00BF002F07D1E1
:10F9000000BF27A3E62246A13BA0F0F711FE00BFEF
:10F9100000BF3D4625B93046FEF7BAFBBDE8F09F73
:10F9200000BF6868404507D000BF1DA3EE2244A178
:10F9300031A0F0F7FDFD00BF00BF05F1100000F0A1
:10F94000C9FE18B93046FEF7A3FBE7E70620FBF730
:10F950001DFC04461CB93046FEF79AFBDEE7266024
:10F960006660B9F1000F01D1002001E0D9F8000074
:10F97000A060A4F80CB0B6F808A0214605F110006C
:10F9800000F099FE18B12046FBF7A2FDC6E7686AB1
:10F9900020B15246002128466B6A984700BFBDE758
:10F9A0002E2E2F4D6964646C6577617265732F54D8
:10F9B000686972645F50617274792F4C7749502F77
:10F9C0007372632F6170692F6170695F6D73672E49
:10F9D00063000000726563765F756470206D7573F7
:10F9E00074206861766520612070636220617267AF
:10F9F000756D656E74000000417373657274696F94
:10FA00006E2022257322206661696C656420617412
:10FA1000206C696E6520256420696E2025730A00BC
:10FA2000726563765F756470206D757374206861AC
:10FA3000766520616E20617267756D656E74000079
:10FA4000726563765F7564703A20726563762066CE
:10FA50006F722077726F6E67207063622100000002
:10FA60002DE9F04105460E46DFF83480F6F7CEFA70
:10FA7000F3F738FB00240CE02F5D3A4600234146A3
:10FA80001846F3F7DDFA10B10020BDE8F081601CE4
:10FA900084B2B442F0D3F3F7C9FA0120F5E70000CD
:10FAA00000000C0810B518210448FFF7D9FF012801
:10FAB00001D0002010BD0120FCE7000098020020CA
:10FAC000F0B5BBB007460025642122A8F1F742F843
:10FAD000642109A8F1F73EF82F48006808B93BB047
:10FAE000F0BDF7F797FD0446D4E90401CDE906011E
:10FAF000227AB4F90600002803DAB4F9060040427D
:10FB000001E0B4F90600B4F90610002901DB2B234B
:10FB100000E02D23B4F90410002903DAB4F904102D
:10FB2000494201E0B4F90410CDE90213CDE9040221
:10FB3000B4F90400002801DB2B2100E02D216088AE
:10FB4000CDE90001238815A215A109A8F0F7FCFC56
:10FB500009A8F0F73FFF064609A81BA31CA21DA198
:10FB6000CDE9006022A8F0F7EFFC22A8F0F732FF01
:10FB700085B20A222846691C8DB222A90A540D2298
:10FB80002846691C8DB222A90A54294622A809F0E8
:10FB900007FE00BFA3E700002C0000207065720084
:10FBA00025732025303564202530356420256325D4
:10FBB00030346420256325303464202564202530CA
:10FBC00031366C6C750000006461746100000000E7
:10FBD00073300000257320257320256420257300D1
:10FBE0002DE9F04104460E4617463A4621461CA030
:10FBF000F0F79EFC002505E0715D21A0F0F798FC70
:10FC0000681C85B2BD42F7DB1FA0F0F791FC012C08
:10FC100004D0022C1DD0032C1DD11BE00A233A4630
:10FC200031461A48F4F708FD002802DD18A0F0F765
:10FC30007FFC64233A4631461448F4F777FC0028E9
:10FC400003DD18A0F0F774FC02E01AA0F0F770FCD6
:10FC500002E001E000E000BF00BF0120BDE8F0814C
:10FC60005061737468726F7567682053657269615B
:10FC70006C202564205B25645D202D3E2000000063
:10FC800025303278200000000A0D00001403002007
:10FC90004661696C205472616E736D6974740A0DEB
:10FCA000000000004661696C2052656365697665F5
:10FCB0000A0D00004F4B20526563656976653D3D36
:10FCC0003D3D3D3D3D3D3D3D3D3D3D3D3D3D3D3D64
:10FCD0003D3E0A0D000000002DE9F04105460F46AB
:10FCE00016462C4600BF44B900BF1BA340F2931236
:10FCF00026A12AA0F0F71CFC00BF00BF44B3607827
:10FD0000012804D101212046FAF732F806E0607894
:10FD1000042803D101212046F9F70EFC6068B8B130
:10FD20006068B0F86400B0F5866F11DB6068B0F809
:10FD3000660005280CDA00BF207F00F0EF00207776
:10FD400000BF606A20B1324602212046636A9847AC
:10FD50000020BDE8F08100002E2E2F4D6964646CF8
:10FD60006577617265732F54686972645F50617260
:10FD700074792F4C7749502F7372632F6170692FFC
:10FD80006170695F6D73672E63000000636F6E6E54
:10FD900020213D204E554C4C0000000041737365FE
:10FDA0007274696F6E2022257322206661696C650A
:10FDB00064206174206C696E6520256420696E2062
:10FDC00025730A002DE9FF4704460D4600200190E7
:10FDD00002900390E41C042220A12046F0F7CEFDFF
:10FDE00068B9641D2046F0F79DFD86B2A41C32461A
:10FDF00021462846FFF7F4FE04B0BDE8F087042250
:10FE000018A12046F0F7BAFD20BB641D2046F0F78C
:10FE100089FD86B2324615A101A8F0F795FB01A82D
:10FE2000F0F7D8FD0444641C2046F0F77BFDC7B210
:10FE3000A41C2046F0F776FD00F0FF08A41C94F8FF
:10FE4000009043463A4631462846CDF80090F5F7F3
:10FE50002BFED1E700BF0120CEE700006461746192
:10FE6000000000006D6F6465000000002564000064
:10FE70000246022905DA044800EBC1004260012075
:10FE800070470020FCE7000088020020014908605C
:10FE9000704700003000002070B5044665682146B8
:10FEA000284600F0B9FF0949284605F091FD0849A8
:10FEB000284606F099FB02220649284604F0A0FADB
:10FEC0000549284601F0C8FE70BD00001DF7000876
:10FED000D9FC000869E900082160000894B0804658
:10FEE00014210FA8F0F736FE14210AA8F0F732FE0D
:10FEF0000025002600270020099008900790039015
:10FF00000490059006900290002481468246834624
:10FF10000190CDF82080F7F749FB814600230222AB
:10FF2000194608980AF070FC17E14FF0FF320FA94C
:10FF30008A4800680AF07EF9012874D10F9D002DCF
:10FF400053D0012D70D0042D6FD1109E0021844814
:10FF5000006809F071FC83465846F5F753FC0446E7
:10FF60000120A04000EA0B0028B121467DA0F0F757
:10FF7000DFFA002734E0FF2C31D009F1100050F8EF
:10FF800024202346314684A0F0F7D2FA22468DA1E0
:10FF900003A8F0F7D9FA00204FF4806332460090AE
:10FFA0008C48016803A800F0EBFB48B909F1100088
:10FFB00050F82410224688A0F0F7BAFA002700E093
:10FFC00001274FF0FF300090012000FA04F10023D8
:10FFD0001A466348006809F0DBFC834600E000270E
:10FFE00006200A900B960C978BE0109E0021844807
:10FFF000006809F021FC82465046F5F703FC0446F0
:020000040801F1
:100000000120A04000EA0A0028B121467DA0F0F7B7
:100010008FFA00272EE05046F5F7F4FB0446FF2C3C
:1000200004D1002726E093E029E066E0224685A17E
:1000300003A8F0F789FA4FF0FF304FF4806332469F
:1000400000908448016803A800F09AFB20B982A0C0
:10005000F0F76EFA002700E001274FF0FF30009024
:10006000012000FA04F100231A466548006809F0EF
:100070008FFC824602200A900B960C9741E0109864
:100080000290119809900298FBF74CFCE8B902988D
:10009000FBF7B0FCA0B90998FEF7D8FA014600902A
:1000A00078A0F0F745FA0998FDF78BF807900798C4
:1000B00008B901270DE077A0F0F73AFA002708E029
:1000C0007DA0F0F735FA002703E083A0F0F730FABF
:1000D00000270298F7F784FA0446FF2C04D000208A
:1000E000854941F8240003E084A0F0F721FA0027B5
:1000F00003200A900B960C9703E087A0F0F718FAFC
:1001000000BF00BF012D05D1012F00D125E089A03E
:10011000F0F70EFA012D00D01DB98F48006801904C
:1001200008E0042D01D0052D03D18C480068019012
:1001300000E000BF019860B100231A460AA90198A7
:1001400009F0A0FE012804D085A0F0F7F1F900E045
:1001500000BF0120FCF744FE00BFE6E6C00000201F
:10016000D00000205741524E494E473A206C6973E7
:1001700074656E506F7274546864537461747573EF
:10018000426974203D3E2025642073686F756C645D
:1001900020626520300A0000637265617465207416
:1001A0006864206C697374656E20706F72742028A7
:1001B0006F626A203078257829202564205B2564C9
:1001C0005D0A00006C706F72745F7468645F256410
:1001D00000000000D80000204572723A2073797345
:1001E0005F7468726561645F6E6577202564205B6B
:1001F00025645D204661696C6564210A0000000089
:10020000CC0000205741524E494E473A20434845C2
:10021000434B5F424954206C697374656E506F7232
:1002200074546864537461747573426974203D3EFC
:100230002025642073686F756C6420626520300A25
:1002400000000000636C69656E745F7468645F250C
:1002500064000000D40000204552523A20437265E9
:10026000617465207463705F636C69656E745F743C
:100270006872656164204661696C65642121210AA8
:1002800000000000434C4F5345203D3E2025730A9B
:10029000000000004552523A206F73546872656145
:1002A000645465726D696E617465206661696C6520
:1002B000642121210A0000004552523A206E6574E3
:1002C000636F6E6E5F64656C657465206661696CF2
:1002D00065642121210A00004552523A206E65745E
:1002E000636F6E6E5F636C6F7365206661696C65CA
:1002F000642121210A000000000000204552523AEA
:100300002067657420696E646578206661696C6534
:10031000642121210A0000004552523A204D6573A4
:100320007361676520496E76616C69642121210AD9
:10033000000000004552523A206F735468726561A4
:10034000645465726D696E617465204661696C659F
:10035000642121210A000000C4000020C800002000
:100360004572726F723A2078517565756553656E86
:100370006420715265706C79546864537076436C74
:1003800069656E74206661696C65642121210A00CB
:1003900000B503461846F4F7ABF900BD00B50346B7
:1003A0001846F4F7A5F900BD70B504460D462A4677
:1003B000214602A0F0F7BCF8012070BD53776974A4
:1003C0006368202564202D3E2025640A0D0000006E
:1003D00070B5B4B064211BA8F0F7BCFB642102A87F
:1003E000F0F7B8FBF7F7DEF80546344934A0F0F72C
:1003F0009FF82879002801DD33A000E033A00346F0
:1004000034A236A102A8F0F79FF802A8F0F7E2FAAA
:10041000064602A833A335A235A1CDE900601BA88A
:10042000F0F792F81BA8F0F7D5FA84B20A2220461A
:10043000611C8CB21BA90A540D222046611C8CB28F
:100440001BA90A5421461BA809F0AAF964211BA87C
:10045000F0F780FB642102A8F0F77CFB68790028A4
:1004600001DD19A000E019A0034624A21BA102A8E7
:10047000F0F76AF802A8F0F7ADFA064602A819A349
:100480001AA21BA1CDE900601BA8F0F75DF81BA81C
:10049000F0F7A0FA84B20A222046611C8CB21BA994
:1004A0000A540D222046611C8CB21BA90A54214615
:1004B0001BA809F075F9012034B070BDD8B001084F
:1004C00025732E2E2E0D0A006F6B00006661696C7D
:1004D00000000000612073796E0000002573202564
:1004E000730000006461746100000000733000005C
:1004F00025732025732025642025730065207379DA
:100500006E000000F0B587B004460D461646FCF7B5
:1005100078FC0746AEB1324601A82168FCF79CFC86
:1005200001A807C804AB07C30498102806D1059892
:100530002860FCF766FCC01B07B0F0BD4FF0FF3031
:10054000FAE74FF0FF3201A82168FCF785FC01A80B
:1005500007C804AB07C305982860FCF752FCC01B12
:10056000EAE730B587B004460D46002201A82168AD
:10057000FCF772FC01A807C804AB07C30498102855
:1005800004D105982860002007B030BD4FF0FF303F
:10059000FAE7000010B54FF0FF3103480068FCF7A0
:1005A0001BFD012010BD00007802002070B504463C
:1005B0000D46FCF726FC06465DB129462068FCF78F
:1005C00099FD18B9FCF71DFC801B70BD4FF0FF3082
:1005D000FBE700BF4FF0FF312068FCF78BFD0028E0
:1005E000F8D1FCF70EFC801BEFE7000010B50446C5
:1005F00002480068FCF7C8FC10BD0000780200202B
:100600002DE9F04100F08BF8074600BF0F48046861
:100610000CB9BDE8F0816068381AB0F1004F01D321
:10062000012000E0002000B1F3E7084920680860DD
:10063000A568E66806496068086021460A20FAF75E
:10064000D7FC0DB13046A847E0E700005402002077
:100650005802002010B50348FCF789FC02490860E5
:1006600010BD0000D8B201087802002010B5044681
:100670002068FCF76FFC2068FCF7E1FB10BD000070
:100680007FB504460D46094B0FCB8DE80F00009552
:1006900000216846FCF7BFFB2060206818B94FF0C6
:1006A000FF3004B070BD0020FBE70000E0B201089D
:1006B00000210160704770B505460E4600223146A4
:1006C0002868FCF717FC08B9002401E04FF0FF345C
:1006D000204670BD0146086808B900207047012017
:1006E000FCE710B504464FF0FF312068FCF774FCBE
:1006F00010BD1CB504460020009001906846FCF730
:1007000036FC2060206810B94FF0FF301CBD00207F
:10071000FCE710B504462068FCF736FC10BD10B5A8
:10072000F2F706FE10BD10B504462068FCF7ADFCDC
:1007300010BD7CB504460D460020009001900121BB
:100740006846FCF77DFC2060206810B94FF0FF3050
:100750007CBD1DB900212068FCF7CCFC0020F7E728
:1007600000210160704710B504462068FCF79AFC30
:1007700010BD0146086808B9002070470120FCE759
:100780002DE9F04188B004460D4616461F46DDF8B7
:1007900038801C2101A8F0F7DDF9019402950FFAC9
:1007A00088F0ADF80C000597314601A8FCF7D6FC9F
:1007B00008B0BDE8F08100002DE9F04104460E4686
:1007C000174600BFB4F1804F08D300BF09A340F221
:1007D000291215A122A0EFF7ABFE00BF00BFFFF763
:1007E0009EFF05193A463146284600F04DF8BDE80F
:1007F000F08100002E2E2F4D6964646C6577617264
:1008000065732F54686972645F50617274792F4CFC
:100810007749502F7372632F636F72652F74696D00
:10082000656F7574732E630054696D656F75742000
:1008300074696D6520746F6F206C6F6E672C206D0E
:100840006178206973204C5749505F55494E5433A5
:10085000325F4D41582F34206D7365637300000083
:10086000417373657274696F6E202225732220664E
:1008700061696C6564206174206C696E6520256413
:1008800020696E2025730A002DE9F04106460F46C7
:1008900090460A20FAF77AFC0446002C0CD100BFDF
:1008A00007D100BF20A3BE222CA13CA0EFF740FE41
:1008B00000BF00BFBDE8F08100202060A760C4F841
:1008C0000C8066603F48006810B93E480460F1E75C
:1008D0003C49606809684968401AB0F1004F01D38B
:1008E000012000E0002028B136480068206035482B
:1008F000046017E03348056811E0286850B160686B
:1009000029684968401AB0F1004F01D3012000E086
:10091000002018B1286820602C6002E02D68002DAE
:10092000EBD100BF00BFC5E72E2E2F4D6964646C6C
:100930006577617265732F54686972645F50617284
:1009400074792F4C7749502F7372632F636F7265E0
:100950002F74696D656F7574732E63007379735F9F
:1009600074696D656F75743A2074696D656F75741F
:1009700020213D204E554C4C2C20706F6F6C204D2B
:10098000454D505F5359535F54494D454F55542081
:10099000697320656D7074790000000041737365A0
:1009A0007274696F6E2022257322206661696C65FE
:1009B00064206174206C696E6520256420696E2056
:1009C00025730A005402002010B5012408E00649EE
:1009D00001EBC40251F834000449FFF7EDFE641C3A
:1009E000032CF4D310BD0000B4B2010879920008C2
:1009F00070B51548006810B94FF0FF3070BDFFF7B3
:100A00008EFE0446104800684068001BB0F1004F9D
:100A100001D3012000E0002008B10020EEE70A48E1
:100A200000684068051B00BFB5F1004F08D300BF48
:100A300006A34FF4DC7212A116A0EFF779FD00BFF8
:100A400000BF2846DAE70000540200202E2E2F4D6A
:100A50006964646C6577617265732F546869726448
:100A60005F50617274792F4C7749502F7372632FE6
:100A7000636F72652F74696D656F7574732E630093
:100A8000696E76616C696420736C65657074696DFC
:100A900065000000417373657274696F6E202225D2
:100AA0007322206661696C6564206174206C696ED4
:100AB0006520256420696E2025730A002DE9FF5FFB
:100AC00004460E4600BF002C0AD100BF42A340F2EC
:100AD0003D224DA153A0EFF72BFD00BFBDE8FF9FC6
:100AE00000BF00BF207D012808D100BF3AA34FF40A
:100AF000107256A14BA0EFF71BFD00BF00BF207D79
:100B00000A2807D121465E4803F08EFB204601F0FB
:100B100047F95FE04FF0000AD346276DD4F82480F0
:100B2000D4F89050D4F81090207DE8B9E08A38B31A
:100B300000BF54480068A04205D152480068C06810
:100B4000504908600DE04F49086806E0C168A142BD
:100B500002D1E168C16002E0C0680028F6D100BFA0
:100B600000BF0020E0600BE0B246B4F816B000BF52
:100B70002146454803F058FB01204449087000BF56
:100B8000206F10B1206F05F012FCE06E10B1E06E26
:100B900005F00DFC606F10B1606F05F008FCBAF154
:100BA000000F0AD0208B211D23464246CDE9001BB1
:100BB00002903946204605F0FFFA207D039020463A
:100BC00001F0EEF800BF1DB16FF00C014846A847D8
:100BD00000BF00BF00BF81E72E2E2F4D6964646CFB
:100BE0006577617265732F54686972645F506172D2
:100BF00074792F4C7749502F7372632F636F72652E
:100C00002F7463702E6300007463705F6162616EA5
:100C1000646F6E3A20696E76616C696420706362FD
:100C200000000000417373657274696F6E202225A5
:100C30007322206661696C6564206174206C696E42
:100C40006520256420696E2025730A00646F6E2775
:100C5000742063616C6C207463705F61626F727486
:100C60002F7463705F6162616E646F6E20666F7275
:100C7000206C697374656E2D7063627300000000F0
:100C800020020020140200201C0200202402002068
:100C900010B5044601212046FFF710FF10BD28B112
:100CA000027D012A02D10246916100BF7047000017
:100CB00070B505460C46164600BF002C08D100BF93
:100CC00007A340F20F3212A119A0EFF731FC00BFC9
:100CD00000BF2046FFF7DCFF6FF00C0070BD000086
:100CE0002E2E2F4D6964646C6577617265732F5485
:100CF000686972645F50617274792F4C7749502F24
:100D00007372632F636F72652F7463702E630000BC
:100D10007463705F6163636570745F6E756C6C3A69
:100D200020696E76616C6964207063620000000067
:100D3000417373657274696F6E2022257322206679
:100D400061696C6564206174206C696E652025643E
:100D500020696E2025730A0070B505460120FAF758
:100D600015FA04461CBB01F08FF901F03DFF01208C
:100D7000FAF70CFA0446CCB9092001F0CDFE0120A7
:100D8000FAF704FA044684B9082001F0C5FE0120F0
:100D9000FAF7FCF904463CB9284601F089FE012027
:100DA000FAF7F4F9044600BF00BF00BF00BF44B328
:100DB0009C212046EFF7CEFE0C3465724FF486601E
:100DC000A4F858004000E083A083FF2004F8010C41
:100DD0004FF40670E0840620A0866086C01FA084C1
:100DE0000120A08708480068606108480078A07466
:100DF0004FF48660E0870648A0670648C4F888007C
:100E00000C3C204670BD000010020020260200208D
:100E10007D5A010800DD6D0000B1016170470000DE
:100E20002DE9F04705460C4617464FF0040904B972
:100E30002E4C00BF002D0CD100BF2DA340F2A922E3
:100E400037A13DA0EFF774FB00BF6FF00F00BDE8C6
:100E5000F08700BF00BF287D00280BD000BF24A36F
:100E600040F2AB223EA134A0EFF762FB00BF6FF06F
:100E70000500ECE700BF37B902F0B0F907460FBB39
:100E80006FF00100E3E74FF0000819E03E4850F82A
:100E90002800066810E0F08AB8420CD146B13068EC
:100EA00030B12CB1206818B130682168884202D175
:100EB0006FF00700CBE7F668002EECD108F10108CF
:100EC000C845E3DB34B1206820B10CB9002000E054
:100ED00020682860EF8200BF2C480068E8602B483B
:100EE000056006F06DF900BF0020B0E7D0B2010840
:100EF0002E2E2F4D6964646C6577617265732F5473
:100F0000686972645F50617274792F4C7749502F11
:100F10007372632F636F72652F7463702E630000AA
:100F20007463705F62696E643A20696E76616C69A1
:100F30006420706362000000417373657274696FAE
:100F40006E2022257322206661696C6564206174BD
:100F5000206C696E6520256420696E2025730A0067
:100F60007463705F62696E643A2063616E206F6EB5
:100F70006C792062696E6420696E20737461746597
:100F800020434C4F53454400A4B2010814020020F2
:100F90002DE9F0478AB00546002009900790069099
:100FA0000026814600270024059004900390F6F760
:100FB0003DFB8046B8F1000F05D17BA0EFF7B8FAF2
:100FC0000AB0BDE8F087FCF7F8F807461FB97FA024
:100FD000EFF7AEFAF4E700218348006808F02CFC34
:100FE00081464846F4F70EFCC4B2FF2C0DD17FA019
:100FF000EFF79EFA854850F824103846F0F760FC69
:1010000002E00120FBF7ECFEFBE7804840F82450AB
:101010002046F4F7F1FD70B921467DA0EFF788FA7C
:101020007A4850F824103846F0F74AFC02E00120D4
:10103000FBF7D6FEFBE7754951F8241004AB05AA6F
:101040004868002106F0A6F82146BDF81000FEF71A
:101050000FFF012000FA04F16348006808F02DFC3E
:10106000814605A8F7F720FA8246BDF810305246AF
:10107000214671A0EFF75CFA03A9BDF81000F6F75E
:1010800099FA8FE061484068406860494968CDE955
:1010900000105E48006843685C489DF80C100268C8
:1010A0007148EFF745FA4FE000BF21466FA0EFF718
:1010B0003FFA07AA08A90998FAF772F9002838D167
:1010C0002046F6F7ABFA824606A807AB0090BDF8BB
:1010D00010105046089AF0F753FD064626BB9DF8BF
:1010E0001800012820D14FF4FA71404609F0C8F9E0
:1010F000012815D1624963A0EFF71AFA002043498D
:10110000009051F824000123BDF81C200899FBF73A
:1011100051F900231A461946404608F0B3FE0BE089
:101120005FA0EFF705FA4BE7314666A0EFF700FA4C
:1011300002E06EA0EFF7FCF90998FAF7D9F9002858
:10114000B3DA0998FAF7C4F9304951F8240009A92B
:10115000FAF7D4FE0028A7D021466BA0EFF7E8F9F4
:101160002046F6F75BFA8246F6F711FA012000FAFC
:1011700004F11D48006808F05FFBBDF81000F4F7AB
:101180004FFB012806D1214850F824103846F0F7CB
:1011900097FB02E064A0EFF7CBF902E00120FBF738
:1011A0001FFEFBE76EE700004572723A2067657428
:1011B0005F73656D5F6F626A5F657670752046412B
:1011C000494C45442121210D0A0000004572723A24
:1011D00020476574207468645F6964206661696C87
:1011E00065642121210A0000CC0000204572723A7A
:1011F0002046616C73652074616720706C61636563
:101200006D656E742121210A00000000000000209D
:101210004572723A206372656174655F71756575B8
:10122000655F7265706C79205B25645D204661693D
:101230006C65642121210A00437265617465206E2A
:10124000657720636F6E6E656374696F6E205443BB
:101250005020636C69656E74205B25645D203D3EA3
:101260002025733A25640A0040B30108446F436D9A
:101270006450726F636573732025642E2E2E0A00EE
:101280003AB001087853656D6170686F726554619A
:101290006B6520257320535543434553530D0A0076
:1012A0004572723A207853656D6170686F7265544B
:1012B000616B65204661696C6564202121210D0AFE
:1012C000000000005741524E494E473A20446F43B8
:1012D0006D6450726F63657373205B25645D206E6F
:1012E0006F207265706C79210A0000004572723AB5
:1012F000206E65746275665F646174612045727208
:101300006F722121210A0000436C6F736520636FA7
:101310006E6E656374696F6E20636C69656E7420B0
:1013200025642E2E2E0A00004572723A20636C65E9
:1013300061725F6964656E746974795F636C696515
:101340006E74204572722121210A000010B50446F6
:1013500000BF002C0BD100BF0CA34FF4F47217A1F7
:101360001CA0EFF7E5F800BF6FF00F0010BD00BF45
:10137000207D012805D000BF608B40F01000608305
:1013800000BF0121204600F039F8EFE72E2E2F4D47
:101390006964646C6577617265732F5468697264FF
:1013A0005F50617274792F4C7749502F7372632F9D
:1013B000636F72652F7463702E6300007463705FD7
:1013C000636C6F73653A20696E76616C6964207036
:1013D00063620000417373657274696F6E20222529
:1013E0007322206661696C6564206174206C696E8B
:1013F0006520256420696E2025730A003EB50446E9
:101400000D4600BF002C08D100BF55A34FF4AF72AA
:101410005FA167A0EFF78CF800BF00BF002D56D08A
:10142000207D042802D0207D072850D1A06F18B954
:10143000208DB0F5066F4AD000BFA07E00F01000EE
:1014400040B900BF46A34FF4B27263A158A0EFF7B2
:101450006FF800BF00BF208BE18A221DCDE900217B
:10146000029023462046626A216D04F0A5FE2046C4
:1014700002F06CFE00BF00BF5E480068A04205D1CC
:101480005C480068C0685B4908600DE0594908681D
:1014900006E0C168A14202D1E168C16002E0C06813
:1014A0000028F6D100BF00BF0020E06000BF01208F
:1014B0005149087000BF51480068A04202D105F0B0
:1014C0004FFF02E0204600F06BFC00203EBD207D77
:1014D00020B1012824D002283AD12CE0E08AD8B1EA
:1014E00000BF47480068A04205D145480068C06871
:1014F000434908600DE04249086806E0C168A1421E
:1015000002D1E168C16002E0C0680028F6D100BFE6
:1015100000BF0020E06000BF204600F041FC1BE05F
:10152000204601F07FFB2146364802F07DFE204632
:1015300000F02EFD10E000BF21462E4802F074FEA0
:1015400001202D49087000BF204600F029FC03E06F
:10155000204600F059F8B9E700BF0020B6E70000C8
:101560002E2E2F4D6964646C6577617265732F54FC
:10157000686972645F50617274792F4C7749502F9B
:101580007372632F636F72652F7463702E63000034
:101590007463705F636C6F73655F73687574646F99
:1015A000776E3A20696E76616C69642070636200C0
:1015B000417373657274696F6E20222573222066F1
:1015C00061696C6564206174206C696E65202564B6
:1015D00020696E2025730A007063622D3E666C617F
:1015E000677320262054465F5258434C4F5345445E
:1015F000000000001C0200202402002050020020F5
:10160000140200201802002070B5054600BF45B93D
:1016100000BF1EA34FF4CE7228A12BA0EEF788FFC7
:1016200000BF00BF287D032804D004280AD0072863
:1016300018D10FE0284604F067FF04460CB90520D6
:10164000287511E0284604F05FFF04460CB9052018
:10165000287509E0284604F057FF04460CB9092014
:10166000287501E0002070BD00BF1CB9284601F0BC
:10167000D7FE09E0601C38B900BF688B40F0080055
:10168000688300BF0020EEE72046ECE72E2E2F4DAA
:101690006964646C6577617265732F5468697264FC
:1016A0005F50617274792F4C7749502F7372632F9A
:1016B000636F72652F7463702E6300007063622025
:1016C000213D204E554C4C00417373657274696F17
:1016D0006E2022257322206661696C656420617426
:1016E000206C696E6520256420696E2025730A00D0
:1016F0002DE9F05F80460D4691469A460A9F00BF4D
:10170000B8F1000F07D100BF40A3A3224CA154A001
:10171000EEF70EFF00BF00BF00BF002D07D100BFD6
:101720003AA3A42258A14EA0EEF702FF00BF00BFCB
:1017300007F0010008B1042000E0002007F00201DA
:1017400009B1002100E00021084407F0080109B1B7
:10175000002100E00021084407F0100109B1002138
:1017600000E0002146180320F9F710FD041E05D102
:101770002846FCF78DFC0020BDE8F09FA7720020F2
:101780002060656000BF2889B04207DA00BF1FA350
:10179000B02246A132A0EEF7CBFE00BF00BF2889E1
:1017A000801B208114212846FBF75EFF20B12046D4
:1017B00004F0F0FD0020DFE760684068E060B8F802
:1017C0001600F7F78EFDE1680880B8F81800F7F703
:1017D00088FDE16848805046F7F776FDE16848608B
:1017E000B346F11706EB91718910491D4FF6FF7250
:1017F00002EA013141EA0900F7F773FDE1688881E7
:101800000020E16848822046B6E700002E2E2F4DCA
:101810006964646C6577617265732F54686972647A
:101820005F50617274792F4C7749502F7372632F18
:10183000636F72652F7463705F6F75742E63000041
:101840007463705F6372656174655F7365676D650E
:101850006E743A20696E76616C6964207063620010
:10186000417373657274696F6E202225732220663E
:1018700061696C6564206174206C696E6520256403
:1018800020696E2025730A007463705F637265615E
:1018900074655F7365676D656E743A20696E766115
:1018A0006C6964207062756600000000702D3E74E3
:1018B0006F745F6C656E203E3D206F70746C656E5A
:1018C000000000002DE9F04106460D46174600BF16
:1018D000002F08D100BF10A340F6C5021AA124A012
:1018E000EEF726FE00BF00BF15B93046BDE8F08117
:1018F000AC8C74B12820844202DD211A89B200E048
:1019000000218846464501DA314600E041460E4650
:1019100000BF3046EAE700002E2E2F4D6964646C4C
:101920006577617265732F54686972645F50617284
:1019300074792F4C7749502F7372632F636F7265E0
:101940002F7463702E6300007463705F6566665F5A
:1019500073656E645F6D73735F6E657469663A205C
:10196000696E76616C6964206473745F69700000ED
:10197000417373657274696F6E202225732220662D
:1019800061696C6564206174206C696E65202564F2
:1019900020696E2025730A002DE9F84304460D46A0
:1019A0000027B94600BF05F0030040B900BF60A39F
:1019B00040F211426B496CA0EEF7BAFD00BF00BFC8
:1019C00000BF002C08D100BF59A340F2134270A100
:1019D00065A0EEF7ADFD00BF00BF05F0020000B14D
:1019E000012707F0010008B1042000E0002007F003
:1019F000020109B1002100E00021084407F00801BC
:101A000009B1002100E00021084407F0100109B1EC
:101A1000002100E0002100EB01094FF4207249464B
:101A20003620FBF79FFEB0F1000809D100BF608BA4
:101A300040F08000608300BF4FF0FF30BDE8F883C6
:101A400000BFB8F80A00484508DA00BF38A340F2E2
:101A5000394257A144A0EEF76BFD00BF00BF0097CD
:101A60002A4641462046E36DFFF742FE061E07D197
:101A700000BF608B40F08000608300BF701EDDE718
:101A800000BF307B00F0030040B100BF28A340F24C
:101A9000424256A134A0EEF74BFD00BF00BF00BF8D
:101AA000308940B100BF22A340F2434255A12EA08D
:101AB000EEF73EFD00BF00BFE06E08B9E66607E046
:101AC000E06E00E0006801680029FBD1066000BFFD
:101AD0000020A4F8680005F0020010B905F001002C
:101AE00010B1E06D401CE06505F0010028B100BFB9
:101AF000608B40F02000608300BF7068FCF7B2F894
:101B000034F8661F0844208034F8660970B100BFBD
:101B1000206F50B9E06E40B900BF05A340F26542A6
:101B200043A111A0EEF704FD00BF00BF002085E730
:101B30002E2E2F4D6964646C6577617265732F5426
:101B4000686972645F50617274792F4C7749502FC5
:101B50007372632F636F72652F7463705F6F757438
:101B60002E63000090B50108417373657274696F4C
:101B70006E2022257322206661696C656420617481
:101B8000206C696E6520256420696E2025730A002B
:101B90007463705F656E71756575655F666C6167AE
:101BA000733A20696E76616C69642070636200002C
:101BB0007463705F656E71756575655F666C61678E
:101BC000733A20636865636B20746861742066698A
:101BD00072737420706275662063616E20686F6C2A
:101BE00064206F70746C656E000000007365672D73
:101BF0003E746370686472206E6F7420616C6967F4
